{
  "contractName": "DutchAuction",
  "abi": [
    {
      "inputs": [],
      "stateMutability": "nonpayable",
      "type": "constructor"
    },
    {
      "anonymous": false,
      "inputs": [
        {
          "indexed": true,
          "internalType": "uint256",
          "name": "auctionIndex",
          "type": "uint256"
        }
      ],
      "name": "AuctionClosed",
      "type": "event"
    },
    {
      "anonymous": false,
      "inputs": [
        {
          "indexed": true,
          "internalType": "uint256",
          "name": "articleIndex",
          "type": "uint256"
        },
        {
          "indexed": true,
          "internalType": "address",
          "name": "bidder",
          "type": "address"
        },
        {
          "indexed": false,
          "internalType": "uint256",
          "name": "amount",
          "type": "uint256"
        }
      ],
      "name": "BidPlaced",
      "type": "event"
    },
    {
      "anonymous": false,
      "inputs": [
        {
          "indexed": false,
          "internalType": "string",
          "name": "message",
          "type": "string"
        },
        {
          "indexed": false,
          "internalType": "uint256",
          "name": "value",
          "type": "uint256"
        }
      ],
      "name": "Log",
      "type": "event"
    },
    {
      "inputs": [],
      "name": "AUCTION_DURATION",
      "outputs": [
        {
          "internalType": "uint256",
          "name": "",
          "type": "uint256"
        }
      ],
      "stateMutability": "view",
      "type": "function",
      "constant": true
    },
    {
      "inputs": [],
      "name": "INTERVAL",
      "outputs": [
        {
          "internalType": "uint256",
          "name": "",
          "type": "uint256"
        }
      ],
      "stateMutability": "view",
      "type": "function",
      "constant": true
    },
    {
      "inputs": [],
      "name": "PRICE_DECREMENT",
      "outputs": [
        {
          "internalType": "uint256",
          "name": "",
          "type": "uint256"
        }
      ],
      "stateMutability": "view",
      "type": "function",
      "constant": true
    },
    {
      "inputs": [],
      "name": "RESERVE_PRICE",
      "outputs": [
        {
          "internalType": "uint256",
          "name": "",
          "type": "uint256"
        }
      ],
      "stateMutability": "view",
      "type": "function",
      "constant": true
    },
    {
      "inputs": [],
      "name": "STARTING_PRICE",
      "outputs": [
        {
          "internalType": "uint256",
          "name": "",
          "type": "uint256"
        }
      ],
      "stateMutability": "view",
      "type": "function",
      "constant": true
    },
    {
      "inputs": [
        {
          "internalType": "uint256",
          "name": "",
          "type": "uint256"
        }
      ],
      "name": "auctions",
      "outputs": [
        {
          "internalType": "uint256",
          "name": "id",
          "type": "uint256"
        },
        {
          "internalType": "string",
          "name": "name",
          "type": "string"
        },
        {
          "internalType": "uint256",
          "name": "currentArticleIndex",
          "type": "uint256"
        },
        {
          "internalType": "address",
          "name": "auctioneer",
          "type": "address"
        },
        {
          "internalType": "uint256",
          "name": "auctionStartTime",
          "type": "uint256"
        },
        {
          "internalType": "uint256",
          "name": "startTimeCurrentAuction",
          "type": "uint256"
        },
        {
          "internalType": "bool",
          "name": "closed",
          "type": "bool"
        }
      ],
      "stateMutability": "view",
      "type": "function",
      "constant": true
    },
    {
      "inputs": [],
      "name": "startBlock",
      "outputs": [
        {
          "internalType": "uint256",
          "name": "",
          "type": "uint256"
        }
      ],
      "stateMutability": "view",
      "type": "function",
      "constant": true
    },
    {
      "inputs": [
        {
          "internalType": "uint256",
          "name": "auctionIndex",
          "type": "uint256"
        }
      ],
      "name": "getArticles",
      "outputs": [
        {
          "components": [
            {
              "internalType": "uint256",
              "name": "id",
              "type": "uint256"
            },
            {
              "internalType": "string",
              "name": "name",
              "type": "string"
            },
            {
              "internalType": "uint256",
              "name": "currentPrice",
              "type": "uint256"
            },
            {
              "internalType": "address",
              "name": "winningBidder",
              "type": "address"
            },
            {
              "internalType": "bool",
              "name": "closed",
              "type": "bool"
            },
            {
              "internalType": "uint256",
              "name": "bought",
              "type": "uint256"
            },
            {
              "internalType": "uint256",
              "name": "boughtFor",
              "type": "uint256"
            }
          ],
          "internalType": "struct DutchAuction.Article[]",
          "name": "",
          "type": "tuple[]"
        }
      ],
      "stateMutability": "view",
      "type": "function",
      "constant": true
    },
    {
      "inputs": [
        {
          "internalType": "uint256",
          "name": "auctionIndex",
          "type": "uint256"
        }
      ],
      "name": "getCurrentArticle",
      "outputs": [
        {
          "components": [
            {
              "internalType": "uint256",
              "name": "id",
              "type": "uint256"
            },
            {
              "internalType": "string",
              "name": "name",
              "type": "string"
            },
            {
              "internalType": "uint256",
              "name": "currentPrice",
              "type": "uint256"
            },
            {
              "internalType": "address",
              "name": "winningBidder",
              "type": "address"
            },
            {
              "internalType": "bool",
              "name": "closed",
              "type": "bool"
            },
            {
              "internalType": "uint256",
              "name": "bought",
              "type": "uint256"
            },
            {
              "internalType": "uint256",
              "name": "boughtFor",
              "type": "uint256"
            }
          ],
          "internalType": "struct DutchAuction.Article",
          "name": "",
          "type": "tuple"
        }
      ],
      "stateMutability": "view",
      "type": "function",
      "constant": true
    },
    {
      "inputs": [
        {
          "internalType": "uint256",
          "name": "auctionIndex",
          "type": "uint256"
        }
      ],
      "name": "getArticleNames",
      "outputs": [
        {
          "internalType": "string[]",
          "name": "",
          "type": "string[]"
        }
      ],
      "stateMutability": "view",
      "type": "function",
      "constant": true
    },
    {
      "inputs": [
        {
          "internalType": "uint256",
          "name": "auctionIndex",
          "type": "uint256"
        }
      ],
      "name": "getOpenArticles",
      "outputs": [
        {
          "components": [
            {
              "internalType": "uint256",
              "name": "id",
              "type": "uint256"
            },
            {
              "internalType": "string",
              "name": "name",
              "type": "string"
            },
            {
              "internalType": "uint256",
              "name": "currentPrice",
              "type": "uint256"
            },
            {
              "internalType": "address",
              "name": "winningBidder",
              "type": "address"
            },
            {
              "internalType": "bool",
              "name": "closed",
              "type": "bool"
            },
            {
              "internalType": "uint256",
              "name": "bought",
              "type": "uint256"
            },
            {
              "internalType": "uint256",
              "name": "boughtFor",
              "type": "uint256"
            }
          ],
          "internalType": "struct DutchAuction.Article[]",
          "name": "",
          "type": "tuple[]"
        }
      ],
      "stateMutability": "view",
      "type": "function",
      "constant": true
    },
    {
      "inputs": [],
      "name": "getOpenAuctions",
      "outputs": [
        {
          "components": [
            {
              "internalType": "uint256",
              "name": "id",
              "type": "uint256"
            },
            {
              "internalType": "string",
              "name": "name",
              "type": "string"
            },
            {
              "internalType": "uint256",
              "name": "currentArticleIndex",
              "type": "uint256"
            },
            {
              "internalType": "address",
              "name": "auctioneer",
              "type": "address"
            },
            {
              "components": [
                {
                  "internalType": "uint256",
                  "name": "id",
                  "type": "uint256"
                },
                {
                  "internalType": "string",
                  "name": "name",
                  "type": "string"
                },
                {
                  "internalType": "uint256",
                  "name": "currentPrice",
                  "type": "uint256"
                },
                {
                  "internalType": "address",
                  "name": "winningBidder",
                  "type": "address"
                },
                {
                  "internalType": "bool",
                  "name": "closed",
                  "type": "bool"
                },
                {
                  "internalType": "uint256",
                  "name": "bought",
                  "type": "uint256"
                },
                {
                  "internalType": "uint256",
                  "name": "boughtFor",
                  "type": "uint256"
                }
              ],
              "internalType": "struct DutchAuction.Article[]",
              "name": "articles",
              "type": "tuple[]"
            },
            {
              "internalType": "uint256",
              "name": "auctionStartTime",
              "type": "uint256"
            },
            {
              "internalType": "uint256",
              "name": "startTimeCurrentAuction",
              "type": "uint256"
            },
            {
              "internalType": "bool",
              "name": "closed",
              "type": "bool"
            }
          ],
          "internalType": "struct DutchAuction.Auction[]",
          "name": "",
          "type": "tuple[]"
        }
      ],
      "stateMutability": "view",
      "type": "function",
      "constant": true
    },
    {
      "inputs": [
        {
          "internalType": "address",
          "name": "auctioneer",
          "type": "address"
        }
      ],
      "name": "getAuctionsFor",
      "outputs": [
        {
          "components": [
            {
              "internalType": "uint256",
              "name": "id",
              "type": "uint256"
            },
            {
              "internalType": "string",
              "name": "name",
              "type": "string"
            },
            {
              "internalType": "uint256",
              "name": "currentArticleIndex",
              "type": "uint256"
            },
            {
              "internalType": "address",
              "name": "auctioneer",
              "type": "address"
            },
            {
              "components": [
                {
                  "internalType": "uint256",
                  "name": "id",
                  "type": "uint256"
                },
                {
                  "internalType": "string",
                  "name": "name",
                  "type": "string"
                },
                {
                  "internalType": "uint256",
                  "name": "currentPrice",
                  "type": "uint256"
                },
                {
                  "internalType": "address",
                  "name": "winningBidder",
                  "type": "address"
                },
                {
                  "internalType": "bool",
                  "name": "closed",
                  "type": "bool"
                },
                {
                  "internalType": "uint256",
                  "name": "bought",
                  "type": "uint256"
                },
                {
                  "internalType": "uint256",
                  "name": "boughtFor",
                  "type": "uint256"
                }
              ],
              "internalType": "struct DutchAuction.Article[]",
              "name": "articles",
              "type": "tuple[]"
            },
            {
              "internalType": "uint256",
              "name": "auctionStartTime",
              "type": "uint256"
            },
            {
              "internalType": "uint256",
              "name": "startTimeCurrentAuction",
              "type": "uint256"
            },
            {
              "internalType": "bool",
              "name": "closed",
              "type": "bool"
            }
          ],
          "internalType": "struct DutchAuction.Auction[]",
          "name": "",
          "type": "tuple[]"
        }
      ],
      "stateMutability": "view",
      "type": "function",
      "constant": true
    },
    {
      "inputs": [],
      "name": "getClosedAuctions",
      "outputs": [
        {
          "components": [
            {
              "internalType": "uint256",
              "name": "id",
              "type": "uint256"
            },
            {
              "internalType": "string",
              "name": "name",
              "type": "string"
            },
            {
              "internalType": "uint256",
              "name": "currentArticleIndex",
              "type": "uint256"
            },
            {
              "internalType": "address",
              "name": "auctioneer",
              "type": "address"
            },
            {
              "components": [
                {
                  "internalType": "uint256",
                  "name": "id",
                  "type": "uint256"
                },
                {
                  "internalType": "string",
                  "name": "name",
                  "type": "string"
                },
                {
                  "internalType": "uint256",
                  "name": "currentPrice",
                  "type": "uint256"
                },
                {
                  "internalType": "address",
                  "name": "winningBidder",
                  "type": "address"
                },
                {
                  "internalType": "bool",
                  "name": "closed",
                  "type": "bool"
                },
                {
                  "internalType": "uint256",
                  "name": "bought",
                  "type": "uint256"
                },
                {
                  "internalType": "uint256",
                  "name": "boughtFor",
                  "type": "uint256"
                }
              ],
              "internalType": "struct DutchAuction.Article[]",
              "name": "articles",
              "type": "tuple[]"
            },
            {
              "internalType": "uint256",
              "name": "auctionStartTime",
              "type": "uint256"
            },
            {
              "internalType": "uint256",
              "name": "startTimeCurrentAuction",
              "type": "uint256"
            },
            {
              "internalType": "bool",
              "name": "closed",
              "type": "bool"
            }
          ],
          "internalType": "struct DutchAuction.Auction[]",
          "name": "",
          "type": "tuple[]"
        }
      ],
      "stateMutability": "view",
      "type": "function",
      "constant": true
    },
    {
      "inputs": [
        {
          "internalType": "uint256",
          "name": "auctionIndex",
          "type": "uint256"
        }
      ],
      "name": "getClosedArticles",
      "outputs": [
        {
          "components": [
            {
              "internalType": "uint256",
              "name": "id",
              "type": "uint256"
            },
            {
              "internalType": "string",
              "name": "name",
              "type": "string"
            },
            {
              "internalType": "uint256",
              "name": "currentPrice",
              "type": "uint256"
            },
            {
              "internalType": "address",
              "name": "winningBidder",
              "type": "address"
            },
            {
              "internalType": "bool",
              "name": "closed",
              "type": "bool"
            },
            {
              "internalType": "uint256",
              "name": "bought",
              "type": "uint256"
            },
            {
              "internalType": "uint256",
              "name": "boughtFor",
              "type": "uint256"
            }
          ],
          "internalType": "struct DutchAuction.Article[]",
          "name": "",
          "type": "tuple[]"
        }
      ],
      "stateMutability": "view",
      "type": "function",
      "constant": true
    },
    {
      "inputs": [
        {
          "internalType": "uint256",
          "name": "auctionIndex",
          "type": "uint256"
        }
      ],
      "name": "getCurrentPrice",
      "outputs": [
        {
          "internalType": "uint256",
          "name": "",
          "type": "uint256"
        }
      ],
      "stateMutability": "view",
      "type": "function",
      "constant": true
    },
    {
      "inputs": [
        {
          "internalType": "uint256",
          "name": "auctionIndex",
          "type": "uint256"
        }
      ],
      "name": "getStartTime",
      "outputs": [
        {
          "internalType": "uint256",
          "name": "",
          "type": "uint256"
        }
      ],
      "stateMutability": "view",
      "type": "function",
      "constant": true
    },
    {
      "inputs": [
        {
          "internalType": "uint256",
          "name": "auctionIndex",
          "type": "uint256"
        }
      ],
      "name": "getElapsedTime",
      "outputs": [
        {
          "internalType": "uint256",
          "name": "",
          "type": "uint256"
        }
      ],
      "stateMutability": "view",
      "type": "function",
      "constant": true
    },
    {
      "inputs": [],
      "name": "getTimeStamp",
      "outputs": [
        {
          "internalType": "uint256",
          "name": "",
          "type": "uint256"
        }
      ],
      "stateMutability": "view",
      "type": "function",
      "constant": true
    },
    {
      "inputs": [],
      "name": "getAuctions",
      "outputs": [
        {
          "components": [
            {
              "internalType": "uint256",
              "name": "id",
              "type": "uint256"
            },
            {
              "internalType": "string",
              "name": "name",
              "type": "string"
            },
            {
              "internalType": "uint256",
              "name": "currentArticleIndex",
              "type": "uint256"
            },
            {
              "internalType": "address",
              "name": "auctioneer",
              "type": "address"
            },
            {
              "components": [
                {
                  "internalType": "uint256",
                  "name": "id",
                  "type": "uint256"
                },
                {
                  "internalType": "string",
                  "name": "name",
                  "type": "string"
                },
                {
                  "internalType": "uint256",
                  "name": "currentPrice",
                  "type": "uint256"
                },
                {
                  "internalType": "address",
                  "name": "winningBidder",
                  "type": "address"
                },
                {
                  "internalType": "bool",
                  "name": "closed",
                  "type": "bool"
                },
                {
                  "internalType": "uint256",
                  "name": "bought",
                  "type": "uint256"
                },
                {
                  "internalType": "uint256",
                  "name": "boughtFor",
                  "type": "uint256"
                }
              ],
              "internalType": "struct DutchAuction.Article[]",
              "name": "articles",
              "type": "tuple[]"
            },
            {
              "internalType": "uint256",
              "name": "auctionStartTime",
              "type": "uint256"
            },
            {
              "internalType": "uint256",
              "name": "startTimeCurrentAuction",
              "type": "uint256"
            },
            {
              "internalType": "bool",
              "name": "closed",
              "type": "bool"
            }
          ],
          "internalType": "struct DutchAuction.Auction[]",
          "name": "",
          "type": "tuple[]"
        }
      ],
      "stateMutability": "view",
      "type": "function",
      "constant": true
    },
    {
      "inputs": [
        {
          "internalType": "uint256",
          "name": "id",
          "type": "uint256"
        }
      ],
      "name": "getAuction",
      "outputs": [
        {
          "components": [
            {
              "internalType": "uint256",
              "name": "id",
              "type": "uint256"
            },
            {
              "internalType": "string",
              "name": "name",
              "type": "string"
            },
            {
              "internalType": "uint256",
              "name": "currentArticleIndex",
              "type": "uint256"
            },
            {
              "internalType": "address",
              "name": "auctioneer",
              "type": "address"
            },
            {
              "components": [
                {
                  "internalType": "uint256",
                  "name": "id",
                  "type": "uint256"
                },
                {
                  "internalType": "string",
                  "name": "name",
                  "type": "string"
                },
                {
                  "internalType": "uint256",
                  "name": "currentPrice",
                  "type": "uint256"
                },
                {
                  "internalType": "address",
                  "name": "winningBidder",
                  "type": "address"
                },
                {
                  "internalType": "bool",
                  "name": "closed",
                  "type": "bool"
                },
                {
                  "internalType": "uint256",
                  "name": "bought",
                  "type": "uint256"
                },
                {
                  "internalType": "uint256",
                  "name": "boughtFor",
                  "type": "uint256"
                }
              ],
              "internalType": "struct DutchAuction.Article[]",
              "name": "articles",
              "type": "tuple[]"
            },
            {
              "internalType": "uint256",
              "name": "auctionStartTime",
              "type": "uint256"
            },
            {
              "internalType": "uint256",
              "name": "startTimeCurrentAuction",
              "type": "uint256"
            },
            {
              "internalType": "bool",
              "name": "closed",
              "type": "bool"
            }
          ],
          "internalType": "struct DutchAuction.Auction",
          "name": "",
          "type": "tuple"
        }
      ],
      "stateMutability": "view",
      "type": "function",
      "constant": true
    },
    {
      "inputs": [
        {
          "internalType": "uint256",
          "name": "articleIndex",
          "type": "uint256"
        },
        {
          "internalType": "uint256",
          "name": "auctionIndex",
          "type": "uint256"
        }
      ],
      "name": "placeBid",
      "outputs": [],
      "stateMutability": "payable",
      "type": "function",
      "payable": true
    },
    {
      "inputs": [
        {
          "internalType": "uint256",
          "name": "auctionIndex",
          "type": "uint256"
        }
      ],
      "name": "closeAuction",
      "outputs": [],
      "stateMutability": "nonpayable",
      "type": "function"
    },
    {
      "inputs": [
        {
          "internalType": "uint256",
          "name": "auctionIndex",
          "type": "uint256"
        }
      ],
      "name": "openAuction",
      "outputs": [],
      "stateMutability": "nonpayable",
      "type": "function"
    },
    {
      "inputs": [
        {
          "internalType": "string",
          "name": "name",
          "type": "string"
        },
        {
          "internalType": "string[]",
          "name": "articles",
          "type": "string[]"
        },
        {
          "internalType": "bool",
          "name": "closed",
          "type": "bool"
        }
      ],
      "name": "createAuction",
      "outputs": [],
      "stateMutability": "nonpayable",
      "type": "function"
    }
  ],
  "bytecode": "0x60806040523480156200001157600080fd5b50436000819055507fdd970dd9b5bfe707922155b058a407655cb18288b807e2216442bca8ad83d6b5426040516200004a9190620007d4565b60405180910390a16000600467ffffffffffffffff81111562000072576200007162000806565b5b604051908082528060200260200182016040528015620000a757816020015b6060815260200190600190039081620000915790505b5090506040518060400160405280600981526020017f41727469636c652031000000000000000000000000000000000000000000000081525081600081518110620000f757620000f662000835565b5b60200260200101819052506040518060400160405280600981526020017f41727469636c6520320000000000000000000000000000000000000000000000815250816001815181106200014f576200014e62000835565b5b60200260200101819052506040518060400160405280600981526020017f41727469636c652033000000000000000000000000000000000000000000000081525081600281518110620001a757620001a662000835565b5b60200260200101819052506040518060400160405280600981526020017f41727469636c652034000000000000000000000000000000000000000000000081525081600381518110620001ff57620001fe62000835565b5b6020026020010181905250620002536040518060400160405280600981526020017f41756374696f6e203100000000000000000000000000000000000000000000008152508260006200040460201b60201c565b6000600367ffffffffffffffff81111562000273576200027262000806565b5b604051908082528060200260200182016040528015620002a857816020015b6060815260200190600190039081620002925790505b5090506040518060400160405280600781526020017f4368656d6973650000000000000000000000000000000000000000000000000081525081600081518110620002f857620002f762000835565b5b60200260200101819052506040518060400160405280600281526020017f50430000000000000000000000000000000000000000000000000000000000008152508160018151811062000350576200034f62000835565b5b60200260200101819052506040518060400160405280600681526020017f56616c697365000000000000000000000000000000000000000000000000000081525081600281518110620003a857620003a762000835565b5b6020026020010181905250620003fc6040518060400160405280600981526020017f41756374696f6e203200000000000000000000000000000000000000000000008152508260006200040460201b60201c565b505062000a01565b6000600180549050905060003390506000429050600081905060006001808160018154018082558091505003906000526020600020906008020190508481600001819055508781600101908051906020019062000463929190620006a8565b5060008160020181905550838160030160006101000a81548173ffffffffffffffffffffffffffffffffffffffff021916908373ffffffffffffffffffffffffffffffffffffffff160217905550828160050181905550818160060181905550858160070160006101000a81548160ff0219169083151502179055506000600190505b875181116200066457816004016040518060e001604052808381526020018a60018562000514919062000893565b8151811062000528576200052762000835565b5b60200260200101518152602001670de0b6b3a76400008152602001600073ffffffffffffffffffffffffffffffffffffffff1681526020016000151581526020016000815260200160008152509080600181540180825580915050600190039060005260206000209060060201600090919091909150600082015181600001556020820151816001019080519060200190620005c6929190620006a8565b506040820151816002015560608201518160030160006101000a81548173ffffffffffffffffffffffffffffffffffffffff021916908373ffffffffffffffffffffffffffffffffffffffff16021790555060808201518160030160146101000a81548160ff02191690831515021790555060a0820151816004015560c08201518160050155505080806200065b90620008ce565b915050620004e6565b507fdd970dd9b5bfe707922155b058a407655cb18288b807e2216442bca8ad83d6b5836040516200069691906200096b565b60405180910390a15050505050505050565b828054620006b690620009cc565b90600052602060002090601f016020900481019282620006da576000855562000726565b82601f10620006f557805160ff191683800117855562000726565b8280016001018555821562000726579182015b828111156200072557825182559160200191906001019062000708565b5b50905062000735919062000739565b5090565b5b80821115620007545760008160009055506001016200073a565b5090565b600082825260208201905092915050565b7f437265617465436f6e74726163743a0000000000000000000000000000000000600082015250565b6000620007a1600f8362000758565b9150620007ae8262000769565b602082019050919050565b6000819050919050565b620007ce81620007b9565b82525050565b60006040820190508181036000830152620007ef8162000792565b9050620008006020830184620007c3565b92915050565b7f4e487b7100000000000000000000000000000000000000000000000000000000600052604160045260246000fd5b7f4e487b7100000000000000000000000000000000000000000000000000000000600052603260045260246000fd5b7f4e487b7100000000000000000000000000000000000000000000000000000000600052601160045260246000fd5b6000620008a082620007b9565b9150620008ad83620007b9565b925082821015620008c357620008c262000864565b5b828203905092915050565b6000620008db82620007b9565b91507fffffffffffffffffffffffffffffffffffffffffffffffffffffffffffffffff820362000910576200090f62000864565b5b600182019050919050565b7f4372656174652041756374696f6e3a0000000000000000000000000000000000600082015250565b600062000953600f8362000758565b915062000960826200091b565b602082019050919050565b60006040820190508181036000830152620009868162000944565b9050620009976020830184620007c3565b92915050565b7f4e487b7100000000000000000000000000000000000000000000000000000000600052602260045260246000fd5b60006002820490506001821680620009e557607f821691505b602082108103620009fb57620009fa6200099d565b5b50919050565b614b828062000a116000396000f3fe6080604052600436106101665760003560e01c8063a271e525116100d1578063cd7ca1e01161008a578063da235b2211610064578063da235b2214610597578063dd21d604146105c2578063e9561822146105ed578063f1ead3d61461061857610166565b8063cd7ca1e014610504578063d12f702914610541578063d7c069191461056c57610166565b8063a271e525146103ba578063a35dfd38146103e5578063b05940f214610422578063bc2be1be1461044d578063c55d0f561461048a578063c755cebc146104c757610166565b8063571a26a011610123578063571a26a01461029f57806357c90de5146102e257806368e29d18146102fe57806378bd793514610327578063822e06fd1461036457806389facb201461038f57610166565b80631edc8f911461016b578063236ed8f314610194578063413170a9146101bd57806348cd4cb1146101fa57806349cb9eb814610225578063557a0b1814610262575b600080fd5b34801561017757600080fd5b50610192600480360381019061018d91906137e6565b610655565b005b3480156101a057600080fd5b506101bb60048036038101906101b691906137e6565b610831565b005b3480156101c957600080fd5b506101e460048036038101906101df91906137e6565b61089e565b6040516101f19190613a75565b60405180910390f35b34801561020657600080fd5b5061020f610a4d565b60405161021c9190613aa6565b60405180910390f35b34801561023157600080fd5b5061024c600480360381019061024791906137e6565b610a53565b6040516102599190613a75565b60405180910390f35b34801561026e57600080fd5b50610289600480360381019061028491906137e6565b610e4e565b6040516102969190613b5d565b60405180910390f35b3480156102ab57600080fd5b506102c660048036038101906102c191906137e6565b610ffd565b6040516102d99796959493929190613be7565b60405180910390f35b6102fc60048036038101906102f79190613c5d565b611104565b005b34801561030a57600080fd5b5061032560048036038101906103209190613ee4565b61173a565b005b34801561033357600080fd5b5061034e600480360381019061034991906137e6565b6119cf565b60405161035b91906140ac565b60405180910390f35b34801561037057600080fd5b50610379611cc1565b6040516103869190614247565b60405180910390f35b34801561039b57600080fd5b506103a46120fd565b6040516103b19190613aa6565b60405180910390f35b3480156103c657600080fd5b506103cf612102565b6040516103dc9190613aa6565b60405180910390f35b3480156103f157600080fd5b5061040c600480360381019061040791906137e6565b612108565b604051610419919061432b565b60405180910390f35b34801561042e57600080fd5b506104376122c3565b6040516104449190614247565b60405180910390f35b34801561045957600080fd5b50610474600480360381019061046f91906137e6565b6126fd565b6040516104819190613aa6565b60405180910390f35b34801561049657600080fd5b506104b160048036038101906104ac91906137e6565b61272c565b6040516104be9190613aa6565b60405180910390f35b3480156104d357600080fd5b506104ee60048036038101906104e991906137e6565b61279f565b6040516104fb9190613aa6565b60405180910390f35b34801561051057600080fd5b5061052b600480360381019061052691906137e6565b6127e0565b6040516105389190613a75565b60405180910390f35b34801561054d57600080fd5b50610556612c22565b6040516105639190613aa6565b60405180910390f35b34801561057857600080fd5b50610581612c2e565b60405161058e9190614247565b60405180910390f35b3480156105a357600080fd5b506105ac612f43565b6040516105b99190613aa6565b60405180910390f35b3480156105ce57600080fd5b506105d7612f50565b6040516105e49190613aa6565b60405180910390f35b3480156105f957600080fd5b50610602612f5c565b60405161060f9190613aa6565b60405180910390f35b34801561062457600080fd5b5061063f600480360381019061063a9190614379565b612f68565b60405161064c9190614247565b60405180910390f35b6000805b6001838154811061066d5761066c6143a6565b5b906000526020600020906008020160040180549050811015610705576001838154811061069d5761069c6143a6565b5b906000526020600020906008020160040181815481106106c0576106bf6143a6565b5b906000526020600020906006020160030160149054906101000a900460ff166106f25781806106ee90614404565b9250505b80806106fd90614404565b915050610659565b5060008111610749576040517f08c379a0000000000000000000000000000000000000000000000000000000008152600401610740906144be565b60405180910390fd5b60006001838154811061075f5761075e6143a6565b5b906000526020600020906008020160070160006101000a81548160ff021916908315150217905550426001838154811061079c5761079b6143a6565b5b906000526020600020906008020160050181905550600182815481106107c5576107c46143a6565b5b906000526020600020906008020160050154600183815481106107eb576107ea6143a6565b5b906000526020600020906008020160060181905550817fac4a907ec29adcc56774b757ecb1e1b4d597374fc9386107d05e2670259df7d360405160405180910390a25050565b6001808281548110610846576108456143a6565b5b906000526020600020906008020160070160006101000a81548160ff021916908315150217905550807fac4a907ec29adcc56774b757ecb1e1b4d597374fc9386107d05e2670259df7d360405160405180910390a250565b6060600182815481106108b4576108b36143a6565b5b9060005260206000209060080201600401805480602002602001604051908101604052809291908181526020016000905b82821015610a4257838290600052602060002090600602016040518060e0016040529081600082015481526020016001820180546109229061450d565b80601f016020809104026020016040519081016040528092919081815260200182805461094e9061450d565b801561099b5780601f106109705761010080835404028352916020019161099b565b820191906000526020600020905b81548152906001019060200180831161097e57829003601f168201915b50505050508152602001600282015481526020016003820160009054906101000a900473ffffffffffffffffffffffffffffffffffffffff1673ffffffffffffffffffffffffffffffffffffffff1673ffffffffffffffffffffffffffffffffffffffff1681526020016003820160149054906101000a900460ff1615151515815260200160048201548152602001600582015481525050815260200190600101906108e5565b505050509050919050565b60005481565b6060600060018381548110610a6b57610a6a6143a6565b5b906000526020600020906008020160070160009054906101000a900460ff16610deb5760005b60018481548110610aa557610aa46143a6565b5b906000526020600020906008020160040180549050811015610b3d5760018481548110610ad557610ad46143a6565b5b90600052602060002090600802016004018181548110610af857610af76143a6565b5b906000526020600020906006020160030160149054906101000a900460ff16610b2a578180610b2690614404565b9250505b8080610b3590614404565b915050610a91565b5060008167ffffffffffffffff811115610b5a57610b59613ca7565b5b604051908082528060200260200182016040528015610b9357816020015b610b80613647565b815260200190600190039081610b785790505b5090506000805b60018681548110610bae57610bad6143a6565b5b906000526020600020906008020160040180549050811015610ddf5760018681548110610bde57610bdd6143a6565b5b90600052602060002090600802016004018181548110610c0157610c006143a6565b5b906000526020600020906006020160030160149054906101000a900460ff16610dcc5760018681548110610c3857610c376143a6565b5b90600052602060002090600802016004018181548110610c5b57610c5a6143a6565b5b90600052602060002090600602016040518060e001604052908160008201548152602001600182018054610c8e9061450d565b80601f0160208091040260200160405190810160405280929190818152602001828054610cba9061450d565b8015610d075780601f10610cdc57610100808354040283529160200191610d07565b820191906000526020600020905b815481529060010190602001808311610cea57829003601f168201915b50505050508152602001600282015481526020016003820160009054906101000a900473ffffffffffffffffffffffffffffffffffffffff1673ffffffffffffffffffffffffffffffffffffffff1673ffffffffffffffffffffffffffffffffffffffff1681526020016003820160149054906101000a900460ff1615151515815260200160048201548152602001600582015481525050838381518110610db257610db16143a6565b5b60200260200101819052508180610dc890614404565b9250505b8080610dd790614404565b915050610b9a565b50819350505050610e49565b60008067ffffffffffffffff811115610e0757610e06613ca7565b5b604051908082528060200260200182016040528015610e4057816020015b610e2d613647565b815260200190600190039081610e255790505b50905080925050505b919050565b610e56613647565b60018281548110610e6a57610e696143a6565b5b906000526020600020906008020160040160018381548110610e8f57610e8e6143a6565b5b90600052602060002090600802016002015481548110610eb257610eb16143a6565b5b90600052602060002090600602016040518060e001604052908160008201548152602001600182018054610ee59061450d565b80601f0160208091040260200160405190810160405280929190818152602001828054610f119061450d565b8015610f5e5780601f10610f3357610100808354040283529160200191610f5e565b820191906000526020600020905b815481529060010190602001808311610f4157829003601f168201915b50505050508152602001600282015481526020016003820160009054906101000a900473ffffffffffffffffffffffffffffffffffffffff1673ffffffffffffffffffffffffffffffffffffffff1673ffffffffffffffffffffffffffffffffffffffff1681526020016003820160149054906101000a900460ff16151515158152602001600482015481526020016005820154815250509050919050565b6001818154811061100d57600080fd5b90600052602060002090600802016000915090508060000154908060010180546110369061450d565b80601f01602080910402602001604051908101604052809291908181526020018280546110629061450d565b80156110af5780601f10611084576101008083540402835291602001916110af565b820191906000526020600020905b81548152906001019060200180831161109257829003601f168201915b5050505050908060020154908060030160009054906101000a900473ffffffffffffffffffffffffffffffffffffffff16908060050154908060060154908060070160009054906101000a900460ff16905087565b8060018181548110611119576111186143a6565b5b90600052602060002090600802016005015442101561116d576040517f08c379a0000000000000000000000000000000000000000000000000000000008152600401611164906145b0565b60405180910390fd5b610e1060018281548110611184576111836143a6565b5b9060005260206000209060080201600501546111a091906145d0565b42106111e1576040517f08c379a00000000000000000000000000000000000000000000000000000000081526004016111d890614672565b60405180910390fd5b8282600181815481106111f7576111f66143a6565b5b906000526020600020906008020160040180549050821061124d576040517f08c379a0000000000000000000000000000000000000000000000000000000008152600401611244906146de565b60405180910390fd5b60018181548110611261576112606143a6565b5b90600052602060002090600802016004018281548110611284576112836143a6565b5b906000526020600020906006020160030160149054906101000a900460ff16156112e3576040517f08c379a00000000000000000000000000000000000000000000000000000000081526004016112da9061474a565b60405180910390fd5b60003411611326576040517f08c379a000000000000000000000000000000000000000000000000000000000815260040161131d906147dc565b60405180910390fd5b60006113318561272c565b90508034101561134042613426565b61136e60018881548110611357576113566143a6565b5b906000526020600020906008020160050154613426565b60405160200161137f9291906148f6565b604051602081830303815290604052906113cf576040517f08c379a00000000000000000000000000000000000000000000000000000000081526004016113c69190614930565b60405180910390fd5b50600185815481106113e4576113e36143a6565b5b9060005260206000209060080201600401805490506001868154811061140d5761140c6143a6565b5b9060005260206000209060080201600201541061145f576040517f08c379a0000000000000000000000000000000000000000000000000000000008152600401611456906149c4565b60405180910390fd5b60004290503360018781548110611479576114786143a6565b5b9060005260206000209060080201600401888154811061149c5761149b6143a6565b5b906000526020600020906006020160030160006101000a81548173ffffffffffffffffffffffffffffffffffffffff021916908373ffffffffffffffffffffffffffffffffffffffff1602179055506001808781548110611500576114ff6143a6565b5b90600052602060002090600802016004018881548110611523576115226143a6565b5b906000526020600020906006020160030160146101000a81548160ff02191690831515021790555080600187815481106115605761155f6143a6565b5b90600052602060002090600802016004018881548110611583576115826143a6565b5b90600052602060002090600602016004018190555034600187815481106115ad576115ac6143a6565b5b906000526020600020906008020160040188815481106115d0576115cf6143a6565b5b906000526020600020906006020160050181905550600186815481106115f9576115f86143a6565b5b9060005260206000209060080201600201600081548092919061161b90614404565b919050555060018681548110611634576116336143a6565b5b9060005260206000209060080201600401805490506001878154811061165d5761165c6143a6565b5b90600052602060002090600802016002015410156116a457806001878154811061168a576116896143a6565b5b9060005260206000209060080201600601819055506116e2565b60018087815481106116b9576116b86143a6565b5b906000526020600020906008020160070160006101000a81548160ff0219169083151502179055505b3373ffffffffffffffffffffffffffffffffffffffff16877f0e54eff26401bf69b81b26f60bd85ef47f5d85275c1d268d84f68d6897431c47346040516117299190613aa6565b60405180910390a350505050505050565b6000600180549050905060003390506000429050600081905060006001808160018154018082558091505003906000526020600020906008020190508481600001819055508781600101908051906020019061179792919061369c565b5060008160020181905550838160030160006101000a81548173ffffffffffffffffffffffffffffffffffffffff021916908373ffffffffffffffffffffffffffffffffffffffff160217905550828160050181905550818160060181905550858160070160006101000a81548160ff0219169083151502179055506000600190505b8751811161198d57816004016040518060e001604052808381526020018a60018561184591906149e4565b81518110611856576118556143a6565b5b60200260200101518152602001670de0b6b3a76400008152602001600073ffffffffffffffffffffffffffffffffffffffff16815260200160001515815260200160008152602001600081525090806001815401808255809150506001900390600052602060002090600602016000909190919091506000820151816000015560208201518160010190805190602001906118f292919061369c565b506040820151816002015560608201518160030160006101000a81548173ffffffffffffffffffffffffffffffffffffffff021916908373ffffffffffffffffffffffffffffffffffffffff16021790555060808201518160030160146101000a81548160ff02191690831515021790555060a0820151816004015560c082015181600501555050808061198590614404565b91505061181a565b507fdd970dd9b5bfe707922155b058a407655cb18288b807e2216442bca8ad83d6b5836040516119bd9190614a64565b60405180910390a15050505050505050565b6119d7613722565b600182815481106119eb576119ea6143a6565b5b90600052602060002090600802016040518061010001604052908160008201548152602001600182018054611a1f9061450d565b80601f0160208091040260200160405190810160405280929190818152602001828054611a4b9061450d565b8015611a985780601f10611a6d57610100808354040283529160200191611a98565b820191906000526020600020905b815481529060010190602001808311611a7b57829003601f168201915b50505050508152602001600282015481526020016003820160009054906101000a900473ffffffffffffffffffffffffffffffffffffffff1673ffffffffffffffffffffffffffffffffffffffff1673ffffffffffffffffffffffffffffffffffffffff16815260200160048201805480602002602001604051908101604052809291908181526020016000905b82821015611c8357838290600052602060002090600602016040518060e001604052908160008201548152602001600182018054611b639061450d565b80601f0160208091040260200160405190810160405280929190818152602001828054611b8f9061450d565b8015611bdc5780601f10611bb157610100808354040283529160200191611bdc565b820191906000526020600020905b815481529060010190602001808311611bbf57829003601f168201915b50505050508152602001600282015481526020016003820160009054906101000a900473ffffffffffffffffffffffffffffffffffffffff1673ffffffffffffffffffffffffffffffffffffffff1673ffffffffffffffffffffffffffffffffffffffff1681526020016003820160149054906101000a900460ff161515151581526020016004820154815260200160058201548152505081526020019060010190611b26565b50505050815260200160058201548152602001600682015481526020016007820160009054906101000a900460ff1615151515815250509050919050565b60606000805b600180549050811015611d2e5760018181548110611ce857611ce76143a6565b5b906000526020600020906008020160070160009054906101000a900460ff1615611d1b578180611d1790614404565b9250505b8080611d2690614404565b915050611cc7565b5060008167ffffffffffffffff811115611d4b57611d4a613ca7565b5b604051908082528060200260200182016040528015611d8457816020015b611d71613722565b815260200190600190039081611d695790505b5090506000805b6001805490508110156120f35760018181548110611dac57611dab6143a6565b5b906000526020600020906008020160070160009054906101000a900460ff16156120e05760018181548110611de457611de36143a6565b5b90600052602060002090600802016040518061010001604052908160008201548152602001600182018054611e189061450d565b80601f0160208091040260200160405190810160405280929190818152602001828054611e449061450d565b8015611e915780601f10611e6657610100808354040283529160200191611e91565b820191906000526020600020905b815481529060010190602001808311611e7457829003601f168201915b50505050508152602001600282015481526020016003820160009054906101000a900473ffffffffffffffffffffffffffffffffffffffff1673ffffffffffffffffffffffffffffffffffffffff1673ffffffffffffffffffffffffffffffffffffffff16815260200160048201805480602002602001604051908101604052809291908181526020016000905b8282101561207c57838290600052602060002090600602016040518060e001604052908160008201548152602001600182018054611f5c9061450d565b80601f0160208091040260200160405190810160405280929190818152602001828054611f889061450d565b8015611fd55780601f10611faa57610100808354040283529160200191611fd5565b820191906000526020600020905b815481529060010190602001808311611fb857829003601f168201915b50505050508152602001600282015481526020016003820160009054906101000a900473ffffffffffffffffffffffffffffffffffffffff1673ffffffffffffffffffffffffffffffffffffffff1673ffffffffffffffffffffffffffffffffffffffff1681526020016003820160149054906101000a900460ff161515151581526020016004820154815260200160058201548152505081526020019060010190611f1f565b50505050815260200160058201548152602001600682015481526020016007820160009054906101000a900460ff1615151515815250508383815181106120c6576120c56143a6565b5b602002602001018190525081806120dc90614404565b9250505b80806120eb90614404565b915050611d8b565b5081935050505090565b603281565b610e1081565b60606000600183815481106121205761211f6143a6565b5b90600052602060002090600802016004018054905067ffffffffffffffff81111561214e5761214d613ca7565b5b60405190808252806020026020018201604052801561218157816020015b606081526020019060019003908161216c5790505b50905060005b6001848154811061219b5761219a6143a6565b5b9060005260206000209060080201600401805490508110156122b957600184815481106121cb576121ca6143a6565b5b906000526020600020906008020160040181815481106121ee576121ed6143a6565b5b9060005260206000209060060201600101805461220a9061450d565b80601f01602080910402602001604051908101604052809291908181526020018280546122369061450d565b80156122835780601f1061225857610100808354040283529160200191612283565b820191906000526020600020905b81548152906001019060200180831161226657829003601f168201915b505050505082828151811061229b5761229a6143a6565b5b602002602001018190525080806122b190614404565b915050612187565b5080915050919050565b60606000805b60018054905081101561232f57600181815481106122ea576122e96143a6565b5b906000526020600020906008020160070160009054906101000a900460ff1661231c57818061231890614404565b9250505b808061232790614404565b9150506122c9565b5060008167ffffffffffffffff81111561234c5761234b613ca7565b5b60405190808252806020026020018201604052801561238557816020015b612372613722565b81526020019060019003908161236a5790505b5090506000805b6001805490508110156126f357600181815481106123ad576123ac6143a6565b5b906000526020600020906008020160070160009054906101000a900460ff166126e057600181815481106123e4576123e36143a6565b5b906000526020600020906008020160405180610100016040529081600082015481526020016001820180546124189061450d565b80601f01602080910402602001604051908101604052809291908181526020018280546124449061450d565b80156124915780601f1061246657610100808354040283529160200191612491565b820191906000526020600020905b81548152906001019060200180831161247457829003601f168201915b50505050508152602001600282015481526020016003820160009054906101000a900473ffffffffffffffffffffffffffffffffffffffff1673ffffffffffffffffffffffffffffffffffffffff1673ffffffffffffffffffffffffffffffffffffffff16815260200160048201805480602002602001604051908101604052809291908181526020016000905b8282101561267c57838290600052602060002090600602016040518060e00160405290816000820154815260200160018201805461255c9061450d565b80601f01602080910402602001604051908101604052809291908181526020018280546125889061450d565b80156125d55780601f106125aa576101008083540402835291602001916125d5565b820191906000526020600020905b8154815290600101906020018083116125b857829003601f168201915b50505050508152602001600282015481526020016003820160009054906101000a900473ffffffffffffffffffffffffffffffffffffffff1673ffffffffffffffffffffffffffffffffffffffff1673ffffffffffffffffffffffffffffffffffffffff1681526020016003820160149054906101000a900460ff16151515158152602001600482015481526020016005820154815250508152602001906001019061251f565b50505050815260200160058201548152602001600682015481526020016007820160009054906101000a900460ff1615151515815250508383815181106126c6576126c56143a6565b5b602002602001018190525081806126dc90614404565b9250505b80806126eb90614404565b91505061238c565b5081935050505090565b600060018281548110612713576127126143a6565b5b9060005260206000209060080201600601549050919050565b6000806127388361279f565b905060006032826127499190614ac1565b905060008167016345785d8a00006127619190614af2565b670de0b6b3a764000061277491906149e4565b90506702c68af0bb1400008111612793576702c68af0bb140000612795565b805b9350505050919050565b6000600182815481106127b5576127b46143a6565b5b9060005260206000209060080201600601546127cf612f43565b6127d991906149e4565b9050919050565b6060600080600184815481106127f9576127f86143a6565b5b9060005260206000209060080201604051806101000160405290816000820154815260200160018201805461282d9061450d565b80601f01602080910402602001604051908101604052809291908181526020018280546128599061450d565b80156128a65780601f1061287b576101008083540402835291602001916128a6565b820191906000526020600020905b81548152906001019060200180831161288957829003601f168201915b50505050508152602001600282015481526020016003820160009054906101000a900473ffffffffffffffffffffffffffffffffffffffff1673ffffffffffffffffffffffffffffffffffffffff1673ffffffffffffffffffffffffffffffffffffffff16815260200160048201805480602002602001604051908101604052809291908181526020016000905b82821015612a9157838290600052602060002090600602016040518060e0016040529081600082015481526020016001820180546129719061450d565b80601f016020809104026020016040519081016040528092919081815260200182805461299d9061450d565b80156129ea5780601f106129bf576101008083540402835291602001916129ea565b820191906000526020600020905b8154815290600101906020018083116129cd57829003601f168201915b50505050508152602001600282015481526020016003820160009054906101000a900473ffffffffffffffffffffffffffffffffffffffff1673ffffffffffffffffffffffffffffffffffffffff1673ffffffffffffffffffffffffffffffffffffffff1681526020016003820160149054906101000a900460ff161515151581526020016004820154815260200160058201548152505081526020019060010190612934565b50505050815260200160058201548152602001600682015481526020016007820160009054906101000a900460ff161515151581525050905060005b816080015151811015612b245781608001518181518110612af157612af06143a6565b5b60200260200101516080015115612b11578280612b0d90614404565b9350505b8080612b1c90614404565b915050612acd565b5060008267ffffffffffffffff811115612b4157612b40613ca7565b5b604051908082528060200260200182016040528015612b7a57816020015b612b67613647565b815260200190600190039081612b5f5790505b5090506000805b836080015151811015612c155783608001518181518110612ba557612ba46143a6565b5b60200260200101516080015115612c025783608001518181518110612bcd57612bcc6143a6565b5b6020026020010151838381518110612be857612be76143a6565b5b60200260200101819052508180612bfe90614404565b9250505b8080612c0d90614404565b915050612b81565b5081945050505050919050565b670de0b6b3a764000081565b60606001805480602002602001604051908101604052809291908181526020016000905b82821015612f3a57838290600052602060002090600802016040518061010001604052908160008201548152602001600182018054612c909061450d565b80601f0160208091040260200160405190810160405280929190818152602001828054612cbc9061450d565b8015612d095780601f10612cde57610100808354040283529160200191612d09565b820191906000526020600020905b815481529060010190602001808311612cec57829003601f168201915b50505050508152602001600282015481526020016003820160009054906101000a900473ffffffffffffffffffffffffffffffffffffffff1673ffffffffffffffffffffffffffffffffffffffff1673ffffffffffffffffffffffffffffffffffffffff16815260200160048201805480602002602001604051908101604052809291908181526020016000905b82821015612ef457838290600052602060002090600602016040518060e001604052908160008201548152602001600182018054612dd49061450d565b80601f0160208091040260200160405190810160405280929190818152602001828054612e009061450d565b8015612e4d5780601f10612e2257610100808354040283529160200191612e4d565b820191906000526020600020905b815481529060010190602001808311612e3057829003601f168201915b50505050508152602001600282015481526020016003820160009054906101000a900473ffffffffffffffffffffffffffffffffffffffff1673ffffffffffffffffffffffffffffffffffffffff1673ffffffffffffffffffffffffffffffffffffffff1681526020016003820160149054906101000a900460ff161515151581526020016004820154815260200160058201548152505081526020019060010190612d97565b50505050815260200160058201548152602001600682015481526020016007820160009054906101000a900460ff16151515158152505081526020019060010190612c52565b50505050905090565b6000804290508091505090565b6702c68af0bb14000081565b67016345785d8a000081565b60606000805b600180549050811015613015578373ffffffffffffffffffffffffffffffffffffffff1660018281548110612fa657612fa56143a6565b5b906000526020600020906008020160030160009054906101000a900473ffffffffffffffffffffffffffffffffffffffff1673ffffffffffffffffffffffffffffffffffffffff1603613002578180612ffe90614404565b9250505b808061300d90614404565b915050612f6e565b5060008167ffffffffffffffff81111561303257613031613ca7565b5b60405190808252806020026020018201604052801561306b57816020015b613058613722565b8152602001906001900390816130505790505b5090506000805b60018054905081101561341a578573ffffffffffffffffffffffffffffffffffffffff16600182815481106130aa576130a96143a6565b5b906000526020600020906008020160030160009054906101000a900473ffffffffffffffffffffffffffffffffffffffff1673ffffffffffffffffffffffffffffffffffffffff1603613407576001818154811061310b5761310a6143a6565b5b9060005260206000209060080201604051806101000160405290816000820154815260200160018201805461313f9061450d565b80601f016020809104026020016040519081016040528092919081815260200182805461316b9061450d565b80156131b85780601f1061318d576101008083540402835291602001916131b8565b820191906000526020600020905b81548152906001019060200180831161319b57829003601f168201915b50505050508152602001600282015481526020016003820160009054906101000a900473ffffffffffffffffffffffffffffffffffffffff1673ffffffffffffffffffffffffffffffffffffffff1673ffffffffffffffffffffffffffffffffffffffff16815260200160048201805480602002602001604051908101604052809291908181526020016000905b828210156133a357838290600052602060002090600602016040518060e0016040529081600082015481526020016001820180546132839061450d565b80601f01602080910402602001604051908101604052809291908181526020018280546132af9061450d565b80156132fc5780601f106132d1576101008083540402835291602001916132fc565b820191906000526020600020905b8154815290600101906020018083116132df57829003601f168201915b50505050508152602001600282015481526020016003820160009054906101000a900473ffffffffffffffffffffffffffffffffffffffff1673ffffffffffffffffffffffffffffffffffffffff1673ffffffffffffffffffffffffffffffffffffffff1681526020016003820160149054906101000a900460ff161515151581526020016004820154815260200160058201548152505081526020019060010190613246565b50505050815260200160058201548152602001600682015481526020016007820160009054906101000a900460ff1615151515815250508383815181106133ed576133ec6143a6565b5b6020026020010181905250818061340390614404565b9250505b808061341290614404565b915050613072565b50819350505050919050565b606060006001613435846134f4565b01905060008167ffffffffffffffff81111561345457613453613ca7565b5b6040519080825280601f01601f1916602001820160405280156134865781602001600182028036833780820191505090505b509050600082602001820190505b6001156134e9578080600190039150507f3031323334353637383961626364656600000000000000000000000000000000600a86061a8153600a85816134dd576134dc614a92565b5b04945060008503613494575b819350505050919050565b600080600090507a184f03e93ff9f4daa797ed6e38ed64bf6a1f0100000000000000008310613552577a184f03e93ff9f4daa797ed6e38ed64bf6a1f010000000000000000838161354857613547614a92565b5b0492506040810190505b6d04ee2d6d415b85acef8100000000831061358f576d04ee2d6d415b85acef8100000000838161358557613584614a92565b5b0492506020810190505b662386f26fc1000083106135be57662386f26fc1000083816135b4576135b3614a92565b5b0492506010810190505b6305f5e10083106135e7576305f5e10083816135dd576135dc614a92565b5b0492506008810190505b612710831061360c57612710838161360257613601614a92565b5b0492506004810190505b6064831061362f576064838161362557613624614a92565b5b0492506002810190505b600a831061363e576001810190505b80915050919050565b6040518060e00160405280600081526020016060815260200160008152602001600073ffffffffffffffffffffffffffffffffffffffff16815260200160001515815260200160008152602001600081525090565b8280546136a89061450d565b90600052602060002090601f0160209004810192826136ca5760008555613711565b82601f106136e357805160ff1916838001178555613711565b82800160010185558215613711579182015b828111156137105782518255916020019190600101906136f5565b5b50905061371e919061377f565b5090565b604051806101000160405280600081526020016060815260200160008152602001600073ffffffffffffffffffffffffffffffffffffffff1681526020016060815260200160008152602001600081526020016000151581525090565b5b80821115613798576000816000905550600101613780565b5090565b6000604051905090565b600080fd5b600080fd5b6000819050919050565b6137c3816137b0565b81146137ce57600080fd5b50565b6000813590506137e0816137ba565b92915050565b6000602082840312156137fc576137fb6137a6565b5b600061380a848285016137d1565b91505092915050565b600081519050919050565b600082825260208201905092915050565b6000819050602082019050919050565b613848816137b0565b82525050565b600081519050919050565b600082825260208201905092915050565b60005b8381101561388857808201518184015260208101905061386d565b83811115613897576000848401525b50505050565b6000601f19601f8301169050919050565b60006138b98261384e565b6138c38185613859565b93506138d381856020860161386a565b6138dc8161389d565b840191505092915050565b600073ffffffffffffffffffffffffffffffffffffffff82169050919050565b6000613912826138e7565b9050919050565b61392281613907565b82525050565b60008115159050919050565b61393d81613928565b82525050565b600060e08301600083015161395b600086018261383f565b506020830151848203602086015261397382826138ae565b9150506040830151613988604086018261383f565b50606083015161399b6060860182613919565b5060808301516139ae6080860182613934565b5060a08301516139c160a086018261383f565b5060c08301516139d460c086018261383f565b508091505092915050565b60006139eb8383613943565b905092915050565b6000602082019050919050565b6000613a0b82613813565b613a15818561381e565b935083602082028501613a278561382f565b8060005b85811015613a635784840389528151613a4485826139df565b9450613a4f836139f3565b925060208a01995050600181019050613a2b565b50829750879550505050505092915050565b60006020820190508181036000830152613a8f8184613a00565b905092915050565b613aa0816137b0565b82525050565b6000602082019050613abb6000830184613a97565b92915050565b600060e083016000830151613ad9600086018261383f565b5060208301518482036020860152613af182826138ae565b9150506040830151613b06604086018261383f565b506060830151613b196060860182613919565b506080830151613b2c6080860182613934565b5060a0830151613b3f60a086018261383f565b5060c0830151613b5260c086018261383f565b508091505092915050565b60006020820190508181036000830152613b778184613ac1565b905092915050565b600082825260208201905092915050565b6000613b9b8261384e565b613ba58185613b7f565b9350613bb581856020860161386a565b613bbe8161389d565b840191505092915050565b613bd281613907565b82525050565b613be181613928565b82525050565b600060e082019050613bfc600083018a613a97565b8181036020830152613c0e8189613b90565b9050613c1d6040830188613a97565b613c2a6060830187613bc9565b613c376080830186613a97565b613c4460a0830185613a97565b613c5160c0830184613bd8565b98975050505050505050565b60008060408385031215613c7457613c736137a6565b5b6000613c82858286016137d1565b9250506020613c93858286016137d1565b9150509250929050565b600080fd5b600080fd5b7f4e487b7100000000000000000000000000000000000000000000000000000000600052604160045260246000fd5b613cdf8261389d565b810181811067ffffffffffffffff82111715613cfe57613cfd613ca7565b5b80604052505050565b6000613d1161379c565b9050613d1d8282613cd6565b919050565b600067ffffffffffffffff821115613d3d57613d3c613ca7565b5b613d468261389d565b9050602081019050919050565b82818337600083830152505050565b6000613d75613d7084613d22565b613d07565b905082815260208101848484011115613d9157613d90613ca2565b5b613d9c848285613d53565b509392505050565b600082601f830112613db957613db8613c9d565b5b8135613dc9848260208601613d62565b91505092915050565b600067ffffffffffffffff821115613ded57613dec613ca7565b5b602082029050602081019050919050565b600080fd5b6000613e16613e1184613dd2565b613d07565b90508083825260208201905060208402830185811115613e3957613e38613dfe565b5b835b81811015613e8057803567ffffffffffffffff811115613e5e57613e5d613c9d565b5b808601613e6b8982613da4565b85526020850194505050602081019050613e3b565b5050509392505050565b600082601f830112613e9f57613e9e613c9d565b5b8135613eaf848260208601613e03565b91505092915050565b613ec181613928565b8114613ecc57600080fd5b50565b600081359050613ede81613eb8565b92915050565b600080600060608486031215613efd57613efc6137a6565b5b600084013567ffffffffffffffff811115613f1b57613f1a6137ab565b5b613f2786828701613da4565b935050602084013567ffffffffffffffff811115613f4857613f476137ab565b5b613f5486828701613e8a565b9250506040613f6586828701613ecf565b9150509250925092565b600082825260208201905092915050565b6000613f8b82613813565b613f958185613f6f565b935083602082028501613fa78561382f565b8060005b85811015613fe35784840389528151613fc485826139df565b9450613fcf836139f3565b925060208a01995050600181019050613fab565b50829750879550505050505092915050565b60006101008301600083015161400e600086018261383f565b506020830151848203602086015261402682826138ae565b915050604083015161403b604086018261383f565b50606083015161404e6060860182613919565b50608083015184820360808601526140668282613f80565b91505060a083015161407b60a086018261383f565b5060c083015161408e60c086018261383f565b5060e08301516140a160e0860182613934565b508091505092915050565b600060208201905081810360008301526140c68184613ff5565b905092915050565b600081519050919050565b600082825260208201905092915050565b6000819050602082019050919050565b600061010083016000830151614113600086018261383f565b506020830151848203602086015261412b82826138ae565b9150506040830151614140604086018261383f565b5060608301516141536060860182613919565b506080830151848203608086015261416b8282613f80565b91505060a083015161418060a086018261383f565b5060c083015161419360c086018261383f565b5060e08301516141a660e0860182613934565b508091505092915050565b60006141bd83836140fa565b905092915050565b6000602082019050919050565b60006141dd826140ce565b6141e781856140d9565b9350836020820285016141f9856140ea565b8060005b85811015614235578484038952815161421685826141b1565b9450614221836141c5565b925060208a019950506001810190506141fd565b50829750879550505050505092915050565b6000602082019050818103600083015261426181846141d2565b905092915050565b600081519050919050565b600082825260208201905092915050565b6000819050602082019050919050565b60006142a183836138ae565b905092915050565b6000602082019050919050565b60006142c182614269565b6142cb8185614274565b9350836020820285016142dd85614285565b8060005b8581101561431957848403895281516142fa8582614295565b9450614305836142a9565b925060208a019950506001810190506142e1565b50829750879550505050505092915050565b6000602082019050818103600083015261434581846142b6565b905092915050565b61435681613907565b811461436157600080fd5b50565b6000813590506143738161434d565b92915050565b60006020828403121561438f5761438e6137a6565b5b600061439d84828501614364565b91505092915050565b7f4e487b7100000000000000000000000000000000000000000000000000000000600052603260045260246000fd5b7f4e487b7100000000000000000000000000000000000000000000000000000000600052601160045260246000fd5b600061440f826137b0565b91507fffffffffffffffffffffffffffffffffffffffffffffffffffffffffffffffff8203614441576144406143d5565b5b600182019050919050565b7f546f7573206c65732061727469636c657320736f6e742064656a61206665726d60008201527f6573000000000000000000000000000000000000000000000000000000000000602082015250565b60006144a8602283613b7f565b91506144b38261444c565b604082019050919050565b600060208201905081810360008301526144d78161449b565b9050919050565b7f4e487b7100000000000000000000000000000000000000000000000000000000600052602260045260246000fd5b6000600282049050600182168061452557607f821691505b602082108103614538576145376144de565b5b50919050565b7f4c27656e6368657265206e27612070617320656e636f726520636f6d6d656e6360008201527f6500000000000000000000000000000000000000000000000000000000000000602082015250565b600061459a602183613b7f565b91506145a58261453e565b604082019050919050565b600060208201905081810360008301526145c98161458d565b9050919050565b60006145db826137b0565b91506145e6836137b0565b9250827fffffffffffffffffffffffffffffffffffffffffffffffffffffffffffffffff0382111561461b5761461a6143d5565b5b828201905092915050565b7f4c27656e636865726520657374207465726d696e656500000000000000000000600082015250565b600061465c601683613b7f565b915061466782614626565b602082019050919050565b6000602082019050818103600083015261468b8161464f565b9050919050565b7f496e646578206465732061727469636c657320696e76616c6964650000000000600082015250565b60006146c8601b83613b7f565b91506146d382614692565b602082019050919050565b600060208201905081810360008301526146f7816146bb565b9050919050565b7f4c2761727469636c65206573742064656a61206665726d650000000000000000600082015250565b6000614734601883613b7f565b915061473f826146fe565b602082019050919050565b6000602082019050818103600083015261476381614727565b9050919050565b7f4c65206d6f6e74616e74206465206c27656e636865726520646f69742065747260008201527f65207375706572696575722061207a65726f0000000000000000000000000000602082015250565b60006147c6603283613b7f565b91506147d18261476a565b604082019050919050565b600060208201905081810360008301526147f5816147b9565b9050919050565b600081905092915050565b7f4c65206d6f6e74616e74206465206c27656e63686572652065737420696e666560008201527f726965757220617520707269782061637475656c2074696d653a200000000000602082015250565b6000614863603b836147fc565b915061486e82614807565b603b82019050919050565b60006148848261384e565b61488e81856147fc565b935061489e81856020860161386a565b80840191505092915050565b7f207374617274203a200000000000000000000000000000000000000000000000600082015250565b60006148e06009836147fc565b91506148eb826148aa565b600982019050919050565b600061490182614856565b915061490d8285614879565b9150614918826148d3565b91506149248284614879565b91508190509392505050565b6000602082019050818103600083015261494a8184613b90565b905092915050565b7f546f7573206c65732061727469636c6573206f6e74206574652076656e64757360008201527f2061757820656e63686572657300000000000000000000000000000000000000602082015250565b60006149ae602d83613b7f565b91506149b982614952565b604082019050919050565b600060208201905081810360008301526149dd816149a1565b9050919050565b60006149ef826137b0565b91506149fa836137b0565b925082821015614a0d57614a0c6143d5565b5b828203905092915050565b7f4372656174652041756374696f6e3a0000000000000000000000000000000000600082015250565b6000614a4e600f83613b7f565b9150614a5982614a18565b602082019050919050565b60006040820190508181036000830152614a7d81614a41565b9050614a8c6020830184613a97565b92915050565b7f4e487b7100000000000000000000000000000000000000000000000000000000600052601260045260246000fd5b6000614acc826137b0565b9150614ad7836137b0565b925082614ae757614ae6614a92565b5b828204905092915050565b6000614afd826137b0565b9150614b08836137b0565b9250817fffffffffffffffffffffffffffffffffffffffffffffffffffffffffffffffff0483118215151615614b4157614b406143d5565b5b82820290509291505056fea264697066735822122025c7378f6de8a663f89a4051592b2c352928a9b5a64ad919f4e2c22bc94795a064736f6c634300080d0033",
  "immutableReferences": {},
  "source": "// SPDX-License-Identifier: MIT\npragma solidity ^0.8.0;\nimport \"@openzeppelin/contracts/utils/Strings.sol\";\n\ncontract DutchAuction {\n    using Strings for uint256;\n    uint public constant AUCTION_DURATION = 3600 seconds; // Duration de l'enchere => 1 heure\n    uint public constant STARTING_PRICE = 1 ether; // On declare le prix de debut  1 ether\n    uint public constant PRICE_DECREMENT = 0.1 ether;\n    uint public constant RESERVE_PRICE = 0.2 ether;\n    uint public constant INTERVAL = 50 seconds;\n    uint public startBlock;\n\n    /** Creation d'une sctructure pour l'article\n    Lequel aura un nom, un prix, un gagnant et un status pour savoir s'il est ferm  */\n    struct Article { uint id; string name; uint currentPrice; address winningBidder; bool closed; uint bought; uint boughtFor; }\n    struct Auction { uint id; string name; uint currentArticleIndex; address auctioneer; Article[] articles; uint auctionStartTime; uint startTimeCurrentAuction; bool closed; }\n\n    Auction[] public auctions;\n\n    event Log(string message, uint value);\n    event BidPlaced(uint indexed articleIndex, address indexed bidder, uint amount);\n    event AuctionClosed(uint indexed auctionIndex);\n\n    /*modifier onlyAuctioneer() {\n        require(msg.sender == auctioneer, \"Seul le auctioneer peut appeler cette fonction\");\n        _;\n    }*/\n\n    modifier auctionOpen(uint auctionIndex) {\n        require(block.timestamp >= auctions[auctionIndex].auctionStartTime, \"L'enchere n'a pas encore commence\");\n        require(block.timestamp < auctions[auctionIndex].auctionStartTime + AUCTION_DURATION, \"L'enchere est terminee\");\n        _;\n    }\n\n    modifier articleOpen(uint articleIndex, uint auctionIndex) {\n        require(articleIndex < auctions[auctionIndex].articles.length, \"Index des articles invalide\");\n        require(!auctions[auctionIndex].articles[articleIndex].closed, \"L'article est deja ferme\");\n        _;\n    }\n\n    constructor() {\n        startBlock = block.number;\n        emit Log(\"CreateContract:\", block.timestamp);\n\n        // Creation de deux encheres par default\n        string[] memory s = new string[](4);\n        s[0] = \"Article 1\";\n        s[1] = \"Article 2\";\n        s[2] = \"Article 3\";\n        s[3] = \"Article 4\";\n        createAuction(\"Auction 1\", s, false);\n        \n        string[] memory s2 = new string[](3);\n        s2[0] = \"Chemise\";\n        s2[1] = \"PC\";\n        s2[2] = \"Valise\";\n        createAuction(\"Auction 2\", s2, false);\n    }\n\n    function getArticles(uint auctionIndex) public view returns (Article[] memory) {\n        return auctions[auctionIndex].articles;\n    }\n\n    function getCurrentArticle(uint auctionIndex) public view returns (Article memory) {\n        return auctions[auctionIndex].articles[ auctions[auctionIndex].currentArticleIndex ];\n    }\n\n    function getArticleNames(uint auctionIndex) public view returns (string[] memory) {\n        string[] memory articleNames = new string[](auctions[auctionIndex].articles.length);\n\n        for (uint i = 0; i < auctions[auctionIndex].articles.length; i++) {\n            articleNames[i] = auctions[auctionIndex].articles[i].name;\n        }\n\n        return articleNames;\n    }\n\n    function getOpenArticles(uint auctionIndex) public view returns (Article[] memory) {\n        uint openArticleCount = 0;\n        if(!auctions[auctionIndex].closed) {\n            // Compter le nombre d'articles ouverts\n            for (uint i = 0; i < auctions[auctionIndex].articles.length; i++) {\n                if (!auctions[auctionIndex].articles[i].closed) {\n                    openArticleCount++;\n                }\n            }\n\n            // Crer un tableau de la taille approprie pour les articles ouverts\n            Article[] memory openArticles = new Article[](openArticleCount);\n\n            // Remplir le tableau avec les articles ouverts\n            uint index = 0;\n            for (uint i = 0; i < auctions[auctionIndex].articles.length; i++) {\n                if (!auctions[auctionIndex].articles[i].closed) {\n                    openArticles[index] = auctions[auctionIndex].articles[i];\n                    index++;\n                }\n            }\n\n            return openArticles;\n\n        } else {\n            Article[] memory openArticles = new Article[](0);\n            return openArticles;\n        }\n    }\n\n    function getOpenAuctions() public view returns (Auction[] memory) {\n        uint openAuctionCount = 0;\n        \n        // Compter le nombre d'encheres ouverts\n        for (uint i = 0; i < auctions.length; i++) {\n            if (!auctions[i].closed) {\n                openAuctionCount++;\n            }\n        }\n\n        // Crer un tableau de la taille approprie pour les encheres ouverts\n        Auction[] memory openAuctions = new Auction[](openAuctionCount);\n\n        // Remplir le tableau avec les encheres ouverts\n        uint index = 0;\n        for (uint i = 0; i < auctions.length; i++) {\n            if (!auctions[i].closed) {\n                openAuctions[index] = auctions[i];\n                index++;\n            }\n        }\n        return openAuctions;\n    }\n\n    function getAuctionsFor(address auctioneer) public view returns (Auction[] memory) {\n        uint auctionForCount = 0;\n        \n        // Compter le nombre d'encheres du proprietaire\n        for (uint i = 0; i < auctions.length; i++) {\n            if (auctions[i].auctioneer == auctioneer) {\n                auctionForCount++;\n            }\n        }\n        Auction[] memory auctionsFor = new Auction[](auctionForCount);\n\n        // Remplir le tableau\n        uint index = 0;\n        for (uint i = 0; i < auctions.length; i++) {\n            if (auctions[i].auctioneer == auctioneer) {\n                auctionsFor[index] = auctions[i];\n                index++;\n            }\n        }\n        return auctionsFor;\n    }\n\n    function getClosedAuctions() public view returns (Auction[] memory) {\n        uint closedAuctionCount = 0;\n        \n        // Compter le nombre d'encheres fermes\n        for (uint i = 0; i < auctions.length; i++) {\n            if (auctions[i].closed) {\n                closedAuctionCount++;\n            }\n        }\n\n        // Crer un tableau de la taille approprie pour les encheres fermes\n        Auction[] memory closedAuctions = new Auction[](closedAuctionCount);\n\n        // Remplir le tableau avec les encheres fermes\n        uint index = 0;\n        for (uint i = 0; i < auctions.length; i++) {\n            if (auctions[i].closed) {\n                closedAuctions[index] = auctions[i];\n                index++;\n            }\n        }\n        return closedAuctions;\n    }\n\n    function getClosedArticles(uint auctionIndex) public view returns (Article[] memory) {\n        uint closedArticleCount = 0;\n        Auction memory auction = auctions[auctionIndex];\n        // Compter le nombre d'articles ouverts\n        for (uint i = 0; i < auction.articles.length; i++) {\n            if (auction.articles[i].closed) {\n                closedArticleCount++;\n            }\n        }\n\n        // Crer un tableau de la taille approprie pour les articles ouverts\n        Article[] memory closedArticles = new Article[](closedArticleCount);\n\n        // Remplir le tableau avec les articles ouverts\n        uint index = 0;\n        for (uint i = 0; i < auction.articles.length; i++) {\n            if (auction.articles[i].closed) {\n                closedArticles[index] = auction.articles[i];\n                index++;\n            }\n        }\n\n        return closedArticles;\n    }\n\n    function getCurrentPrice( uint auctionIndex ) public view returns (uint) {\n        uint elapsedTime = getElapsedTime( auctionIndex );\n        uint decrements = elapsedTime / INTERVAL; // Diminue le prix toutes les 60 secondes\n        uint currentPrice = STARTING_PRICE - (PRICE_DECREMENT * decrements);\n        return currentPrice > RESERVE_PRICE ? currentPrice : RESERVE_PRICE;\n    }\n\n    function getStartTime(uint auctionIndex) public view returns (uint) {\n        return auctions[auctionIndex].startTimeCurrentAuction;\n    }\n    \n    function getElapsedTime(uint auctionIndex) public view returns (uint) {\n        return getTimeStamp() - auctions[auctionIndex].startTimeCurrentAuction;\n    }\n\n    function getTimeStamp() public view returns (uint) {\n        uint tmp = block.timestamp;\n        return tmp;\n    }\n\n    function getAuctions() public view returns (Auction[] memory) {\n        return auctions;\n    }\n\n    /**\n     * Obtenir l'enchere par id (index)\n     */\n    function getAuction(uint id) public view returns (Auction memory) {\n        return auctions[id];\n    }\n\n    /**\n        Placer une offre \n     */\n    function placeBid(uint articleIndex, uint auctionIndex) external payable auctionOpen(auctionIndex) articleOpen(articleIndex, auctionIndex) {\n    //function placeBid(uint articleIndex, uint auctionIndex) external payable {\n        require(msg.value > 0, \"Le montant de l'enchere doit etre superieur a zero\");\n\n        uint currentPrice = getCurrentPrice( auctionIndex );\n        //require(msg.value >= currentPrice, \"Le montant de l'enchere est inferieur au prix actuel\");\n        require(msg.value >= currentPrice, string(abi.encodePacked(\"Le montant de l'enchere est inferieur au prix actuel time: \", block.timestamp.toString(), ' start : ', auctions[auctionIndex].auctionStartTime.toString())));\n        require( auctions[auctionIndex].currentArticleIndex < auctions[auctionIndex].articles.length, \"Tous les articles ont ete vendus aux encheres\" );\n\n        //  Si la valeur est > 0 et plus que le prix actuel on etabli le gagnant et on ferme l'article\n        uint now_place = block.timestamp;\n        \n        auctions[auctionIndex].articles[articleIndex].winningBidder = msg.sender;\n        auctions[auctionIndex].articles[articleIndex].closed = true;\n        auctions[auctionIndex].articles[articleIndex].bought = now_place;\n        auctions[auctionIndex].articles[articleIndex].boughtFor = msg.value;\n        auctions[auctionIndex].currentArticleIndex++;\n        \n        if(auctions[auctionIndex].currentArticleIndex < auctions[auctionIndex].articles.length) {\n            auctions[auctionIndex].startTimeCurrentAuction = now_place;\n        }else {\n            auctions[auctionIndex].closed = true;    \n        }\n\n        emit BidPlaced(articleIndex, msg.sender, msg.value);\n    }\n\n    function closeAuction( uint auctionIndex ) public {\n        auctions[auctionIndex].closed = true;\n        emit AuctionClosed(auctionIndex);\n    }\n\n    function openAuction( uint auctionIndex ) public {\n        uint openArticlesCount = 0;\n        for(uint i = 0 ; i < auctions[auctionIndex].articles.length; i++) {\n            if(!auctions[auctionIndex].articles[i].closed) openArticlesCount++;\n        }\n\n        require(openArticlesCount > 0, \"Tous les articles sont deja fermes\");\n        auctions[auctionIndex].closed = false;\n        auctions[auctionIndex].auctionStartTime = block.timestamp;\n        auctions[auctionIndex].startTimeCurrentAuction = auctions[auctionIndex].auctionStartTime;\n        emit AuctionClosed(auctionIndex);\n    }\n\n    /**\n        Creer un enchere\n     */\n    function createAuction(string memory name, string[] memory articles, bool closed) public {\n        uint id = auctions.length;\n        address auctioneer = msg.sender;\n        uint auctionStartTime = block.timestamp;\n        uint startTimeCurrentAuction = auctionStartTime;\n\n        // Crer une nouvelle instance d'Auction avec des valeurs par dfaut\n        Auction storage newAuction = auctions.push();\n        newAuction.id = id;\n        newAuction.name = name;\n        newAuction.currentArticleIndex = 0;\n        newAuction.auctioneer = auctioneer;\n        newAuction.auctionStartTime = auctionStartTime;\n        newAuction.startTimeCurrentAuction = startTimeCurrentAuction;\n        newAuction.closed = closed;\n\n        // Ajouter chaque lment du tableau d'articles en mmoire au tableau en stockage\n        for (uint i = 1; i <= articles.length; i++) {\n            newAuction.articles.push(Article( i, articles[i-1], STARTING_PRICE, address(0), false, 0, 0 ether ));\n        }\n\n        emit Log(\"Create Auction:\", auctionStartTime);\n    }\n\n}\n",
  "sourcePath": "/home/iwocs/Desktop/MASTER/BlockChain/Dutch/dutch-auction/contracts/DutchAuction.sol",
  "compiler": {
    "name": "solc",
    "version": "0.8.13+commit.abaa5c0e.Emscripten.clang"
  },
  "schemaVersion": "3.4.16",
  "updatedAt": "2024-01-29T20:39:19.448Z",
  "networkType": "ethereum",
  "devdoc": {
    "kind": "dev",
    "methods": {},
    "version": 1
  },
  "userdoc": {
    "kind": "user",
    "methods": {
      "createAuction(string,string[],bool)": {
        "notice": "Creer un enchere"
      },
      "getAuction(uint256)": {
        "notice": "Obtenir l'enchere par id (index)"
      },
      "placeBid(uint256,uint256)": {
        "notice": "Placer une offre "
      }
    },
    "version": 1
  }
}