{
  "contractName": "DutchAuction",
  "abi": [
    {
      "inputs": [],
      "stateMutability": "nonpayable",
      "type": "constructor"
    },
    {
      "anonymous": false,
      "inputs": [
        {
          "indexed": true,
          "internalType": "uint256",
          "name": "auctionIndex",
          "type": "uint256"
        }
      ],
      "name": "AuctionClosed",
      "type": "event"
    },
    {
      "anonymous": false,
      "inputs": [
        {
          "indexed": true,
          "internalType": "uint256",
          "name": "articleIndex",
          "type": "uint256"
        },
        {
          "indexed": true,
          "internalType": "address",
          "name": "bidder",
          "type": "address"
        },
        {
          "indexed": false,
          "internalType": "uint256",
          "name": "amount",
          "type": "uint256"
        }
      ],
      "name": "BidPlaced",
      "type": "event"
    },
    {
      "anonymous": false,
      "inputs": [
        {
          "indexed": false,
          "internalType": "string",
          "name": "message",
          "type": "string"
        },
        {
          "indexed": false,
          "internalType": "uint256",
          "name": "value",
          "type": "uint256"
        }
      ],
      "name": "Log",
      "type": "event"
    },
    {
      "inputs": [],
      "name": "AUCTION_DURATION",
      "outputs": [
        {
          "internalType": "uint256",
          "name": "",
          "type": "uint256"
        }
      ],
      "stateMutability": "view",
      "type": "function",
      "constant": true
    },
    {
      "inputs": [],
      "name": "INTERVAL",
      "outputs": [
        {
          "internalType": "uint256",
          "name": "",
          "type": "uint256"
        }
      ],
      "stateMutability": "view",
      "type": "function",
      "constant": true
    },
    {
      "inputs": [],
      "name": "PRICE_DECREMENT",
      "outputs": [
        {
          "internalType": "uint256",
          "name": "",
          "type": "uint256"
        }
      ],
      "stateMutability": "view",
      "type": "function",
      "constant": true
    },
    {
      "inputs": [],
      "name": "RESERVE_PRICE",
      "outputs": [
        {
          "internalType": "uint256",
          "name": "",
          "type": "uint256"
        }
      ],
      "stateMutability": "view",
      "type": "function",
      "constant": true
    },
    {
      "inputs": [],
      "name": "STARTING_PRICE",
      "outputs": [
        {
          "internalType": "uint256",
          "name": "",
          "type": "uint256"
        }
      ],
      "stateMutability": "view",
      "type": "function",
      "constant": true
    },
    {
      "inputs": [
        {
          "internalType": "uint256",
          "name": "",
          "type": "uint256"
        }
      ],
      "name": "auctions",
      "outputs": [
        {
          "internalType": "uint256",
          "name": "id",
          "type": "uint256"
        },
        {
          "internalType": "string",
          "name": "name",
          "type": "string"
        },
        {
          "internalType": "uint256",
          "name": "currentArticleIndex",
          "type": "uint256"
        },
        {
          "internalType": "address",
          "name": "auctioneer",
          "type": "address"
        },
        {
          "internalType": "uint256",
          "name": "auctionStartTime",
          "type": "uint256"
        },
        {
          "internalType": "uint256",
          "name": "startTimeCurrentAuction",
          "type": "uint256"
        },
        {
          "internalType": "bool",
          "name": "closed",
          "type": "bool"
        },
        {
          "internalType": "uint256",
          "name": "auction_duration",
          "type": "uint256"
        },
        {
          "internalType": "uint256",
          "name": "starting_price",
          "type": "uint256"
        },
        {
          "internalType": "uint256",
          "name": "price_decrement",
          "type": "uint256"
        },
        {
          "internalType": "uint256",
          "name": "reserve_price",
          "type": "uint256"
        },
        {
          "internalType": "uint256",
          "name": "interval",
          "type": "uint256"
        }
      ],
      "stateMutability": "view",
      "type": "function",
      "constant": true
    },
    {
      "inputs": [],
      "name": "startBlock",
      "outputs": [
        {
          "internalType": "uint256",
          "name": "",
          "type": "uint256"
        }
      ],
      "stateMutability": "view",
      "type": "function",
      "constant": true
    },
    {
      "inputs": [
        {
          "internalType": "uint256",
          "name": "auctionIndex",
          "type": "uint256"
        }
      ],
      "name": "getArticles",
      "outputs": [
        {
          "components": [
            {
              "internalType": "uint256",
              "name": "id",
              "type": "uint256"
            },
            {
              "internalType": "string",
              "name": "name",
              "type": "string"
            },
            {
              "internalType": "uint256",
              "name": "currentPrice",
              "type": "uint256"
            },
            {
              "internalType": "address",
              "name": "winningBidder",
              "type": "address"
            },
            {
              "internalType": "bool",
              "name": "closed",
              "type": "bool"
            },
            {
              "internalType": "uint256",
              "name": "bought",
              "type": "uint256"
            },
            {
              "internalType": "uint256",
              "name": "boughtFor",
              "type": "uint256"
            }
          ],
          "internalType": "struct DutchAuction.Article[]",
          "name": "",
          "type": "tuple[]"
        }
      ],
      "stateMutability": "view",
      "type": "function",
      "constant": true
    },
    {
      "inputs": [
        {
          "internalType": "uint256",
          "name": "auctionIndex",
          "type": "uint256"
        }
      ],
      "name": "getCurrentArticle",
      "outputs": [
        {
          "components": [
            {
              "internalType": "uint256",
              "name": "id",
              "type": "uint256"
            },
            {
              "internalType": "string",
              "name": "name",
              "type": "string"
            },
            {
              "internalType": "uint256",
              "name": "currentPrice",
              "type": "uint256"
            },
            {
              "internalType": "address",
              "name": "winningBidder",
              "type": "address"
            },
            {
              "internalType": "bool",
              "name": "closed",
              "type": "bool"
            },
            {
              "internalType": "uint256",
              "name": "bought",
              "type": "uint256"
            },
            {
              "internalType": "uint256",
              "name": "boughtFor",
              "type": "uint256"
            }
          ],
          "internalType": "struct DutchAuction.Article",
          "name": "",
          "type": "tuple"
        }
      ],
      "stateMutability": "view",
      "type": "function",
      "constant": true
    },
    {
      "inputs": [
        {
          "internalType": "uint256",
          "name": "auctionIndex",
          "type": "uint256"
        }
      ],
      "name": "getArticleNames",
      "outputs": [
        {
          "internalType": "string[]",
          "name": "",
          "type": "string[]"
        }
      ],
      "stateMutability": "view",
      "type": "function",
      "constant": true
    },
    {
      "inputs": [
        {
          "internalType": "uint256",
          "name": "auctionIndex",
          "type": "uint256"
        }
      ],
      "name": "getOpenArticles",
      "outputs": [
        {
          "components": [
            {
              "internalType": "uint256",
              "name": "id",
              "type": "uint256"
            },
            {
              "internalType": "string",
              "name": "name",
              "type": "string"
            },
            {
              "internalType": "uint256",
              "name": "currentPrice",
              "type": "uint256"
            },
            {
              "internalType": "address",
              "name": "winningBidder",
              "type": "address"
            },
            {
              "internalType": "bool",
              "name": "closed",
              "type": "bool"
            },
            {
              "internalType": "uint256",
              "name": "bought",
              "type": "uint256"
            },
            {
              "internalType": "uint256",
              "name": "boughtFor",
              "type": "uint256"
            }
          ],
          "internalType": "struct DutchAuction.Article[]",
          "name": "",
          "type": "tuple[]"
        }
      ],
      "stateMutability": "view",
      "type": "function",
      "constant": true
    },
    {
      "inputs": [],
      "name": "getOpenAuctions",
      "outputs": [
        {
          "components": [
            {
              "internalType": "uint256",
              "name": "id",
              "type": "uint256"
            },
            {
              "internalType": "string",
              "name": "name",
              "type": "string"
            },
            {
              "internalType": "uint256",
              "name": "currentArticleIndex",
              "type": "uint256"
            },
            {
              "internalType": "address",
              "name": "auctioneer",
              "type": "address"
            },
            {
              "components": [
                {
                  "internalType": "uint256",
                  "name": "id",
                  "type": "uint256"
                },
                {
                  "internalType": "string",
                  "name": "name",
                  "type": "string"
                },
                {
                  "internalType": "uint256",
                  "name": "currentPrice",
                  "type": "uint256"
                },
                {
                  "internalType": "address",
                  "name": "winningBidder",
                  "type": "address"
                },
                {
                  "internalType": "bool",
                  "name": "closed",
                  "type": "bool"
                },
                {
                  "internalType": "uint256",
                  "name": "bought",
                  "type": "uint256"
                },
                {
                  "internalType": "uint256",
                  "name": "boughtFor",
                  "type": "uint256"
                }
              ],
              "internalType": "struct DutchAuction.Article[]",
              "name": "articles",
              "type": "tuple[]"
            },
            {
              "internalType": "uint256",
              "name": "auctionStartTime",
              "type": "uint256"
            },
            {
              "internalType": "uint256",
              "name": "startTimeCurrentAuction",
              "type": "uint256"
            },
            {
              "internalType": "bool",
              "name": "closed",
              "type": "bool"
            },
            {
              "internalType": "uint256",
              "name": "auction_duration",
              "type": "uint256"
            },
            {
              "internalType": "uint256",
              "name": "starting_price",
              "type": "uint256"
            },
            {
              "internalType": "uint256",
              "name": "price_decrement",
              "type": "uint256"
            },
            {
              "internalType": "uint256",
              "name": "reserve_price",
              "type": "uint256"
            },
            {
              "internalType": "uint256",
              "name": "interval",
              "type": "uint256"
            }
          ],
          "internalType": "struct DutchAuction.Auction[]",
          "name": "",
          "type": "tuple[]"
        }
      ],
      "stateMutability": "view",
      "type": "function",
      "constant": true
    },
    {
      "inputs": [
        {
          "internalType": "address",
          "name": "auctioneer",
          "type": "address"
        }
      ],
      "name": "getAuctionsFor",
      "outputs": [
        {
          "components": [
            {
              "internalType": "uint256",
              "name": "id",
              "type": "uint256"
            },
            {
              "internalType": "string",
              "name": "name",
              "type": "string"
            },
            {
              "internalType": "uint256",
              "name": "currentArticleIndex",
              "type": "uint256"
            },
            {
              "internalType": "address",
              "name": "auctioneer",
              "type": "address"
            },
            {
              "components": [
                {
                  "internalType": "uint256",
                  "name": "id",
                  "type": "uint256"
                },
                {
                  "internalType": "string",
                  "name": "name",
                  "type": "string"
                },
                {
                  "internalType": "uint256",
                  "name": "currentPrice",
                  "type": "uint256"
                },
                {
                  "internalType": "address",
                  "name": "winningBidder",
                  "type": "address"
                },
                {
                  "internalType": "bool",
                  "name": "closed",
                  "type": "bool"
                },
                {
                  "internalType": "uint256",
                  "name": "bought",
                  "type": "uint256"
                },
                {
                  "internalType": "uint256",
                  "name": "boughtFor",
                  "type": "uint256"
                }
              ],
              "internalType": "struct DutchAuction.Article[]",
              "name": "articles",
              "type": "tuple[]"
            },
            {
              "internalType": "uint256",
              "name": "auctionStartTime",
              "type": "uint256"
            },
            {
              "internalType": "uint256",
              "name": "startTimeCurrentAuction",
              "type": "uint256"
            },
            {
              "internalType": "bool",
              "name": "closed",
              "type": "bool"
            },
            {
              "internalType": "uint256",
              "name": "auction_duration",
              "type": "uint256"
            },
            {
              "internalType": "uint256",
              "name": "starting_price",
              "type": "uint256"
            },
            {
              "internalType": "uint256",
              "name": "price_decrement",
              "type": "uint256"
            },
            {
              "internalType": "uint256",
              "name": "reserve_price",
              "type": "uint256"
            },
            {
              "internalType": "uint256",
              "name": "interval",
              "type": "uint256"
            }
          ],
          "internalType": "struct DutchAuction.Auction[]",
          "name": "",
          "type": "tuple[]"
        }
      ],
      "stateMutability": "view",
      "type": "function",
      "constant": true
    },
    {
      "inputs": [],
      "name": "getClosedAuctions",
      "outputs": [
        {
          "components": [
            {
              "internalType": "uint256",
              "name": "id",
              "type": "uint256"
            },
            {
              "internalType": "string",
              "name": "name",
              "type": "string"
            },
            {
              "internalType": "uint256",
              "name": "currentArticleIndex",
              "type": "uint256"
            },
            {
              "internalType": "address",
              "name": "auctioneer",
              "type": "address"
            },
            {
              "components": [
                {
                  "internalType": "uint256",
                  "name": "id",
                  "type": "uint256"
                },
                {
                  "internalType": "string",
                  "name": "name",
                  "type": "string"
                },
                {
                  "internalType": "uint256",
                  "name": "currentPrice",
                  "type": "uint256"
                },
                {
                  "internalType": "address",
                  "name": "winningBidder",
                  "type": "address"
                },
                {
                  "internalType": "bool",
                  "name": "closed",
                  "type": "bool"
                },
                {
                  "internalType": "uint256",
                  "name": "bought",
                  "type": "uint256"
                },
                {
                  "internalType": "uint256",
                  "name": "boughtFor",
                  "type": "uint256"
                }
              ],
              "internalType": "struct DutchAuction.Article[]",
              "name": "articles",
              "type": "tuple[]"
            },
            {
              "internalType": "uint256",
              "name": "auctionStartTime",
              "type": "uint256"
            },
            {
              "internalType": "uint256",
              "name": "startTimeCurrentAuction",
              "type": "uint256"
            },
            {
              "internalType": "bool",
              "name": "closed",
              "type": "bool"
            },
            {
              "internalType": "uint256",
              "name": "auction_duration",
              "type": "uint256"
            },
            {
              "internalType": "uint256",
              "name": "starting_price",
              "type": "uint256"
            },
            {
              "internalType": "uint256",
              "name": "price_decrement",
              "type": "uint256"
            },
            {
              "internalType": "uint256",
              "name": "reserve_price",
              "type": "uint256"
            },
            {
              "internalType": "uint256",
              "name": "interval",
              "type": "uint256"
            }
          ],
          "internalType": "struct DutchAuction.Auction[]",
          "name": "",
          "type": "tuple[]"
        }
      ],
      "stateMutability": "view",
      "type": "function",
      "constant": true
    },
    {
      "inputs": [
        {
          "internalType": "uint256",
          "name": "auctionIndex",
          "type": "uint256"
        }
      ],
      "name": "getClosedArticles",
      "outputs": [
        {
          "components": [
            {
              "internalType": "uint256",
              "name": "id",
              "type": "uint256"
            },
            {
              "internalType": "string",
              "name": "name",
              "type": "string"
            },
            {
              "internalType": "uint256",
              "name": "currentPrice",
              "type": "uint256"
            },
            {
              "internalType": "address",
              "name": "winningBidder",
              "type": "address"
            },
            {
              "internalType": "bool",
              "name": "closed",
              "type": "bool"
            },
            {
              "internalType": "uint256",
              "name": "bought",
              "type": "uint256"
            },
            {
              "internalType": "uint256",
              "name": "boughtFor",
              "type": "uint256"
            }
          ],
          "internalType": "struct DutchAuction.Article[]",
          "name": "",
          "type": "tuple[]"
        }
      ],
      "stateMutability": "view",
      "type": "function",
      "constant": true
    },
    {
      "inputs": [
        {
          "internalType": "uint256",
          "name": "auctionIndex",
          "type": "uint256"
        }
      ],
      "name": "getCurrentPrice",
      "outputs": [
        {
          "internalType": "uint256",
          "name": "",
          "type": "uint256"
        }
      ],
      "stateMutability": "view",
      "type": "function",
      "constant": true
    },
    {
      "inputs": [
        {
          "internalType": "uint256",
          "name": "auctionIndex",
          "type": "uint256"
        }
      ],
      "name": "getStartTime",
      "outputs": [
        {
          "internalType": "uint256",
          "name": "",
          "type": "uint256"
        }
      ],
      "stateMutability": "view",
      "type": "function",
      "constant": true
    },
    {
      "inputs": [
        {
          "internalType": "uint256",
          "name": "auctionIndex",
          "type": "uint256"
        }
      ],
      "name": "getElapsedTime",
      "outputs": [
        {
          "internalType": "uint256",
          "name": "",
          "type": "uint256"
        }
      ],
      "stateMutability": "view",
      "type": "function",
      "constant": true
    },
    {
      "inputs": [],
      "name": "getTimeStamp",
      "outputs": [
        {
          "internalType": "uint256",
          "name": "",
          "type": "uint256"
        }
      ],
      "stateMutability": "view",
      "type": "function",
      "constant": true
    },
    {
      "inputs": [],
      "name": "getAuctions",
      "outputs": [
        {
          "components": [
            {
              "internalType": "uint256",
              "name": "id",
              "type": "uint256"
            },
            {
              "internalType": "string",
              "name": "name",
              "type": "string"
            },
            {
              "internalType": "uint256",
              "name": "currentArticleIndex",
              "type": "uint256"
            },
            {
              "internalType": "address",
              "name": "auctioneer",
              "type": "address"
            },
            {
              "components": [
                {
                  "internalType": "uint256",
                  "name": "id",
                  "type": "uint256"
                },
                {
                  "internalType": "string",
                  "name": "name",
                  "type": "string"
                },
                {
                  "internalType": "uint256",
                  "name": "currentPrice",
                  "type": "uint256"
                },
                {
                  "internalType": "address",
                  "name": "winningBidder",
                  "type": "address"
                },
                {
                  "internalType": "bool",
                  "name": "closed",
                  "type": "bool"
                },
                {
                  "internalType": "uint256",
                  "name": "bought",
                  "type": "uint256"
                },
                {
                  "internalType": "uint256",
                  "name": "boughtFor",
                  "type": "uint256"
                }
              ],
              "internalType": "struct DutchAuction.Article[]",
              "name": "articles",
              "type": "tuple[]"
            },
            {
              "internalType": "uint256",
              "name": "auctionStartTime",
              "type": "uint256"
            },
            {
              "internalType": "uint256",
              "name": "startTimeCurrentAuction",
              "type": "uint256"
            },
            {
              "internalType": "bool",
              "name": "closed",
              "type": "bool"
            },
            {
              "internalType": "uint256",
              "name": "auction_duration",
              "type": "uint256"
            },
            {
              "internalType": "uint256",
              "name": "starting_price",
              "type": "uint256"
            },
            {
              "internalType": "uint256",
              "name": "price_decrement",
              "type": "uint256"
            },
            {
              "internalType": "uint256",
              "name": "reserve_price",
              "type": "uint256"
            },
            {
              "internalType": "uint256",
              "name": "interval",
              "type": "uint256"
            }
          ],
          "internalType": "struct DutchAuction.Auction[]",
          "name": "",
          "type": "tuple[]"
        }
      ],
      "stateMutability": "view",
      "type": "function",
      "constant": true
    },
    {
      "inputs": [
        {
          "internalType": "uint256",
          "name": "id",
          "type": "uint256"
        }
      ],
      "name": "getAuction",
      "outputs": [
        {
          "components": [
            {
              "internalType": "uint256",
              "name": "id",
              "type": "uint256"
            },
            {
              "internalType": "string",
              "name": "name",
              "type": "string"
            },
            {
              "internalType": "uint256",
              "name": "currentArticleIndex",
              "type": "uint256"
            },
            {
              "internalType": "address",
              "name": "auctioneer",
              "type": "address"
            },
            {
              "components": [
                {
                  "internalType": "uint256",
                  "name": "id",
                  "type": "uint256"
                },
                {
                  "internalType": "string",
                  "name": "name",
                  "type": "string"
                },
                {
                  "internalType": "uint256",
                  "name": "currentPrice",
                  "type": "uint256"
                },
                {
                  "internalType": "address",
                  "name": "winningBidder",
                  "type": "address"
                },
                {
                  "internalType": "bool",
                  "name": "closed",
                  "type": "bool"
                },
                {
                  "internalType": "uint256",
                  "name": "bought",
                  "type": "uint256"
                },
                {
                  "internalType": "uint256",
                  "name": "boughtFor",
                  "type": "uint256"
                }
              ],
              "internalType": "struct DutchAuction.Article[]",
              "name": "articles",
              "type": "tuple[]"
            },
            {
              "internalType": "uint256",
              "name": "auctionStartTime",
              "type": "uint256"
            },
            {
              "internalType": "uint256",
              "name": "startTimeCurrentAuction",
              "type": "uint256"
            },
            {
              "internalType": "bool",
              "name": "closed",
              "type": "bool"
            },
            {
              "internalType": "uint256",
              "name": "auction_duration",
              "type": "uint256"
            },
            {
              "internalType": "uint256",
              "name": "starting_price",
              "type": "uint256"
            },
            {
              "internalType": "uint256",
              "name": "price_decrement",
              "type": "uint256"
            },
            {
              "internalType": "uint256",
              "name": "reserve_price",
              "type": "uint256"
            },
            {
              "internalType": "uint256",
              "name": "interval",
              "type": "uint256"
            }
          ],
          "internalType": "struct DutchAuction.Auction",
          "name": "",
          "type": "tuple"
        }
      ],
      "stateMutability": "view",
      "type": "function",
      "constant": true
    },
    {
      "inputs": [
        {
          "internalType": "uint256",
          "name": "articleIndex",
          "type": "uint256"
        },
        {
          "internalType": "uint256",
          "name": "auctionIndex",
          "type": "uint256"
        }
      ],
      "name": "placeBid",
      "outputs": [],
      "stateMutability": "payable",
      "type": "function",
      "payable": true
    },
    {
      "inputs": [
        {
          "internalType": "uint256",
          "name": "auctionIndex",
          "type": "uint256"
        }
      ],
      "name": "closeAuction",
      "outputs": [],
      "stateMutability": "nonpayable",
      "type": "function"
    },
    {
      "inputs": [
        {
          "internalType": "uint256",
          "name": "auctionIndex",
          "type": "uint256"
        }
      ],
      "name": "openAuction",
      "outputs": [],
      "stateMutability": "nonpayable",
      "type": "function"
    },
    {
      "inputs": [
        {
          "internalType": "string",
          "name": "name",
          "type": "string"
        },
        {
          "internalType": "string[]",
          "name": "articles",
          "type": "string[]"
        },
        {
          "internalType": "bool",
          "name": "closed",
          "type": "bool"
        },
        {
          "internalType": "uint256",
          "name": "auction_duration",
          "type": "uint256"
        },
        {
          "internalType": "uint256",
          "name": "starting_price",
          "type": "uint256"
        },
        {
          "internalType": "uint256",
          "name": "price_decrement",
          "type": "uint256"
        },
        {
          "internalType": "uint256",
          "name": "reserve_price",
          "type": "uint256"
        },
        {
          "internalType": "uint256",
          "name": "interval",
          "type": "uint256"
        }
      ],
      "name": "createAuction",
      "outputs": [],
      "stateMutability": "nonpayable",
      "type": "function"
    }
  ],
  "bytecode": "0x60806040523480156200001157600080fd5b50436000819055507fdd970dd9b5bfe707922155b058a407655cb18288b807e2216442bca8ad83d6b5426040516200004a91906200083e565b60405180910390a16000600467ffffffffffffffff81111562000072576200007162000870565b5b604051908082528060200260200182016040528015620000a757816020015b6060815260200190600190039081620000915790505b5090506040518060400160405280600981526020017f41727469636c652031000000000000000000000000000000000000000000000081525081600081518110620000f757620000f66200089f565b5b60200260200101819052506040518060400160405280600981526020017f41727469636c6520320000000000000000000000000000000000000000000000815250816001815181106200014f576200014e6200089f565b5b60200260200101819052506040518060400160405280600981526020017f41727469636c652033000000000000000000000000000000000000000000000081525081600281518110620001a757620001a66200089f565b5b60200260200101819052506040518060400160405280600981526020017f41727469636c652034000000000000000000000000000000000000000000000081525081600381518110620001ff57620001fe6200089f565b5b6020026020010181905250620002736040518060400160405280600981526020017f41756374696f6e20310000000000000000000000000000000000000000000000815250826000610e10670de0b6b3a764000067016345785d8a00006702c68af0bb14000060326200044460201b60201c565b6000600367ffffffffffffffff81111562000293576200029262000870565b5b604051908082528060200260200182016040528015620002c857816020015b6060815260200190600190039081620002b25790505b5090506040518060400160405280600781526020017f4368656d69736500000000000000000000000000000000000000000000000000815250816000815181106200031857620003176200089f565b5b60200260200101819052506040518060400160405280600281526020017f50430000000000000000000000000000000000000000000000000000000000008152508160018151811062000370576200036f6200089f565b5b60200260200101819052506040518060400160405280600681526020017f56616c697365000000000000000000000000000000000000000000000000000081525081600281518110620003c857620003c76200089f565b5b60200260200101819052506200043c6040518060400160405280600981526020017f41756374696f6e20320000000000000000000000000000000000000000000000815250826000610e10670de0b6b3a764000067016345785d8a00006702c68af0bb14000060326200044460201b60201c565b505062000a6b565b600060018054905090506000339050600042905060008190506000600180816001815401808255809150500390600052602060002090600d020190508481600001819055508c816001019080519060200190620004a392919062000712565b5060008160020181905550838160030160006101000a81548173ffffffffffffffffffffffffffffffffffffffff021916908373ffffffffffffffffffffffffffffffffffffffff1602179055508281600501819055508181600601819055508a8160070160006101000a81548160ff0219169083151502179055508981600801819055508881600901819055508781600a01819055508681600b01819055508581600c01819055506000600190505b8c518111620006c957816004016040518060e001604052808381526020018f600185620005819190620008fd565b815181106200059557620005946200089f565b5b602002602001015181526020018c8152602001600073ffffffffffffffffffffffffffffffffffffffff16815260200160001515815260200160008152602001600081525090806001815401808255809150506001900390600052602060002090600602016000909190919091506000820151816000015560208201518160010190805190602001906200062b92919062000712565b506040820151816002015560608201518160030160006101000a81548173ffffffffffffffffffffffffffffffffffffffff021916908373ffffffffffffffffffffffffffffffffffffffff16021790555060808201518160030160146101000a81548160ff02191690831515021790555060a0820151816004015560c0820151816005015550508080620006c09062000938565b91505062000553565b507fdd970dd9b5bfe707922155b058a407655cb18288b807e2216442bca8ad83d6b583604051620006fb9190620009d5565b60405180910390a150505050505050505050505050565b828054620007209062000a36565b90600052602060002090601f01602090048101928262000744576000855562000790565b82601f106200075f57805160ff191683800117855562000790565b8280016001018555821562000790579182015b828111156200078f57825182559160200191906001019062000772565b5b5090506200079f9190620007a3565b5090565b5b80821115620007be576000816000905550600101620007a4565b5090565b600082825260208201905092915050565b7f437265617465436f6e74726163743a0000000000000000000000000000000000600082015250565b60006200080b600f83620007c2565b91506200081882620007d3565b602082019050919050565b6000819050919050565b620008388162000823565b82525050565b600060408201905081810360008301526200085981620007fc565b90506200086a60208301846200082d565b92915050565b7f4e487b7100000000000000000000000000000000000000000000000000000000600052604160045260246000fd5b7f4e487b7100000000000000000000000000000000000000000000000000000000600052603260045260246000fd5b7f4e487b7100000000000000000000000000000000000000000000000000000000600052601160045260246000fd5b60006200090a8262000823565b9150620009178362000823565b9250828210156200092d576200092c620008ce565b5b828203905092915050565b6000620009458262000823565b91507fffffffffffffffffffffffffffffffffffffffffffffffffffffffffffffffff82036200097a5762000979620008ce565b5b600182019050919050565b7f4372656174652041756374696f6e3a0000000000000000000000000000000000600082015250565b6000620009bd600f83620007c2565b9150620009ca8262000985565b602082019050919050565b60006040820190508181036000830152620009f081620009ae565b905062000a0160208301846200082d565b92915050565b7f4e487b7100000000000000000000000000000000000000000000000000000000600052602260045260246000fd5b6000600282049050600182168062000a4f57607f821691505b60208210810362000a655762000a6462000a07565b5b50919050565b6150548062000a7b6000396000f3fe6080604052600436106101665760003560e01c8063a35dfd38116100d1578063cd7ca1e01161008a578063da235b2211610064578063da235b221461059c578063dd21d604146105c7578063e9561822146105f2578063f1ead3d61461061d57610166565b8063cd7ca1e014610509578063d12f702914610546578063d7c069191461057157610166565b8063a35dfd38146103c1578063a4b473d8146103fe578063b05940f214610427578063bc2be1be14610452578063c55d0f561461048f578063c755cebc146104cc57610166565b8063571a26a011610123578063571a26a01461029f57806357c90de5146102e757806378bd793514610303578063822e06fd1461034057806389facb201461036b578063a271e5251461039657610166565b80631edc8f911461016b578063236ed8f314610194578063413170a9146101bd57806348cd4cb1146101fa57806349cb9eb814610225578063557a0b1814610262575b600080fd5b34801561017757600080fd5b50610192600480360381019061018d9190613acc565b61065a565b005b3480156101a057600080fd5b506101bb60048036038101906101b69190613acc565b610836565b005b3480156101c957600080fd5b506101e460048036038101906101df9190613acc565b6108a3565b6040516101f19190613d5b565b60405180910390f35b34801561020657600080fd5b5061020f610a52565b60405161021c9190613d8c565b60405180910390f35b34801561023157600080fd5b5061024c60048036038101906102479190613acc565b610a58565b6040516102599190613d5b565b60405180910390f35b34801561026e57600080fd5b5061028960048036038101906102849190613acc565b610e53565b6040516102969190613e43565b60405180910390f35b3480156102ab57600080fd5b506102c660048036038101906102c19190613acc565b611091565b6040516102de9c9b9a99989796959493929190613ecd565b60405180910390f35b61030160048036038101906102fc9190613f8e565b6111b6565b005b34801561030f57600080fd5b5061032a60048036038101906103259190613acc565b61180f565b6040516103379190614174565b60405180910390f35b34801561034c57600080fd5b50610355611b33565b6040516103629190614378565b60405180910390f35b34801561037757600080fd5b50610380611fa1565b60405161038d9190613d8c565b60405180910390f35b3480156103a257600080fd5b506103ab611fa6565b6040516103b89190613d8c565b60405180910390f35b3480156103cd57600080fd5b506103e860048036038101906103e39190613acc565b611fac565b6040516103f5919061445c565b60405180910390f35b34801561040a57600080fd5b50610425600480360381019061042091906146c5565b612167565b005b34801561043357600080fd5b5061043c612426565b6040516104499190614378565b60405180910390f35b34801561045e57600080fd5b5061047960048036038101906104749190613acc565b612892565b6040516104869190613d8c565b60405180910390f35b34801561049b57600080fd5b506104b660048036038101906104b19190613acc565b6128c1565b6040516104c39190613d8c565b60405180910390f35b3480156104d857600080fd5b506104f360048036038101906104ee9190613acc565b6129cc565b6040516105009190613d8c565b60405180910390f35b34801561051557600080fd5b50610530600480360381019061052b9190613acc565b612a0d565b60405161053d9190613d5b565b60405180910390f35b34801561055257600080fd5b5061055b612e81565b6040516105689190613d8c565b60405180910390f35b34801561057d57600080fd5b50610586612e8d565b6040516105939190614378565b60405180910390f35b3480156105a857600080fd5b506105b16131d4565b6040516105be9190613d8c565b60405180910390f35b3480156105d357600080fd5b506105dc6131e1565b6040516105e99190613d8c565b60405180910390f35b3480156105fe57600080fd5b506106076131ed565b6040516106149190613d8c565b60405180910390f35b34801561062957600080fd5b50610644600480360381019061063f91906147df565b6131f9565b6040516106519190614378565b60405180910390f35b6000805b600183815481106106725761067161480c565b5b90600052602060002090600d02016004018054905081101561070a57600183815481106106a2576106a161480c565b5b90600052602060002090600d020160040181815481106106c5576106c461480c565b5b906000526020600020906006020160030160149054906101000a900460ff166106f75781806106f39061486a565b9250505b80806107029061486a565b91505061065e565b506000811161074e576040517f08c379a000000000000000000000000000000000000000000000000000000000815260040161074590614924565b60405180910390fd5b6000600183815481106107645761076361480c565b5b90600052602060002090600d020160070160006101000a81548160ff02191690831515021790555042600183815481106107a1576107a061480c565b5b90600052602060002090600d020160050181905550600182815481106107ca576107c961480c565b5b90600052602060002090600d020160050154600183815481106107f0576107ef61480c565b5b90600052602060002090600d020160060181905550817fac4a907ec29adcc56774b757ecb1e1b4d597374fc9386107d05e2670259df7d360405160405180910390a25050565b600180828154811061084b5761084a61480c565b5b90600052602060002090600d020160070160006101000a81548160ff021916908315150217905550807fac4a907ec29adcc56774b757ecb1e1b4d597374fc9386107d05e2670259df7d360405160405180910390a250565b6060600182815481106108b9576108b861480c565b5b90600052602060002090600d0201600401805480602002602001604051908101604052809291908181526020016000905b82821015610a4757838290600052602060002090600602016040518060e00160405290816000820154815260200160018201805461092790614973565b80601f016020809104026020016040519081016040528092919081815260200182805461095390614973565b80156109a05780601f10610975576101008083540402835291602001916109a0565b820191906000526020600020905b81548152906001019060200180831161098357829003601f168201915b50505050508152602001600282015481526020016003820160009054906101000a900473ffffffffffffffffffffffffffffffffffffffff1673ffffffffffffffffffffffffffffffffffffffff1673ffffffffffffffffffffffffffffffffffffffff1681526020016003820160149054906101000a900460ff1615151515815260200160048201548152602001600582015481525050815260200190600101906108ea565b505050509050919050565b60005481565b6060600060018381548110610a7057610a6f61480c565b5b90600052602060002090600d020160070160009054906101000a900460ff16610df05760005b60018481548110610aaa57610aa961480c565b5b90600052602060002090600d020160040180549050811015610b425760018481548110610ada57610ad961480c565b5b90600052602060002090600d02016004018181548110610afd57610afc61480c565b5b906000526020600020906006020160030160149054906101000a900460ff16610b2f578180610b2b9061486a565b9250505b8080610b3a9061486a565b915050610a96565b5060008167ffffffffffffffff811115610b5f57610b5e614488565b5b604051908082528060200260200182016040528015610b9857816020015b610b8561390a565b815260200190600190039081610b7d5790505b5090506000805b60018681548110610bb357610bb261480c565b5b90600052602060002090600d020160040180549050811015610de45760018681548110610be357610be261480c565b5b90600052602060002090600d02016004018181548110610c0657610c0561480c565b5b906000526020600020906006020160030160149054906101000a900460ff16610dd15760018681548110610c3d57610c3c61480c565b5b90600052602060002090600d02016004018181548110610c6057610c5f61480c565b5b90600052602060002090600602016040518060e001604052908160008201548152602001600182018054610c9390614973565b80601f0160208091040260200160405190810160405280929190818152602001828054610cbf90614973565b8015610d0c5780601f10610ce157610100808354040283529160200191610d0c565b820191906000526020600020905b815481529060010190602001808311610cef57829003601f168201915b50505050508152602001600282015481526020016003820160009054906101000a900473ffffffffffffffffffffffffffffffffffffffff1673ffffffffffffffffffffffffffffffffffffffff1673ffffffffffffffffffffffffffffffffffffffff1681526020016003820160149054906101000a900460ff1615151515815260200160048201548152602001600582015481525050838381518110610db757610db661480c565b5b60200260200101819052508180610dcd9061486a565b9250505b8080610ddc9061486a565b915050610b9f565b50819350505050610e4e565b60008067ffffffffffffffff811115610e0c57610e0b614488565b5b604051908082528060200260200182016040528015610e4557816020015b610e3261390a565b815260200190600190039081610e2a5790505b50905080925050505b919050565b610e5b61390a565b60018281548110610e6f57610e6e61480c565b5b90600052602060002090600d02016004018054905060018381548110610e9857610e9761480c565b5b90600052602060002090600d02016002015410610eea576040517f08c379a0000000000000000000000000000000000000000000000000000000008152600401610ee1906149f0565b60405180910390fd5b60018281548110610efe57610efd61480c565b5b90600052602060002090600d020160040160018381548110610f2357610f2261480c565b5b90600052602060002090600d02016002015481548110610f4657610f4561480c565b5b90600052602060002090600602016040518060e001604052908160008201548152602001600182018054610f7990614973565b80601f0160208091040260200160405190810160405280929190818152602001828054610fa590614973565b8015610ff25780601f10610fc757610100808354040283529160200191610ff2565b820191906000526020600020905b815481529060010190602001808311610fd557829003601f168201915b50505050508152602001600282015481526020016003820160009054906101000a900473ffffffffffffffffffffffffffffffffffffffff1673ffffffffffffffffffffffffffffffffffffffff1673ffffffffffffffffffffffffffffffffffffffff1681526020016003820160149054906101000a900460ff16151515158152602001600482015481526020016005820154815250509050919050565b600181815481106110a157600080fd5b90600052602060002090600d02016000915090508060000154908060010180546110ca90614973565b80601f01602080910402602001604051908101604052809291908181526020018280546110f690614973565b80156111435780601f1061111857610100808354040283529160200191611143565b820191906000526020600020905b81548152906001019060200180831161112657829003601f168201915b5050505050908060020154908060030160009054906101000a900473ffffffffffffffffffffffffffffffffffffffff16908060050154908060060154908060070160009054906101000a900460ff169080600801549080600901549080600a01549080600b01549080600c015490508c565b80600181815481106111cb576111ca61480c565b5b90600052602060002090600d02016005015442101561121f576040517f08c379a000000000000000000000000000000000000000000000000000000000815260040161121690614a82565b60405180910390fd5b600181815481106112335761123261480c565b5b90600052602060002090600d020160080154600182815481106112595761125861480c565b5b90600052602060002090600d0201600501546112759190614aa2565b42106112b6576040517f08c379a00000000000000000000000000000000000000000000000000000000081526004016112ad90614b44565b60405180910390fd5b8282600181815481106112cc576112cb61480c565b5b90600052602060002090600d0201600401805490508210611322576040517f08c379a000000000000000000000000000000000000000000000000000000000815260040161131990614bb0565b60405180910390fd5b600181815481106113365761133561480c565b5b90600052602060002090600d020160040182815481106113595761135861480c565b5b906000526020600020906006020160030160149054906101000a900460ff16156113b8576040517f08c379a00000000000000000000000000000000000000000000000000000000081526004016113af90614c1c565b60405180910390fd5b600034116113fb576040517f08c379a00000000000000000000000000000000000000000000000000000000081526004016113f290614cae565b60405180910390fd5b6000611406856128c1565b905080341015611415426136e9565b6114436001888154811061142c5761142b61480c565b5b90600052602060002090600d0201600501546136e9565b604051602001611454929190614dc8565b604051602081830303815290604052906114a4576040517f08c379a000000000000000000000000000000000000000000000000000000000815260040161149b9190614e02565b60405180910390fd5b50600185815481106114b9576114b861480c565b5b90600052602060002090600d020160040180549050600186815481106114e2576114e161480c565b5b90600052602060002090600d02016002015410611534576040517f08c379a000000000000000000000000000000000000000000000000000000000815260040161152b90614e96565b60405180910390fd5b6000429050336001878154811061154e5761154d61480c565b5b90600052602060002090600d020160040188815481106115715761157061480c565b5b906000526020600020906006020160030160006101000a81548173ffffffffffffffffffffffffffffffffffffffff021916908373ffffffffffffffffffffffffffffffffffffffff16021790555060018087815481106115d5576115d461480c565b5b90600052602060002090600d020160040188815481106115f8576115f761480c565b5b906000526020600020906006020160030160146101000a81548160ff02191690831515021790555080600187815481106116355761163461480c565b5b90600052602060002090600d020160040188815481106116585761165761480c565b5b90600052602060002090600602016004018190555034600187815481106116825761168161480c565b5b90600052602060002090600d020160040188815481106116a5576116a461480c565b5b906000526020600020906006020160050181905550600186815481106116ce576116cd61480c565b5b90600052602060002090600d020160020160008154809291906116f09061486a565b9190505550600186815481106117095761170861480c565b5b90600052602060002090600d020160040180549050600187815481106117325761173161480c565b5b90600052602060002090600d020160020154101561177957806001878154811061175f5761175e61480c565b5b90600052602060002090600d0201600601819055506117b7565b600180878154811061178e5761178d61480c565b5b90600052602060002090600d020160070160006101000a81548160ff0219169083151502179055505b3373ffffffffffffffffffffffffffffffffffffffff16877f0e54eff26401bf69b81b26f60bd85ef47f5d85275c1d268d84f68d6897431c47346040516117fe9190613d8c565b60405180910390a350505050505050565b61181761395f565b6001828154811061182b5761182a61480c565b5b90600052602060002090600d0201604051806101a00160405290816000820154815260200160018201805461185f90614973565b80601f016020809104026020016040519081016040528092919081815260200182805461188b90614973565b80156118d85780601f106118ad576101008083540402835291602001916118d8565b820191906000526020600020905b8154815290600101906020018083116118bb57829003601f168201915b50505050508152602001600282015481526020016003820160009054906101000a900473ffffffffffffffffffffffffffffffffffffffff1673ffffffffffffffffffffffffffffffffffffffff1673ffffffffffffffffffffffffffffffffffffffff16815260200160048201805480602002602001604051908101604052809291908181526020016000905b82821015611ac357838290600052602060002090600602016040518060e0016040529081600082015481526020016001820180546119a390614973565b80601f01602080910402602001604051908101604052809291908181526020018280546119cf90614973565b8015611a1c5780601f106119f157610100808354040283529160200191611a1c565b820191906000526020600020905b8154815290600101906020018083116119ff57829003601f168201915b50505050508152602001600282015481526020016003820160009054906101000a900473ffffffffffffffffffffffffffffffffffffffff1673ffffffffffffffffffffffffffffffffffffffff1673ffffffffffffffffffffffffffffffffffffffff1681526020016003820160149054906101000a900460ff161515151581526020016004820154815260200160058201548152505081526020019060010190611966565b50505050815260200160058201548152602001600682015481526020016007820160009054906101000a900460ff161515151581526020016008820154815260200160098201548152602001600a8201548152602001600b8201548152602001600c820154815250509050919050565b60606000805b600180549050811015611ba05760018181548110611b5a57611b5961480c565b5b90600052602060002090600d020160070160009054906101000a900460ff1615611b8d578180611b899061486a565b9250505b8080611b989061486a565b915050611b39565b5060008167ffffffffffffffff811115611bbd57611bbc614488565b5b604051908082528060200260200182016040528015611bf657816020015b611be361395f565b815260200190600190039081611bdb5790505b5090506000805b600180549050811015611f975760018181548110611c1e57611c1d61480c565b5b90600052602060002090600d020160070160009054906101000a900460ff1615611f845760018181548110611c5657611c5561480c565b5b90600052602060002090600d0201604051806101a001604052908160008201548152602001600182018054611c8a90614973565b80601f0160208091040260200160405190810160405280929190818152602001828054611cb690614973565b8015611d035780601f10611cd857610100808354040283529160200191611d03565b820191906000526020600020905b815481529060010190602001808311611ce657829003601f168201915b50505050508152602001600282015481526020016003820160009054906101000a900473ffffffffffffffffffffffffffffffffffffffff1673ffffffffffffffffffffffffffffffffffffffff1673ffffffffffffffffffffffffffffffffffffffff16815260200160048201805480602002602001604051908101604052809291908181526020016000905b82821015611eee57838290600052602060002090600602016040518060e001604052908160008201548152602001600182018054611dce90614973565b80601f0160208091040260200160405190810160405280929190818152602001828054611dfa90614973565b8015611e475780601f10611e1c57610100808354040283529160200191611e47565b820191906000526020600020905b815481529060010190602001808311611e2a57829003601f168201915b50505050508152602001600282015481526020016003820160009054906101000a900473ffffffffffffffffffffffffffffffffffffffff1673ffffffffffffffffffffffffffffffffffffffff1673ffffffffffffffffffffffffffffffffffffffff1681526020016003820160149054906101000a900460ff161515151581526020016004820154815260200160058201548152505081526020019060010190611d91565b50505050815260200160058201548152602001600682015481526020016007820160009054906101000a900460ff161515151581526020016008820154815260200160098201548152602001600a8201548152602001600b8201548152602001600c82015481525050838381518110611f6a57611f6961480c565b5b60200260200101819052508180611f809061486a565b9250505b8080611f8f9061486a565b915050611bfd565b5081935050505090565b603281565b610e1081565b6060600060018381548110611fc457611fc361480c565b5b90600052602060002090600d02016004018054905067ffffffffffffffff811115611ff257611ff1614488565b5b60405190808252806020026020018201604052801561202557816020015b60608152602001906001900390816120105790505b50905060005b6001848154811061203f5761203e61480c565b5b90600052602060002090600d02016004018054905081101561215d576001848154811061206f5761206e61480c565b5b90600052602060002090600d020160040181815481106120925761209161480c565b5b906000526020600020906006020160010180546120ae90614973565b80601f01602080910402602001604051908101604052809291908181526020018280546120da90614973565b80156121275780601f106120fc57610100808354040283529160200191612127565b820191906000526020600020905b81548152906001019060200180831161210a57829003601f168201915b505050505082828151811061213f5761213e61480c565b5b602002602001018190525080806121559061486a565b91505061202b565b5080915050919050565b600060018054905090506000339050600042905060008190506000600180816001815401808255809150500390600052602060002090600d020190508481600001819055508c8160010190805190602001906121c49291906139df565b5060008160020181905550838160030160006101000a81548173ffffffffffffffffffffffffffffffffffffffff021916908373ffffffffffffffffffffffffffffffffffffffff1602179055508281600501819055508181600601819055508a8160070160006101000a81548160ff0219169083151502179055508981600801819055508881600901819055508781600a01819055508681600b01819055508581600c01819055506000600190505b8c5181116123df57816004016040518060e001604052808381526020018f60018561229f9190614eb6565b815181106122b0576122af61480c565b5b602002602001015181526020018c8152602001600073ffffffffffffffffffffffffffffffffffffffff16815260200160001515815260200160008152602001600081525090806001815401808255809150506001900390600052602060002090600602016000909190919091506000820151816000015560208201518160010190805190602001906123449291906139df565b506040820151816002015560608201518160030160006101000a81548173ffffffffffffffffffffffffffffffffffffffff021916908373ffffffffffffffffffffffffffffffffffffffff16021790555060808201518160030160146101000a81548160ff02191690831515021790555060a0820151816004015560c08201518160050155505080806123d79061486a565b915050612274565b507fdd970dd9b5bfe707922155b058a407655cb18288b807e2216442bca8ad83d6b58360405161240f9190614f36565b60405180910390a150505050505050505050505050565b60606000805b600180549050811015612492576001818154811061244d5761244c61480c565b5b90600052602060002090600d020160070160009054906101000a900460ff1661247f57818061247b9061486a565b9250505b808061248a9061486a565b91505061242c565b5060008167ffffffffffffffff8111156124af576124ae614488565b5b6040519080825280602002602001820160405280156124e857816020015b6124d561395f565b8152602001906001900390816124cd5790505b5090506000805b60018054905081101561288857600181815481106125105761250f61480c565b5b90600052602060002090600d020160070160009054906101000a900460ff1661287557600181815481106125475761254661480c565b5b90600052602060002090600d0201604051806101a00160405290816000820154815260200160018201805461257b90614973565b80601f01602080910402602001604051908101604052809291908181526020018280546125a790614973565b80156125f45780601f106125c9576101008083540402835291602001916125f4565b820191906000526020600020905b8154815290600101906020018083116125d757829003601f168201915b50505050508152602001600282015481526020016003820160009054906101000a900473ffffffffffffffffffffffffffffffffffffffff1673ffffffffffffffffffffffffffffffffffffffff1673ffffffffffffffffffffffffffffffffffffffff16815260200160048201805480602002602001604051908101604052809291908181526020016000905b828210156127df57838290600052602060002090600602016040518060e0016040529081600082015481526020016001820180546126bf90614973565b80601f01602080910402602001604051908101604052809291908181526020018280546126eb90614973565b80156127385780601f1061270d57610100808354040283529160200191612738565b820191906000526020600020905b81548152906001019060200180831161271b57829003601f168201915b50505050508152602001600282015481526020016003820160009054906101000a900473ffffffffffffffffffffffffffffffffffffffff1673ffffffffffffffffffffffffffffffffffffffff1673ffffffffffffffffffffffffffffffffffffffff1681526020016003820160149054906101000a900460ff161515151581526020016004820154815260200160058201548152505081526020019060010190612682565b50505050815260200160058201548152602001600682015481526020016007820160009054906101000a900460ff161515151581526020016008820154815260200160098201548152602001600a8201548152602001600b8201548152602001600c8201548152505083838151811061285b5761285a61480c565b5b602002602001018190525081806128719061486a565b9250505b80806128809061486a565b9150506124ef565b5081935050505090565b6000600182815481106128a8576128a761480c565b5b90600052602060002090600d0201600601549050919050565b6000806128cd836129cc565b90506000600184815481106128e5576128e461480c565b5b90600052602060002090600d0201600c0154826129029190614f93565b90506000816001868154811061291b5761291a61480c565b5b90600052602060002090600d0201600a01546129379190614fc4565b6001868154811061294b5761294a61480c565b5b90600052602060002090600d0201600901546129679190614eb6565b90506001858154811061297d5761297c61480c565b5b90600052602060002090600d0201600b015481116129c057600185815481106129a9576129a861480c565b5b90600052602060002090600d0201600b01546129c2565b805b9350505050919050565b6000600182815481106129e2576129e161480c565b5b90600052602060002090600d0201600601546129fc6131d4565b612a069190614eb6565b9050919050565b606060008060018481548110612a2657612a2561480c565b5b90600052602060002090600d0201604051806101a001604052908160008201548152602001600182018054612a5a90614973565b80601f0160208091040260200160405190810160405280929190818152602001828054612a8690614973565b8015612ad35780601f10612aa857610100808354040283529160200191612ad3565b820191906000526020600020905b815481529060010190602001808311612ab657829003601f168201915b50505050508152602001600282015481526020016003820160009054906101000a900473ffffffffffffffffffffffffffffffffffffffff1673ffffffffffffffffffffffffffffffffffffffff1673ffffffffffffffffffffffffffffffffffffffff16815260200160048201805480602002602001604051908101604052809291908181526020016000905b82821015612cbe57838290600052602060002090600602016040518060e001604052908160008201548152602001600182018054612b9e90614973565b80601f0160208091040260200160405190810160405280929190818152602001828054612bca90614973565b8015612c175780601f10612bec57610100808354040283529160200191612c17565b820191906000526020600020905b815481529060010190602001808311612bfa57829003601f168201915b50505050508152602001600282015481526020016003820160009054906101000a900473ffffffffffffffffffffffffffffffffffffffff1673ffffffffffffffffffffffffffffffffffffffff1673ffffffffffffffffffffffffffffffffffffffff1681526020016003820160149054906101000a900460ff161515151581526020016004820154815260200160058201548152505081526020019060010190612b61565b50505050815260200160058201548152602001600682015481526020016007820160009054906101000a900460ff161515151581526020016008820154815260200160098201548152602001600a8201548152602001600b8201548152602001600c82015481525050905060005b816080015151811015612d835781608001518181518110612d5057612d4f61480c565b5b60200260200101516080015115612d70578280612d6c9061486a565b9350505b8080612d7b9061486a565b915050612d2c565b5060008267ffffffffffffffff811115612da057612d9f614488565b5b604051908082528060200260200182016040528015612dd957816020015b612dc661390a565b815260200190600190039081612dbe5790505b5090506000805b836080015151811015612e745783608001518181518110612e0457612e0361480c565b5b60200260200101516080015115612e615783608001518181518110612e2c57612e2b61480c565b5b6020026020010151838381518110612e4757612e4661480c565b5b60200260200101819052508180612e5d9061486a565b9250505b8080612e6c9061486a565b915050612de0565b5081945050505050919050565b670de0b6b3a764000081565b60606001805480602002602001604051908101604052809291908181526020016000905b828210156131cb57838290600052602060002090600d0201604051806101a001604052908160008201548152602001600182018054612eef90614973565b80601f0160208091040260200160405190810160405280929190818152602001828054612f1b90614973565b8015612f685780601f10612f3d57610100808354040283529160200191612f68565b820191906000526020600020905b815481529060010190602001808311612f4b57829003601f168201915b50505050508152602001600282015481526020016003820160009054906101000a900473ffffffffffffffffffffffffffffffffffffffff1673ffffffffffffffffffffffffffffffffffffffff1673ffffffffffffffffffffffffffffffffffffffff16815260200160048201805480602002602001604051908101604052809291908181526020016000905b8282101561315357838290600052602060002090600602016040518060e00160405290816000820154815260200160018201805461303390614973565b80601f016020809104026020016040519081016040528092919081815260200182805461305f90614973565b80156130ac5780601f10613081576101008083540402835291602001916130ac565b820191906000526020600020905b81548152906001019060200180831161308f57829003601f168201915b50505050508152602001600282015481526020016003820160009054906101000a900473ffffffffffffffffffffffffffffffffffffffff1673ffffffffffffffffffffffffffffffffffffffff1673ffffffffffffffffffffffffffffffffffffffff1681526020016003820160149054906101000a900460ff161515151581526020016004820154815260200160058201548152505081526020019060010190612ff6565b50505050815260200160058201548152602001600682015481526020016007820160009054906101000a900460ff161515151581526020016008820154815260200160098201548152602001600a8201548152602001600b8201548152602001600c8201548152505081526020019060010190612eb1565b50505050905090565b6000804290508091505090565b6702c68af0bb14000081565b67016345785d8a000081565b60606000805b6001805490508110156132a6578373ffffffffffffffffffffffffffffffffffffffff16600182815481106132375761323661480c565b5b90600052602060002090600d020160030160009054906101000a900473ffffffffffffffffffffffffffffffffffffffff1673ffffffffffffffffffffffffffffffffffffffff160361329357818061328f9061486a565b9250505b808061329e9061486a565b9150506131ff565b5060008167ffffffffffffffff8111156132c3576132c2614488565b5b6040519080825280602002602001820160405280156132fc57816020015b6132e961395f565b8152602001906001900390816132e15790505b5090506000805b6001805490508110156136dd578573ffffffffffffffffffffffffffffffffffffffff166001828154811061333b5761333a61480c565b5b90600052602060002090600d020160030160009054906101000a900473ffffffffffffffffffffffffffffffffffffffff1673ffffffffffffffffffffffffffffffffffffffff16036136ca576001818154811061339c5761339b61480c565b5b90600052602060002090600d0201604051806101a0016040529081600082015481526020016001820180546133d090614973565b80601f01602080910402602001604051908101604052809291908181526020018280546133fc90614973565b80156134495780601f1061341e57610100808354040283529160200191613449565b820191906000526020600020905b81548152906001019060200180831161342c57829003601f168201915b50505050508152602001600282015481526020016003820160009054906101000a900473ffffffffffffffffffffffffffffffffffffffff1673ffffffffffffffffffffffffffffffffffffffff1673ffffffffffffffffffffffffffffffffffffffff16815260200160048201805480602002602001604051908101604052809291908181526020016000905b8282101561363457838290600052602060002090600602016040518060e00160405290816000820154815260200160018201805461351490614973565b80601f016020809104026020016040519081016040528092919081815260200182805461354090614973565b801561358d5780601f106135625761010080835404028352916020019161358d565b820191906000526020600020905b81548152906001019060200180831161357057829003601f168201915b50505050508152602001600282015481526020016003820160009054906101000a900473ffffffffffffffffffffffffffffffffffffffff1673ffffffffffffffffffffffffffffffffffffffff1673ffffffffffffffffffffffffffffffffffffffff1681526020016003820160149054906101000a900460ff1615151515815260200160048201548152602001600582015481525050815260200190600101906134d7565b50505050815260200160058201548152602001600682015481526020016007820160009054906101000a900460ff161515151581526020016008820154815260200160098201548152602001600a8201548152602001600b8201548152602001600c820154815250508383815181106136b0576136af61480c565b5b602002602001018190525081806136c69061486a565b9250505b80806136d59061486a565b915050613303565b50819350505050919050565b6060600060016136f8846137b7565b01905060008167ffffffffffffffff81111561371757613716614488565b5b6040519080825280601f01601f1916602001820160405280156137495781602001600182028036833780820191505090505b509050600082602001820190505b6001156137ac578080600190039150507f3031323334353637383961626364656600000000000000000000000000000000600a86061a8153600a85816137a05761379f614f64565b5b04945060008503613757575b819350505050919050565b600080600090507a184f03e93ff9f4daa797ed6e38ed64bf6a1f0100000000000000008310613815577a184f03e93ff9f4daa797ed6e38ed64bf6a1f010000000000000000838161380b5761380a614f64565b5b0492506040810190505b6d04ee2d6d415b85acef81000000008310613852576d04ee2d6d415b85acef8100000000838161384857613847614f64565b5b0492506020810190505b662386f26fc10000831061388157662386f26fc10000838161387757613876614f64565b5b0492506010810190505b6305f5e10083106138aa576305f5e10083816138a05761389f614f64565b5b0492506008810190505b61271083106138cf5761271083816138c5576138c4614f64565b5b0492506004810190505b606483106138f257606483816138e8576138e7614f64565b5b0492506002810190505b600a8310613901576001810190505b80915050919050565b6040518060e00160405280600081526020016060815260200160008152602001600073ffffffffffffffffffffffffffffffffffffffff16815260200160001515815260200160008152602001600081525090565b604051806101a00160405280600081526020016060815260200160008152602001600073ffffffffffffffffffffffffffffffffffffffff16815260200160608152602001600081526020016000815260200160001515815260200160008152602001600081526020016000815260200160008152602001600081525090565b8280546139eb90614973565b90600052602060002090601f016020900481019282613a0d5760008555613a54565b82601f10613a2657805160ff1916838001178555613a54565b82800160010185558215613a54579182015b82811115613a53578251825591602001919060010190613a38565b5b509050613a619190613a65565b5090565b5b80821115613a7e576000816000905550600101613a66565b5090565b6000604051905090565b600080fd5b600080fd5b6000819050919050565b613aa981613a96565b8114613ab457600080fd5b50565b600081359050613ac681613aa0565b92915050565b600060208284031215613ae257613ae1613a8c565b5b6000613af084828501613ab7565b91505092915050565b600081519050919050565b600082825260208201905092915050565b6000819050602082019050919050565b613b2e81613a96565b82525050565b600081519050919050565b600082825260208201905092915050565b60005b83811015613b6e578082015181840152602081019050613b53565b83811115613b7d576000848401525b50505050565b6000601f19601f8301169050919050565b6000613b9f82613b34565b613ba98185613b3f565b9350613bb9818560208601613b50565b613bc281613b83565b840191505092915050565b600073ffffffffffffffffffffffffffffffffffffffff82169050919050565b6000613bf882613bcd565b9050919050565b613c0881613bed565b82525050565b60008115159050919050565b613c2381613c0e565b82525050565b600060e083016000830151613c416000860182613b25565b5060208301518482036020860152613c598282613b94565b9150506040830151613c6e6040860182613b25565b506060830151613c816060860182613bff565b506080830151613c946080860182613c1a565b5060a0830151613ca760a0860182613b25565b5060c0830151613cba60c0860182613b25565b508091505092915050565b6000613cd18383613c29565b905092915050565b6000602082019050919050565b6000613cf182613af9565b613cfb8185613b04565b935083602082028501613d0d85613b15565b8060005b85811015613d495784840389528151613d2a8582613cc5565b9450613d3583613cd9565b925060208a01995050600181019050613d11565b50829750879550505050505092915050565b60006020820190508181036000830152613d758184613ce6565b905092915050565b613d8681613a96565b82525050565b6000602082019050613da16000830184613d7d565b92915050565b600060e083016000830151613dbf6000860182613b25565b5060208301518482036020860152613dd78282613b94565b9150506040830151613dec6040860182613b25565b506060830151613dff6060860182613bff565b506080830151613e126080860182613c1a565b5060a0830151613e2560a0860182613b25565b5060c0830151613e3860c0860182613b25565b508091505092915050565b60006020820190508181036000830152613e5d8184613da7565b905092915050565b600082825260208201905092915050565b6000613e8182613b34565b613e8b8185613e65565b9350613e9b818560208601613b50565b613ea481613b83565b840191505092915050565b613eb881613bed565b82525050565b613ec781613c0e565b82525050565b600061018082019050613ee3600083018f613d7d565b8181036020830152613ef5818e613e76565b9050613f04604083018d613d7d565b613f11606083018c613eaf565b613f1e608083018b613d7d565b613f2b60a083018a613d7d565b613f3860c0830189613ebe565b613f4560e0830188613d7d565b613f53610100830187613d7d565b613f61610120830186613d7d565b613f6f610140830185613d7d565b613f7d610160830184613d7d565b9d9c50505050505050505050505050565b60008060408385031215613fa557613fa4613a8c565b5b6000613fb385828601613ab7565b9250506020613fc485828601613ab7565b9150509250929050565b600082825260208201905092915050565b6000613fea82613af9565b613ff48185613fce565b93508360208202850161400685613b15565b8060005b8581101561404257848403895281516140238582613cc5565b945061402e83613cd9565b925060208a0199505060018101905061400a565b50829750879550505050505092915050565b60006101a08301600083015161406d6000860182613b25565b50602083015184820360208601526140858282613b94565b915050604083015161409a6040860182613b25565b5060608301516140ad6060860182613bff565b50608083015184820360808601526140c58282613fdf565b91505060a08301516140da60a0860182613b25565b5060c08301516140ed60c0860182613b25565b5060e083015161410060e0860182613c1a565b50610100830151614115610100860182613b25565b5061012083015161412a610120860182613b25565b5061014083015161413f610140860182613b25565b50610160830151614154610160860182613b25565b50610180830151614169610180860182613b25565b508091505092915050565b6000602082019050818103600083015261418e8184614054565b905092915050565b600081519050919050565b600082825260208201905092915050565b6000819050602082019050919050565b60006101a0830160008301516141db6000860182613b25565b50602083015184820360208601526141f38282613b94565b91505060408301516142086040860182613b25565b50606083015161421b6060860182613bff565b50608083015184820360808601526142338282613fdf565b91505060a083015161424860a0860182613b25565b5060c083015161425b60c0860182613b25565b5060e083015161426e60e0860182613c1a565b50610100830151614283610100860182613b25565b50610120830151614298610120860182613b25565b506101408301516142ad610140860182613b25565b506101608301516142c2610160860182613b25565b506101808301516142d7610180860182613b25565b508091505092915050565b60006142ee83836141c2565b905092915050565b6000602082019050919050565b600061430e82614196565b61431881856141a1565b93508360208202850161432a856141b2565b8060005b85811015614366578484038952815161434785826142e2565b9450614352836142f6565b925060208a0199505060018101905061432e565b50829750879550505050505092915050565b600060208201905081810360008301526143928184614303565b905092915050565b600081519050919050565b600082825260208201905092915050565b6000819050602082019050919050565b60006143d28383613b94565b905092915050565b6000602082019050919050565b60006143f28261439a565b6143fc81856143a5565b93508360208202850161440e856143b6565b8060005b8581101561444a578484038952815161442b85826143c6565b9450614436836143da565b925060208a01995050600181019050614412565b50829750879550505050505092915050565b6000602082019050818103600083015261447681846143e7565b905092915050565b600080fd5b600080fd5b7f4e487b7100000000000000000000000000000000000000000000000000000000600052604160045260246000fd5b6144c082613b83565b810181811067ffffffffffffffff821117156144df576144de614488565b5b80604052505050565b60006144f2613a82565b90506144fe82826144b7565b919050565b600067ffffffffffffffff82111561451e5761451d614488565b5b61452782613b83565b9050602081019050919050565b82818337600083830152505050565b600061455661455184614503565b6144e8565b90508281526020810184848401111561457257614571614483565b5b61457d848285614534565b509392505050565b600082601f83011261459a5761459961447e565b5b81356145aa848260208601614543565b91505092915050565b600067ffffffffffffffff8211156145ce576145cd614488565b5b602082029050602081019050919050565b600080fd5b60006145f76145f2846145b3565b6144e8565b9050808382526020820190506020840283018581111561461a576146196145df565b5b835b8181101561466157803567ffffffffffffffff81111561463f5761463e61447e565b5b80860161464c8982614585565b8552602085019450505060208101905061461c565b5050509392505050565b600082601f8301126146805761467f61447e565b5b81356146908482602086016145e4565b91505092915050565b6146a281613c0e565b81146146ad57600080fd5b50565b6000813590506146bf81614699565b92915050565b600080600080600080600080610100898b0312156146e6576146e5613a8c565b5b600089013567ffffffffffffffff81111561470457614703613a91565b5b6147108b828c01614585565b985050602089013567ffffffffffffffff81111561473157614730613a91565b5b61473d8b828c0161466b565b975050604061474e8b828c016146b0565b965050606061475f8b828c01613ab7565b95505060806147708b828c01613ab7565b94505060a06147818b828c01613ab7565b93505060c06147928b828c01613ab7565b92505060e06147a38b828c01613ab7565b9150509295985092959890939650565b6147bc81613bed565b81146147c757600080fd5b50565b6000813590506147d9816147b3565b92915050565b6000602082840312156147f5576147f4613a8c565b5b6000614803848285016147ca565b91505092915050565b7f4e487b7100000000000000000000000000000000000000000000000000000000600052603260045260246000fd5b7f4e487b7100000000000000000000000000000000000000000000000000000000600052601160045260246000fd5b600061487582613a96565b91507fffffffffffffffffffffffffffffffffffffffffffffffffffffffffffffffff82036148a7576148a661483b565b5b600182019050919050565b7f546f7573206c65732061727469636c657320736f6e742064656a61206665726d60008201527f6573000000000000000000000000000000000000000000000000000000000000602082015250565b600061490e602283613e65565b9150614919826148b2565b604082019050919050565b6000602082019050818103600083015261493d81614901565b9050919050565b7f4e487b7100000000000000000000000000000000000000000000000000000000600052602260045260246000fd5b6000600282049050600182168061498b57607f821691505b60208210810361499e5761499d614944565b5b50919050565b7f546f7573206c65732061727469636c6573206f6e206574652076656e64757300600082015250565b60006149da601f83613e65565b91506149e5826149a4565b602082019050919050565b60006020820190508181036000830152614a09816149cd565b9050919050565b7f4c27656e6368657265206e27612070617320656e636f726520636f6d6d656e6360008201527f6500000000000000000000000000000000000000000000000000000000000000602082015250565b6000614a6c602183613e65565b9150614a7782614a10565b604082019050919050565b60006020820190508181036000830152614a9b81614a5f565b9050919050565b6000614aad82613a96565b9150614ab883613a96565b9250827fffffffffffffffffffffffffffffffffffffffffffffffffffffffffffffffff03821115614aed57614aec61483b565b5b828201905092915050565b7f4c27656e636865726520657374207465726d696e656500000000000000000000600082015250565b6000614b2e601683613e65565b9150614b3982614af8565b602082019050919050565b60006020820190508181036000830152614b5d81614b21565b9050919050565b7f496e646578206465732061727469636c657320696e76616c6964650000000000600082015250565b6000614b9a601b83613e65565b9150614ba582614b64565b602082019050919050565b60006020820190508181036000830152614bc981614b8d565b9050919050565b7f4c2761727469636c65206573742064656a61206665726d650000000000000000600082015250565b6000614c06601883613e65565b9150614c1182614bd0565b602082019050919050565b60006020820190508181036000830152614c3581614bf9565b9050919050565b7f4c65206d6f6e74616e74206465206c27656e636865726520646f69742065747260008201527f65207375706572696575722061207a65726f0000000000000000000000000000602082015250565b6000614c98603283613e65565b9150614ca382614c3c565b604082019050919050565b60006020820190508181036000830152614cc781614c8b565b9050919050565b600081905092915050565b7f4c65206d6f6e74616e74206465206c27656e63686572652065737420696e666560008201527f726965757220617520707269782061637475656c2074696d653a200000000000602082015250565b6000614d35603b83614cce565b9150614d4082614cd9565b603b82019050919050565b6000614d5682613b34565b614d608185614cce565b9350614d70818560208601613b50565b80840191505092915050565b7f207374617274203a200000000000000000000000000000000000000000000000600082015250565b6000614db2600983614cce565b9150614dbd82614d7c565b600982019050919050565b6000614dd382614d28565b9150614ddf8285614d4b565b9150614dea82614da5565b9150614df68284614d4b565b91508190509392505050565b60006020820190508181036000830152614e1c8184613e76565b905092915050565b7f546f7573206c65732061727469636c6573206f6e74206574652076656e64757360008201527f2061757820656e63686572657300000000000000000000000000000000000000602082015250565b6000614e80602d83613e65565b9150614e8b82614e24565b604082019050919050565b60006020820190508181036000830152614eaf81614e73565b9050919050565b6000614ec182613a96565b9150614ecc83613a96565b925082821015614edf57614ede61483b565b5b828203905092915050565b7f4372656174652041756374696f6e3a0000000000000000000000000000000000600082015250565b6000614f20600f83613e65565b9150614f2b82614eea565b602082019050919050565b60006040820190508181036000830152614f4f81614f13565b9050614f5e6020830184613d7d565b92915050565b7f4e487b7100000000000000000000000000000000000000000000000000000000600052601260045260246000fd5b6000614f9e82613a96565b9150614fa983613a96565b925082614fb957614fb8614f64565b5b828204905092915050565b6000614fcf82613a96565b9150614fda83613a96565b9250817fffffffffffffffffffffffffffffffffffffffffffffffffffffffffffffffff04831182151516156150135761501261483b565b5b82820290509291505056fea2646970667358221220a28499e663a0dbbc56dce8a4ef2343bead7be18eab36deac95f1509136a22aec64736f6c634300080d0033",
  "immutableReferences": {},
  "source": "// SPDX-License-Identifier: MIT\npragma solidity ^0.8.0;\nimport \"@openzeppelin/contracts/utils/Strings.sol\";\n\ncontract DutchAuction {\n    using Strings for uint256;\n    uint public constant AUCTION_DURATION = 3600 seconds; // Duration de l'enchere => 1 heure\n    uint public constant STARTING_PRICE = 1 ether; // On declare le prix de debut  1 ether\n    uint public constant PRICE_DECREMENT = 0.1 ether;\n    uint public constant RESERVE_PRICE = 0.2 ether;\n    uint public constant INTERVAL = 50 seconds; // Diminue le prix toutes les 50 secondes\n    uint public startBlock;\n\n    /** Creation d'une sctructure pour l'article\n    Lequel aura un nom, un prix, un gagnant et un status pour savoir s'il est ferm  */\n    struct Article { uint id; string name; uint currentPrice; address winningBidder; bool closed; uint bought; uint boughtFor; }\n    struct Auction { \n        uint id; \n        string name; \n        uint currentArticleIndex; \n        address auctioneer; Article[] articles; \n        uint auctionStartTime; \n        uint startTimeCurrentAuction; \n        bool closed;\n        uint auction_duration;\n        uint starting_price;\n        uint price_decrement;\n        uint reserve_price;\n        uint interval;\n    }\n\n    Auction[] public auctions;\n\n    event Log(string message, uint value);\n    event BidPlaced(uint indexed articleIndex, address indexed bidder, uint amount);\n    event AuctionClosed(uint indexed auctionIndex);\n\n    /*modifier onlyAuctioneer() {\n        require(msg.sender == auctioneer, \"Seul le auctioneer peut appeler cette fonction\");\n        _;\n    }*/\n\n    modifier auctionOpen(uint auctionIndex) {\n        require(block.timestamp >= auctions[auctionIndex].auctionStartTime, \"L'enchere n'a pas encore commence\");\n        require(block.timestamp < auctions[auctionIndex].auctionStartTime + auctions[auctionIndex].auction_duration, \"L'enchere est terminee\");\n        _;\n    }\n\n    modifier articleOpen(uint articleIndex, uint auctionIndex) {\n        require(articleIndex < auctions[auctionIndex].articles.length, \"Index des articles invalide\");\n        require(!auctions[auctionIndex].articles[articleIndex].closed, \"L'article est deja ferme\");\n        _;\n    }\n\n    constructor() {\n        startBlock = block.number;\n        emit Log(\"CreateContract:\", block.timestamp);\n\n        // Creation de deux encheres par default\n        string[] memory s = new string[](4);\n        s[0] = \"Article 1\";\n        s[1] = \"Article 2\";\n        s[2] = \"Article 3\";\n        s[3] = \"Article 4\";\n        createAuction(\"Auction 1\", s, false, AUCTION_DURATION, STARTING_PRICE, PRICE_DECREMENT, RESERVE_PRICE, INTERVAL);\n        \n        string[] memory s2 = new string[](3);\n        s2[0] = \"Chemise\";\n        s2[1] = \"PC\";\n        s2[2] = \"Valise\";\n        createAuction(\"Auction 2\", s2, false, AUCTION_DURATION, STARTING_PRICE, PRICE_DECREMENT, RESERVE_PRICE, INTERVAL);\n    }\n\n    function getArticles(uint auctionIndex) public view returns (Article[] memory) {\n        return auctions[auctionIndex].articles;\n    }\n\n    function getCurrentArticle(uint auctionIndex) public view returns (Article memory) {\n        require( auctions[auctionIndex].currentArticleIndex < auctions[auctionIndex].articles.length, \"Tous les articles on ete vendus\" );\n        return auctions[auctionIndex].articles[ auctions[auctionIndex].currentArticleIndex ];\n    }\n\n    function getArticleNames(uint auctionIndex) public view returns (string[] memory) {\n        string[] memory articleNames = new string[](auctions[auctionIndex].articles.length);\n\n        for (uint i = 0; i < auctions[auctionIndex].articles.length; i++) {\n            articleNames[i] = auctions[auctionIndex].articles[i].name;\n        }\n\n        return articleNames;\n    }\n\n    function getOpenArticles(uint auctionIndex) public view returns (Article[] memory) {\n        uint openArticleCount = 0;\n        if(!auctions[auctionIndex].closed) {\n            // Compter le nombre d'articles ouverts\n            for (uint i = 0; i < auctions[auctionIndex].articles.length; i++) {\n                if (!auctions[auctionIndex].articles[i].closed) {\n                    openArticleCount++;\n                }\n            }\n\n            // Crer un tableau de la taille approprie pour les articles ouverts\n            Article[] memory openArticles = new Article[](openArticleCount);\n\n            // Remplir le tableau avec les articles ouverts\n            uint index = 0;\n            for (uint i = 0; i < auctions[auctionIndex].articles.length; i++) {\n                if (!auctions[auctionIndex].articles[i].closed) {\n                    openArticles[index] = auctions[auctionIndex].articles[i];\n                    index++;\n                }\n            }\n\n            return openArticles;\n\n        } else {\n            Article[] memory openArticles = new Article[](0);\n            return openArticles;\n        }\n    }\n\n    function getOpenAuctions() public view returns (Auction[] memory) {\n        uint openAuctionCount = 0;\n        \n        // Compter le nombre d'encheres ouverts\n        for (uint i = 0; i < auctions.length; i++) {\n            if (!auctions[i].closed) {\n                openAuctionCount++;\n            }\n        }\n\n        // Crer un tableau de la taille approprie pour les encheres ouverts\n        Auction[] memory openAuctions = new Auction[](openAuctionCount);\n\n        // Remplir le tableau avec les encheres ouverts\n        uint index = 0;\n        for (uint i = 0; i < auctions.length; i++) {\n            if (!auctions[i].closed) {\n                openAuctions[index] = auctions[i];\n                index++;\n            }\n        }\n        return openAuctions;\n    }\n\n    function getAuctionsFor(address auctioneer) public view returns (Auction[] memory) {\n        uint auctionForCount = 0;\n        \n        // Compter le nombre d'encheres du proprietaire\n        for (uint i = 0; i < auctions.length; i++) {\n            if (auctions[i].auctioneer == auctioneer) {\n                auctionForCount++;\n            }\n        }\n        Auction[] memory auctionsFor = new Auction[](auctionForCount);\n\n        // Remplir le tableau\n        uint index = 0;\n        for (uint i = 0; i < auctions.length; i++) {\n            if (auctions[i].auctioneer == auctioneer) {\n                auctionsFor[index] = auctions[i];\n                index++;\n            }\n        }\n        return auctionsFor;\n    }\n\n    function getClosedAuctions() public view returns (Auction[] memory) {\n        uint closedAuctionCount = 0;\n        \n        // Compter le nombre d'encheres fermes\n        for (uint i = 0; i < auctions.length; i++) {\n            if (auctions[i].closed) {\n                closedAuctionCount++;\n            }\n        }\n\n        // Crer un tableau de la taille approprie pour les encheres fermes\n        Auction[] memory closedAuctions = new Auction[](closedAuctionCount);\n\n        // Remplir le tableau avec les encheres fermes\n        uint index = 0;\n        for (uint i = 0; i < auctions.length; i++) {\n            if (auctions[i].closed) {\n                closedAuctions[index] = auctions[i];\n                index++;\n            }\n        }\n        return closedAuctions;\n    }\n\n    function getClosedArticles(uint auctionIndex) public view returns (Article[] memory) {\n        uint closedArticleCount = 0;\n        Auction memory auction = auctions[auctionIndex];\n        // Compter le nombre d'articles ouverts\n        for (uint i = 0; i < auction.articles.length; i++) {\n            if (auction.articles[i].closed) {\n                closedArticleCount++;\n            }\n        }\n\n        // Crer un tableau de la taille approprie pour les articles ouverts\n        Article[] memory closedArticles = new Article[](closedArticleCount);\n\n        // Remplir le tableau avec les articles ouverts\n        uint index = 0;\n        for (uint i = 0; i < auction.articles.length; i++) {\n            if (auction.articles[i].closed) {\n                closedArticles[index] = auction.articles[i];\n                index++;\n            }\n        }\n\n        return closedArticles;\n    }\n\n    function getCurrentPrice( uint auctionIndex ) public view returns (uint) {\n        uint elapsedTime = getElapsedTime( auctionIndex );\n        uint decrements = elapsedTime / auctions[auctionIndex].interval;\n        uint currentPrice = auctions[auctionIndex].starting_price - (auctions[auctionIndex].price_decrement * decrements);\n        return currentPrice > auctions[auctionIndex].reserve_price ? currentPrice : auctions[auctionIndex].reserve_price;\n    }\n\n    function getStartTime(uint auctionIndex) public view returns (uint) {\n        return auctions[auctionIndex].startTimeCurrentAuction;\n    }\n    \n    function getElapsedTime(uint auctionIndex) public view returns (uint) {\n        return getTimeStamp() - auctions[auctionIndex].startTimeCurrentAuction;\n    }\n\n    function getTimeStamp() public view returns (uint) {\n        uint tmp = block.timestamp;\n        return tmp;\n    }\n\n    function getAuctions() public view returns (Auction[] memory) {\n        return auctions;\n    }\n\n    /**\n     * Obtenir l'enchere par id (index)\n     */\n    function getAuction(uint id) public view returns (Auction memory) {\n        return auctions[id];\n    }\n\n    /**\n        Placer une offre \n     */\n    function placeBid(uint articleIndex, uint auctionIndex) external payable auctionOpen(auctionIndex) articleOpen(articleIndex, auctionIndex) {\n    //function placeBid(uint articleIndex, uint auctionIndex) external payable {\n        require(msg.value > 0, \"Le montant de l'enchere doit etre superieur a zero\");\n\n        uint currentPrice = getCurrentPrice( auctionIndex );\n        //require(msg.value >= currentPrice, \"Le montant de l'enchere est inferieur au prix actuel\");\n        require(msg.value >= currentPrice, string(abi.encodePacked(\"Le montant de l'enchere est inferieur au prix actuel time: \", block.timestamp.toString(), ' start : ', auctions[auctionIndex].auctionStartTime.toString())));\n        require( auctions[auctionIndex].currentArticleIndex < auctions[auctionIndex].articles.length, \"Tous les articles ont ete vendus aux encheres\" );\n\n        //  Si la valeur est > 0 et plus que le prix actuel on etabli le gagnant et on ferme l'article\n        uint now_place = block.timestamp;\n        \n        auctions[auctionIndex].articles[articleIndex].winningBidder = msg.sender;\n        auctions[auctionIndex].articles[articleIndex].closed = true;\n        auctions[auctionIndex].articles[articleIndex].bought = now_place;\n        auctions[auctionIndex].articles[articleIndex].boughtFor = msg.value;\n        auctions[auctionIndex].currentArticleIndex++;\n        \n        if(auctions[auctionIndex].currentArticleIndex < auctions[auctionIndex].articles.length) {\n            auctions[auctionIndex].startTimeCurrentAuction = now_place;\n        }else {\n            auctions[auctionIndex].closed = true;    \n        }\n\n        emit BidPlaced(articleIndex, msg.sender, msg.value);\n    }\n\n    function closeAuction( uint auctionIndex ) public {\n        auctions[auctionIndex].closed = true;\n        emit AuctionClosed(auctionIndex);\n    }\n\n    function openAuction( uint auctionIndex ) public {\n        uint openArticlesCount = 0;\n        for(uint i = 0 ; i < auctions[auctionIndex].articles.length; i++) {\n            if(!auctions[auctionIndex].articles[i].closed) openArticlesCount++;\n        }\n\n        require(openArticlesCount > 0, \"Tous les articles sont deja fermes\");\n        auctions[auctionIndex].closed = false;\n        auctions[auctionIndex].auctionStartTime = block.timestamp;\n        auctions[auctionIndex].startTimeCurrentAuction = auctions[auctionIndex].auctionStartTime;\n        emit AuctionClosed(auctionIndex);\n    }\n\n    /**\n        Creer un enchere\n     */\n    function createAuction(string memory name, string[] memory articles, bool closed, uint auction_duration, uint starting_price, uint price_decrement, uint reserve_price, uint interval) public {\n        uint id = auctions.length;\n        address auctioneer = msg.sender;\n        uint auctionStartTime = block.timestamp;\n        uint startTimeCurrentAuction = auctionStartTime;\n\n        // Crer une nouvelle instance d'Auction avec des valeurs par dfaut\n        Auction storage newAuction = auctions.push();\n        newAuction.id = id;\n        newAuction.name = name;\n        newAuction.currentArticleIndex = 0;\n        newAuction.auctioneer = auctioneer;\n        newAuction.auctionStartTime = auctionStartTime;\n        newAuction.startTimeCurrentAuction = startTimeCurrentAuction;\n        newAuction.closed = closed;\n        \n        // Parametres\n        newAuction.auction_duration = auction_duration;\n        newAuction.starting_price = starting_price;\n        newAuction.price_decrement = price_decrement;\n        newAuction.reserve_price = reserve_price;\n        newAuction.interval = interval;\n\n\n        // Ajouter chaque lment du tableau d'articles en mmoire au tableau en stockage\n        for (uint i = 1; i <= articles.length; i++) {\n            newAuction.articles.push(Article( i, articles[i-1], starting_price, address(0), false, 0, 0 ether ));\n        }\n\n        emit Log(\"Create Auction:\", auctionStartTime);\n    }\n\n}\n",
  "sourcePath": "/home/iwocs/Desktop/MASTER/BlockChain/Dutch/dutch-auction/contracts/DutchAuction.sol",
  "compiler": {
    "name": "solc",
    "version": "0.8.13+commit.abaa5c0e.Emscripten.clang"
  },
  "schemaVersion": "3.4.16",
  "updatedAt": "2024-02-01T14:55:07.900Z",
  "networkType": "ethereum",
  "devdoc": {
    "kind": "dev",
    "methods": {},
    "version": 1
  },
  "userdoc": {
    "kind": "user",
    "methods": {
      "createAuction(string,string[],bool,uint256,uint256,uint256,uint256,uint256)": {
        "notice": "Creer un enchere"
      },
      "getAuction(uint256)": {
        "notice": "Obtenir l'enchere par id (index)"
      },
      "placeBid(uint256,uint256)": {
        "notice": "Placer une offre "
      }
    },
    "version": 1
  }
}