{
  "contractName": "DutchAuction",
  "abi": [
    {
      "inputs": [],
      "stateMutability": "nonpayable",
      "type": "constructor"
    },
    {
      "anonymous": false,
      "inputs": [
        {
          "indexed": true,
          "internalType": "uint256",
          "name": "auctionIndex",
          "type": "uint256"
        }
      ],
      "name": "AuctionClosed",
      "type": "event"
    },
    {
      "anonymous": false,
      "inputs": [
        {
          "indexed": true,
          "internalType": "uint256",
          "name": "articleIndex",
          "type": "uint256"
        },
        {
          "indexed": true,
          "internalType": "address",
          "name": "bidder",
          "type": "address"
        },
        {
          "indexed": false,
          "internalType": "uint256",
          "name": "amount",
          "type": "uint256"
        }
      ],
      "name": "BidPlaced",
      "type": "event"
    },
    {
      "anonymous": false,
      "inputs": [
        {
          "indexed": false,
          "internalType": "string",
          "name": "message",
          "type": "string"
        },
        {
          "indexed": false,
          "internalType": "uint256",
          "name": "value",
          "type": "uint256"
        }
      ],
      "name": "Log",
      "type": "event"
    },
    {
      "inputs": [
        {
          "internalType": "uint256",
          "name": "",
          "type": "uint256"
        }
      ],
      "name": "auctions",
      "outputs": [
        {
          "internalType": "uint256",
          "name": "id",
          "type": "uint256"
        },
        {
          "internalType": "string",
          "name": "name",
          "type": "string"
        },
        {
          "internalType": "uint256",
          "name": "currentArticleIndex",
          "type": "uint256"
        },
        {
          "internalType": "address",
          "name": "auctioneer",
          "type": "address"
        },
        {
          "internalType": "uint256",
          "name": "auctionStartTime",
          "type": "uint256"
        },
        {
          "internalType": "uint256",
          "name": "startTimeCurrentAuction",
          "type": "uint256"
        },
        {
          "internalType": "bool",
          "name": "closed",
          "type": "bool"
        },
        {
          "internalType": "uint256",
          "name": "auction_duration",
          "type": "uint256"
        },
        {
          "internalType": "uint256",
          "name": "starting_price",
          "type": "uint256"
        },
        {
          "internalType": "uint256",
          "name": "price_decrement",
          "type": "uint256"
        },
        {
          "internalType": "uint256",
          "name": "reserve_price",
          "type": "uint256"
        },
        {
          "internalType": "uint256",
          "name": "interval",
          "type": "uint256"
        }
      ],
      "stateMutability": "view",
      "type": "function",
      "constant": true
    },
    {
      "inputs": [],
      "name": "startBlock",
      "outputs": [
        {
          "internalType": "uint256",
          "name": "",
          "type": "uint256"
        }
      ],
      "stateMutability": "view",
      "type": "function",
      "constant": true
    },
    {
      "inputs": [
        {
          "internalType": "uint256",
          "name": "auctionIndex",
          "type": "uint256"
        }
      ],
      "name": "getArticles",
      "outputs": [
        {
          "components": [
            {
              "internalType": "uint256",
              "name": "id",
              "type": "uint256"
            },
            {
              "internalType": "string",
              "name": "name",
              "type": "string"
            },
            {
              "internalType": "uint256",
              "name": "currentPrice",
              "type": "uint256"
            },
            {
              "internalType": "address",
              "name": "winningBidder",
              "type": "address"
            },
            {
              "internalType": "bool",
              "name": "closed",
              "type": "bool"
            },
            {
              "internalType": "uint256",
              "name": "bought",
              "type": "uint256"
            },
            {
              "internalType": "uint256",
              "name": "boughtFor",
              "type": "uint256"
            }
          ],
          "internalType": "struct DutchAuction.Article[]",
          "name": "",
          "type": "tuple[]"
        }
      ],
      "stateMutability": "view",
      "type": "function",
      "constant": true
    },
    {
      "inputs": [
        {
          "internalType": "uint256",
          "name": "auctionIndex",
          "type": "uint256"
        }
      ],
      "name": "getCurrentArticle",
      "outputs": [
        {
          "components": [
            {
              "internalType": "uint256",
              "name": "id",
              "type": "uint256"
            },
            {
              "internalType": "string",
              "name": "name",
              "type": "string"
            },
            {
              "internalType": "uint256",
              "name": "currentPrice",
              "type": "uint256"
            },
            {
              "internalType": "address",
              "name": "winningBidder",
              "type": "address"
            },
            {
              "internalType": "bool",
              "name": "closed",
              "type": "bool"
            },
            {
              "internalType": "uint256",
              "name": "bought",
              "type": "uint256"
            },
            {
              "internalType": "uint256",
              "name": "boughtFor",
              "type": "uint256"
            }
          ],
          "internalType": "struct DutchAuction.Article",
          "name": "",
          "type": "tuple"
        }
      ],
      "stateMutability": "view",
      "type": "function",
      "constant": true
    },
    {
      "inputs": [
        {
          "internalType": "uint256",
          "name": "auctionIndex",
          "type": "uint256"
        }
      ],
      "name": "getArticleNames",
      "outputs": [
        {
          "internalType": "string[]",
          "name": "",
          "type": "string[]"
        }
      ],
      "stateMutability": "view",
      "type": "function",
      "constant": true
    },
    {
      "inputs": [
        {
          "internalType": "uint256",
          "name": "auctionIndex",
          "type": "uint256"
        }
      ],
      "name": "getOpenArticles",
      "outputs": [
        {
          "components": [
            {
              "internalType": "uint256",
              "name": "id",
              "type": "uint256"
            },
            {
              "internalType": "string",
              "name": "name",
              "type": "string"
            },
            {
              "internalType": "uint256",
              "name": "currentPrice",
              "type": "uint256"
            },
            {
              "internalType": "address",
              "name": "winningBidder",
              "type": "address"
            },
            {
              "internalType": "bool",
              "name": "closed",
              "type": "bool"
            },
            {
              "internalType": "uint256",
              "name": "bought",
              "type": "uint256"
            },
            {
              "internalType": "uint256",
              "name": "boughtFor",
              "type": "uint256"
            }
          ],
          "internalType": "struct DutchAuction.Article[]",
          "name": "",
          "type": "tuple[]"
        }
      ],
      "stateMutability": "view",
      "type": "function",
      "constant": true
    },
    {
      "inputs": [],
      "name": "getOpenAuctions",
      "outputs": [
        {
          "components": [
            {
              "internalType": "uint256",
              "name": "id",
              "type": "uint256"
            },
            {
              "internalType": "string",
              "name": "name",
              "type": "string"
            },
            {
              "internalType": "uint256",
              "name": "currentArticleIndex",
              "type": "uint256"
            },
            {
              "internalType": "address",
              "name": "auctioneer",
              "type": "address"
            },
            {
              "components": [
                {
                  "internalType": "uint256",
                  "name": "id",
                  "type": "uint256"
                },
                {
                  "internalType": "string",
                  "name": "name",
                  "type": "string"
                },
                {
                  "internalType": "uint256",
                  "name": "currentPrice",
                  "type": "uint256"
                },
                {
                  "internalType": "address",
                  "name": "winningBidder",
                  "type": "address"
                },
                {
                  "internalType": "bool",
                  "name": "closed",
                  "type": "bool"
                },
                {
                  "internalType": "uint256",
                  "name": "bought",
                  "type": "uint256"
                },
                {
                  "internalType": "uint256",
                  "name": "boughtFor",
                  "type": "uint256"
                }
              ],
              "internalType": "struct DutchAuction.Article[]",
              "name": "articles",
              "type": "tuple[]"
            },
            {
              "internalType": "uint256",
              "name": "auctionStartTime",
              "type": "uint256"
            },
            {
              "internalType": "uint256",
              "name": "startTimeCurrentAuction",
              "type": "uint256"
            },
            {
              "internalType": "bool",
              "name": "closed",
              "type": "bool"
            },
            {
              "internalType": "uint256",
              "name": "auction_duration",
              "type": "uint256"
            },
            {
              "internalType": "uint256",
              "name": "starting_price",
              "type": "uint256"
            },
            {
              "internalType": "uint256",
              "name": "price_decrement",
              "type": "uint256"
            },
            {
              "internalType": "uint256",
              "name": "reserve_price",
              "type": "uint256"
            },
            {
              "internalType": "uint256",
              "name": "interval",
              "type": "uint256"
            }
          ],
          "internalType": "struct DutchAuction.Auction[]",
          "name": "",
          "type": "tuple[]"
        }
      ],
      "stateMutability": "view",
      "type": "function",
      "constant": true
    },
    {
      "inputs": [
        {
          "internalType": "address",
          "name": "auctioneer",
          "type": "address"
        }
      ],
      "name": "getAuctionsFor",
      "outputs": [
        {
          "components": [
            {
              "internalType": "uint256",
              "name": "id",
              "type": "uint256"
            },
            {
              "internalType": "string",
              "name": "name",
              "type": "string"
            },
            {
              "internalType": "uint256",
              "name": "currentArticleIndex",
              "type": "uint256"
            },
            {
              "internalType": "address",
              "name": "auctioneer",
              "type": "address"
            },
            {
              "components": [
                {
                  "internalType": "uint256",
                  "name": "id",
                  "type": "uint256"
                },
                {
                  "internalType": "string",
                  "name": "name",
                  "type": "string"
                },
                {
                  "internalType": "uint256",
                  "name": "currentPrice",
                  "type": "uint256"
                },
                {
                  "internalType": "address",
                  "name": "winningBidder",
                  "type": "address"
                },
                {
                  "internalType": "bool",
                  "name": "closed",
                  "type": "bool"
                },
                {
                  "internalType": "uint256",
                  "name": "bought",
                  "type": "uint256"
                },
                {
                  "internalType": "uint256",
                  "name": "boughtFor",
                  "type": "uint256"
                }
              ],
              "internalType": "struct DutchAuction.Article[]",
              "name": "articles",
              "type": "tuple[]"
            },
            {
              "internalType": "uint256",
              "name": "auctionStartTime",
              "type": "uint256"
            },
            {
              "internalType": "uint256",
              "name": "startTimeCurrentAuction",
              "type": "uint256"
            },
            {
              "internalType": "bool",
              "name": "closed",
              "type": "bool"
            },
            {
              "internalType": "uint256",
              "name": "auction_duration",
              "type": "uint256"
            },
            {
              "internalType": "uint256",
              "name": "starting_price",
              "type": "uint256"
            },
            {
              "internalType": "uint256",
              "name": "price_decrement",
              "type": "uint256"
            },
            {
              "internalType": "uint256",
              "name": "reserve_price",
              "type": "uint256"
            },
            {
              "internalType": "uint256",
              "name": "interval",
              "type": "uint256"
            }
          ],
          "internalType": "struct DutchAuction.Auction[]",
          "name": "",
          "type": "tuple[]"
        }
      ],
      "stateMutability": "view",
      "type": "function",
      "constant": true
    },
    {
      "inputs": [],
      "name": "getClosedAuctions",
      "outputs": [
        {
          "components": [
            {
              "internalType": "uint256",
              "name": "id",
              "type": "uint256"
            },
            {
              "internalType": "string",
              "name": "name",
              "type": "string"
            },
            {
              "internalType": "uint256",
              "name": "currentArticleIndex",
              "type": "uint256"
            },
            {
              "internalType": "address",
              "name": "auctioneer",
              "type": "address"
            },
            {
              "components": [
                {
                  "internalType": "uint256",
                  "name": "id",
                  "type": "uint256"
                },
                {
                  "internalType": "string",
                  "name": "name",
                  "type": "string"
                },
                {
                  "internalType": "uint256",
                  "name": "currentPrice",
                  "type": "uint256"
                },
                {
                  "internalType": "address",
                  "name": "winningBidder",
                  "type": "address"
                },
                {
                  "internalType": "bool",
                  "name": "closed",
                  "type": "bool"
                },
                {
                  "internalType": "uint256",
                  "name": "bought",
                  "type": "uint256"
                },
                {
                  "internalType": "uint256",
                  "name": "boughtFor",
                  "type": "uint256"
                }
              ],
              "internalType": "struct DutchAuction.Article[]",
              "name": "articles",
              "type": "tuple[]"
            },
            {
              "internalType": "uint256",
              "name": "auctionStartTime",
              "type": "uint256"
            },
            {
              "internalType": "uint256",
              "name": "startTimeCurrentAuction",
              "type": "uint256"
            },
            {
              "internalType": "bool",
              "name": "closed",
              "type": "bool"
            },
            {
              "internalType": "uint256",
              "name": "auction_duration",
              "type": "uint256"
            },
            {
              "internalType": "uint256",
              "name": "starting_price",
              "type": "uint256"
            },
            {
              "internalType": "uint256",
              "name": "price_decrement",
              "type": "uint256"
            },
            {
              "internalType": "uint256",
              "name": "reserve_price",
              "type": "uint256"
            },
            {
              "internalType": "uint256",
              "name": "interval",
              "type": "uint256"
            }
          ],
          "internalType": "struct DutchAuction.Auction[]",
          "name": "",
          "type": "tuple[]"
        }
      ],
      "stateMutability": "view",
      "type": "function",
      "constant": true
    },
    {
      "inputs": [
        {
          "internalType": "uint256",
          "name": "auctionIndex",
          "type": "uint256"
        }
      ],
      "name": "getClosedArticles",
      "outputs": [
        {
          "components": [
            {
              "internalType": "uint256",
              "name": "id",
              "type": "uint256"
            },
            {
              "internalType": "string",
              "name": "name",
              "type": "string"
            },
            {
              "internalType": "uint256",
              "name": "currentPrice",
              "type": "uint256"
            },
            {
              "internalType": "address",
              "name": "winningBidder",
              "type": "address"
            },
            {
              "internalType": "bool",
              "name": "closed",
              "type": "bool"
            },
            {
              "internalType": "uint256",
              "name": "bought",
              "type": "uint256"
            },
            {
              "internalType": "uint256",
              "name": "boughtFor",
              "type": "uint256"
            }
          ],
          "internalType": "struct DutchAuction.Article[]",
          "name": "",
          "type": "tuple[]"
        }
      ],
      "stateMutability": "view",
      "type": "function",
      "constant": true
    },
    {
      "inputs": [
        {
          "internalType": "uint256",
          "name": "auctionIndex",
          "type": "uint256"
        }
      ],
      "name": "getCurrentPrice",
      "outputs": [
        {
          "internalType": "uint256",
          "name": "",
          "type": "uint256"
        }
      ],
      "stateMutability": "view",
      "type": "function",
      "constant": true
    },
    {
      "inputs": [
        {
          "internalType": "uint256",
          "name": "auctionIndex",
          "type": "uint256"
        }
      ],
      "name": "getStartTime",
      "outputs": [
        {
          "internalType": "uint256",
          "name": "",
          "type": "uint256"
        }
      ],
      "stateMutability": "view",
      "type": "function",
      "constant": true
    },
    {
      "inputs": [
        {
          "internalType": "uint256",
          "name": "auctionIndex",
          "type": "uint256"
        }
      ],
      "name": "getElapsedTime",
      "outputs": [
        {
          "internalType": "uint256",
          "name": "",
          "type": "uint256"
        }
      ],
      "stateMutability": "view",
      "type": "function",
      "constant": true
    },
    {
      "inputs": [],
      "name": "getTimeStamp",
      "outputs": [
        {
          "internalType": "uint256",
          "name": "",
          "type": "uint256"
        }
      ],
      "stateMutability": "view",
      "type": "function",
      "constant": true
    },
    {
      "inputs": [],
      "name": "getAuctions",
      "outputs": [
        {
          "components": [
            {
              "internalType": "uint256",
              "name": "id",
              "type": "uint256"
            },
            {
              "internalType": "string",
              "name": "name",
              "type": "string"
            },
            {
              "internalType": "uint256",
              "name": "currentArticleIndex",
              "type": "uint256"
            },
            {
              "internalType": "address",
              "name": "auctioneer",
              "type": "address"
            },
            {
              "components": [
                {
                  "internalType": "uint256",
                  "name": "id",
                  "type": "uint256"
                },
                {
                  "internalType": "string",
                  "name": "name",
                  "type": "string"
                },
                {
                  "internalType": "uint256",
                  "name": "currentPrice",
                  "type": "uint256"
                },
                {
                  "internalType": "address",
                  "name": "winningBidder",
                  "type": "address"
                },
                {
                  "internalType": "bool",
                  "name": "closed",
                  "type": "bool"
                },
                {
                  "internalType": "uint256",
                  "name": "bought",
                  "type": "uint256"
                },
                {
                  "internalType": "uint256",
                  "name": "boughtFor",
                  "type": "uint256"
                }
              ],
              "internalType": "struct DutchAuction.Article[]",
              "name": "articles",
              "type": "tuple[]"
            },
            {
              "internalType": "uint256",
              "name": "auctionStartTime",
              "type": "uint256"
            },
            {
              "internalType": "uint256",
              "name": "startTimeCurrentAuction",
              "type": "uint256"
            },
            {
              "internalType": "bool",
              "name": "closed",
              "type": "bool"
            },
            {
              "internalType": "uint256",
              "name": "auction_duration",
              "type": "uint256"
            },
            {
              "internalType": "uint256",
              "name": "starting_price",
              "type": "uint256"
            },
            {
              "internalType": "uint256",
              "name": "price_decrement",
              "type": "uint256"
            },
            {
              "internalType": "uint256",
              "name": "reserve_price",
              "type": "uint256"
            },
            {
              "internalType": "uint256",
              "name": "interval",
              "type": "uint256"
            }
          ],
          "internalType": "struct DutchAuction.Auction[]",
          "name": "",
          "type": "tuple[]"
        }
      ],
      "stateMutability": "view",
      "type": "function",
      "constant": true
    },
    {
      "inputs": [
        {
          "internalType": "uint256",
          "name": "id",
          "type": "uint256"
        }
      ],
      "name": "getAuction",
      "outputs": [
        {
          "components": [
            {
              "internalType": "uint256",
              "name": "id",
              "type": "uint256"
            },
            {
              "internalType": "string",
              "name": "name",
              "type": "string"
            },
            {
              "internalType": "uint256",
              "name": "currentArticleIndex",
              "type": "uint256"
            },
            {
              "internalType": "address",
              "name": "auctioneer",
              "type": "address"
            },
            {
              "components": [
                {
                  "internalType": "uint256",
                  "name": "id",
                  "type": "uint256"
                },
                {
                  "internalType": "string",
                  "name": "name",
                  "type": "string"
                },
                {
                  "internalType": "uint256",
                  "name": "currentPrice",
                  "type": "uint256"
                },
                {
                  "internalType": "address",
                  "name": "winningBidder",
                  "type": "address"
                },
                {
                  "internalType": "bool",
                  "name": "closed",
                  "type": "bool"
                },
                {
                  "internalType": "uint256",
                  "name": "bought",
                  "type": "uint256"
                },
                {
                  "internalType": "uint256",
                  "name": "boughtFor",
                  "type": "uint256"
                }
              ],
              "internalType": "struct DutchAuction.Article[]",
              "name": "articles",
              "type": "tuple[]"
            },
            {
              "internalType": "uint256",
              "name": "auctionStartTime",
              "type": "uint256"
            },
            {
              "internalType": "uint256",
              "name": "startTimeCurrentAuction",
              "type": "uint256"
            },
            {
              "internalType": "bool",
              "name": "closed",
              "type": "bool"
            },
            {
              "internalType": "uint256",
              "name": "auction_duration",
              "type": "uint256"
            },
            {
              "internalType": "uint256",
              "name": "starting_price",
              "type": "uint256"
            },
            {
              "internalType": "uint256",
              "name": "price_decrement",
              "type": "uint256"
            },
            {
              "internalType": "uint256",
              "name": "reserve_price",
              "type": "uint256"
            },
            {
              "internalType": "uint256",
              "name": "interval",
              "type": "uint256"
            }
          ],
          "internalType": "struct DutchAuction.Auction",
          "name": "",
          "type": "tuple"
        }
      ],
      "stateMutability": "view",
      "type": "function",
      "constant": true
    },
    {
      "inputs": [
        {
          "internalType": "uint256",
          "name": "articleIndex",
          "type": "uint256"
        },
        {
          "internalType": "uint256",
          "name": "auctionIndex",
          "type": "uint256"
        }
      ],
      "name": "placeBid",
      "outputs": [],
      "stateMutability": "payable",
      "type": "function",
      "payable": true
    },
    {
      "inputs": [
        {
          "internalType": "uint256",
          "name": "auctionIndex",
          "type": "uint256"
        }
      ],
      "name": "closeAuction",
      "outputs": [],
      "stateMutability": "nonpayable",
      "type": "function"
    },
    {
      "inputs": [
        {
          "internalType": "uint256",
          "name": "auctionIndex",
          "type": "uint256"
        }
      ],
      "name": "openAuction",
      "outputs": [],
      "stateMutability": "nonpayable",
      "type": "function"
    },
    {
      "inputs": [
        {
          "internalType": "string",
          "name": "name",
          "type": "string"
        },
        {
          "internalType": "string[]",
          "name": "articles",
          "type": "string[]"
        },
        {
          "internalType": "bool",
          "name": "closed",
          "type": "bool"
        },
        {
          "internalType": "uint256",
          "name": "auction_duration",
          "type": "uint256"
        },
        {
          "internalType": "uint256",
          "name": "starting_price",
          "type": "uint256"
        },
        {
          "internalType": "uint256",
          "name": "price_decrement",
          "type": "uint256"
        },
        {
          "internalType": "uint256",
          "name": "reserve_price",
          "type": "uint256"
        },
        {
          "internalType": "uint256",
          "name": "interval",
          "type": "uint256"
        }
      ],
      "name": "createAuction",
      "outputs": [],
      "stateMutability": "nonpayable",
      "type": "function"
    }
  ],
  "bytecode": "0x60806040523480156200001157600080fd5b50436000819055507fdd970dd9b5bfe707922155b058a407655cb18288b807e2216442bca8ad83d6b5426040516200004a91906200083e565b60405180910390a16000600467ffffffffffffffff81111562000072576200007162000870565b5b604051908082528060200260200182016040528015620000a757816020015b6060815260200190600190039081620000915790505b5090506040518060400160405280600981526020017f41727469636c652031000000000000000000000000000000000000000000000081525081600081518110620000f757620000f66200089f565b5b60200260200101819052506040518060400160405280600981526020017f41727469636c6520320000000000000000000000000000000000000000000000815250816001815181106200014f576200014e6200089f565b5b60200260200101819052506040518060400160405280600981526020017f41727469636c652033000000000000000000000000000000000000000000000081525081600281518110620001a757620001a66200089f565b5b60200260200101819052506040518060400160405280600981526020017f41727469636c652034000000000000000000000000000000000000000000000081525081600381518110620001ff57620001fe6200089f565b5b6020026020010181905250620002736040518060400160405280600981526020017f41756374696f6e20310000000000000000000000000000000000000000000000815250826000610e10670de0b6b3a764000067016345785d8a00006702c68af0bb14000060326200044460201b60201c565b6000600367ffffffffffffffff81111562000293576200029262000870565b5b604051908082528060200260200182016040528015620002c857816020015b6060815260200190600190039081620002b25790505b5090506040518060400160405280600781526020017f4368656d69736500000000000000000000000000000000000000000000000000815250816000815181106200031857620003176200089f565b5b60200260200101819052506040518060400160405280600281526020017f50430000000000000000000000000000000000000000000000000000000000008152508160018151811062000370576200036f6200089f565b5b60200260200101819052506040518060400160405280600681526020017f56616c697365000000000000000000000000000000000000000000000000000081525081600281518110620003c857620003c76200089f565b5b60200260200101819052506200043c6040518060400160405280600981526020017f41756374696f6e20320000000000000000000000000000000000000000000000815250826000610e10670de0b6b3a764000067016345785d8a00006702c68af0bb14000060326200044460201b60201c565b505062000a6b565b600060018054905090506000339050600042905060008190506000600180816001815401808255809150500390600052602060002090600d020190508481600001819055508c816001019080519060200190620004a392919062000712565b5060008160020181905550838160030160006101000a81548173ffffffffffffffffffffffffffffffffffffffff021916908373ffffffffffffffffffffffffffffffffffffffff1602179055508281600501819055508181600601819055508a8160070160006101000a81548160ff0219169083151502179055508981600801819055508881600901819055508781600a01819055508681600b01819055508581600c01819055506000600190505b8c518111620006c957816004016040518060e001604052808381526020018f600185620005819190620008fd565b815181106200059557620005946200089f565b5b602002602001015181526020018c8152602001600073ffffffffffffffffffffffffffffffffffffffff16815260200160001515815260200160008152602001600081525090806001815401808255809150506001900390600052602060002090600602016000909190919091506000820151816000015560208201518160010190805190602001906200062b92919062000712565b506040820151816002015560608201518160030160006101000a81548173ffffffffffffffffffffffffffffffffffffffff021916908373ffffffffffffffffffffffffffffffffffffffff16021790555060808201518160030160146101000a81548160ff02191690831515021790555060a0820151816004015560c0820151816005015550508080620006c09062000938565b91505062000553565b507fdd970dd9b5bfe707922155b058a407655cb18288b807e2216442bca8ad83d6b583604051620006fb9190620009d5565b60405180910390a150505050505050505050505050565b828054620007209062000a36565b90600052602060002090601f01602090048101928262000744576000855562000790565b82601f106200075f57805160ff191683800117855562000790565b8280016001018555821562000790579182015b828111156200078f57825182559160200191906001019062000772565b5b5090506200079f9190620007a3565b5090565b5b80821115620007be576000816000905550600101620007a4565b5090565b600082825260208201905092915050565b7f437265617465436f6e74726163743a0000000000000000000000000000000000600082015250565b60006200080b600f83620007c2565b91506200081882620007d3565b602082019050919050565b6000819050919050565b620008388162000823565b82525050565b600060408201905081810360008301526200085981620007fc565b90506200086a60208301846200082d565b92915050565b7f4e487b7100000000000000000000000000000000000000000000000000000000600052604160045260246000fd5b7f4e487b7100000000000000000000000000000000000000000000000000000000600052603260045260246000fd5b7f4e487b7100000000000000000000000000000000000000000000000000000000600052601160045260246000fd5b60006200090a8262000823565b9150620009178362000823565b9250828210156200092d576200092c620008ce565b5b828203905092915050565b6000620009458262000823565b91507fffffffffffffffffffffffffffffffffffffffffffffffffffffffffffffffff82036200097a5762000979620008ce565b5b600182019050919050565b7f4372656174652041756374696f6e3a0000000000000000000000000000000000600082015250565b6000620009bd600f83620007c2565b9150620009ca8262000985565b602082019050919050565b60006040820190508181036000830152620009f081620009ae565b905062000a0160208301846200082d565b92915050565b7f4e487b7100000000000000000000000000000000000000000000000000000000600052602260045260246000fd5b6000600282049050600182168062000a4f57607f821691505b60208210810362000a655762000a6462000a07565b5b50919050565b614f078062000a7b6000396000f3fe60806040526004361061011f5760003560e01c8063a35dfd38116100a0578063c755cebc11610064578063c755cebc1461042f578063cd7ca1e01461046c578063d7c06919146104a9578063da235b22146104d4578063f1ead3d6146104ff5761011f565b8063a35dfd3814610324578063a4b473d814610361578063b05940f21461038a578063bc2be1be146103b5578063c55d0f56146103f25761011f565b8063557a0b18116100e7578063557a0b181461021b578063571a26a01461025857806357c90de5146102a057806378bd7935146102bc578063822e06fd146102f95761011f565b80631edc8f9114610124578063236ed8f31461014d578063413170a91461017657806348cd4cb1146101b357806349cb9eb8146101de575b600080fd5b34801561013057600080fd5b5061014b6004803603810190610146919061397f565b61053c565b005b34801561015957600080fd5b50610174600480360381019061016f919061397f565b610718565b005b34801561018257600080fd5b5061019d6004803603810190610198919061397f565b610785565b6040516101aa9190613c0e565b60405180910390f35b3480156101bf57600080fd5b506101c8610934565b6040516101d59190613c3f565b60405180910390f35b3480156101ea57600080fd5b506102056004803603810190610200919061397f565b61093a565b6040516102129190613c0e565b60405180910390f35b34801561022757600080fd5b50610242600480360381019061023d919061397f565b610d35565b60405161024f9190613cf6565b60405180910390f35b34801561026457600080fd5b5061027f600480360381019061027a919061397f565b610f73565b6040516102979c9b9a99989796959493929190613d80565b60405180910390f35b6102ba60048036038101906102b59190613e41565b611098565b005b3480156102c857600080fd5b506102e360048036038101906102de919061397f565b6116f1565b6040516102f09190614027565b60405180910390f35b34801561030557600080fd5b5061030e611a15565b60405161031b919061422b565b60405180910390f35b34801561033057600080fd5b5061034b6004803603810190610346919061397f565b611e83565b604051610358919061430f565b60405180910390f35b34801561036d57600080fd5b5061038860048036038101906103839190614578565b61203e565b005b34801561039657600080fd5b5061039f6122fd565b6040516103ac919061422b565b60405180910390f35b3480156103c157600080fd5b506103dc60048036038101906103d7919061397f565b612769565b6040516103e99190613c3f565b60405180910390f35b3480156103fe57600080fd5b506104196004803603810190610414919061397f565b612798565b6040516104269190613c3f565b60405180910390f35b34801561043b57600080fd5b506104566004803603810190610451919061397f565b6128a3565b6040516104639190613c3f565b60405180910390f35b34801561047857600080fd5b50610493600480360381019061048e919061397f565b6128e4565b6040516104a09190613c0e565b60405180910390f35b3480156104b557600080fd5b506104be612d58565b6040516104cb919061422b565b60405180910390f35b3480156104e057600080fd5b506104e961309f565b6040516104f69190613c3f565b60405180910390f35b34801561050b57600080fd5b5061052660048036038101906105219190614692565b6130ac565b604051610533919061422b565b60405180910390f35b6000805b60018381548110610554576105536146bf565b5b90600052602060002090600d0201600401805490508110156105ec5760018381548110610584576105836146bf565b5b90600052602060002090600d020160040181815481106105a7576105a66146bf565b5b906000526020600020906006020160030160149054906101000a900460ff166105d95781806105d59061471d565b9250505b80806105e49061471d565b915050610540565b5060008111610630576040517f08c379a0000000000000000000000000000000000000000000000000000000008152600401610627906147d7565b60405180910390fd5b600060018381548110610646576106456146bf565b5b90600052602060002090600d020160070160006101000a81548160ff0219169083151502179055504260018381548110610683576106826146bf565b5b90600052602060002090600d020160050181905550600182815481106106ac576106ab6146bf565b5b90600052602060002090600d020160050154600183815481106106d2576106d16146bf565b5b90600052602060002090600d020160060181905550817fac4a907ec29adcc56774b757ecb1e1b4d597374fc9386107d05e2670259df7d360405160405180910390a25050565b600180828154811061072d5761072c6146bf565b5b90600052602060002090600d020160070160006101000a81548160ff021916908315150217905550807fac4a907ec29adcc56774b757ecb1e1b4d597374fc9386107d05e2670259df7d360405160405180910390a250565b60606001828154811061079b5761079a6146bf565b5b90600052602060002090600d0201600401805480602002602001604051908101604052809291908181526020016000905b8282101561092957838290600052602060002090600602016040518060e00160405290816000820154815260200160018201805461080990614826565b80601f016020809104026020016040519081016040528092919081815260200182805461083590614826565b80156108825780601f1061085757610100808354040283529160200191610882565b820191906000526020600020905b81548152906001019060200180831161086557829003601f168201915b50505050508152602001600282015481526020016003820160009054906101000a900473ffffffffffffffffffffffffffffffffffffffff1673ffffffffffffffffffffffffffffffffffffffff1673ffffffffffffffffffffffffffffffffffffffff1681526020016003820160149054906101000a900460ff1615151515815260200160048201548152602001600582015481525050815260200190600101906107cc565b505050509050919050565b60005481565b6060600060018381548110610952576109516146bf565b5b90600052602060002090600d020160070160009054906101000a900460ff16610cd25760005b6001848154811061098c5761098b6146bf565b5b90600052602060002090600d020160040180549050811015610a2457600184815481106109bc576109bb6146bf565b5b90600052602060002090600d020160040181815481106109df576109de6146bf565b5b906000526020600020906006020160030160149054906101000a900460ff16610a11578180610a0d9061471d565b9250505b8080610a1c9061471d565b915050610978565b5060008167ffffffffffffffff811115610a4157610a4061433b565b5b604051908082528060200260200182016040528015610a7a57816020015b610a676137bd565b815260200190600190039081610a5f5790505b5090506000805b60018681548110610a9557610a946146bf565b5b90600052602060002090600d020160040180549050811015610cc65760018681548110610ac557610ac46146bf565b5b90600052602060002090600d02016004018181548110610ae857610ae76146bf565b5b906000526020600020906006020160030160149054906101000a900460ff16610cb35760018681548110610b1f57610b1e6146bf565b5b90600052602060002090600d02016004018181548110610b4257610b416146bf565b5b90600052602060002090600602016040518060e001604052908160008201548152602001600182018054610b7590614826565b80601f0160208091040260200160405190810160405280929190818152602001828054610ba190614826565b8015610bee5780601f10610bc357610100808354040283529160200191610bee565b820191906000526020600020905b815481529060010190602001808311610bd157829003601f168201915b50505050508152602001600282015481526020016003820160009054906101000a900473ffffffffffffffffffffffffffffffffffffffff1673ffffffffffffffffffffffffffffffffffffffff1673ffffffffffffffffffffffffffffffffffffffff1681526020016003820160149054906101000a900460ff1615151515815260200160048201548152602001600582015481525050838381518110610c9957610c986146bf565b5b60200260200101819052508180610caf9061471d565b9250505b8080610cbe9061471d565b915050610a81565b50819350505050610d30565b60008067ffffffffffffffff811115610cee57610ced61433b565b5b604051908082528060200260200182016040528015610d2757816020015b610d146137bd565b815260200190600190039081610d0c5790505b50905080925050505b919050565b610d3d6137bd565b60018281548110610d5157610d506146bf565b5b90600052602060002090600d02016004018054905060018381548110610d7a57610d796146bf565b5b90600052602060002090600d02016002015410610dcc576040517f08c379a0000000000000000000000000000000000000000000000000000000008152600401610dc3906148a3565b60405180910390fd5b60018281548110610de057610ddf6146bf565b5b90600052602060002090600d020160040160018381548110610e0557610e046146bf565b5b90600052602060002090600d02016002015481548110610e2857610e276146bf565b5b90600052602060002090600602016040518060e001604052908160008201548152602001600182018054610e5b90614826565b80601f0160208091040260200160405190810160405280929190818152602001828054610e8790614826565b8015610ed45780601f10610ea957610100808354040283529160200191610ed4565b820191906000526020600020905b815481529060010190602001808311610eb757829003601f168201915b50505050508152602001600282015481526020016003820160009054906101000a900473ffffffffffffffffffffffffffffffffffffffff1673ffffffffffffffffffffffffffffffffffffffff1673ffffffffffffffffffffffffffffffffffffffff1681526020016003820160149054906101000a900460ff16151515158152602001600482015481526020016005820154815250509050919050565b60018181548110610f8357600080fd5b90600052602060002090600d0201600091509050806000015490806001018054610fac90614826565b80601f0160208091040260200160405190810160405280929190818152602001828054610fd890614826565b80156110255780601f10610ffa57610100808354040283529160200191611025565b820191906000526020600020905b81548152906001019060200180831161100857829003601f168201915b5050505050908060020154908060030160009054906101000a900473ffffffffffffffffffffffffffffffffffffffff16908060050154908060060154908060070160009054906101000a900460ff169080600801549080600901549080600a01549080600b01549080600c015490508c565b80600181815481106110ad576110ac6146bf565b5b90600052602060002090600d020160050154421015611101576040517f08c379a00000000000000000000000000000000000000000000000000000000081526004016110f890614935565b60405180910390fd5b60018181548110611115576111146146bf565b5b90600052602060002090600d0201600801546001828154811061113b5761113a6146bf565b5b90600052602060002090600d0201600501546111579190614955565b4210611198576040517f08c379a000000000000000000000000000000000000000000000000000000000815260040161118f906149f7565b60405180910390fd5b8282600181815481106111ae576111ad6146bf565b5b90600052602060002090600d0201600401805490508210611204576040517f08c379a00000000000000000000000000000000000000000000000000000000081526004016111fb90614a63565b60405180910390fd5b60018181548110611218576112176146bf565b5b90600052602060002090600d0201600401828154811061123b5761123a6146bf565b5b906000526020600020906006020160030160149054906101000a900460ff161561129a576040517f08c379a000000000000000000000000000000000000000000000000000000000815260040161129190614acf565b60405180910390fd5b600034116112dd576040517f08c379a00000000000000000000000000000000000000000000000000000000081526004016112d490614b61565b60405180910390fd5b60006112e885612798565b9050803410156112f74261359c565b6113256001888154811061130e5761130d6146bf565b5b90600052602060002090600d02016005015461359c565b604051602001611336929190614c7b565b60405160208183030381529060405290611386576040517f08c379a000000000000000000000000000000000000000000000000000000000815260040161137d9190614cb5565b60405180910390fd5b506001858154811061139b5761139a6146bf565b5b90600052602060002090600d020160040180549050600186815481106113c4576113c36146bf565b5b90600052602060002090600d02016002015410611416576040517f08c379a000000000000000000000000000000000000000000000000000000000815260040161140d90614d49565b60405180910390fd5b600042905033600187815481106114305761142f6146bf565b5b90600052602060002090600d02016004018881548110611453576114526146bf565b5b906000526020600020906006020160030160006101000a81548173ffffffffffffffffffffffffffffffffffffffff021916908373ffffffffffffffffffffffffffffffffffffffff16021790555060018087815481106114b7576114b66146bf565b5b90600052602060002090600d020160040188815481106114da576114d96146bf565b5b906000526020600020906006020160030160146101000a81548160ff0219169083151502179055508060018781548110611517576115166146bf565b5b90600052602060002090600d0201600401888154811061153a576115396146bf565b5b9060005260206000209060060201600401819055503460018781548110611564576115636146bf565b5b90600052602060002090600d02016004018881548110611587576115866146bf565b5b906000526020600020906006020160050181905550600186815481106115b0576115af6146bf565b5b90600052602060002090600d020160020160008154809291906115d29061471d565b9190505550600186815481106115eb576115ea6146bf565b5b90600052602060002090600d02016004018054905060018781548110611614576116136146bf565b5b90600052602060002090600d020160020154101561165b578060018781548110611641576116406146bf565b5b90600052602060002090600d020160060181905550611699565b60018087815481106116705761166f6146bf565b5b90600052602060002090600d020160070160006101000a81548160ff0219169083151502179055505b3373ffffffffffffffffffffffffffffffffffffffff16877f0e54eff26401bf69b81b26f60bd85ef47f5d85275c1d268d84f68d6897431c47346040516116e09190613c3f565b60405180910390a350505050505050565b6116f9613812565b6001828154811061170d5761170c6146bf565b5b90600052602060002090600d0201604051806101a00160405290816000820154815260200160018201805461174190614826565b80601f016020809104026020016040519081016040528092919081815260200182805461176d90614826565b80156117ba5780601f1061178f576101008083540402835291602001916117ba565b820191906000526020600020905b81548152906001019060200180831161179d57829003601f168201915b50505050508152602001600282015481526020016003820160009054906101000a900473ffffffffffffffffffffffffffffffffffffffff1673ffffffffffffffffffffffffffffffffffffffff1673ffffffffffffffffffffffffffffffffffffffff16815260200160048201805480602002602001604051908101604052809291908181526020016000905b828210156119a557838290600052602060002090600602016040518060e00160405290816000820154815260200160018201805461188590614826565b80601f01602080910402602001604051908101604052809291908181526020018280546118b190614826565b80156118fe5780601f106118d3576101008083540402835291602001916118fe565b820191906000526020600020905b8154815290600101906020018083116118e157829003601f168201915b50505050508152602001600282015481526020016003820160009054906101000a900473ffffffffffffffffffffffffffffffffffffffff1673ffffffffffffffffffffffffffffffffffffffff1673ffffffffffffffffffffffffffffffffffffffff1681526020016003820160149054906101000a900460ff161515151581526020016004820154815260200160058201548152505081526020019060010190611848565b50505050815260200160058201548152602001600682015481526020016007820160009054906101000a900460ff161515151581526020016008820154815260200160098201548152602001600a8201548152602001600b8201548152602001600c820154815250509050919050565b60606000805b600180549050811015611a825760018181548110611a3c57611a3b6146bf565b5b90600052602060002090600d020160070160009054906101000a900460ff1615611a6f578180611a6b9061471d565b9250505b8080611a7a9061471d565b915050611a1b565b5060008167ffffffffffffffff811115611a9f57611a9e61433b565b5b604051908082528060200260200182016040528015611ad857816020015b611ac5613812565b815260200190600190039081611abd5790505b5090506000805b600180549050811015611e795760018181548110611b0057611aff6146bf565b5b90600052602060002090600d020160070160009054906101000a900460ff1615611e665760018181548110611b3857611b376146bf565b5b90600052602060002090600d0201604051806101a001604052908160008201548152602001600182018054611b6c90614826565b80601f0160208091040260200160405190810160405280929190818152602001828054611b9890614826565b8015611be55780601f10611bba57610100808354040283529160200191611be5565b820191906000526020600020905b815481529060010190602001808311611bc857829003601f168201915b50505050508152602001600282015481526020016003820160009054906101000a900473ffffffffffffffffffffffffffffffffffffffff1673ffffffffffffffffffffffffffffffffffffffff1673ffffffffffffffffffffffffffffffffffffffff16815260200160048201805480602002602001604051908101604052809291908181526020016000905b82821015611dd057838290600052602060002090600602016040518060e001604052908160008201548152602001600182018054611cb090614826565b80601f0160208091040260200160405190810160405280929190818152602001828054611cdc90614826565b8015611d295780601f10611cfe57610100808354040283529160200191611d29565b820191906000526020600020905b815481529060010190602001808311611d0c57829003601f168201915b50505050508152602001600282015481526020016003820160009054906101000a900473ffffffffffffffffffffffffffffffffffffffff1673ffffffffffffffffffffffffffffffffffffffff1673ffffffffffffffffffffffffffffffffffffffff1681526020016003820160149054906101000a900460ff161515151581526020016004820154815260200160058201548152505081526020019060010190611c73565b50505050815260200160058201548152602001600682015481526020016007820160009054906101000a900460ff161515151581526020016008820154815260200160098201548152602001600a8201548152602001600b8201548152602001600c82015481525050838381518110611e4c57611e4b6146bf565b5b60200260200101819052508180611e629061471d565b9250505b8080611e719061471d565b915050611adf565b5081935050505090565b6060600060018381548110611e9b57611e9a6146bf565b5b90600052602060002090600d02016004018054905067ffffffffffffffff811115611ec957611ec861433b565b5b604051908082528060200260200182016040528015611efc57816020015b6060815260200190600190039081611ee75790505b50905060005b60018481548110611f1657611f156146bf565b5b90600052602060002090600d0201600401805490508110156120345760018481548110611f4657611f456146bf565b5b90600052602060002090600d02016004018181548110611f6957611f686146bf565b5b90600052602060002090600602016001018054611f8590614826565b80601f0160208091040260200160405190810160405280929190818152602001828054611fb190614826565b8015611ffe5780601f10611fd357610100808354040283529160200191611ffe565b820191906000526020600020905b815481529060010190602001808311611fe157829003601f168201915b5050505050828281518110612016576120156146bf565b5b6020026020010181905250808061202c9061471d565b915050611f02565b5080915050919050565b600060018054905090506000339050600042905060008190506000600180816001815401808255809150500390600052602060002090600d020190508481600001819055508c81600101908051906020019061209b929190613892565b5060008160020181905550838160030160006101000a81548173ffffffffffffffffffffffffffffffffffffffff021916908373ffffffffffffffffffffffffffffffffffffffff1602179055508281600501819055508181600601819055508a8160070160006101000a81548160ff0219169083151502179055508981600801819055508881600901819055508781600a01819055508681600b01819055508581600c01819055506000600190505b8c5181116122b657816004016040518060e001604052808381526020018f6001856121769190614d69565b81518110612187576121866146bf565b5b602002602001015181526020018c8152602001600073ffffffffffffffffffffffffffffffffffffffff168152602001600015158152602001600081526020016000815250908060018154018082558091505060019003906000526020600020906006020160009091909190915060008201518160000155602082015181600101908051906020019061221b929190613892565b506040820151816002015560608201518160030160006101000a81548173ffffffffffffffffffffffffffffffffffffffff021916908373ffffffffffffffffffffffffffffffffffffffff16021790555060808201518160030160146101000a81548160ff02191690831515021790555060a0820151816004015560c08201518160050155505080806122ae9061471d565b91505061214b565b507fdd970dd9b5bfe707922155b058a407655cb18288b807e2216442bca8ad83d6b5836040516122e69190614de9565b60405180910390a150505050505050505050505050565b60606000805b6001805490508110156123695760018181548110612324576123236146bf565b5b90600052602060002090600d020160070160009054906101000a900460ff166123565781806123529061471d565b9250505b80806123619061471d565b915050612303565b5060008167ffffffffffffffff8111156123865761238561433b565b5b6040519080825280602002602001820160405280156123bf57816020015b6123ac613812565b8152602001906001900390816123a45790505b5090506000805b60018054905081101561275f57600181815481106123e7576123e66146bf565b5b90600052602060002090600d020160070160009054906101000a900460ff1661274c576001818154811061241e5761241d6146bf565b5b90600052602060002090600d0201604051806101a00160405290816000820154815260200160018201805461245290614826565b80601f016020809104026020016040519081016040528092919081815260200182805461247e90614826565b80156124cb5780601f106124a0576101008083540402835291602001916124cb565b820191906000526020600020905b8154815290600101906020018083116124ae57829003601f168201915b50505050508152602001600282015481526020016003820160009054906101000a900473ffffffffffffffffffffffffffffffffffffffff1673ffffffffffffffffffffffffffffffffffffffff1673ffffffffffffffffffffffffffffffffffffffff16815260200160048201805480602002602001604051908101604052809291908181526020016000905b828210156126b657838290600052602060002090600602016040518060e00160405290816000820154815260200160018201805461259690614826565b80601f01602080910402602001604051908101604052809291908181526020018280546125c290614826565b801561260f5780601f106125e45761010080835404028352916020019161260f565b820191906000526020600020905b8154815290600101906020018083116125f257829003601f168201915b50505050508152602001600282015481526020016003820160009054906101000a900473ffffffffffffffffffffffffffffffffffffffff1673ffffffffffffffffffffffffffffffffffffffff1673ffffffffffffffffffffffffffffffffffffffff1681526020016003820160149054906101000a900460ff161515151581526020016004820154815260200160058201548152505081526020019060010190612559565b50505050815260200160058201548152602001600682015481526020016007820160009054906101000a900460ff161515151581526020016008820154815260200160098201548152602001600a8201548152602001600b8201548152602001600c82015481525050838381518110612732576127316146bf565b5b602002602001018190525081806127489061471d565b9250505b80806127579061471d565b9150506123c6565b5081935050505090565b60006001828154811061277f5761277e6146bf565b5b90600052602060002090600d0201600601549050919050565b6000806127a4836128a3565b90506000600184815481106127bc576127bb6146bf565b5b90600052602060002090600d0201600c0154826127d99190614e46565b9050600081600186815481106127f2576127f16146bf565b5b90600052602060002090600d0201600a015461280e9190614e77565b60018681548110612822576128216146bf565b5b90600052602060002090600d02016009015461283e9190614d69565b905060018581548110612854576128536146bf565b5b90600052602060002090600d0201600b0154811161289757600185815481106128805761287f6146bf565b5b90600052602060002090600d0201600b0154612899565b805b9350505050919050565b6000600182815481106128b9576128b86146bf565b5b90600052602060002090600d0201600601546128d361309f565b6128dd9190614d69565b9050919050565b6060600080600184815481106128fd576128fc6146bf565b5b90600052602060002090600d0201604051806101a00160405290816000820154815260200160018201805461293190614826565b80601f016020809104026020016040519081016040528092919081815260200182805461295d90614826565b80156129aa5780601f1061297f576101008083540402835291602001916129aa565b820191906000526020600020905b81548152906001019060200180831161298d57829003601f168201915b50505050508152602001600282015481526020016003820160009054906101000a900473ffffffffffffffffffffffffffffffffffffffff1673ffffffffffffffffffffffffffffffffffffffff1673ffffffffffffffffffffffffffffffffffffffff16815260200160048201805480602002602001604051908101604052809291908181526020016000905b82821015612b9557838290600052602060002090600602016040518060e001604052908160008201548152602001600182018054612a7590614826565b80601f0160208091040260200160405190810160405280929190818152602001828054612aa190614826565b8015612aee5780601f10612ac357610100808354040283529160200191612aee565b820191906000526020600020905b815481529060010190602001808311612ad157829003601f168201915b50505050508152602001600282015481526020016003820160009054906101000a900473ffffffffffffffffffffffffffffffffffffffff1673ffffffffffffffffffffffffffffffffffffffff1673ffffffffffffffffffffffffffffffffffffffff1681526020016003820160149054906101000a900460ff161515151581526020016004820154815260200160058201548152505081526020019060010190612a38565b50505050815260200160058201548152602001600682015481526020016007820160009054906101000a900460ff161515151581526020016008820154815260200160098201548152602001600a8201548152602001600b8201548152602001600c82015481525050905060005b816080015151811015612c5a5781608001518181518110612c2757612c266146bf565b5b60200260200101516080015115612c47578280612c439061471d565b9350505b8080612c529061471d565b915050612c03565b5060008267ffffffffffffffff811115612c7757612c7661433b565b5b604051908082528060200260200182016040528015612cb057816020015b612c9d6137bd565b815260200190600190039081612c955790505b5090506000805b836080015151811015612d4b5783608001518181518110612cdb57612cda6146bf565b5b60200260200101516080015115612d385783608001518181518110612d0357612d026146bf565b5b6020026020010151838381518110612d1e57612d1d6146bf565b5b60200260200101819052508180612d349061471d565b9250505b8080612d439061471d565b915050612cb7565b5081945050505050919050565b60606001805480602002602001604051908101604052809291908181526020016000905b8282101561309657838290600052602060002090600d0201604051806101a001604052908160008201548152602001600182018054612dba90614826565b80601f0160208091040260200160405190810160405280929190818152602001828054612de690614826565b8015612e335780601f10612e0857610100808354040283529160200191612e33565b820191906000526020600020905b815481529060010190602001808311612e1657829003601f168201915b50505050508152602001600282015481526020016003820160009054906101000a900473ffffffffffffffffffffffffffffffffffffffff1673ffffffffffffffffffffffffffffffffffffffff1673ffffffffffffffffffffffffffffffffffffffff16815260200160048201805480602002602001604051908101604052809291908181526020016000905b8282101561301e57838290600052602060002090600602016040518060e001604052908160008201548152602001600182018054612efe90614826565b80601f0160208091040260200160405190810160405280929190818152602001828054612f2a90614826565b8015612f775780601f10612f4c57610100808354040283529160200191612f77565b820191906000526020600020905b815481529060010190602001808311612f5a57829003601f168201915b50505050508152602001600282015481526020016003820160009054906101000a900473ffffffffffffffffffffffffffffffffffffffff1673ffffffffffffffffffffffffffffffffffffffff1673ffffffffffffffffffffffffffffffffffffffff1681526020016003820160149054906101000a900460ff161515151581526020016004820154815260200160058201548152505081526020019060010190612ec1565b50505050815260200160058201548152602001600682015481526020016007820160009054906101000a900460ff161515151581526020016008820154815260200160098201548152602001600a8201548152602001600b8201548152602001600c8201548152505081526020019060010190612d7c565b50505050905090565b6000804290508091505090565b60606000805b600180549050811015613159578373ffffffffffffffffffffffffffffffffffffffff16600182815481106130ea576130e96146bf565b5b90600052602060002090600d020160030160009054906101000a900473ffffffffffffffffffffffffffffffffffffffff1673ffffffffffffffffffffffffffffffffffffffff16036131465781806131429061471d565b9250505b80806131519061471d565b9150506130b2565b5060008167ffffffffffffffff8111156131765761317561433b565b5b6040519080825280602002602001820160405280156131af57816020015b61319c613812565b8152602001906001900390816131945790505b5090506000805b600180549050811015613590578573ffffffffffffffffffffffffffffffffffffffff16600182815481106131ee576131ed6146bf565b5b90600052602060002090600d020160030160009054906101000a900473ffffffffffffffffffffffffffffffffffffffff1673ffffffffffffffffffffffffffffffffffffffff160361357d576001818154811061324f5761324e6146bf565b5b90600052602060002090600d0201604051806101a00160405290816000820154815260200160018201805461328390614826565b80601f01602080910402602001604051908101604052809291908181526020018280546132af90614826565b80156132fc5780601f106132d1576101008083540402835291602001916132fc565b820191906000526020600020905b8154815290600101906020018083116132df57829003601f168201915b50505050508152602001600282015481526020016003820160009054906101000a900473ffffffffffffffffffffffffffffffffffffffff1673ffffffffffffffffffffffffffffffffffffffff1673ffffffffffffffffffffffffffffffffffffffff16815260200160048201805480602002602001604051908101604052809291908181526020016000905b828210156134e757838290600052602060002090600602016040518060e0016040529081600082015481526020016001820180546133c790614826565b80601f01602080910402602001604051908101604052809291908181526020018280546133f390614826565b80156134405780601f1061341557610100808354040283529160200191613440565b820191906000526020600020905b81548152906001019060200180831161342357829003601f168201915b50505050508152602001600282015481526020016003820160009054906101000a900473ffffffffffffffffffffffffffffffffffffffff1673ffffffffffffffffffffffffffffffffffffffff1673ffffffffffffffffffffffffffffffffffffffff1681526020016003820160149054906101000a900460ff16151515158152602001600482015481526020016005820154815250508152602001906001019061338a565b50505050815260200160058201548152602001600682015481526020016007820160009054906101000a900460ff161515151581526020016008820154815260200160098201548152602001600a8201548152602001600b8201548152602001600c82015481525050838381518110613563576135626146bf565b5b602002602001018190525081806135799061471d565b9250505b80806135889061471d565b9150506131b6565b50819350505050919050565b6060600060016135ab8461366a565b01905060008167ffffffffffffffff8111156135ca576135c961433b565b5b6040519080825280601f01601f1916602001820160405280156135fc5781602001600182028036833780820191505090505b509050600082602001820190505b60011561365f578080600190039150507f3031323334353637383961626364656600000000000000000000000000000000600a86061a8153600a858161365357613652614e17565b5b0494506000850361360a575b819350505050919050565b600080600090507a184f03e93ff9f4daa797ed6e38ed64bf6a1f01000000000000000083106136c8577a184f03e93ff9f4daa797ed6e38ed64bf6a1f01000000000000000083816136be576136bd614e17565b5b0492506040810190505b6d04ee2d6d415b85acef81000000008310613705576d04ee2d6d415b85acef810000000083816136fb576136fa614e17565b5b0492506020810190505b662386f26fc10000831061373457662386f26fc10000838161372a57613729614e17565b5b0492506010810190505b6305f5e100831061375d576305f5e100838161375357613752614e17565b5b0492506008810190505b612710831061378257612710838161377857613777614e17565b5b0492506004810190505b606483106137a5576064838161379b5761379a614e17565b5b0492506002810190505b600a83106137b4576001810190505b80915050919050565b6040518060e00160405280600081526020016060815260200160008152602001600073ffffffffffffffffffffffffffffffffffffffff16815260200160001515815260200160008152602001600081525090565b604051806101a00160405280600081526020016060815260200160008152602001600073ffffffffffffffffffffffffffffffffffffffff16815260200160608152602001600081526020016000815260200160001515815260200160008152602001600081526020016000815260200160008152602001600081525090565b82805461389e90614826565b90600052602060002090601f0160209004810192826138c05760008555613907565b82601f106138d957805160ff1916838001178555613907565b82800160010185558215613907579182015b828111156139065782518255916020019190600101906138eb565b5b5090506139149190613918565b5090565b5b80821115613931576000816000905550600101613919565b5090565b6000604051905090565b600080fd5b600080fd5b6000819050919050565b61395c81613949565b811461396757600080fd5b50565b60008135905061397981613953565b92915050565b6000602082840312156139955761399461393f565b5b60006139a38482850161396a565b91505092915050565b600081519050919050565b600082825260208201905092915050565b6000819050602082019050919050565b6139e181613949565b82525050565b600081519050919050565b600082825260208201905092915050565b60005b83811015613a21578082015181840152602081019050613a06565b83811115613a30576000848401525b50505050565b6000601f19601f8301169050919050565b6000613a52826139e7565b613a5c81856139f2565b9350613a6c818560208601613a03565b613a7581613a36565b840191505092915050565b600073ffffffffffffffffffffffffffffffffffffffff82169050919050565b6000613aab82613a80565b9050919050565b613abb81613aa0565b82525050565b60008115159050919050565b613ad681613ac1565b82525050565b600060e083016000830151613af460008601826139d8565b5060208301518482036020860152613b0c8282613a47565b9150506040830151613b2160408601826139d8565b506060830151613b346060860182613ab2565b506080830151613b476080860182613acd565b5060a0830151613b5a60a08601826139d8565b5060c0830151613b6d60c08601826139d8565b508091505092915050565b6000613b848383613adc565b905092915050565b6000602082019050919050565b6000613ba4826139ac565b613bae81856139b7565b935083602082028501613bc0856139c8565b8060005b85811015613bfc5784840389528151613bdd8582613b78565b9450613be883613b8c565b925060208a01995050600181019050613bc4565b50829750879550505050505092915050565b60006020820190508181036000830152613c288184613b99565b905092915050565b613c3981613949565b82525050565b6000602082019050613c546000830184613c30565b92915050565b600060e083016000830151613c7260008601826139d8565b5060208301518482036020860152613c8a8282613a47565b9150506040830151613c9f60408601826139d8565b506060830151613cb26060860182613ab2565b506080830151613cc56080860182613acd565b5060a0830151613cd860a08601826139d8565b5060c0830151613ceb60c08601826139d8565b508091505092915050565b60006020820190508181036000830152613d108184613c5a565b905092915050565b600082825260208201905092915050565b6000613d34826139e7565b613d3e8185613d18565b9350613d4e818560208601613a03565b613d5781613a36565b840191505092915050565b613d6b81613aa0565b82525050565b613d7a81613ac1565b82525050565b600061018082019050613d96600083018f613c30565b8181036020830152613da8818e613d29565b9050613db7604083018d613c30565b613dc4606083018c613d62565b613dd1608083018b613c30565b613dde60a083018a613c30565b613deb60c0830189613d71565b613df860e0830188613c30565b613e06610100830187613c30565b613e14610120830186613c30565b613e22610140830185613c30565b613e30610160830184613c30565b9d9c50505050505050505050505050565b60008060408385031215613e5857613e5761393f565b5b6000613e668582860161396a565b9250506020613e778582860161396a565b9150509250929050565b600082825260208201905092915050565b6000613e9d826139ac565b613ea78185613e81565b935083602082028501613eb9856139c8565b8060005b85811015613ef55784840389528151613ed68582613b78565b9450613ee183613b8c565b925060208a01995050600181019050613ebd565b50829750879550505050505092915050565b60006101a083016000830151613f2060008601826139d8565b5060208301518482036020860152613f388282613a47565b9150506040830151613f4d60408601826139d8565b506060830151613f606060860182613ab2565b5060808301518482036080860152613f788282613e92565b91505060a0830151613f8d60a08601826139d8565b5060c0830151613fa060c08601826139d8565b5060e0830151613fb360e0860182613acd565b50610100830151613fc86101008601826139d8565b50610120830151613fdd6101208601826139d8565b50610140830151613ff26101408601826139d8565b506101608301516140076101608601826139d8565b5061018083015161401c6101808601826139d8565b508091505092915050565b600060208201905081810360008301526140418184613f07565b905092915050565b600081519050919050565b600082825260208201905092915050565b6000819050602082019050919050565b60006101a08301600083015161408e60008601826139d8565b50602083015184820360208601526140a68282613a47565b91505060408301516140bb60408601826139d8565b5060608301516140ce6060860182613ab2565b50608083015184820360808601526140e68282613e92565b91505060a08301516140fb60a08601826139d8565b5060c083015161410e60c08601826139d8565b5060e083015161412160e0860182613acd565b506101008301516141366101008601826139d8565b5061012083015161414b6101208601826139d8565b506101408301516141606101408601826139d8565b506101608301516141756101608601826139d8565b5061018083015161418a6101808601826139d8565b508091505092915050565b60006141a18383614075565b905092915050565b6000602082019050919050565b60006141c182614049565b6141cb8185614054565b9350836020820285016141dd85614065565b8060005b8581101561421957848403895281516141fa8582614195565b9450614205836141a9565b925060208a019950506001810190506141e1565b50829750879550505050505092915050565b6000602082019050818103600083015261424581846141b6565b905092915050565b600081519050919050565b600082825260208201905092915050565b6000819050602082019050919050565b60006142858383613a47565b905092915050565b6000602082019050919050565b60006142a58261424d565b6142af8185614258565b9350836020820285016142c185614269565b8060005b858110156142fd57848403895281516142de8582614279565b94506142e98361428d565b925060208a019950506001810190506142c5565b50829750879550505050505092915050565b60006020820190508181036000830152614329818461429a565b905092915050565b600080fd5b600080fd5b7f4e487b7100000000000000000000000000000000000000000000000000000000600052604160045260246000fd5b61437382613a36565b810181811067ffffffffffffffff821117156143925761439161433b565b5b80604052505050565b60006143a5613935565b90506143b1828261436a565b919050565b600067ffffffffffffffff8211156143d1576143d061433b565b5b6143da82613a36565b9050602081019050919050565b82818337600083830152505050565b6000614409614404846143b6565b61439b565b90508281526020810184848401111561442557614424614336565b5b6144308482856143e7565b509392505050565b600082601f83011261444d5761444c614331565b5b813561445d8482602086016143f6565b91505092915050565b600067ffffffffffffffff8211156144815761448061433b565b5b602082029050602081019050919050565b600080fd5b60006144aa6144a584614466565b61439b565b905080838252602082019050602084028301858111156144cd576144cc614492565b5b835b8181101561451457803567ffffffffffffffff8111156144f2576144f1614331565b5b8086016144ff8982614438565b855260208501945050506020810190506144cf565b5050509392505050565b600082601f83011261453357614532614331565b5b8135614543848260208601614497565b91505092915050565b61455581613ac1565b811461456057600080fd5b50565b6000813590506145728161454c565b92915050565b600080600080600080600080610100898b0312156145995761459861393f565b5b600089013567ffffffffffffffff8111156145b7576145b6613944565b5b6145c38b828c01614438565b985050602089013567ffffffffffffffff8111156145e4576145e3613944565b5b6145f08b828c0161451e565b97505060406146018b828c01614563565b96505060606146128b828c0161396a565b95505060806146238b828c0161396a565b94505060a06146348b828c0161396a565b93505060c06146458b828c0161396a565b92505060e06146568b828c0161396a565b9150509295985092959890939650565b61466f81613aa0565b811461467a57600080fd5b50565b60008135905061468c81614666565b92915050565b6000602082840312156146a8576146a761393f565b5b60006146b68482850161467d565b91505092915050565b7f4e487b7100000000000000000000000000000000000000000000000000000000600052603260045260246000fd5b7f4e487b7100000000000000000000000000000000000000000000000000000000600052601160045260246000fd5b600061472882613949565b91507fffffffffffffffffffffffffffffffffffffffffffffffffffffffffffffffff820361475a576147596146ee565b5b600182019050919050565b7f546f7573206c65732061727469636c657320736f6e742064656a61206665726d60008201527f6573000000000000000000000000000000000000000000000000000000000000602082015250565b60006147c1602283613d18565b91506147cc82614765565b604082019050919050565b600060208201905081810360008301526147f0816147b4565b9050919050565b7f4e487b7100000000000000000000000000000000000000000000000000000000600052602260045260246000fd5b6000600282049050600182168061483e57607f821691505b602082108103614851576148506147f7565b5b50919050565b7f546f7573206c65732061727469636c6573206f6e206574652076656e64757300600082015250565b600061488d601f83613d18565b915061489882614857565b602082019050919050565b600060208201905081810360008301526148bc81614880565b9050919050565b7f4c27656e6368657265206e27612070617320656e636f726520636f6d6d656e6360008201527f6500000000000000000000000000000000000000000000000000000000000000602082015250565b600061491f602183613d18565b915061492a826148c3565b604082019050919050565b6000602082019050818103600083015261494e81614912565b9050919050565b600061496082613949565b915061496b83613949565b9250827fffffffffffffffffffffffffffffffffffffffffffffffffffffffffffffffff038211156149a05761499f6146ee565b5b828201905092915050565b7f4c27656e636865726520657374207465726d696e656500000000000000000000600082015250565b60006149e1601683613d18565b91506149ec826149ab565b602082019050919050565b60006020820190508181036000830152614a10816149d4565b9050919050565b7f496e646578206465732061727469636c657320696e76616c6964650000000000600082015250565b6000614a4d601b83613d18565b9150614a5882614a17565b602082019050919050565b60006020820190508181036000830152614a7c81614a40565b9050919050565b7f4c2761727469636c65206573742064656a61206665726d650000000000000000600082015250565b6000614ab9601883613d18565b9150614ac482614a83565b602082019050919050565b60006020820190508181036000830152614ae881614aac565b9050919050565b7f4c65206d6f6e74616e74206465206c27656e636865726520646f69742065747260008201527f65207375706572696575722061207a65726f0000000000000000000000000000602082015250565b6000614b4b603283613d18565b9150614b5682614aef565b604082019050919050565b60006020820190508181036000830152614b7a81614b3e565b9050919050565b600081905092915050565b7f4c65206d6f6e74616e74206465206c27656e63686572652065737420696e666560008201527f726965757220617520707269782061637475656c2074696d653a200000000000602082015250565b6000614be8603b83614b81565b9150614bf382614b8c565b603b82019050919050565b6000614c09826139e7565b614c138185614b81565b9350614c23818560208601613a03565b80840191505092915050565b7f207374617274203a200000000000000000000000000000000000000000000000600082015250565b6000614c65600983614b81565b9150614c7082614c2f565b600982019050919050565b6000614c8682614bdb565b9150614c928285614bfe565b9150614c9d82614c58565b9150614ca98284614bfe565b91508190509392505050565b60006020820190508181036000830152614ccf8184613d29565b905092915050565b7f546f7573206c65732061727469636c6573206f6e74206574652076656e64757360008201527f2061757820656e63686572657300000000000000000000000000000000000000602082015250565b6000614d33602d83613d18565b9150614d3e82614cd7565b604082019050919050565b60006020820190508181036000830152614d6281614d26565b9050919050565b6000614d7482613949565b9150614d7f83613949565b925082821015614d9257614d916146ee565b5b828203905092915050565b7f4372656174652041756374696f6e3a0000000000000000000000000000000000600082015250565b6000614dd3600f83613d18565b9150614dde82614d9d565b602082019050919050565b60006040820190508181036000830152614e0281614dc6565b9050614e116020830184613c30565b92915050565b7f4e487b7100000000000000000000000000000000000000000000000000000000600052601260045260246000fd5b6000614e5182613949565b9150614e5c83613949565b925082614e6c57614e6b614e17565b5b828204905092915050565b6000614e8282613949565b9150614e8d83613949565b9250817fffffffffffffffffffffffffffffffffffffffffffffffffffffffffffffffff0483118215151615614ec657614ec56146ee565b5b82820290509291505056fea2646970667358221220d5ff96e6552e6516bc0a841a22b8852e093bbb4c5e3d56bec65be9f017ed784364736f6c634300080d0033",
  "immutableReferences": {},
  "source": "// SPDX-License-Identifier: MIT\npragma solidity ^0.8.0;\nimport \"@openzeppelin/contracts/utils/Strings.sol\";\n\ncontract DutchAuction {\n    using Strings for uint256;\n    uint public startBlock;\n\n    /** Creation d'une sctructure pour l'article\n    Lequel aura un nom, un prix, un gagnant et un status pour savoir s'il est ferm  */\n    struct Article { uint id; string name; uint currentPrice; address winningBidder; bool closed; uint bought; uint boughtFor; }\n    struct Auction { \n        uint id; \n        string name; \n        uint currentArticleIndex; \n        address auctioneer; Article[] articles; \n        uint auctionStartTime; \n        uint startTimeCurrentAuction; \n        bool closed;\n        uint auction_duration;\n        uint starting_price;\n        uint price_decrement;\n        uint reserve_price;\n        uint interval;\n    }\n\n    Auction[] public auctions;\n\n    event Log(string message, uint value);\n    event BidPlaced(uint indexed articleIndex, address indexed bidder, uint amount);\n    event AuctionClosed(uint indexed auctionIndex);\n\n\n    modifier auctionOpen(uint auctionIndex) {\n        require(block.timestamp >= auctions[auctionIndex].auctionStartTime, \"L'enchere n'a pas encore commence\");\n        require(block.timestamp < auctions[auctionIndex].auctionStartTime + auctions[auctionIndex].auction_duration, \"L'enchere est terminee\");\n        _;\n    }\n\n    modifier articleOpen(uint articleIndex, uint auctionIndex) {\n        require(articleIndex < auctions[auctionIndex].articles.length, \"Index des articles invalide\");\n        require(!auctions[auctionIndex].articles[articleIndex].closed, \"L'article est deja ferme\");\n        _;\n    }\n\n    constructor() {\n        startBlock = block.number;\n        emit Log(\"CreateContract:\", block.timestamp);\n\n        // Creation de deux encheres par default\n        string[] memory s = new string[](4);\n        s[0] = \"Article 1\";\n        s[1] = \"Article 2\";\n        s[2] = \"Article 3\";\n        s[3] = \"Article 4\";\n        createAuction(\"Auction 1\", s, false, 3600 seconds, 1 ether, 0.1 ether, 0.2 ether, 50 seconds);\n        \n        string[] memory s2 = new string[](3);\n        s2[0] = \"Chemise\";\n        s2[1] = \"PC\";\n        s2[2] = \"Valise\";\n        createAuction(\"Auction 2\", s2, false, 3600 seconds, 1 ether, 0.1 ether, 0.2 ether, 50 seconds);\n    }\n\n    function getArticles(uint auctionIndex) public view returns (Article[] memory) {\n        return auctions[auctionIndex].articles;\n    }\n\n    function getCurrentArticle(uint auctionIndex) public view returns (Article memory) {\n        require( auctions[auctionIndex].currentArticleIndex < auctions[auctionIndex].articles.length, \"Tous les articles on ete vendus\" );\n        return auctions[auctionIndex].articles[ auctions[auctionIndex].currentArticleIndex ];\n    }\n\n    function getArticleNames(uint auctionIndex) public view returns (string[] memory) {\n        string[] memory articleNames = new string[](auctions[auctionIndex].articles.length);\n\n        for (uint i = 0; i < auctions[auctionIndex].articles.length; i++) {\n            articleNames[i] = auctions[auctionIndex].articles[i].name;\n        }\n\n        return articleNames;\n    }\n\n    function getOpenArticles(uint auctionIndex) public view returns (Article[] memory) {\n        uint openArticleCount = 0;\n        if(!auctions[auctionIndex].closed) {\n            // Compter le nombre d'articles ouverts\n            for (uint i = 0; i < auctions[auctionIndex].articles.length; i++) {\n                if (!auctions[auctionIndex].articles[i].closed) {\n                    openArticleCount++;\n                }\n            }\n\n            // Crer un tableau de la taille approprie pour les articles ouverts\n            Article[] memory openArticles = new Article[](openArticleCount);\n\n            // Remplir le tableau avec les articles ouverts\n            uint index = 0;\n            for (uint i = 0; i < auctions[auctionIndex].articles.length; i++) {\n                if (!auctions[auctionIndex].articles[i].closed) {\n                    openArticles[index] = auctions[auctionIndex].articles[i];\n                    index++;\n                }\n            }\n\n            return openArticles;\n\n        } else {\n            Article[] memory openArticles = new Article[](0);\n            return openArticles;\n        }\n    }\n\n    function getOpenAuctions() public view returns (Auction[] memory) {\n        uint openAuctionCount = 0;\n        \n        // Compter le nombre d'encheres ouverts\n        for (uint i = 0; i < auctions.length; i++) {\n            if (!auctions[i].closed) {\n                openAuctionCount++;\n            }\n        }\n\n        // Crer un tableau de la taille approprie pour les encheres ouverts\n        Auction[] memory openAuctions = new Auction[](openAuctionCount);\n\n        // Remplir le tableau avec les encheres ouverts\n        uint index = 0;\n        for (uint i = 0; i < auctions.length; i++) {\n            if (!auctions[i].closed) {\n                openAuctions[index] = auctions[i];\n                index++;\n            }\n        }\n        return openAuctions;\n    }\n\n    function getAuctionsFor(address auctioneer) public view returns (Auction[] memory) {\n        uint auctionForCount = 0;\n        \n        // Compter le nombre d'encheres du proprietaire\n        for (uint i = 0; i < auctions.length; i++) {\n            if (auctions[i].auctioneer == auctioneer) {\n                auctionForCount++;\n            }\n        }\n        Auction[] memory auctionsFor = new Auction[](auctionForCount);\n\n        // Remplir le tableau\n        uint index = 0;\n        for (uint i = 0; i < auctions.length; i++) {\n            if (auctions[i].auctioneer == auctioneer) {\n                auctionsFor[index] = auctions[i];\n                index++;\n            }\n        }\n        return auctionsFor;\n    }\n\n    function getClosedAuctions() public view returns (Auction[] memory) {\n        uint closedAuctionCount = 0;\n        \n        // Compter le nombre d'encheres fermes\n        for (uint i = 0; i < auctions.length; i++) {\n            if (auctions[i].closed) {\n                closedAuctionCount++;\n            }\n        }\n\n        // Crer un tableau de la taille approprie pour les encheres fermes\n        Auction[] memory closedAuctions = new Auction[](closedAuctionCount);\n\n        // Remplir le tableau avec les encheres fermes\n        uint index = 0;\n        for (uint i = 0; i < auctions.length; i++) {\n            if (auctions[i].closed) {\n                closedAuctions[index] = auctions[i];\n                index++;\n            }\n        }\n        return closedAuctions;\n    }\n\n    function getClosedArticles(uint auctionIndex) public view returns (Article[] memory) {\n        uint closedArticleCount = 0;\n        Auction memory auction = auctions[auctionIndex];\n        // Compter le nombre d'articles ouverts\n        for (uint i = 0; i < auction.articles.length; i++) {\n            if (auction.articles[i].closed) {\n                closedArticleCount++;\n            }\n        }\n\n        // Crer un tableau de la taille approprie pour les articles ouverts\n        Article[] memory closedArticles = new Article[](closedArticleCount);\n\n        // Remplir le tableau avec les articles ouverts\n        uint index = 0;\n        for (uint i = 0; i < auction.articles.length; i++) {\n            if (auction.articles[i].closed) {\n                closedArticles[index] = auction.articles[i];\n                index++;\n            }\n        }\n\n        return closedArticles;\n    }\n\n    function getCurrentPrice( uint auctionIndex ) public view returns (uint) {\n        uint elapsedTime = getElapsedTime( auctionIndex );\n        uint decrements = elapsedTime / auctions[auctionIndex].interval;\n        uint currentPrice = auctions[auctionIndex].starting_price - (auctions[auctionIndex].price_decrement * decrements);\n        return currentPrice > auctions[auctionIndex].reserve_price ? currentPrice : auctions[auctionIndex].reserve_price;\n    }\n\n    function getStartTime(uint auctionIndex) public view returns (uint) {\n        return auctions[auctionIndex].startTimeCurrentAuction;\n    }\n    \n    function getElapsedTime(uint auctionIndex) public view returns (uint) {\n        return getTimeStamp() - auctions[auctionIndex].startTimeCurrentAuction;\n    }\n\n    function getTimeStamp() public view returns (uint) {\n        uint tmp = block.timestamp;\n        return tmp;\n    }\n\n    function getAuctions() public view returns (Auction[] memory) {\n        return auctions;\n    }\n\n    /**\n     * Obtenir l'enchere par id (index)\n     */\n    function getAuction(uint id) public view returns (Auction memory) {\n        return auctions[id];\n    }\n\n    /**\n        Placer une offre \n     */\n    function placeBid(uint articleIndex, uint auctionIndex) external payable auctionOpen(auctionIndex) articleOpen(articleIndex, auctionIndex) {\n    //function placeBid(uint articleIndex, uint auctionIndex) external payable {\n        require(msg.value > 0, \"Le montant de l'enchere doit etre superieur a zero\");\n\n        uint currentPrice = getCurrentPrice( auctionIndex );\n        //require(msg.value >= currentPrice, \"Le montant de l'enchere est inferieur au prix actuel\");\n        require(msg.value >= currentPrice, string(abi.encodePacked(\"Le montant de l'enchere est inferieur au prix actuel time: \", block.timestamp.toString(), ' start : ', auctions[auctionIndex].auctionStartTime.toString())));\n        require( auctions[auctionIndex].currentArticleIndex < auctions[auctionIndex].articles.length, \"Tous les articles ont ete vendus aux encheres\" );\n\n        //  Si la valeur est > 0 et plus que le prix actuel on etabli le gagnant et on ferme l'article\n        uint now_place = block.timestamp;\n        \n        auctions[auctionIndex].articles[articleIndex].winningBidder = msg.sender;\n        auctions[auctionIndex].articles[articleIndex].closed = true;\n        auctions[auctionIndex].articles[articleIndex].bought = now_place;\n        auctions[auctionIndex].articles[articleIndex].boughtFor = msg.value;\n        auctions[auctionIndex].currentArticleIndex++;\n        \n        if(auctions[auctionIndex].currentArticleIndex < auctions[auctionIndex].articles.length) {\n            auctions[auctionIndex].startTimeCurrentAuction = now_place;\n        }else {\n            auctions[auctionIndex].closed = true;    \n        }\n\n        emit BidPlaced(articleIndex, msg.sender, msg.value);\n    }\n\n    function closeAuction( uint auctionIndex ) public {\n        auctions[auctionIndex].closed = true;\n        emit AuctionClosed(auctionIndex);\n    }\n\n    function openAuction( uint auctionIndex ) public {\n        uint openArticlesCount = 0;\n        for(uint i = 0 ; i < auctions[auctionIndex].articles.length; i++) {\n            if(!auctions[auctionIndex].articles[i].closed) openArticlesCount++;\n        }\n\n        require(openArticlesCount > 0, \"Tous les articles sont deja fermes\");\n        auctions[auctionIndex].closed = false;\n        auctions[auctionIndex].auctionStartTime = block.timestamp;\n        auctions[auctionIndex].startTimeCurrentAuction = auctions[auctionIndex].auctionStartTime;\n        emit AuctionClosed(auctionIndex);\n    }\n\n    /**\n        Creer un enchere\n     */\n    function createAuction(string memory name, string[] memory articles, bool closed, uint auction_duration, uint starting_price, uint price_decrement, uint reserve_price, uint interval) public {\n        uint id = auctions.length;\n        address auctioneer = msg.sender;\n        uint auctionStartTime = block.timestamp;\n        uint startTimeCurrentAuction = auctionStartTime;\n\n        // Crer une nouvelle instance d'Auction avec des valeurs par dfaut\n        Auction storage newAuction = auctions.push();\n        newAuction.id = id;\n        newAuction.name = name;\n        newAuction.currentArticleIndex = 0;\n        newAuction.auctioneer = auctioneer;\n        newAuction.auctionStartTime = auctionStartTime;\n        newAuction.startTimeCurrentAuction = startTimeCurrentAuction;\n        newAuction.closed = closed;\n        \n        // Parametres\n        newAuction.auction_duration = auction_duration;\n        newAuction.starting_price = starting_price;\n        newAuction.price_decrement = price_decrement;\n        newAuction.reserve_price = reserve_price;\n        newAuction.interval = interval;\n\n\n        // Ajouter chaque lment du tableau d'articles en mmoire au tableau en stockage\n        for (uint i = 1; i <= articles.length; i++) {\n            newAuction.articles.push(Article( i, articles[i-1], starting_price, address(0), false, 0, 0 ether ));\n        }\n\n        emit Log(\"Create Auction:\", auctionStartTime);\n    }\n\n}\n",
  "sourcePath": "/home/iwocs/Desktop/MASTER/BlockChain/Dutch/dutch-auction/contracts/DutchAuction.sol",
  "compiler": {
    "name": "solc",
    "version": "0.8.13+commit.abaa5c0e.Emscripten.clang"
  },
  "schemaVersion": "3.4.16",
  "updatedAt": "2024-02-07T17:34:52.444Z",
  "networkType": "ethereum",
  "devdoc": {
    "kind": "dev",
    "methods": {},
    "version": 1
  },
  "userdoc": {
    "kind": "user",
    "methods": {
      "createAuction(string,string[],bool,uint256,uint256,uint256,uint256,uint256)": {
        "notice": "Creer un enchere"
      },
      "getAuction(uint256)": {
        "notice": "Obtenir l'enchere par id (index)"
      },
      "placeBid(uint256,uint256)": {
        "notice": "Placer une offre "
      }
    },
    "version": 1
  }
}