{
  "contractName": "DutchAuction",
  "abi": [
    {
      "inputs": [],
      "stateMutability": "nonpayable",
      "type": "constructor"
    },
    {
      "anonymous": false,
      "inputs": [
        {
          "indexed": true,
          "internalType": "uint256",
          "name": "articleIndex",
          "type": "uint256"
        },
        {
          "indexed": true,
          "internalType": "address",
          "name": "bidder",
          "type": "address"
        },
        {
          "indexed": false,
          "internalType": "uint256",
          "name": "amount",
          "type": "uint256"
        }
      ],
      "name": "BidPlaced",
      "type": "event"
    },
    {
      "anonymous": false,
      "inputs": [
        {
          "indexed": false,
          "internalType": "string",
          "name": "message",
          "type": "string"
        },
        {
          "indexed": false,
          "internalType": "uint256",
          "name": "value",
          "type": "uint256"
        }
      ],
      "name": "Log",
      "type": "event"
    },
    {
      "inputs": [],
      "name": "AUCTION_DURATION",
      "outputs": [
        {
          "internalType": "uint256",
          "name": "",
          "type": "uint256"
        }
      ],
      "stateMutability": "view",
      "type": "function",
      "constant": true
    },
    {
      "inputs": [],
      "name": "INTERVAL",
      "outputs": [
        {
          "internalType": "uint256",
          "name": "",
          "type": "uint256"
        }
      ],
      "stateMutability": "view",
      "type": "function",
      "constant": true
    },
    {
      "inputs": [],
      "name": "PRICE_DECREMENT",
      "outputs": [
        {
          "internalType": "uint256",
          "name": "",
          "type": "uint256"
        }
      ],
      "stateMutability": "view",
      "type": "function",
      "constant": true
    },
    {
      "inputs": [],
      "name": "RESERVE_PRICE",
      "outputs": [
        {
          "internalType": "uint256",
          "name": "",
          "type": "uint256"
        }
      ],
      "stateMutability": "view",
      "type": "function",
      "constant": true
    },
    {
      "inputs": [],
      "name": "STARTING_PRICE",
      "outputs": [
        {
          "internalType": "uint256",
          "name": "",
          "type": "uint256"
        }
      ],
      "stateMutability": "view",
      "type": "function",
      "constant": true
    },
    {
      "inputs": [
        {
          "internalType": "uint256",
          "name": "",
          "type": "uint256"
        }
      ],
      "name": "articles",
      "outputs": [
        {
          "internalType": "uint256",
          "name": "id",
          "type": "uint256"
        },
        {
          "internalType": "string",
          "name": "name",
          "type": "string"
        },
        {
          "internalType": "uint256",
          "name": "currentPrice",
          "type": "uint256"
        },
        {
          "internalType": "address",
          "name": "winningBidder",
          "type": "address"
        },
        {
          "internalType": "bool",
          "name": "closed",
          "type": "bool"
        }
      ],
      "stateMutability": "view",
      "type": "function",
      "constant": true
    },
    {
      "inputs": [],
      "name": "auctionStartTime",
      "outputs": [
        {
          "internalType": "uint256",
          "name": "",
          "type": "uint256"
        }
      ],
      "stateMutability": "view",
      "type": "function",
      "constant": true
    },
    {
      "inputs": [],
      "name": "auctioneer",
      "outputs": [
        {
          "internalType": "address",
          "name": "",
          "type": "address"
        }
      ],
      "stateMutability": "view",
      "type": "function",
      "constant": true
    },
    {
      "inputs": [],
      "name": "currentArticleIndex",
      "outputs": [
        {
          "internalType": "uint256",
          "name": "",
          "type": "uint256"
        }
      ],
      "stateMutability": "view",
      "type": "function",
      "constant": true
    },
    {
      "inputs": [],
      "name": "startBlock",
      "outputs": [
        {
          "internalType": "uint256",
          "name": "",
          "type": "uint256"
        }
      ],
      "stateMutability": "view",
      "type": "function",
      "constant": true
    },
    {
      "inputs": [],
      "name": "getArticles",
      "outputs": [
        {
          "components": [
            {
              "internalType": "uint256",
              "name": "id",
              "type": "uint256"
            },
            {
              "internalType": "string",
              "name": "name",
              "type": "string"
            },
            {
              "internalType": "uint256",
              "name": "currentPrice",
              "type": "uint256"
            },
            {
              "internalType": "address",
              "name": "winningBidder",
              "type": "address"
            },
            {
              "internalType": "bool",
              "name": "closed",
              "type": "bool"
            }
          ],
          "internalType": "struct DutchAuction.Article[]",
          "name": "",
          "type": "tuple[]"
        }
      ],
      "stateMutability": "view",
      "type": "function",
      "constant": true
    },
    {
      "inputs": [],
      "name": "getCurrentArticle",
      "outputs": [
        {
          "components": [
            {
              "internalType": "uint256",
              "name": "id",
              "type": "uint256"
            },
            {
              "internalType": "string",
              "name": "name",
              "type": "string"
            },
            {
              "internalType": "uint256",
              "name": "currentPrice",
              "type": "uint256"
            },
            {
              "internalType": "address",
              "name": "winningBidder",
              "type": "address"
            },
            {
              "internalType": "bool",
              "name": "closed",
              "type": "bool"
            }
          ],
          "internalType": "struct DutchAuction.Article",
          "name": "",
          "type": "tuple"
        }
      ],
      "stateMutability": "view",
      "type": "function",
      "constant": true
    },
    {
      "inputs": [],
      "name": "getArticleNames",
      "outputs": [
        {
          "internalType": "string[]",
          "name": "",
          "type": "string[]"
        }
      ],
      "stateMutability": "view",
      "type": "function",
      "constant": true
    },
    {
      "inputs": [],
      "name": "getCurrentPrice",
      "outputs": [
        {
          "internalType": "uint256",
          "name": "",
          "type": "uint256"
        }
      ],
      "stateMutability": "view",
      "type": "function",
      "constant": true
    },
    {
      "inputs": [],
      "name": "getElapsedTime",
      "outputs": [
        {
          "internalType": "uint256",
          "name": "",
          "type": "uint256"
        }
      ],
      "stateMutability": "view",
      "type": "function",
      "constant": true
    },
    {
      "inputs": [],
      "name": "getStartTime",
      "outputs": [
        {
          "internalType": "uint256",
          "name": "",
          "type": "uint256"
        }
      ],
      "stateMutability": "view",
      "type": "function",
      "constant": true
    },
    {
      "inputs": [
        {
          "internalType": "uint256",
          "name": "articleIndex",
          "type": "uint256"
        }
      ],
      "name": "placeBid",
      "outputs": [],
      "stateMutability": "payable",
      "type": "function",
      "payable": true
    },
    {
      "inputs": [],
      "name": "moveToNextArticle",
      "outputs": [],
      "stateMutability": "nonpayable",
      "type": "function"
    }
  ],
  "bytecode": "0x60806040523480156200001157600080fd5b5043600381905550336000806101000a81548173ffffffffffffffffffffffffffffffffffffffff021916908373ffffffffffffffffffffffffffffffffffffffff160217905550426002819055507fdd970dd9b5bfe707922155b058a407655cb18288b807e2216442bca8ad83d6b560025460405162000093919062000979565b60405180910390a160046040518060a00160405280600181526020016040518060400160405280600981526020017f41727469636c65203100000000000000000000000000000000000000000000008152508152602001670de0b6b3a76400008152602001600073ffffffffffffffffffffffffffffffffffffffff1681526020016000151581525090806001815401808255809150506001900390600052602060002090600402016000909190919091506000820151816000015560208201518160010190805190602001906200016d9291906200084d565b506040820151816002015560608201518160030160006101000a81548173ffffffffffffffffffffffffffffffffffffffff021916908373ffffffffffffffffffffffffffffffffffffffff16021790555060808201518160030160146101000a81548160ff021916908315150217905550505060046040518060a00160405280600281526020016040518060400160405280600981526020017f41727469636c65203200000000000000000000000000000000000000000000008152508152602001670de0b6b3a76400008152602001600073ffffffffffffffffffffffffffffffffffffffff168152602001600015158152509080600181540180825580915050600190039060005260206000209060040201600090919091909150600082015181600001556020820151816001019080519060200190620002b39291906200084d565b506040820151816002015560608201518160030160006101000a81548173ffffffffffffffffffffffffffffffffffffffff021916908373ffffffffffffffffffffffffffffffffffffffff16021790555060808201518160030160146101000a81548160ff021916908315150217905550505060046040518060a00160405280600381526020016040518060400160405280600981526020017f41727469636c65203300000000000000000000000000000000000000000000008152508152602001670de0b6b3a76400008152602001600073ffffffffffffffffffffffffffffffffffffffff168152602001600015158152509080600181540180825580915050600190039060005260206000209060040201600090919091909150600082015181600001556020820151816001019080519060200190620003f99291906200084d565b506040820151816002015560608201518160030160006101000a81548173ffffffffffffffffffffffffffffffffffffffff021916908373ffffffffffffffffffffffffffffffffffffffff16021790555060808201518160030160146101000a81548160ff021916908315150217905550505060046040518060a00160405280600481526020016040518060400160405280600981526020017f41727469636c65203400000000000000000000000000000000000000000000008152508152602001670de0b6b3a76400008152602001600073ffffffffffffffffffffffffffffffffffffffff1681526020016000151581525090806001815401808255809150506001900390600052602060002090600402016000909190919091506000820151816000015560208201518160010190805190602001906200053f9291906200084d565b506040820151816002015560608201518160030160006101000a81548173ffffffffffffffffffffffffffffffffffffffff021916908373ffffffffffffffffffffffffffffffffffffffff16021790555060808201518160030160146101000a81548160ff021916908315150217905550505060046040518060a00160405280600581526020016040518060400160405280600981526020017f41727469636c65203500000000000000000000000000000000000000000000008152508152602001670de0b6b3a76400008152602001600073ffffffffffffffffffffffffffffffffffffffff168152602001600015158152509080600181540180825580915050600190039060005260206000209060040201600090919091909150600082015181600001556020820151816001019080519060200190620006859291906200084d565b506040820151816002015560608201518160030160006101000a81548173ffffffffffffffffffffffffffffffffffffffff021916908373ffffffffffffffffffffffffffffffffffffffff16021790555060808201518160030160146101000a81548160ff021916908315150217905550505060046040518060a00160405280600681526020016040518060400160405280600981526020017f41727469636c65203600000000000000000000000000000000000000000000008152508152602001670de0b6b3a76400008152602001600073ffffffffffffffffffffffffffffffffffffffff168152602001600015158152509080600181540180825580915050600190039060005260206000209060040201600090919091909150600082015181600001556020820151816001019080519060200190620007cb9291906200084d565b506040820151816002015560608201518160030160006101000a81548173ffffffffffffffffffffffffffffffffffffffff021916908373ffffffffffffffffffffffffffffffffffffffff16021790555060808201518160030160146101000a81548160ff0219169083151502179055505050600060018190555062000a0f565b8280546200085b90620009da565b90600052602060002090601f0160209004810192826200087f5760008555620008cb565b82601f106200089a57805160ff1916838001178555620008cb565b82800160010185558215620008cb579182015b82811115620008ca578251825591602001919060010190620008ad565b5b509050620008da9190620008de565b5090565b5b80821115620008f9576000816000905550600101620008df565b5090565b600082825260208201905092915050565b7f437265617465436f6e74726163743a0000000000000000000000000000000000600082015250565b600062000946600f83620008fd565b915062000953826200090e565b602082019050919050565b6000819050919050565b62000973816200095e565b82525050565b60006040820190508181036000830152620009948162000937565b9050620009a5602083018462000968565b92915050565b7f4e487b7100000000000000000000000000000000000000000000000000000000600052602260045260246000fd5b60006002820490506001821680620009f357607f821691505b60208210810362000a095762000a08620009ab565b5b50919050565b611ac48062000a1f6000396000f3fe6080604052600436106101095760003560e01c8063c511166b11610095578063dd21d60411610064578063dd21d6041461031a578063e956182214610345578063eb54f9ec14610370578063eb91d37e1461039b578063edcfafe6146103c657610109565b8063c511166b14610282578063c828371e14610299578063ccadbb40146102c4578063d12f7029146102ef57610109565b80636529f44a116100dc5780636529f44a146101ba57806389facb20146101e55780639979ef4514610210578063a271e5251461022c578063c26ca3581461025757610109565b8063125d70201461010e57806346f1b1a81461013957806348cd4cb1146101645780635ec2c7bf1461018f575b600080fd5b34801561011a57600080fd5b50610123610407565b6040516101309190610ec7565b60405180910390f35b34801561014557600080fd5b5061014e610423565b60405161015b919061105c565b60405180910390f35b34801561017057600080fd5b50610179610576565b6040516101869190610ec7565b60405180910390f35b34801561019b57600080fd5b506101a461057c565b6040516101b1919061108d565b60405180910390f35b3480156101c657600080fd5b506101cf6105a0565b6040516101dc91906111e0565b60405180910390f35b3480156101f157600080fd5b506101fa610716565b6040516102079190610ec7565b60405180910390f35b61022a60048036038101906102259190611233565b61071b565b005b34801561023857600080fd5b506102416109f4565b60405161024e9190610ec7565b60405180910390f35b34801561026357600080fd5b5061026c6109fa565b6040516102799190611322565b60405180910390f35b34801561028e57600080fd5b50610297610b4a565b005b3480156102a557600080fd5b506102ae610cba565b6040516102bb9190610ec7565b60405180910390f35b3480156102d057600080fd5b506102d9610cc4565b6040516102e69190610ec7565b60405180910390f35b3480156102fb57600080fd5b50610304610cca565b6040516103119190610ec7565b60405180910390f35b34801561032657600080fd5b5061032f610cd6565b60405161033c9190610ec7565b60405180910390f35b34801561035157600080fd5b5061035a610ce2565b6040516103679190610ec7565b60405180910390f35b34801561037c57600080fd5b50610385610cee565b6040516103929190610ec7565b60405180910390f35b3480156103a757600080fd5b506103b0610cf4565b6040516103bd9190610ec7565b60405180910390f35b3480156103d257600080fd5b506103ed60048036038101906103e89190611233565b610d64565b6040516103fe95949392919061139d565b60405180910390f35b6000600254610414610e5f565b61041e9190611426565b905090565b61042b610e67565b6004600154815481106104415761044061145a565b5b90600052602060002090600402016040518060a001604052908160008201548152602001600182018054610474906114b8565b80601f01602080910402602001604051908101604052809291908181526020018280546104a0906114b8565b80156104ed5780601f106104c2576101008083540402835291602001916104ed565b820191906000526020600020905b8154815290600101906020018083116104d057829003601f168201915b50505050508152602001600282015481526020016003820160009054906101000a900473ffffffffffffffffffffffffffffffffffffffff1673ffffffffffffffffffffffffffffffffffffffff1673ffffffffffffffffffffffffffffffffffffffff1681526020016003820160149054906101000a900460ff161515151581525050905090565b60035481565b60008054906101000a900473ffffffffffffffffffffffffffffffffffffffff1681565b60606004805480602002602001604051908101604052809291908181526020016000905b8282101561070d57838290600052602060002090600402016040518060a001604052908160008201548152602001600182018054610601906114b8565b80601f016020809104026020016040519081016040528092919081815260200182805461062d906114b8565b801561067a5780601f1061064f5761010080835404028352916020019161067a565b820191906000526020600020905b81548152906001019060200180831161065d57829003601f168201915b50505050508152602001600282015481526020016003820160009054906101000a900473ffffffffffffffffffffffffffffffffffffffff1673ffffffffffffffffffffffffffffffffffffffff1673ffffffffffffffffffffffffffffffffffffffff1681526020016003820160149054906101000a900460ff161515151581525050815260200190600101906105c4565b50505050905090565b603281565b600254421015610760576040517f08c379a00000000000000000000000000000000000000000000000000000000081526004016107579061155b565b60405180910390fd5b610e10600254610770919061157b565b42106107b1576040517f08c379a00000000000000000000000000000000000000000000000000000000081526004016107a89061161d565b60405180910390fd5b8060048054905081106107f9576040517f08c379a00000000000000000000000000000000000000000000000000000000081526004016107f090611689565b60405180910390fd5b6004818154811061080d5761080c61145a565b5b906000526020600020906004020160030160149054906101000a900460ff161561086c576040517f08c379a0000000000000000000000000000000000000000000000000000000008152600401610863906116f5565b60405180910390fd5b600034116108af576040517f08c379a00000000000000000000000000000000000000000000000000000000081526004016108a690611787565b60405180910390fd5b60006108b9610cf4565b9050803410156108fe576040517f08c379a00000000000000000000000000000000000000000000000000000000081526004016108f590611819565b60405180910390fd5b33600484815481106109135761091261145a565b5b906000526020600020906004020160030160006101000a81548173ffffffffffffffffffffffffffffffffffffffff021916908373ffffffffffffffffffffffffffffffffffffffff1602179055506001600484815481106109785761097761145a565b5b906000526020600020906004020160030160146101000a81548160ff0219169083151502179055503373ffffffffffffffffffffffffffffffffffffffff16837f0e54eff26401bf69b81b26f60bd85ef47f5d85275c1d268d84f68d6897431c47346040516109e79190610ec7565b60405180910390a3505050565b610e1081565b6060600060048054905067ffffffffffffffff811115610a1d57610a1c611839565b5b604051908082528060200260200182016040528015610a5057816020015b6060815260200190600190039081610a3b5790505b50905060005b600480549050811015610b425760048181548110610a7757610a7661145a565b5b90600052602060002090600402016001018054610a93906114b8565b80601f0160208091040260200160405190810160405280929190818152602001828054610abf906114b8565b8015610b0c5780601f10610ae157610100808354040283529160200191610b0c565b820191906000526020600020905b815481529060010190602001808311610aef57829003601f168201915b5050505050828281518110610b2457610b2361145a565b5b60200260200101819052508080610b3a90611868565b915050610a56565b508091505090565b60008054906101000a900473ffffffffffffffffffffffffffffffffffffffff1673ffffffffffffffffffffffffffffffffffffffff163373ffffffffffffffffffffffffffffffffffffffff1614610bd8576040517f08c379a0000000000000000000000000000000000000000000000000000000008152600401610bcf90611922565b60405180910390fd5b6001600480549050610bea9190611426565b60015410610c2d576040517f08c379a0000000000000000000000000000000000000000000000000000000008152600401610c24906119b4565b60405180910390fd5b60016000815480929190610c4090611868565b9190505550610c4d610cf4565b600460015481548110610c6357610c6261145a565b5b9060005260206000209060040201600201819055506000600460015481548110610c9057610c8f61145a565b5b906000526020600020906004020160030160146101000a81548160ff021916908315150217905550565b6000600254905090565b60015481565b670de0b6b3a764000081565b6702c68af0bb14000081565b67016345785d8a000081565b60025481565b600080610cff610407565b90506000603282610d109190611a03565b905060008167016345785d8a0000610d289190611a34565b670de0b6b3a7640000610d3b9190611426565b90506702c68af0bb1400008111610d5a576702c68af0bb140000610d5c565b805b935050505090565b60048181548110610d7457600080fd5b9060005260206000209060040201600091509050806000015490806001018054610d9d906114b8565b80601f0160208091040260200160405190810160405280929190818152602001828054610dc9906114b8565b8015610e165780601f10610deb57610100808354040283529160200191610e16565b820191906000526020600020905b815481529060010190602001808311610df957829003601f168201915b5050505050908060020154908060030160009054906101000a900473ffffffffffffffffffffffffffffffffffffffff16908060030160149054906101000a900460ff16905085565b600042905090565b6040518060a00160405280600081526020016060815260200160008152602001600073ffffffffffffffffffffffffffffffffffffffff1681526020016000151581525090565b6000819050919050565b610ec181610eae565b82525050565b6000602082019050610edc6000830184610eb8565b92915050565b610eeb81610eae565b82525050565b600081519050919050565b600082825260208201905092915050565b60005b83811015610f2b578082015181840152602081019050610f10565b83811115610f3a576000848401525b50505050565b6000601f19601f8301169050919050565b6000610f5c82610ef1565b610f668185610efc565b9350610f76818560208601610f0d565b610f7f81610f40565b840191505092915050565b600073ffffffffffffffffffffffffffffffffffffffff82169050919050565b6000610fb582610f8a565b9050919050565b610fc581610faa565b82525050565b60008115159050919050565b610fe081610fcb565b82525050565b600060a083016000830151610ffe6000860182610ee2565b50602083015184820360208601526110168282610f51565b915050604083015161102b6040860182610ee2565b50606083015161103e6060860182610fbc565b5060808301516110516080860182610fd7565b508091505092915050565b600060208201905081810360008301526110768184610fe6565b905092915050565b61108781610faa565b82525050565b60006020820190506110a2600083018461107e565b92915050565b600081519050919050565b600082825260208201905092915050565b6000819050602082019050919050565b600060a0830160008301516110ec6000860182610ee2565b50602083015184820360208601526111048282610f51565b91505060408301516111196040860182610ee2565b50606083015161112c6060860182610fbc565b50608083015161113f6080860182610fd7565b508091505092915050565b600061115683836110d4565b905092915050565b6000602082019050919050565b6000611176826110a8565b61118081856110b3565b935083602082028501611192856110c4565b8060005b858110156111ce57848403895281516111af858261114a565b94506111ba8361115e565b925060208a01995050600181019050611196565b50829750879550505050505092915050565b600060208201905081810360008301526111fa818461116b565b905092915050565b600080fd5b61121081610eae565b811461121b57600080fd5b50565b60008135905061122d81611207565b92915050565b60006020828403121561124957611248611202565b5b60006112578482850161121e565b91505092915050565b600081519050919050565b600082825260208201905092915050565b6000819050602082019050919050565b60006112988383610f51565b905092915050565b6000602082019050919050565b60006112b882611260565b6112c2818561126b565b9350836020820285016112d48561127c565b8060005b8581101561131057848403895281516112f1858261128c565b94506112fc836112a0565b925060208a019950506001810190506112d8565b50829750879550505050505092915050565b6000602082019050818103600083015261133c81846112ad565b905092915050565b600082825260208201905092915050565b600061136082610ef1565b61136a8185611344565b935061137a818560208601610f0d565b61138381610f40565b840191505092915050565b61139781610fcb565b82525050565b600060a0820190506113b26000830188610eb8565b81810360208301526113c48187611355565b90506113d36040830186610eb8565b6113e0606083018561107e565b6113ed608083018461138e565b9695505050505050565b7f4e487b7100000000000000000000000000000000000000000000000000000000600052601160045260246000fd5b600061143182610eae565b915061143c83610eae565b92508282101561144f5761144e6113f7565b5b828203905092915050565b7f4e487b7100000000000000000000000000000000000000000000000000000000600052603260045260246000fd5b7f4e487b7100000000000000000000000000000000000000000000000000000000600052602260045260246000fd5b600060028204905060018216806114d057607f821691505b6020821081036114e3576114e2611489565b5b50919050565b7f4c657320656e636865726573206e276f6e742070617320656e636f726520636f60008201527f6d6d656e63650000000000000000000000000000000000000000000000000000602082015250565b6000611545602683611344565b9150611550826114e9565b604082019050919050565b6000602082019050818103600083015261157481611538565b9050919050565b600061158682610eae565b915061159183610eae565b9250827fffffffffffffffffffffffffffffffffffffffffffffffffffffffffffffffff038211156115c6576115c56113f7565b5b828201905092915050565b7f4c27656e636865726520657374207465726d696e656500000000000000000000600082015250565b6000611607601683611344565b9150611612826115d1565b602082019050919050565b60006020820190508181036000830152611636816115fa565b9050919050565b7f496e646578206465732061727469636c657320696e76616c6964650000000000600082015250565b6000611673601b83611344565b915061167e8261163d565b602082019050919050565b600060208201905081810360008301526116a281611666565b9050919050565b7f4c2761727469636c65206573742064656a61206665726d650000000000000000600082015250565b60006116df601883611344565b91506116ea826116a9565b602082019050919050565b6000602082019050818103600083015261170e816116d2565b9050919050565b7f4c65206d6f6e74616e74206465206c27656e636865726520646f69742065747260008201527f65207375706572696575722061207a65726f0000000000000000000000000000602082015250565b6000611771603283611344565b915061177c82611715565b604082019050919050565b600060208201905081810360008301526117a081611764565b9050919050565b7f4c65206d6f6e74616e74206465206c27656e63686572652065737420696e666560008201527f726965757220617520707269782061637475656c000000000000000000000000602082015250565b6000611803603483611344565b915061180e826117a7565b604082019050919050565b60006020820190508181036000830152611832816117f6565b9050919050565b7f4e487b7100000000000000000000000000000000000000000000000000000000600052604160045260246000fd5b600061187382610eae565b91507fffffffffffffffffffffffffffffffffffffffffffffffffffffffffffffffff82036118a5576118a46113f7565b5b600182019050919050565b7f5365756c206c652061756374696f6e656572207065757420617070656c65722060008201527f636574746520666f6e6374696f6e000000000000000000000000000000000000602082015250565b600061190c602e83611344565b9150611917826118b0565b604082019050919050565b6000602082019050818103600083015261193b816118ff565b9050919050565b7f546f7573206c65732061727469636c6573206f6e74206574652076656e64757360008201527f2061757820656e63686572657300000000000000000000000000000000000000602082015250565b600061199e602d83611344565b91506119a982611942565b604082019050919050565b600060208201905081810360008301526119cd81611991565b9050919050565b7f4e487b7100000000000000000000000000000000000000000000000000000000600052601260045260246000fd5b6000611a0e82610eae565b9150611a1983610eae565b925082611a2957611a286119d4565b5b828204905092915050565b6000611a3f82610eae565b9150611a4a83610eae565b9250817fffffffffffffffffffffffffffffffffffffffffffffffffffffffffffffffff0483118215151615611a8357611a826113f7565b5b82820290509291505056fea264697066735822122054962b57a12f5c28751976028c64917ddaa0dd927660c7c0f258e2f8b0d3cd5664736f6c634300080d0033",
  "immutableReferences": {},
  "source": "// SPDX-License-Identifier: MIT\npragma solidity ^0.8.0;\n\ncontract DutchAuction {\n    address public auctioneer;\n    uint public currentArticleIndex;\n    uint public auctionStartTime;\n    uint public constant AUCTION_DURATION = 3600; // Duration de l'enchere => 1 heure\n    uint public constant STARTING_PRICE = 1 ether; // On declare le prix de debut  1 ether\n    uint public constant PRICE_DECREMENT = 0.1 ether;\n    uint public constant RESERVE_PRICE = 0.2 ether;\n    uint public constant INTERVAL = 50 seconds;\n    uint public startBlock;\n\n    /** Creation d'une sctructure pour l'article\n    Lequel aura un nom, un prix, un gagnant et un status pour savoir s'il est ferm  */\n    struct Article { uint id; string name; uint currentPrice; address winningBidder; bool closed; }\n\n    // Un tableau d'articles\n    Article[] public articles;\n\n    event Log(string message, uint value);\n    event BidPlaced(uint indexed articleIndex, address indexed bidder, uint amount);\n\n    modifier onlyAuctioneer() {\n        require(msg.sender == auctioneer, \"Seul le auctioneer peut appeler cette fonction\");\n        _;\n    }\n\n    modifier auctionOpen() {\n        require(block.timestamp >= auctionStartTime, \"Les encheres n'ont pas encore commence\");\n        require(block.timestamp < auctionStartTime + AUCTION_DURATION, \"L'enchere est terminee\");\n        _;\n    }\n\n    modifier articleOpen(uint articleIndex) {\n        require(articleIndex < articles.length, \"Index des articles invalide\");\n        require(!articles[articleIndex].closed, \"L'article est deja ferme\");\n        _;\n    }\n\n    constructor() {\n        startBlock = block.number;\n        auctioneer = msg.sender;\n        auctionStartTime = block.timestamp;\n        emit Log(\"CreateContract:\", auctionStartTime);\n\n        // Creation des articles  notre enchere\n        articles.push(Article( 1, \"Article 1\", STARTING_PRICE, address(0), false ) );\n        articles.push(Article( 2, \"Article 2\", STARTING_PRICE, address(0), false ) );\n        articles.push(Article( 3, \"Article 3\", STARTING_PRICE, address(0), false ) );\n        articles.push(Article( 4, \"Article 4\", STARTING_PRICE, address(0), false ) );\n        articles.push(Article( 5, \"Article 5\", STARTING_PRICE, address(0), false ) );\n        articles.push(Article( 6, \"Article 6\", STARTING_PRICE, address(0), false ) );\n        currentArticleIndex = 0;\n    }\n\n    function getArticles() public view returns (Article[] memory) {\n        return articles;\n    }\n\n    function getCurrentArticle() public view returns (Article memory) {\n        return articles[ currentArticleIndex ];\n    }\n\n    function getArticleNames() public view returns (string[] memory) {\n        string[] memory articleNames = new string[](articles.length);\n\n        for (uint i = 0; i < articles.length; i++) {\n            articleNames[i] = articles[i].name;\n        }\n\n        return articleNames;\n    }\n\n    function getCurrentPrice() public view returns (uint) {\n        uint elapsedTime = getElapsedTime();\n        uint decrements = elapsedTime / INTERVAL; // Diminue le prix toutes les 60 secondes\n        uint currentPrice = STARTING_PRICE - (PRICE_DECREMENT * decrements);\n        return currentPrice > RESERVE_PRICE ? currentPrice : RESERVE_PRICE;\n    }\n\n    function getElapsedTime() public view returns (uint) {\n        return getTimeStamp() - auctionStartTime;\n    }\n\n    function getStartTime() public view returns (uint) {\n        return auctionStartTime;\n    }\n\n    function getTimeStamp() internal view returns (uint) {\n        return block.timestamp;\n    }\n\n    /**\n        Placer une offre \n     */\n    function placeBid(uint articleIndex) external payable auctionOpen articleOpen(articleIndex) {\n        require(msg.value > 0, \"Le montant de l'enchere doit etre superieur a zero\");\n\n        uint currentPrice = getCurrentPrice();\n        require(msg.value >= currentPrice, \"Le montant de l'enchere est inferieur au prix actuel\");\n        //  Si la valeur est > 0 et plus que le prix actuel on etabli le gagnant et on ferme l'article\n        articles[articleIndex].winningBidder = msg.sender;\n        articles[articleIndex].closed = true;\n\n        emit BidPlaced(articleIndex, msg.sender, msg.value);\n    }\n\n    function moveToNextArticle() external onlyAuctioneer {\n        // Si l'index actuel est inferieux au total de notre collection, tous les articles on t vendus\n        require(currentArticleIndex < articles.length - 1, \"Tous les articles ont ete vendus aux encheres\");\n\n        // Si on a encore des articles on augmente l'index et on passe au suivant\n        currentArticleIndex++;\n        articles[currentArticleIndex].currentPrice = getCurrentPrice();\n        articles[currentArticleIndex].closed = false;\n    }\n}\n",
  "sourcePath": "/home/iwocs/Desktop/MASTER/BlockChain/Dutch/dutch-auction/contracts/DutchAuction.sol",
  "compiler": {
    "name": "solc",
    "version": "0.8.13+commit.abaa5c0e.Emscripten.clang"
  },
  "schemaVersion": "3.4.16",
  "updatedAt": "2024-01-19T21:57:12.533Z",
  "networkType": "ethereum",
  "devdoc": {
    "kind": "dev",
    "methods": {},
    "version": 1
  },
  "userdoc": {
    "kind": "user",
    "methods": {
      "placeBid(uint256)": {
        "notice": "Placer une offre "
      }
    },
    "version": 1
  }
}