{
  "contractName": "DutchAuction",
  "abi": [
    {
      "inputs": [],
      "stateMutability": "nonpayable",
      "type": "constructor"
    },
    {
      "anonymous": false,
      "inputs": [
        {
          "indexed": true,
          "internalType": "uint256",
          "name": "articleIndex",
          "type": "uint256"
        },
        {
          "indexed": true,
          "internalType": "address",
          "name": "bidder",
          "type": "address"
        },
        {
          "indexed": false,
          "internalType": "uint256",
          "name": "amount",
          "type": "uint256"
        }
      ],
      "name": "BidPlaced",
      "type": "event"
    },
    {
      "anonymous": false,
      "inputs": [
        {
          "indexed": false,
          "internalType": "string",
          "name": "message",
          "type": "string"
        },
        {
          "indexed": false,
          "internalType": "uint256",
          "name": "value",
          "type": "uint256"
        }
      ],
      "name": "Log",
      "type": "event"
    },
    {
      "inputs": [],
      "name": "AUCTION_DURATION",
      "outputs": [
        {
          "internalType": "uint256",
          "name": "",
          "type": "uint256"
        }
      ],
      "stateMutability": "view",
      "type": "function",
      "constant": true
    },
    {
      "inputs": [],
      "name": "INTERVAL",
      "outputs": [
        {
          "internalType": "uint256",
          "name": "",
          "type": "uint256"
        }
      ],
      "stateMutability": "view",
      "type": "function",
      "constant": true
    },
    {
      "inputs": [],
      "name": "PRICE_DECREMENT",
      "outputs": [
        {
          "internalType": "uint256",
          "name": "",
          "type": "uint256"
        }
      ],
      "stateMutability": "view",
      "type": "function",
      "constant": true
    },
    {
      "inputs": [],
      "name": "RESERVE_PRICE",
      "outputs": [
        {
          "internalType": "uint256",
          "name": "",
          "type": "uint256"
        }
      ],
      "stateMutability": "view",
      "type": "function",
      "constant": true
    },
    {
      "inputs": [],
      "name": "STARTING_PRICE",
      "outputs": [
        {
          "internalType": "uint256",
          "name": "",
          "type": "uint256"
        }
      ],
      "stateMutability": "view",
      "type": "function",
      "constant": true
    },
    {
      "inputs": [
        {
          "internalType": "uint256",
          "name": "",
          "type": "uint256"
        }
      ],
      "name": "articles",
      "outputs": [
        {
          "internalType": "uint256",
          "name": "id",
          "type": "uint256"
        },
        {
          "internalType": "string",
          "name": "name",
          "type": "string"
        },
        {
          "internalType": "uint256",
          "name": "currentPrice",
          "type": "uint256"
        },
        {
          "internalType": "address",
          "name": "winningBidder",
          "type": "address"
        },
        {
          "internalType": "bool",
          "name": "closed",
          "type": "bool"
        },
        {
          "internalType": "uint256",
          "name": "bought",
          "type": "uint256"
        },
        {
          "internalType": "uint256",
          "name": "boughtFor",
          "type": "uint256"
        }
      ],
      "stateMutability": "view",
      "type": "function",
      "constant": true
    },
    {
      "inputs": [],
      "name": "auctionStartTime",
      "outputs": [
        {
          "internalType": "uint256",
          "name": "",
          "type": "uint256"
        }
      ],
      "stateMutability": "view",
      "type": "function",
      "constant": true
    },
    {
      "inputs": [],
      "name": "auctioneer",
      "outputs": [
        {
          "internalType": "address",
          "name": "",
          "type": "address"
        }
      ],
      "stateMutability": "view",
      "type": "function",
      "constant": true
    },
    {
      "inputs": [],
      "name": "currentArticleIndex",
      "outputs": [
        {
          "internalType": "uint256",
          "name": "",
          "type": "uint256"
        }
      ],
      "stateMutability": "view",
      "type": "function",
      "constant": true
    },
    {
      "inputs": [],
      "name": "startBlock",
      "outputs": [
        {
          "internalType": "uint256",
          "name": "",
          "type": "uint256"
        }
      ],
      "stateMutability": "view",
      "type": "function",
      "constant": true
    },
    {
      "inputs": [],
      "name": "getArticles",
      "outputs": [
        {
          "components": [
            {
              "internalType": "uint256",
              "name": "id",
              "type": "uint256"
            },
            {
              "internalType": "string",
              "name": "name",
              "type": "string"
            },
            {
              "internalType": "uint256",
              "name": "currentPrice",
              "type": "uint256"
            },
            {
              "internalType": "address",
              "name": "winningBidder",
              "type": "address"
            },
            {
              "internalType": "bool",
              "name": "closed",
              "type": "bool"
            },
            {
              "internalType": "uint256",
              "name": "bought",
              "type": "uint256"
            },
            {
              "internalType": "uint256",
              "name": "boughtFor",
              "type": "uint256"
            }
          ],
          "internalType": "struct DutchAuction.Article[]",
          "name": "",
          "type": "tuple[]"
        }
      ],
      "stateMutability": "view",
      "type": "function",
      "constant": true
    },
    {
      "inputs": [],
      "name": "getCurrentArticle",
      "outputs": [
        {
          "components": [
            {
              "internalType": "uint256",
              "name": "id",
              "type": "uint256"
            },
            {
              "internalType": "string",
              "name": "name",
              "type": "string"
            },
            {
              "internalType": "uint256",
              "name": "currentPrice",
              "type": "uint256"
            },
            {
              "internalType": "address",
              "name": "winningBidder",
              "type": "address"
            },
            {
              "internalType": "bool",
              "name": "closed",
              "type": "bool"
            },
            {
              "internalType": "uint256",
              "name": "bought",
              "type": "uint256"
            },
            {
              "internalType": "uint256",
              "name": "boughtFor",
              "type": "uint256"
            }
          ],
          "internalType": "struct DutchAuction.Article",
          "name": "",
          "type": "tuple"
        }
      ],
      "stateMutability": "view",
      "type": "function",
      "constant": true
    },
    {
      "inputs": [],
      "name": "getArticleNames",
      "outputs": [
        {
          "internalType": "string[]",
          "name": "",
          "type": "string[]"
        }
      ],
      "stateMutability": "view",
      "type": "function",
      "constant": true
    },
    {
      "inputs": [],
      "name": "getOpenArticles",
      "outputs": [
        {
          "components": [
            {
              "internalType": "uint256",
              "name": "id",
              "type": "uint256"
            },
            {
              "internalType": "string",
              "name": "name",
              "type": "string"
            },
            {
              "internalType": "uint256",
              "name": "currentPrice",
              "type": "uint256"
            },
            {
              "internalType": "address",
              "name": "winningBidder",
              "type": "address"
            },
            {
              "internalType": "bool",
              "name": "closed",
              "type": "bool"
            },
            {
              "internalType": "uint256",
              "name": "bought",
              "type": "uint256"
            },
            {
              "internalType": "uint256",
              "name": "boughtFor",
              "type": "uint256"
            }
          ],
          "internalType": "struct DutchAuction.Article[]",
          "name": "",
          "type": "tuple[]"
        }
      ],
      "stateMutability": "view",
      "type": "function",
      "constant": true
    },
    {
      "inputs": [],
      "name": "getClosedArticles",
      "outputs": [
        {
          "components": [
            {
              "internalType": "uint256",
              "name": "id",
              "type": "uint256"
            },
            {
              "internalType": "string",
              "name": "name",
              "type": "string"
            },
            {
              "internalType": "uint256",
              "name": "currentPrice",
              "type": "uint256"
            },
            {
              "internalType": "address",
              "name": "winningBidder",
              "type": "address"
            },
            {
              "internalType": "bool",
              "name": "closed",
              "type": "bool"
            },
            {
              "internalType": "uint256",
              "name": "bought",
              "type": "uint256"
            },
            {
              "internalType": "uint256",
              "name": "boughtFor",
              "type": "uint256"
            }
          ],
          "internalType": "struct DutchAuction.Article[]",
          "name": "",
          "type": "tuple[]"
        }
      ],
      "stateMutability": "view",
      "type": "function",
      "constant": true
    },
    {
      "inputs": [],
      "name": "getCurrentPrice",
      "outputs": [
        {
          "internalType": "uint256",
          "name": "",
          "type": "uint256"
        }
      ],
      "stateMutability": "view",
      "type": "function",
      "constant": true
    },
    {
      "inputs": [],
      "name": "getElapsedTime",
      "outputs": [
        {
          "internalType": "uint256",
          "name": "",
          "type": "uint256"
        }
      ],
      "stateMutability": "view",
      "type": "function",
      "constant": true
    },
    {
      "inputs": [],
      "name": "getStartTime",
      "outputs": [
        {
          "internalType": "uint256",
          "name": "",
          "type": "uint256"
        }
      ],
      "stateMutability": "view",
      "type": "function",
      "constant": true
    },
    {
      "inputs": [],
      "name": "getTimeStamp",
      "outputs": [
        {
          "internalType": "uint256",
          "name": "",
          "type": "uint256"
        }
      ],
      "stateMutability": "view",
      "type": "function",
      "constant": true
    },
    {
      "inputs": [],
      "name": "moveToNextArticle",
      "outputs": [],
      "stateMutability": "nonpayable",
      "type": "function"
    },
    {
      "inputs": [
        {
          "internalType": "uint256",
          "name": "articleIndex",
          "type": "uint256"
        }
      ],
      "name": "placeBid",
      "outputs": [],
      "stateMutability": "payable",
      "type": "function",
      "payable": true
    }
  ],
  "bytecode": "0x60806040523480156200001157600080fd5b5043600381905550336000806101000a81548173ffffffffffffffffffffffffffffffffffffffff021916908373ffffffffffffffffffffffffffffffffffffffff160217905550426002819055507fdd970dd9b5bfe707922155b058a407655cb18288b807e2216442bca8ad83d6b560025460405162000093919062000a45565b60405180910390a160046040518060e00160405280600181526020016040518060400160405280600981526020017f41727469636c65203100000000000000000000000000000000000000000000008152508152602001670de0b6b3a76400008152602001600073ffffffffffffffffffffffffffffffffffffffff16815260200160001515815260200160008152602001600081525090806001815401808255809150506001900390600052602060002090600602016000909190919091506000820151816000015560208201518160010190805190602001906200017b92919062000919565b506040820151816002015560608201518160030160006101000a81548173ffffffffffffffffffffffffffffffffffffffff021916908373ffffffffffffffffffffffffffffffffffffffff16021790555060808201518160030160146101000a81548160ff02191690831515021790555060a0820151816004015560c08201518160050155505060046040518060e00160405280600281526020016040518060400160405280600981526020017f41727469636c65203200000000000000000000000000000000000000000000008152508152602001670de0b6b3a76400008152602001600073ffffffffffffffffffffffffffffffffffffffff1681526020016000151581526020016000815260200160008152509080600181540180825580915050600190039060005260206000209060060201600090919091909150600082015181600001556020820151816001019080519060200190620002e392919062000919565b506040820151816002015560608201518160030160006101000a81548173ffffffffffffffffffffffffffffffffffffffff021916908373ffffffffffffffffffffffffffffffffffffffff16021790555060808201518160030160146101000a81548160ff02191690831515021790555060a0820151816004015560c08201518160050155505060046040518060e00160405280600381526020016040518060400160405280600981526020017f41727469636c65203300000000000000000000000000000000000000000000008152508152602001670de0b6b3a76400008152602001600073ffffffffffffffffffffffffffffffffffffffff16815260200160001515815260200160008152602001600081525090806001815401808255809150506001900390600052602060002090600602016000909190919091506000820151816000015560208201518160010190805190602001906200044b92919062000919565b506040820151816002015560608201518160030160006101000a81548173ffffffffffffffffffffffffffffffffffffffff021916908373ffffffffffffffffffffffffffffffffffffffff16021790555060808201518160030160146101000a81548160ff02191690831515021790555060a0820151816004015560c08201518160050155505060046040518060e00160405280600481526020016040518060400160405280600981526020017f41727469636c65203400000000000000000000000000000000000000000000008152508152602001670de0b6b3a76400008152602001600073ffffffffffffffffffffffffffffffffffffffff1681526020016000151581526020016000815260200160008152509080600181540180825580915050600190039060005260206000209060060201600090919091909150600082015181600001556020820151816001019080519060200190620005b392919062000919565b506040820151816002015560608201518160030160006101000a81548173ffffffffffffffffffffffffffffffffffffffff021916908373ffffffffffffffffffffffffffffffffffffffff16021790555060808201518160030160146101000a81548160ff02191690831515021790555060a0820151816004015560c08201518160050155505060046040518060e00160405280600581526020016040518060400160405280600981526020017f41727469636c65203500000000000000000000000000000000000000000000008152508152602001670de0b6b3a76400008152602001600073ffffffffffffffffffffffffffffffffffffffff16815260200160001515815260200160008152602001600081525090806001815401808255809150506001900390600052602060002090600602016000909190919091506000820151816000015560208201518160010190805190602001906200071b92919062000919565b506040820151816002015560608201518160030160006101000a81548173ffffffffffffffffffffffffffffffffffffffff021916908373ffffffffffffffffffffffffffffffffffffffff16021790555060808201518160030160146101000a81548160ff02191690831515021790555060a0820151816004015560c08201518160050155505060046040518060e00160405280600681526020016040518060400160405280600981526020017f41727469636c65203600000000000000000000000000000000000000000000008152508152602001670de0b6b3a76400008152602001600073ffffffffffffffffffffffffffffffffffffffff16815260200160001515815260200160008152602001600081525090806001815401808255809150506001900390600052602060002090600602016000909190919091506000820151816000015560208201518160010190805190602001906200088392919062000919565b506040820151816002015560608201518160030160006101000a81548173ffffffffffffffffffffffffffffffffffffffff021916908373ffffffffffffffffffffffffffffffffffffffff16021790555060808201518160030160146101000a81548160ff02191690831515021790555060a0820151816004015560c082015181600501555050600060018190555062000adb565b828054620009279062000aa6565b90600052602060002090601f0160209004810192826200094b576000855562000997565b82601f106200096657805160ff191683800117855562000997565b8280016001018555821562000997579182015b828111156200099657825182559160200191906001019062000979565b5b509050620009a69190620009aa565b5090565b5b80821115620009c5576000816000905550600101620009ab565b5090565b600082825260208201905092915050565b7f437265617465436f6e74726163743a0000000000000000000000000000000000600082015250565b600062000a12600f83620009c9565b915062000a1f82620009da565b602082019050919050565b6000819050919050565b62000a3f8162000a2a565b82525050565b6000604082019050818103600083015262000a608162000a03565b905062000a71602083018462000a34565b92915050565b7f4e487b7100000000000000000000000000000000000000000000000000000000600052602260045260246000fd5b6000600282049050600182168062000abf57607f821691505b60208210810362000ad55762000ad462000a77565b5b50919050565b6126358062000aeb6000396000f3fe60806040526004361061012a5760003560e01c8063c26ca358116100ab578063da235b221161006f578063da235b2214610391578063dd21d604146103bc578063e9561822146103e7578063eb54f9ec14610412578063eb91d37e1461043d578063edcfafe6146104685761012a565b8063c26ca358146102ce578063c511166b146102f9578063c828371e14610310578063ccadbb401461033b578063d12f7029146103665761012a565b806389facb20116100f257806389facb20146102065780639979ef45146102315780639b2f239d1461024d578063a271e52514610278578063bc151046146102a35761012a565b8063125d70201461012f57806346f1b1a81461015a57806348cd4cb1146101855780635ec2c7bf146101b05780636529f44a146101db575b600080fd5b34801561013b57600080fd5b506101446104ab565b604051610151919061190c565b60405180910390f35b34801561016657600080fd5b5061016f6104c7565b60405161017c9190611ac7565b60405180910390f35b34801561019157600080fd5b5061019a61062e565b6040516101a7919061190c565b60405180910390f35b3480156101bc57600080fd5b506101c5610634565b6040516101d29190611af8565b60405180910390f35b3480156101e757600080fd5b506101f0610658565b6040516101fd9190611c71565b60405180910390f35b34801561021257600080fd5b5061021b6107e2565b604051610228919061190c565b60405180910390f35b61024b60048036038101906102469190611cc4565b6107e7565b005b34801561025957600080fd5b50610262610c99565b60405161026f9190611c71565b60405180910390f35b34801561028457600080fd5b5061028d610f4a565b60405161029a919061190c565b60405180910390f35b3480156102af57600080fd5b506102b8610f50565b6040516102c59190611c71565b60405180910390f35b3480156102da57600080fd5b506102e36111ff565b6040516102f09190611db3565b60405180910390f35b34801561030557600080fd5b5061030e61134f565b005b34801561031c57600080fd5b506103256114bf565b604051610332919061190c565b60405180910390f35b34801561034757600080fd5b506103506114c9565b60405161035d919061190c565b60405180910390f35b34801561037257600080fd5b5061037b6114cf565b604051610388919061190c565b60405180910390f35b34801561039d57600080fd5b506103a66114db565b6040516103b3919061190c565b60405180910390f35b3480156103c857600080fd5b506103d16114e8565b6040516103de919061190c565b60405180910390f35b3480156103f357600080fd5b506103fc6114f4565b604051610409919061190c565b60405180910390f35b34801561041e57600080fd5b50610427611500565b604051610434919061190c565b60405180910390f35b34801561044957600080fd5b50610452611506565b60405161045f919061190c565b60405180910390f35b34801561047457600080fd5b5061048f600480360381019061048a9190611cc4565b611576565b6040516104a29796959493929190611e2e565b60405180910390f35b60006002546104b86114db565b6104c29190611ed3565b905090565b6104cf61189e565b6004600154815481106104e5576104e4611f07565b5b90600052602060002090600602016040518060e00160405290816000820154815260200160018201805461051890611f65565b80601f016020809104026020016040519081016040528092919081815260200182805461054490611f65565b80156105915780601f1061056657610100808354040283529160200191610591565b820191906000526020600020905b81548152906001019060200180831161057457829003601f168201915b50505050508152602001600282015481526020016003820160009054906101000a900473ffffffffffffffffffffffffffffffffffffffff1673ffffffffffffffffffffffffffffffffffffffff1673ffffffffffffffffffffffffffffffffffffffff1681526020016003820160149054906101000a900460ff1615151515815260200160048201548152602001600582015481525050905090565b60035481565b60008054906101000a900473ffffffffffffffffffffffffffffffffffffffff1681565b60606004805480602002602001604051908101604052809291908181526020016000905b828210156107d957838290600052602060002090600602016040518060e0016040529081600082015481526020016001820180546106b990611f65565b80601f01602080910402602001604051908101604052809291908181526020018280546106e590611f65565b80156107325780601f1061070757610100808354040283529160200191610732565b820191906000526020600020905b81548152906001019060200180831161071557829003601f168201915b50505050508152602001600282015481526020016003820160009054906101000a900473ffffffffffffffffffffffffffffffffffffffff1673ffffffffffffffffffffffffffffffffffffffff1673ffffffffffffffffffffffffffffffffffffffff1681526020016003820160149054906101000a900460ff16151515158152602001600482015481526020016005820154815250508152602001906001019061067c565b50505050905090565b603281565b60025442101561082c576040517f08c379a000000000000000000000000000000000000000000000000000000000815260040161082390612008565b60405180910390fd5b610e1060025461083c9190612028565b421061087d576040517f08c379a0000000000000000000000000000000000000000000000000000000008152600401610874906120ca565b60405180910390fd5b8060048054905081106108c5576040517f08c379a00000000000000000000000000000000000000000000000000000000081526004016108bc90612136565b60405180910390fd5b600481815481106108d9576108d8611f07565b5b906000526020600020906006020160030160149054906101000a900460ff1615610938576040517f08c379a000000000000000000000000000000000000000000000000000000000815260040161092f906121a2565b60405180910390fd5b6000600254426109489190611ed3565b9050600060328261095991906121f1565b905060008167016345785d8a00006109719190612222565b670de0b6b3a76400006109849190611ed3565b905060006702c68af0bb14000082116109a5576702c68af0bb1400006109a7565b815b9050600034116109ec576040517f08c379a00000000000000000000000000000000000000000000000000000000081526004016109e3906122ee565b60405180910390fd5b6000819050803410156109fe4261167d565b610a0960025461167d565b604051602001610a1a929190612408565b60405160208183030381529060405290610a6a576040517f08c379a0000000000000000000000000000000000000000000000000000000008152600401610a619190612442565b60405180910390fd5b503360048881548110610a8057610a7f611f07565b5b906000526020600020906006020160030160006101000a81548173ffffffffffffffffffffffffffffffffffffffff021916908373ffffffffffffffffffffffffffffffffffffffff160217905550600160048881548110610ae557610ae4611f07565b5b906000526020600020906006020160030160146101000a81548160ff0219169083151502179055504260048881548110610b2257610b21611f07565b5b9060005260206000209060060201600401819055503460048881548110610b4c57610b4b611f07565b5b90600052602060002090600602016005018190555060016000815480929190610b7490612464565b91905055506001600480549050610b8b9190611ed3565b60015410610bce576040517f08c379a0000000000000000000000000000000000000000000000000000000008152600401610bc59061251e565b60405180910390fd5b610bd6611506565b600460015481548110610bec57610beb611f07565b5b9060005260206000209060060201600201819055506000600460015481548110610c1957610c18611f07565b5b906000526020600020906006020160030160146101000a81548160ff0219169083151502179055503373ffffffffffffffffffffffffffffffffffffffff16877f0e54eff26401bf69b81b26f60bd85ef47f5d85275c1d268d84f68d6897431c4734604051610c88919061190c565b60405180910390a350505050505050565b60606000805b600480549050811015610d065760048181548110610cc057610cbf611f07565b5b906000526020600020906006020160030160149054906101000a900460ff1615610cf3578180610cef90612464565b9250505b8080610cfe90612464565b915050610c9f565b5060008167ffffffffffffffff811115610d2357610d2261253e565b5b604051908082528060200260200182016040528015610d5c57816020015b610d4961189e565b815260200190600190039081610d415790505b5090506000805b600480549050811015610f405760048181548110610d8457610d83611f07565b5b906000526020600020906006020160030160149054906101000a900460ff1615610f2d5760048181548110610dbc57610dbb611f07565b5b90600052602060002090600602016040518060e001604052908160008201548152602001600182018054610def90611f65565b80601f0160208091040260200160405190810160405280929190818152602001828054610e1b90611f65565b8015610e685780601f10610e3d57610100808354040283529160200191610e68565b820191906000526020600020905b815481529060010190602001808311610e4b57829003601f168201915b50505050508152602001600282015481526020016003820160009054906101000a900473ffffffffffffffffffffffffffffffffffffffff1673ffffffffffffffffffffffffffffffffffffffff1673ffffffffffffffffffffffffffffffffffffffff1681526020016003820160149054906101000a900460ff1615151515815260200160048201548152602001600582015481525050838381518110610f1357610f12611f07565b5b60200260200101819052508180610f2990612464565b9250505b8080610f3890612464565b915050610d63565b5081935050505090565b610e1081565b60606000805b600480549050811015610fbc5760048181548110610f7757610f76611f07565b5b906000526020600020906006020160030160149054906101000a900460ff16610fa9578180610fa590612464565b9250505b8080610fb490612464565b915050610f56565b5060008167ffffffffffffffff811115610fd957610fd861253e565b5b60405190808252806020026020018201604052801561101257816020015b610fff61189e565b815260200190600190039081610ff75790505b5090506000805b6004805490508110156111f5576004818154811061103a57611039611f07565b5b906000526020600020906006020160030160149054906101000a900460ff166111e2576004818154811061107157611070611f07565b5b90600052602060002090600602016040518060e0016040529081600082015481526020016001820180546110a490611f65565b80601f01602080910402602001604051908101604052809291908181526020018280546110d090611f65565b801561111d5780601f106110f25761010080835404028352916020019161111d565b820191906000526020600020905b81548152906001019060200180831161110057829003601f168201915b50505050508152602001600282015481526020016003820160009054906101000a900473ffffffffffffffffffffffffffffffffffffffff1673ffffffffffffffffffffffffffffffffffffffff1673ffffffffffffffffffffffffffffffffffffffff1681526020016003820160149054906101000a900460ff16151515158152602001600482015481526020016005820154815250508383815181106111c8576111c7611f07565b5b602002602001018190525081806111de90612464565b9250505b80806111ed90612464565b915050611019565b5081935050505090565b6060600060048054905067ffffffffffffffff8111156112225761122161253e565b5b60405190808252806020026020018201604052801561125557816020015b60608152602001906001900390816112405790505b50905060005b600480549050811015611347576004818154811061127c5761127b611f07565b5b9060005260206000209060060201600101805461129890611f65565b80601f01602080910402602001604051908101604052809291908181526020018280546112c490611f65565b80156113115780601f106112e657610100808354040283529160200191611311565b820191906000526020600020905b8154815290600101906020018083116112f457829003601f168201915b505050505082828151811061132957611328611f07565b5b6020026020010181905250808061133f90612464565b91505061125b565b508091505090565b60008054906101000a900473ffffffffffffffffffffffffffffffffffffffff1673ffffffffffffffffffffffffffffffffffffffff163373ffffffffffffffffffffffffffffffffffffffff16146113dd576040517f08c379a00000000000000000000000000000000000000000000000000000000081526004016113d4906125df565b60405180910390fd5b60016004805490506113ef9190611ed3565b60015410611432576040517f08c379a00000000000000000000000000000000000000000000000000000000081526004016114299061251e565b60405180910390fd5b6001600081548092919061144590612464565b9190505550611452611506565b60046001548154811061146857611467611f07565b5b906000526020600020906006020160020181905550600060046001548154811061149557611494611f07565b5b906000526020600020906006020160030160146101000a81548160ff021916908315150217905550565b6000600254905090565b60015481565b670de0b6b3a764000081565b6000804290508091505090565b6702c68af0bb14000081565b67016345785d8a000081565b60025481565b6000806115116104ab565b9050600060328261152291906121f1565b905060008167016345785d8a000061153a9190612222565b670de0b6b3a764000061154d9190611ed3565b90506702c68af0bb140000811161156c576702c68af0bb14000061156e565b805b935050505090565b6004818154811061158657600080fd5b90600052602060002090600602016000915090508060000154908060010180546115af90611f65565b80601f01602080910402602001604051908101604052809291908181526020018280546115db90611f65565b80156116285780601f106115fd57610100808354040283529160200191611628565b820191906000526020600020905b81548152906001019060200180831161160b57829003601f168201915b5050505050908060020154908060030160009054906101000a900473ffffffffffffffffffffffffffffffffffffffff16908060030160149054906101000a900460ff16908060040154908060050154905087565b60606000600161168c8461174b565b01905060008167ffffffffffffffff8111156116ab576116aa61253e565b5b6040519080825280601f01601f1916602001820160405280156116dd5781602001600182028036833780820191505090505b509050600082602001820190505b600115611740578080600190039150507f3031323334353637383961626364656600000000000000000000000000000000600a86061a8153600a8581611734576117336121c2565b5b049450600085036116eb575b819350505050919050565b600080600090507a184f03e93ff9f4daa797ed6e38ed64bf6a1f01000000000000000083106117a9577a184f03e93ff9f4daa797ed6e38ed64bf6a1f010000000000000000838161179f5761179e6121c2565b5b0492506040810190505b6d04ee2d6d415b85acef810000000083106117e6576d04ee2d6d415b85acef810000000083816117dc576117db6121c2565b5b0492506020810190505b662386f26fc10000831061181557662386f26fc10000838161180b5761180a6121c2565b5b0492506010810190505b6305f5e100831061183e576305f5e1008381611834576118336121c2565b5b0492506008810190505b6127108310611863576127108381611859576118586121c2565b5b0492506004810190505b60648310611886576064838161187c5761187b6121c2565b5b0492506002810190505b600a8310611895576001810190505b80915050919050565b6040518060e00160405280600081526020016060815260200160008152602001600073ffffffffffffffffffffffffffffffffffffffff16815260200160001515815260200160008152602001600081525090565b6000819050919050565b611906816118f3565b82525050565b600060208201905061192160008301846118fd565b92915050565b611930816118f3565b82525050565b600081519050919050565b600082825260208201905092915050565b60005b83811015611970578082015181840152602081019050611955565b8381111561197f576000848401525b50505050565b6000601f19601f8301169050919050565b60006119a182611936565b6119ab8185611941565b93506119bb818560208601611952565b6119c481611985565b840191505092915050565b600073ffffffffffffffffffffffffffffffffffffffff82169050919050565b60006119fa826119cf565b9050919050565b611a0a816119ef565b82525050565b60008115159050919050565b611a2581611a10565b82525050565b600060e083016000830151611a436000860182611927565b5060208301518482036020860152611a5b8282611996565b9150506040830151611a706040860182611927565b506060830151611a836060860182611a01565b506080830151611a966080860182611a1c565b5060a0830151611aa960a0860182611927565b5060c0830151611abc60c0860182611927565b508091505092915050565b60006020820190508181036000830152611ae18184611a2b565b905092915050565b611af2816119ef565b82525050565b6000602082019050611b0d6000830184611ae9565b92915050565b600081519050919050565b600082825260208201905092915050565b6000819050602082019050919050565b600060e083016000830151611b576000860182611927565b5060208301518482036020860152611b6f8282611996565b9150506040830151611b846040860182611927565b506060830151611b976060860182611a01565b506080830151611baa6080860182611a1c565b5060a0830151611bbd60a0860182611927565b5060c0830151611bd060c0860182611927565b508091505092915050565b6000611be78383611b3f565b905092915050565b6000602082019050919050565b6000611c0782611b13565b611c118185611b1e565b935083602082028501611c2385611b2f565b8060005b85811015611c5f5784840389528151611c408582611bdb565b9450611c4b83611bef565b925060208a01995050600181019050611c27565b50829750879550505050505092915050565b60006020820190508181036000830152611c8b8184611bfc565b905092915050565b600080fd5b611ca1816118f3565b8114611cac57600080fd5b50565b600081359050611cbe81611c98565b92915050565b600060208284031215611cda57611cd9611c93565b5b6000611ce884828501611caf565b91505092915050565b600081519050919050565b600082825260208201905092915050565b6000819050602082019050919050565b6000611d298383611996565b905092915050565b6000602082019050919050565b6000611d4982611cf1565b611d538185611cfc565b935083602082028501611d6585611d0d565b8060005b85811015611da15784840389528151611d828582611d1d565b9450611d8d83611d31565b925060208a01995050600181019050611d69565b50829750879550505050505092915050565b60006020820190508181036000830152611dcd8184611d3e565b905092915050565b600082825260208201905092915050565b6000611df182611936565b611dfb8185611dd5565b9350611e0b818560208601611952565b611e1481611985565b840191505092915050565b611e2881611a10565b82525050565b600060e082019050611e43600083018a6118fd565b8181036020830152611e558189611de6565b9050611e6460408301886118fd565b611e716060830187611ae9565b611e7e6080830186611e1f565b611e8b60a08301856118fd565b611e9860c08301846118fd565b98975050505050505050565b7f4e487b7100000000000000000000000000000000000000000000000000000000600052601160045260246000fd5b6000611ede826118f3565b9150611ee9836118f3565b925082821015611efc57611efb611ea4565b5b828203905092915050565b7f4e487b7100000000000000000000000000000000000000000000000000000000600052603260045260246000fd5b7f4e487b7100000000000000000000000000000000000000000000000000000000600052602260045260246000fd5b60006002820490506001821680611f7d57607f821691505b602082108103611f9057611f8f611f36565b5b50919050565b7f4c657320656e636865726573206e276f6e742070617320656e636f726520636f60008201527f6d6d656e63650000000000000000000000000000000000000000000000000000602082015250565b6000611ff2602683611dd5565b9150611ffd82611f96565b604082019050919050565b6000602082019050818103600083015261202181611fe5565b9050919050565b6000612033826118f3565b915061203e836118f3565b9250827fffffffffffffffffffffffffffffffffffffffffffffffffffffffffffffffff0382111561207357612072611ea4565b5b828201905092915050565b7f4c27656e636865726520657374207465726d696e656500000000000000000000600082015250565b60006120b4601683611dd5565b91506120bf8261207e565b602082019050919050565b600060208201905081810360008301526120e3816120a7565b9050919050565b7f496e646578206465732061727469636c657320696e76616c6964650000000000600082015250565b6000612120601b83611dd5565b915061212b826120ea565b602082019050919050565b6000602082019050818103600083015261214f81612113565b9050919050565b7f4c2761727469636c65206573742064656a61206665726d650000000000000000600082015250565b600061218c601883611dd5565b915061219782612156565b602082019050919050565b600060208201905081810360008301526121bb8161217f565b9050919050565b7f4e487b7100000000000000000000000000000000000000000000000000000000600052601260045260246000fd5b60006121fc826118f3565b9150612207836118f3565b925082612217576122166121c2565b5b828204905092915050565b600061222d826118f3565b9150612238836118f3565b9250817fffffffffffffffffffffffffffffffffffffffffffffffffffffffffffffffff048311821515161561227157612270611ea4565b5b828202905092915050565b7f4c65206d6f6e74616e74206465206c27656e636865726520646f69742065747260008201527f65207375706572696575722061207a65726f0000000000000000000000000000602082015250565b60006122d8603283611dd5565b91506122e38261227c565b604082019050919050565b60006020820190508181036000830152612307816122cb565b9050919050565b600081905092915050565b7f4c65206d6f6e74616e74206465206c27656e63686572652065737420696e666560008201527f726965757220617520707269782061637475656c2074696d653a200000000000602082015250565b6000612375603b8361230e565b915061238082612319565b603b82019050919050565b600061239682611936565b6123a0818561230e565b93506123b0818560208601611952565b80840191505092915050565b7f207374617274203a200000000000000000000000000000000000000000000000600082015250565b60006123f260098361230e565b91506123fd826123bc565b600982019050919050565b600061241382612368565b915061241f828561238b565b915061242a826123e5565b9150612436828461238b565b91508190509392505050565b6000602082019050818103600083015261245c8184611de6565b905092915050565b600061246f826118f3565b91507fffffffffffffffffffffffffffffffffffffffffffffffffffffffffffffffff82036124a1576124a0611ea4565b5b600182019050919050565b7f546f7573206c65732061727469636c6573206f6e74206574652076656e64757360008201527f2061757820656e63686572657300000000000000000000000000000000000000602082015250565b6000612508602d83611dd5565b9150612513826124ac565b604082019050919050565b60006020820190508181036000830152612537816124fb565b9050919050565b7f4e487b7100000000000000000000000000000000000000000000000000000000600052604160045260246000fd5b7f5365756c206c652061756374696f6e656572207065757420617070656c65722060008201527f636574746520666f6e6374696f6e000000000000000000000000000000000000602082015250565b60006125c9602e83611dd5565b91506125d48261256d565b604082019050919050565b600060208201905081810360008301526125f8816125bc565b905091905056fea2646970667358221220fffd32cf67e5bde3171fb4ea490397f8a77366037f989a899237a8bb650ea04064736f6c634300080d0033",
  "immutableReferences": {},
  "source": "// SPDX-License-Identifier: MIT\npragma solidity ^0.8.0;\nimport \"@openzeppelin/contracts/utils/Strings.sol\";\n\ncontract DutchAuction {\n    using Strings for uint256;\n    address public auctioneer;\n    uint public currentArticleIndex;\n    uint public auctionStartTime;\n    uint public constant AUCTION_DURATION = 3600 seconds; // Duration de l'enchere => 1 heure\n    uint public constant STARTING_PRICE = 1 ether; // On declare le prix de debut  1 ether\n    uint public constant PRICE_DECREMENT = 0.1 ether;\n    uint public constant RESERVE_PRICE = 0.2 ether;\n    uint public constant INTERVAL = 50 seconds;\n    uint public startBlock;\n\n    /** Creation d'une sctructure pour l'article\n    Lequel aura un nom, un prix, un gagnant et un status pour savoir s'il est ferm  */\n    struct Article { uint id; string name; uint currentPrice; address winningBidder; bool closed; uint bought; uint boughtFor; }\n\n    // Un tableau d'articles\n    Article[] public articles;\n\n    event Log(string message, uint value);\n    event BidPlaced(uint indexed articleIndex, address indexed bidder, uint amount);\n\n    modifier onlyAuctioneer() {\n        require(msg.sender == auctioneer, \"Seul le auctioneer peut appeler cette fonction\");\n        _;\n    }\n\n    modifier auctionOpen() {\n        require(block.timestamp >= auctionStartTime, \"Les encheres n'ont pas encore commence\");\n        require(block.timestamp < auctionStartTime + AUCTION_DURATION, \"L'enchere est terminee\");\n        _;\n    }\n\n    modifier articleOpen(uint articleIndex) {\n        require(articleIndex < articles.length, \"Index des articles invalide\");\n        require(!articles[articleIndex].closed, \"L'article est deja ferme\");\n        _;\n    }\n\n    constructor() {\n        startBlock = block.number;\n        auctioneer = msg.sender;\n        auctionStartTime = block.timestamp;\n        emit Log(\"CreateContract:\", auctionStartTime);\n\n        // Creation des articles  notre enchere\n        articles.push(Article( 1, \"Article 1\", STARTING_PRICE, address(0), false, 0, 0 ether ));\n        articles.push(Article( 2, \"Article 2\", STARTING_PRICE, address(0), false, 0, 0 ether ));\n        articles.push(Article( 3, \"Article 3\", STARTING_PRICE, address(0), false, 0, 0 ether ));\n        articles.push(Article( 4, \"Article 4\", STARTING_PRICE, address(0), false, 0, 0 ether ) );\n        articles.push(Article( 5, \"Article 5\", STARTING_PRICE, address(0), false, 0, 0 ether ) );\n        articles.push(Article( 6, \"Article 6\", STARTING_PRICE, address(0), false, 0, 0 ether ) );\n        currentArticleIndex = 0;\n    }\n\n    function getArticles() public view returns (Article[] memory) {\n        return articles;\n    }\n\n    function getCurrentArticle() public view returns (Article memory) {\n        return articles[ currentArticleIndex ];\n    }\n\n    function getArticleNames() public view returns (string[] memory) {\n        string[] memory articleNames = new string[](articles.length);\n\n        for (uint i = 0; i < articles.length; i++) {\n            articleNames[i] = articles[i].name;\n        }\n\n        return articleNames;\n    }\n\n    function getOpenArticles() public view returns (Article[] memory) {\n        uint openArticleCount = 0;\n\n        // Compter le nombre d'articles ouverts\n        for (uint i = 0; i < articles.length; i++) {\n            if (!articles[i].closed) {\n                openArticleCount++;\n            }\n        }\n\n        // Crer un tableau de la taille approprie pour les articles ouverts\n        Article[] memory openArticles = new Article[](openArticleCount);\n\n        // Remplir le tableau avec les articles ouverts\n        uint index = 0;\n        for (uint i = 0; i < articles.length; i++) {\n            if (!articles[i].closed) {\n                openArticles[index] = articles[i];\n                index++;\n            }\n        }\n\n        return openArticles;\n    }\n\n    function getClosedArticles() public view returns (Article[] memory) {\n        uint closedArticleCount = 0;\n\n        // Compter le nombre d'articles ouverts\n        for (uint i = 0; i < articles.length; i++) {\n            if (articles[i].closed) {\n                closedArticleCount++;\n            }\n        }\n\n        // Crer un tableau de la taille approprie pour les articles ouverts\n        Article[] memory closedArticles = new Article[](closedArticleCount);\n\n        // Remplir le tableau avec les articles ouverts\n        uint index = 0;\n        for (uint i = 0; i < articles.length; i++) {\n            if (articles[i].closed) {\n                closedArticles[index] = articles[i];\n                index++;\n            }\n        }\n\n        return closedArticles;\n    }\n\n    function getCurrentPrice() public view returns (uint) {\n        uint elapsedTime = getElapsedTime();\n        uint decrements = elapsedTime / INTERVAL; // Diminue le prix toutes les 60 secondes\n        uint currentPrice = STARTING_PRICE - (PRICE_DECREMENT * decrements);\n        return currentPrice > RESERVE_PRICE ? currentPrice : RESERVE_PRICE;\n    }\n\n    function getElapsedTime() public view returns (uint) {\n        return getTimeStamp() - auctionStartTime;\n    }\n\n    function getStartTime() public view returns (uint) {\n        return auctionStartTime;\n    }\n\n    function getTimeStamp() public view returns (uint) {\n        uint tmp = block.timestamp;\n        return tmp;\n    }\n\n\n    function moveToNextArticle() external onlyAuctioneer {\n        // Si l'index actuel est inferieur au total de notre collection, tous les articles on t vendus\n        require(currentArticleIndex < articles.length - 1, \"Tous les articles ont ete vendus aux encheres\");\n\n        // Si on a encore des articles on augmente l'index et on passe au suivant\n        currentArticleIndex++;\n        articles[currentArticleIndex].currentPrice = getCurrentPrice();\n        articles[currentArticleIndex].closed = false;\n    }\n\n    /**\n        Placer une offre \n     */\n    function placeBid(uint articleIndex) external payable auctionOpen articleOpen(articleIndex) {\n        uint elapsedTime = block.timestamp - auctionStartTime;\n        uint decrements = elapsedTime / INTERVAL;\n        uint currentPriceCalc = STARTING_PRICE - (PRICE_DECREMENT * decrements);\n        uint calc = currentPriceCalc > RESERVE_PRICE ? currentPriceCalc : RESERVE_PRICE;\n\n        require(msg.value > 0, \"Le montant de l'enchere doit etre superieur a zero\");\n\n        uint currentPrice = calc;\n        //require(msg.value >= currentPrice, \"Le montant de l'enchere est inferieur au prix actuel\");\n        require(msg.value >= currentPrice, string(abi.encodePacked(\"Le montant de l'enchere est inferieur au prix actuel time: \", block.timestamp.toString(), ' start : ', auctionStartTime.toString())));\n\n\n        //  Si la valeur est > 0 et plus que le prix actuel on etabli le gagnant et on ferme l'article\n        articles[articleIndex].winningBidder = msg.sender;\n        articles[articleIndex].closed = true;\n        articles[articleIndex].bought = block.timestamp;\n        articles[articleIndex].boughtFor = msg.value;\n        \n        currentArticleIndex++;\n        require(currentArticleIndex < articles.length - 1, \"Tous les articles ont ete vendus aux encheres\");\n\n        articles[currentArticleIndex].currentPrice = getCurrentPrice();\n        articles[currentArticleIndex].closed = false;\n\n        emit BidPlaced(articleIndex, msg.sender, msg.value);\n    }\n}\n",
  "sourcePath": "/home/iwocs/Desktop/MASTER/BlockChain/Dutch/dutch-auction/contracts/DutchAuction.sol",
  "compiler": {
    "name": "solc",
    "version": "0.8.13+commit.abaa5c0e.Emscripten.clang"
  },
  "schemaVersion": "3.4.16",
  "updatedAt": "2024-01-23T21:09:29.426Z",
  "networkType": "ethereum",
  "devdoc": {
    "kind": "dev",
    "methods": {},
    "version": 1
  },
  "userdoc": {
    "kind": "user",
    "methods": {
      "placeBid(uint256)": {
        "notice": "Placer une offre "
      }
    },
    "version": 1
  }
}