{
  "contractName": "DutchAuction",
  "abi": [
    {
      "inputs": [],
      "stateMutability": "nonpayable",
      "type": "constructor"
    },
    {
      "anonymous": false,
      "inputs": [
        {
          "indexed": true,
          "internalType": "uint256",
          "name": "articleIndex",
          "type": "uint256"
        },
        {
          "indexed": true,
          "internalType": "address",
          "name": "bidder",
          "type": "address"
        },
        {
          "indexed": false,
          "internalType": "uint256",
          "name": "amount",
          "type": "uint256"
        }
      ],
      "name": "BidPlaced",
      "type": "event"
    },
    {
      "anonymous": false,
      "inputs": [
        {
          "indexed": false,
          "internalType": "string",
          "name": "message",
          "type": "string"
        },
        {
          "indexed": false,
          "internalType": "uint256",
          "name": "value",
          "type": "uint256"
        }
      ],
      "name": "Log",
      "type": "event"
    },
    {
      "inputs": [],
      "name": "AUCTION_DURATION",
      "outputs": [
        {
          "internalType": "uint256",
          "name": "",
          "type": "uint256"
        }
      ],
      "stateMutability": "view",
      "type": "function",
      "constant": true
    },
    {
      "inputs": [],
      "name": "INTERVAL",
      "outputs": [
        {
          "internalType": "uint256",
          "name": "",
          "type": "uint256"
        }
      ],
      "stateMutability": "view",
      "type": "function",
      "constant": true
    },
    {
      "inputs": [],
      "name": "PRICE_DECREMENT",
      "outputs": [
        {
          "internalType": "uint256",
          "name": "",
          "type": "uint256"
        }
      ],
      "stateMutability": "view",
      "type": "function",
      "constant": true
    },
    {
      "inputs": [],
      "name": "RESERVE_PRICE",
      "outputs": [
        {
          "internalType": "uint256",
          "name": "",
          "type": "uint256"
        }
      ],
      "stateMutability": "view",
      "type": "function",
      "constant": true
    },
    {
      "inputs": [],
      "name": "STARTING_PRICE",
      "outputs": [
        {
          "internalType": "uint256",
          "name": "",
          "type": "uint256"
        }
      ],
      "stateMutability": "view",
      "type": "function",
      "constant": true
    },
    {
      "inputs": [
        {
          "internalType": "uint256",
          "name": "",
          "type": "uint256"
        }
      ],
      "name": "articles",
      "outputs": [
        {
          "internalType": "uint256",
          "name": "id",
          "type": "uint256"
        },
        {
          "internalType": "string",
          "name": "name",
          "type": "string"
        },
        {
          "internalType": "uint256",
          "name": "currentPrice",
          "type": "uint256"
        },
        {
          "internalType": "address",
          "name": "winningBidder",
          "type": "address"
        },
        {
          "internalType": "bool",
          "name": "closed",
          "type": "bool"
        },
        {
          "internalType": "uint256",
          "name": "bought",
          "type": "uint256"
        },
        {
          "internalType": "uint256",
          "name": "boughtFor",
          "type": "uint256"
        }
      ],
      "stateMutability": "view",
      "type": "function",
      "constant": true
    },
    {
      "inputs": [],
      "name": "auctionStartTime",
      "outputs": [
        {
          "internalType": "uint256",
          "name": "",
          "type": "uint256"
        }
      ],
      "stateMutability": "view",
      "type": "function",
      "constant": true
    },
    {
      "inputs": [],
      "name": "auctioneer",
      "outputs": [
        {
          "internalType": "address",
          "name": "",
          "type": "address"
        }
      ],
      "stateMutability": "view",
      "type": "function",
      "constant": true
    },
    {
      "inputs": [],
      "name": "currentArticleIndex",
      "outputs": [
        {
          "internalType": "uint256",
          "name": "",
          "type": "uint256"
        }
      ],
      "stateMutability": "view",
      "type": "function",
      "constant": true
    },
    {
      "inputs": [],
      "name": "startBlock",
      "outputs": [
        {
          "internalType": "uint256",
          "name": "",
          "type": "uint256"
        }
      ],
      "stateMutability": "view",
      "type": "function",
      "constant": true
    },
    {
      "inputs": [],
      "name": "startTimeCurrentAuction",
      "outputs": [
        {
          "internalType": "uint256",
          "name": "",
          "type": "uint256"
        }
      ],
      "stateMutability": "view",
      "type": "function",
      "constant": true
    },
    {
      "inputs": [],
      "name": "getArticles",
      "outputs": [
        {
          "components": [
            {
              "internalType": "uint256",
              "name": "id",
              "type": "uint256"
            },
            {
              "internalType": "string",
              "name": "name",
              "type": "string"
            },
            {
              "internalType": "uint256",
              "name": "currentPrice",
              "type": "uint256"
            },
            {
              "internalType": "address",
              "name": "winningBidder",
              "type": "address"
            },
            {
              "internalType": "bool",
              "name": "closed",
              "type": "bool"
            },
            {
              "internalType": "uint256",
              "name": "bought",
              "type": "uint256"
            },
            {
              "internalType": "uint256",
              "name": "boughtFor",
              "type": "uint256"
            }
          ],
          "internalType": "struct DutchAuction.Article[]",
          "name": "",
          "type": "tuple[]"
        }
      ],
      "stateMutability": "view",
      "type": "function",
      "constant": true
    },
    {
      "inputs": [],
      "name": "getCurrentArticle",
      "outputs": [
        {
          "components": [
            {
              "internalType": "uint256",
              "name": "id",
              "type": "uint256"
            },
            {
              "internalType": "string",
              "name": "name",
              "type": "string"
            },
            {
              "internalType": "uint256",
              "name": "currentPrice",
              "type": "uint256"
            },
            {
              "internalType": "address",
              "name": "winningBidder",
              "type": "address"
            },
            {
              "internalType": "bool",
              "name": "closed",
              "type": "bool"
            },
            {
              "internalType": "uint256",
              "name": "bought",
              "type": "uint256"
            },
            {
              "internalType": "uint256",
              "name": "boughtFor",
              "type": "uint256"
            }
          ],
          "internalType": "struct DutchAuction.Article",
          "name": "",
          "type": "tuple"
        }
      ],
      "stateMutability": "view",
      "type": "function",
      "constant": true
    },
    {
      "inputs": [],
      "name": "getArticleNames",
      "outputs": [
        {
          "internalType": "string[]",
          "name": "",
          "type": "string[]"
        }
      ],
      "stateMutability": "view",
      "type": "function",
      "constant": true
    },
    {
      "inputs": [],
      "name": "getOpenArticles",
      "outputs": [
        {
          "components": [
            {
              "internalType": "uint256",
              "name": "id",
              "type": "uint256"
            },
            {
              "internalType": "string",
              "name": "name",
              "type": "string"
            },
            {
              "internalType": "uint256",
              "name": "currentPrice",
              "type": "uint256"
            },
            {
              "internalType": "address",
              "name": "winningBidder",
              "type": "address"
            },
            {
              "internalType": "bool",
              "name": "closed",
              "type": "bool"
            },
            {
              "internalType": "uint256",
              "name": "bought",
              "type": "uint256"
            },
            {
              "internalType": "uint256",
              "name": "boughtFor",
              "type": "uint256"
            }
          ],
          "internalType": "struct DutchAuction.Article[]",
          "name": "",
          "type": "tuple[]"
        }
      ],
      "stateMutability": "view",
      "type": "function",
      "constant": true
    },
    {
      "inputs": [],
      "name": "getClosedArticles",
      "outputs": [
        {
          "components": [
            {
              "internalType": "uint256",
              "name": "id",
              "type": "uint256"
            },
            {
              "internalType": "string",
              "name": "name",
              "type": "string"
            },
            {
              "internalType": "uint256",
              "name": "currentPrice",
              "type": "uint256"
            },
            {
              "internalType": "address",
              "name": "winningBidder",
              "type": "address"
            },
            {
              "internalType": "bool",
              "name": "closed",
              "type": "bool"
            },
            {
              "internalType": "uint256",
              "name": "bought",
              "type": "uint256"
            },
            {
              "internalType": "uint256",
              "name": "boughtFor",
              "type": "uint256"
            }
          ],
          "internalType": "struct DutchAuction.Article[]",
          "name": "",
          "type": "tuple[]"
        }
      ],
      "stateMutability": "view",
      "type": "function",
      "constant": true
    },
    {
      "inputs": [],
      "name": "getCurrentPrice",
      "outputs": [
        {
          "internalType": "uint256",
          "name": "",
          "type": "uint256"
        }
      ],
      "stateMutability": "view",
      "type": "function",
      "constant": true
    },
    {
      "inputs": [],
      "name": "getStartTime",
      "outputs": [
        {
          "internalType": "uint256",
          "name": "",
          "type": "uint256"
        }
      ],
      "stateMutability": "view",
      "type": "function",
      "constant": true
    },
    {
      "inputs": [],
      "name": "getElapsedTime",
      "outputs": [
        {
          "internalType": "uint256",
          "name": "",
          "type": "uint256"
        }
      ],
      "stateMutability": "view",
      "type": "function",
      "constant": true
    },
    {
      "inputs": [],
      "name": "getTimeStamp",
      "outputs": [
        {
          "internalType": "uint256",
          "name": "",
          "type": "uint256"
        }
      ],
      "stateMutability": "view",
      "type": "function",
      "constant": true
    },
    {
      "inputs": [],
      "name": "moveToNextArticle",
      "outputs": [],
      "stateMutability": "nonpayable",
      "type": "function"
    },
    {
      "inputs": [
        {
          "internalType": "uint256",
          "name": "articleIndex",
          "type": "uint256"
        }
      ],
      "name": "placeBid",
      "outputs": [],
      "stateMutability": "payable",
      "type": "function",
      "payable": true
    }
  ],
  "bytecode": "0x60806040523480156200001157600080fd5b5043600481905550336000806101000a81548173ffffffffffffffffffffffffffffffffffffffff021916908373ffffffffffffffffffffffffffffffffffffffff160217905550426002819055506002546003819055507fdd970dd9b5bfe707922155b058a407655cb18288b807e2216442bca8ad83d6b56002546040516200009c919062000a4e565b60405180910390a160056040518060e00160405280600181526020016040518060400160405280600981526020017f41727469636c65203100000000000000000000000000000000000000000000008152508152602001670de0b6b3a76400008152602001600073ffffffffffffffffffffffffffffffffffffffff16815260200160001515815260200160008152602001600081525090806001815401808255809150506001900390600052602060002090600602016000909190919091506000820151816000015560208201518160010190805190602001906200018492919062000922565b506040820151816002015560608201518160030160006101000a81548173ffffffffffffffffffffffffffffffffffffffff021916908373ffffffffffffffffffffffffffffffffffffffff16021790555060808201518160030160146101000a81548160ff02191690831515021790555060a0820151816004015560c08201518160050155505060056040518060e00160405280600281526020016040518060400160405280600981526020017f41727469636c65203200000000000000000000000000000000000000000000008152508152602001670de0b6b3a76400008152602001600073ffffffffffffffffffffffffffffffffffffffff1681526020016000151581526020016000815260200160008152509080600181540180825580915050600190039060005260206000209060060201600090919091909150600082015181600001556020820151816001019080519060200190620002ec92919062000922565b506040820151816002015560608201518160030160006101000a81548173ffffffffffffffffffffffffffffffffffffffff021916908373ffffffffffffffffffffffffffffffffffffffff16021790555060808201518160030160146101000a81548160ff02191690831515021790555060a0820151816004015560c08201518160050155505060056040518060e00160405280600381526020016040518060400160405280600981526020017f41727469636c65203300000000000000000000000000000000000000000000008152508152602001670de0b6b3a76400008152602001600073ffffffffffffffffffffffffffffffffffffffff16815260200160001515815260200160008152602001600081525090806001815401808255809150506001900390600052602060002090600602016000909190919091506000820151816000015560208201518160010190805190602001906200045492919062000922565b506040820151816002015560608201518160030160006101000a81548173ffffffffffffffffffffffffffffffffffffffff021916908373ffffffffffffffffffffffffffffffffffffffff16021790555060808201518160030160146101000a81548160ff02191690831515021790555060a0820151816004015560c08201518160050155505060056040518060e00160405280600481526020016040518060400160405280600981526020017f41727469636c65203400000000000000000000000000000000000000000000008152508152602001670de0b6b3a76400008152602001600073ffffffffffffffffffffffffffffffffffffffff1681526020016000151581526020016000815260200160008152509080600181540180825580915050600190039060005260206000209060060201600090919091909150600082015181600001556020820151816001019080519060200190620005bc92919062000922565b506040820151816002015560608201518160030160006101000a81548173ffffffffffffffffffffffffffffffffffffffff021916908373ffffffffffffffffffffffffffffffffffffffff16021790555060808201518160030160146101000a81548160ff02191690831515021790555060a0820151816004015560c08201518160050155505060056040518060e00160405280600581526020016040518060400160405280600981526020017f41727469636c65203500000000000000000000000000000000000000000000008152508152602001670de0b6b3a76400008152602001600073ffffffffffffffffffffffffffffffffffffffff16815260200160001515815260200160008152602001600081525090806001815401808255809150506001900390600052602060002090600602016000909190919091506000820151816000015560208201518160010190805190602001906200072492919062000922565b506040820151816002015560608201518160030160006101000a81548173ffffffffffffffffffffffffffffffffffffffff021916908373ffffffffffffffffffffffffffffffffffffffff16021790555060808201518160030160146101000a81548160ff02191690831515021790555060a0820151816004015560c08201518160050155505060056040518060e00160405280600681526020016040518060400160405280600981526020017f41727469636c65203600000000000000000000000000000000000000000000008152508152602001670de0b6b3a76400008152602001600073ffffffffffffffffffffffffffffffffffffffff16815260200160001515815260200160008152602001600081525090806001815401808255809150506001900390600052602060002090600602016000909190919091506000820151816000015560208201518160010190805190602001906200088c92919062000922565b506040820151816002015560608201518160030160006101000a81548173ffffffffffffffffffffffffffffffffffffffff021916908373ffffffffffffffffffffffffffffffffffffffff16021790555060808201518160030160146101000a81548160ff02191690831515021790555060a0820151816004015560c082015181600501555050600060018190555062000ae4565b828054620009309062000aaf565b90600052602060002090601f016020900481019282620009545760008555620009a0565b82601f106200096f57805160ff1916838001178555620009a0565b82800160010185558215620009a0579182015b828111156200099f57825182559160200191906001019062000982565b5b509050620009af9190620009b3565b5090565b5b80821115620009ce576000816000905550600101620009b4565b5090565b600082825260208201905092915050565b7f437265617465436f6e74726163743a0000000000000000000000000000000000600082015250565b600062000a1b600f83620009d2565b915062000a2882620009e3565b602082019050919050565b6000819050919050565b62000a488162000a33565b82525050565b6000604082019050818103600083015262000a698162000a0c565b905062000a7a602083018462000a3d565b92915050565b7f4e487b7100000000000000000000000000000000000000000000000000000000600052602260045260246000fd5b6000600282049050600182168062000ac857607f821691505b60208210810362000ade5762000add62000a80565b5b50919050565b61259d8062000af46000396000f3fe6080604052600436106101355760003560e01c8063c511166b116100ab578063dd21d6041161006f578063dd21d604146103c7578063e9561822146103f2578063eb54f9ec1461041d578063eb91d37e14610448578063edcfafe614610473578063f30ff54c146104b657610135565b8063c511166b14610304578063c828371e1461031b578063ccadbb4014610346578063d12f702914610371578063da235b221461039c57610135565b806389facb20116100fd57806389facb20146102115780639979ef451461023c5780639b2f239d14610258578063a271e52514610283578063bc151046146102ae578063c26ca358146102d957610135565b8063125d70201461013a57806346f1b1a81461016557806348cd4cb1146101905780635ec2c7bf146101bb5780636529f44a146101e6575b600080fd5b34801561014657600080fd5b5061014f6104e1565b60405161015c9190611874565b60405180910390f35b34801561017157600080fd5b5061017a6104fd565b6040516101879190611a2f565b60405180910390f35b34801561019c57600080fd5b506101a5610664565b6040516101b29190611874565b60405180910390f35b3480156101c757600080fd5b506101d061066a565b6040516101dd9190611a60565b60405180910390f35b3480156101f257600080fd5b506101fb61068e565b6040516102089190611bd9565b60405180910390f35b34801561021d57600080fd5b50610226610818565b6040516102339190611874565b60405180910390f35b61025660048036038101906102519190611c2c565b61081d565b005b34801561026457600080fd5b5061026d610bfb565b60405161027a9190611bd9565b60405180910390f35b34801561028f57600080fd5b50610298610eac565b6040516102a59190611874565b60405180910390f35b3480156102ba57600080fd5b506102c3610eb2565b6040516102d09190611bd9565b60405180910390f35b3480156102e557600080fd5b506102ee611161565b6040516102fb9190611d1b565b60405180910390f35b34801561031057600080fd5b506103196112b1565b005b34801561032757600080fd5b50610330611421565b60405161033d9190611874565b60405180910390f35b34801561035257600080fd5b5061035b61142b565b6040516103689190611874565b60405180910390f35b34801561037d57600080fd5b50610386611431565b6040516103939190611874565b60405180910390f35b3480156103a857600080fd5b506103b161143d565b6040516103be9190611874565b60405180910390f35b3480156103d357600080fd5b506103dc61144a565b6040516103e99190611874565b60405180910390f35b3480156103fe57600080fd5b50610407611456565b6040516104149190611874565b60405180910390f35b34801561042957600080fd5b50610432611462565b60405161043f9190611874565b60405180910390f35b34801561045457600080fd5b5061045d611468565b60405161046a9190611874565b60405180910390f35b34801561047f57600080fd5b5061049a60048036038101906104959190611c2c565b6114d8565b6040516104ad9796959493929190611d96565b60405180910390f35b3480156104c257600080fd5b506104cb6115df565b6040516104d89190611874565b60405180910390f35b60006003546104ee61143d565b6104f89190611e3b565b905090565b610505611806565b60056001548154811061051b5761051a611e6f565b5b90600052602060002090600602016040518060e00160405290816000820154815260200160018201805461054e90611ecd565b80601f016020809104026020016040519081016040528092919081815260200182805461057a90611ecd565b80156105c75780601f1061059c576101008083540402835291602001916105c7565b820191906000526020600020905b8154815290600101906020018083116105aa57829003601f168201915b50505050508152602001600282015481526020016003820160009054906101000a900473ffffffffffffffffffffffffffffffffffffffff1673ffffffffffffffffffffffffffffffffffffffff1673ffffffffffffffffffffffffffffffffffffffff1681526020016003820160149054906101000a900460ff1615151515815260200160048201548152602001600582015481525050905090565b60045481565b60008054906101000a900473ffffffffffffffffffffffffffffffffffffffff1681565b60606005805480602002602001604051908101604052809291908181526020016000905b8282101561080f57838290600052602060002090600602016040518060e0016040529081600082015481526020016001820180546106ef90611ecd565b80601f016020809104026020016040519081016040528092919081815260200182805461071b90611ecd565b80156107685780601f1061073d57610100808354040283529160200191610768565b820191906000526020600020905b81548152906001019060200180831161074b57829003601f168201915b50505050508152602001600282015481526020016003820160009054906101000a900473ffffffffffffffffffffffffffffffffffffffff1673ffffffffffffffffffffffffffffffffffffffff1673ffffffffffffffffffffffffffffffffffffffff1681526020016003820160149054906101000a900460ff1615151515815260200160048201548152602001600582015481525050815260200190600101906106b2565b50505050905090565b603281565b600254421015610862576040517f08c379a000000000000000000000000000000000000000000000000000000000815260040161085990611f70565b60405180910390fd5b610e106002546108729190611f90565b42106108b3576040517f08c379a00000000000000000000000000000000000000000000000000000000081526004016108aa90612032565b60405180910390fd5b8060058054905081106108fb576040517f08c379a00000000000000000000000000000000000000000000000000000000081526004016108f29061209e565b60405180910390fd5b6005818154811061090f5761090e611e6f565b5b906000526020600020906006020160030160149054906101000a900460ff161561096e576040517f08c379a00000000000000000000000000000000000000000000000000000000081526004016109659061210a565b60405180910390fd5b600034116109b1576040517f08c379a00000000000000000000000000000000000000000000000000000000081526004016109a89061219c565b60405180910390fd5b60006109bb611468565b9050803410156109ca426115e5565b6109d56002546115e5565b6040516020016109e69291906122b6565b60405160208183030381529060405290610a36576040517f08c379a0000000000000000000000000000000000000000000000000000000008152600401610a2d91906122f0565b60405180910390fd5b5060004290503360058581548110610a5157610a50611e6f565b5b906000526020600020906006020160030160006101000a81548173ffffffffffffffffffffffffffffffffffffffff021916908373ffffffffffffffffffffffffffffffffffffffff160217905550600160058581548110610ab657610ab5611e6f565b5b906000526020600020906006020160030160146101000a81548160ff0219169083151502179055508060058581548110610af357610af2611e6f565b5b9060005260206000209060060201600401819055503460058581548110610b1d57610b1c611e6f565b5b90600052602060002090600602016005018190555060016000815480929190610b4590612312565b91905055506001600580549050610b5c9190611e3b565b60015410610b9f576040517f08c379a0000000000000000000000000000000000000000000000000000000008152600401610b96906123cc565b60405180910390fd5b806003819055503373ffffffffffffffffffffffffffffffffffffffff16847f0e54eff26401bf69b81b26f60bd85ef47f5d85275c1d268d84f68d6897431c4734604051610bed9190611874565b60405180910390a350505050565b60606000805b600580549050811015610c685760058181548110610c2257610c21611e6f565b5b906000526020600020906006020160030160149054906101000a900460ff1615610c55578180610c5190612312565b9250505b8080610c6090612312565b915050610c01565b5060008167ffffffffffffffff811115610c8557610c846123ec565b5b604051908082528060200260200182016040528015610cbe57816020015b610cab611806565b815260200190600190039081610ca35790505b5090506000805b600580549050811015610ea25760058181548110610ce657610ce5611e6f565b5b906000526020600020906006020160030160149054906101000a900460ff1615610e8f5760058181548110610d1e57610d1d611e6f565b5b90600052602060002090600602016040518060e001604052908160008201548152602001600182018054610d5190611ecd565b80601f0160208091040260200160405190810160405280929190818152602001828054610d7d90611ecd565b8015610dca5780601f10610d9f57610100808354040283529160200191610dca565b820191906000526020600020905b815481529060010190602001808311610dad57829003601f168201915b50505050508152602001600282015481526020016003820160009054906101000a900473ffffffffffffffffffffffffffffffffffffffff1673ffffffffffffffffffffffffffffffffffffffff1673ffffffffffffffffffffffffffffffffffffffff1681526020016003820160149054906101000a900460ff1615151515815260200160048201548152602001600582015481525050838381518110610e7557610e74611e6f565b5b60200260200101819052508180610e8b90612312565b9250505b8080610e9a90612312565b915050610cc5565b5081935050505090565b610e1081565b60606000805b600580549050811015610f1e5760058181548110610ed957610ed8611e6f565b5b906000526020600020906006020160030160149054906101000a900460ff16610f0b578180610f0790612312565b9250505b8080610f1690612312565b915050610eb8565b5060008167ffffffffffffffff811115610f3b57610f3a6123ec565b5b604051908082528060200260200182016040528015610f7457816020015b610f61611806565b815260200190600190039081610f595790505b5090506000805b6005805490508110156111575760058181548110610f9c57610f9b611e6f565b5b906000526020600020906006020160030160149054906101000a900460ff166111445760058181548110610fd357610fd2611e6f565b5b90600052602060002090600602016040518060e00160405290816000820154815260200160018201805461100690611ecd565b80601f016020809104026020016040519081016040528092919081815260200182805461103290611ecd565b801561107f5780601f106110545761010080835404028352916020019161107f565b820191906000526020600020905b81548152906001019060200180831161106257829003601f168201915b50505050508152602001600282015481526020016003820160009054906101000a900473ffffffffffffffffffffffffffffffffffffffff1673ffffffffffffffffffffffffffffffffffffffff1673ffffffffffffffffffffffffffffffffffffffff1681526020016003820160149054906101000a900460ff161515151581526020016004820154815260200160058201548152505083838151811061112a57611129611e6f565b5b6020026020010181905250818061114090612312565b9250505b808061114f90612312565b915050610f7b565b5081935050505090565b6060600060058054905067ffffffffffffffff811115611184576111836123ec565b5b6040519080825280602002602001820160405280156111b757816020015b60608152602001906001900390816111a25790505b50905060005b6005805490508110156112a957600581815481106111de576111dd611e6f565b5b906000526020600020906006020160010180546111fa90611ecd565b80601f016020809104026020016040519081016040528092919081815260200182805461122690611ecd565b80156112735780601f1061124857610100808354040283529160200191611273565b820191906000526020600020905b81548152906001019060200180831161125657829003601f168201915b505050505082828151811061128b5761128a611e6f565b5b602002602001018190525080806112a190612312565b9150506111bd565b508091505090565b60008054906101000a900473ffffffffffffffffffffffffffffffffffffffff1673ffffffffffffffffffffffffffffffffffffffff163373ffffffffffffffffffffffffffffffffffffffff161461133f576040517f08c379a00000000000000000000000000000000000000000000000000000000081526004016113369061248d565b60405180910390fd5b60016005805490506113519190611e3b565b60015410611394576040517f08c379a000000000000000000000000000000000000000000000000000000000815260040161138b906123cc565b60405180910390fd5b600160008154809291906113a790612312565b91905055506113b4611468565b6005600154815481106113ca576113c9611e6f565b5b90600052602060002090600602016002018190555060006005600154815481106113f7576113f6611e6f565b5b906000526020600020906006020160030160146101000a81548160ff021916908315150217905550565b6000600354905090565b60015481565b670de0b6b3a764000081565b6000804290508091505090565b6702c68af0bb14000081565b67016345785d8a000081565b60025481565b6000806114736104e1565b9050600060328261148491906124dc565b905060008167016345785d8a000061149c919061250d565b670de0b6b3a76400006114af9190611e3b565b90506702c68af0bb14000081116114ce576702c68af0bb1400006114d0565b805b935050505090565b600581815481106114e857600080fd5b906000526020600020906006020160009150905080600001549080600101805461151190611ecd565b80601f016020809104026020016040519081016040528092919081815260200182805461153d90611ecd565b801561158a5780601f1061155f5761010080835404028352916020019161158a565b820191906000526020600020905b81548152906001019060200180831161156d57829003601f168201915b5050505050908060020154908060030160009054906101000a900473ffffffffffffffffffffffffffffffffffffffff16908060030160149054906101000a900460ff16908060040154908060050154905087565b60035481565b6060600060016115f4846116b3565b01905060008167ffffffffffffffff811115611613576116126123ec565b5b6040519080825280601f01601f1916602001820160405280156116455781602001600182028036833780820191505090505b509050600082602001820190505b6001156116a8578080600190039150507f3031323334353637383961626364656600000000000000000000000000000000600a86061a8153600a858161169c5761169b6124ad565b5b04945060008503611653575b819350505050919050565b600080600090507a184f03e93ff9f4daa797ed6e38ed64bf6a1f0100000000000000008310611711577a184f03e93ff9f4daa797ed6e38ed64bf6a1f0100000000000000008381611707576117066124ad565b5b0492506040810190505b6d04ee2d6d415b85acef8100000000831061174e576d04ee2d6d415b85acef81000000008381611744576117436124ad565b5b0492506020810190505b662386f26fc10000831061177d57662386f26fc100008381611773576117726124ad565b5b0492506010810190505b6305f5e10083106117a6576305f5e100838161179c5761179b6124ad565b5b0492506008810190505b61271083106117cb5761271083816117c1576117c06124ad565b5b0492506004810190505b606483106117ee57606483816117e4576117e36124ad565b5b0492506002810190505b600a83106117fd576001810190505b80915050919050565b6040518060e00160405280600081526020016060815260200160008152602001600073ffffffffffffffffffffffffffffffffffffffff16815260200160001515815260200160008152602001600081525090565b6000819050919050565b61186e8161185b565b82525050565b60006020820190506118896000830184611865565b92915050565b6118988161185b565b82525050565b600081519050919050565b600082825260208201905092915050565b60005b838110156118d85780820151818401526020810190506118bd565b838111156118e7576000848401525b50505050565b6000601f19601f8301169050919050565b60006119098261189e565b61191381856118a9565b93506119238185602086016118ba565b61192c816118ed565b840191505092915050565b600073ffffffffffffffffffffffffffffffffffffffff82169050919050565b600061196282611937565b9050919050565b61197281611957565b82525050565b60008115159050919050565b61198d81611978565b82525050565b600060e0830160008301516119ab600086018261188f565b50602083015184820360208601526119c382826118fe565b91505060408301516119d8604086018261188f565b5060608301516119eb6060860182611969565b5060808301516119fe6080860182611984565b5060a0830151611a1160a086018261188f565b5060c0830151611a2460c086018261188f565b508091505092915050565b60006020820190508181036000830152611a498184611993565b905092915050565b611a5a81611957565b82525050565b6000602082019050611a756000830184611a51565b92915050565b600081519050919050565b600082825260208201905092915050565b6000819050602082019050919050565b600060e083016000830151611abf600086018261188f565b5060208301518482036020860152611ad782826118fe565b9150506040830151611aec604086018261188f565b506060830151611aff6060860182611969565b506080830151611b126080860182611984565b5060a0830151611b2560a086018261188f565b5060c0830151611b3860c086018261188f565b508091505092915050565b6000611b4f8383611aa7565b905092915050565b6000602082019050919050565b6000611b6f82611a7b565b611b798185611a86565b935083602082028501611b8b85611a97565b8060005b85811015611bc75784840389528151611ba88582611b43565b9450611bb383611b57565b925060208a01995050600181019050611b8f565b50829750879550505050505092915050565b60006020820190508181036000830152611bf38184611b64565b905092915050565b600080fd5b611c098161185b565b8114611c1457600080fd5b50565b600081359050611c2681611c00565b92915050565b600060208284031215611c4257611c41611bfb565b5b6000611c5084828501611c17565b91505092915050565b600081519050919050565b600082825260208201905092915050565b6000819050602082019050919050565b6000611c9183836118fe565b905092915050565b6000602082019050919050565b6000611cb182611c59565b611cbb8185611c64565b935083602082028501611ccd85611c75565b8060005b85811015611d095784840389528151611cea8582611c85565b9450611cf583611c99565b925060208a01995050600181019050611cd1565b50829750879550505050505092915050565b60006020820190508181036000830152611d358184611ca6565b905092915050565b600082825260208201905092915050565b6000611d598261189e565b611d638185611d3d565b9350611d738185602086016118ba565b611d7c816118ed565b840191505092915050565b611d9081611978565b82525050565b600060e082019050611dab600083018a611865565b8181036020830152611dbd8189611d4e565b9050611dcc6040830188611865565b611dd96060830187611a51565b611de66080830186611d87565b611df360a0830185611865565b611e0060c0830184611865565b98975050505050505050565b7f4e487b7100000000000000000000000000000000000000000000000000000000600052601160045260246000fd5b6000611e468261185b565b9150611e518361185b565b925082821015611e6457611e63611e0c565b5b828203905092915050565b7f4e487b7100000000000000000000000000000000000000000000000000000000600052603260045260246000fd5b7f4e487b7100000000000000000000000000000000000000000000000000000000600052602260045260246000fd5b60006002820490506001821680611ee557607f821691505b602082108103611ef857611ef7611e9e565b5b50919050565b7f4c657320656e636865726573206e276f6e742070617320656e636f726520636f60008201527f6d6d656e63650000000000000000000000000000000000000000000000000000602082015250565b6000611f5a602683611d3d565b9150611f6582611efe565b604082019050919050565b60006020820190508181036000830152611f8981611f4d565b9050919050565b6000611f9b8261185b565b9150611fa68361185b565b9250827fffffffffffffffffffffffffffffffffffffffffffffffffffffffffffffffff03821115611fdb57611fda611e0c565b5b828201905092915050565b7f4c27656e636865726520657374207465726d696e656500000000000000000000600082015250565b600061201c601683611d3d565b915061202782611fe6565b602082019050919050565b6000602082019050818103600083015261204b8161200f565b9050919050565b7f496e646578206465732061727469636c657320696e76616c6964650000000000600082015250565b6000612088601b83611d3d565b915061209382612052565b602082019050919050565b600060208201905081810360008301526120b78161207b565b9050919050565b7f4c2761727469636c65206573742064656a61206665726d650000000000000000600082015250565b60006120f4601883611d3d565b91506120ff826120be565b602082019050919050565b60006020820190508181036000830152612123816120e7565b9050919050565b7f4c65206d6f6e74616e74206465206c27656e636865726520646f69742065747260008201527f65207375706572696575722061207a65726f0000000000000000000000000000602082015250565b6000612186603283611d3d565b91506121918261212a565b604082019050919050565b600060208201905081810360008301526121b581612179565b9050919050565b600081905092915050565b7f4c65206d6f6e74616e74206465206c27656e63686572652065737420696e666560008201527f726965757220617520707269782061637475656c2074696d653a200000000000602082015250565b6000612223603b836121bc565b915061222e826121c7565b603b82019050919050565b60006122448261189e565b61224e81856121bc565b935061225e8185602086016118ba565b80840191505092915050565b7f207374617274203a200000000000000000000000000000000000000000000000600082015250565b60006122a06009836121bc565b91506122ab8261226a565b600982019050919050565b60006122c182612216565b91506122cd8285612239565b91506122d882612293565b91506122e48284612239565b91508190509392505050565b6000602082019050818103600083015261230a8184611d4e565b905092915050565b600061231d8261185b565b91507fffffffffffffffffffffffffffffffffffffffffffffffffffffffffffffffff820361234f5761234e611e0c565b5b600182019050919050565b7f546f7573206c65732061727469636c6573206f6e74206574652076656e64757360008201527f2061757820656e63686572657300000000000000000000000000000000000000602082015250565b60006123b6602d83611d3d565b91506123c18261235a565b604082019050919050565b600060208201905081810360008301526123e5816123a9565b9050919050565b7f4e487b7100000000000000000000000000000000000000000000000000000000600052604160045260246000fd5b7f5365756c206c652061756374696f6e656572207065757420617070656c65722060008201527f636574746520666f6e6374696f6e000000000000000000000000000000000000602082015250565b6000612477602e83611d3d565b91506124828261241b565b604082019050919050565b600060208201905081810360008301526124a68161246a565b9050919050565b7f4e487b7100000000000000000000000000000000000000000000000000000000600052601260045260246000fd5b60006124e78261185b565b91506124f28361185b565b925082612502576125016124ad565b5b828204905092915050565b60006125188261185b565b91506125238361185b565b9250817fffffffffffffffffffffffffffffffffffffffffffffffffffffffffffffffff048311821515161561255c5761255b611e0c565b5b82820290509291505056fea26469706673582212205d4927329ec450cab6f0481ee310645b82b38a35ae018ea63fae3a28a5079a9664736f6c634300080d0033",
  "immutableReferences": {},
  "source": "// SPDX-License-Identifier: MIT\npragma solidity ^0.8.0;\nimport \"@openzeppelin/contracts/utils/Strings.sol\";\n\ncontract DutchAuction {\n    using Strings for uint256;\n    address public auctioneer;\n    uint public currentArticleIndex;\n    uint public auctionStartTime;\n    uint public startTimeCurrentAuction;\n    uint public constant AUCTION_DURATION = 3600 seconds; // Duration de l'enchere => 1 heure\n    uint public constant STARTING_PRICE = 1 ether; // On declare le prix de debut  1 ether\n    uint public constant PRICE_DECREMENT = 0.1 ether;\n    uint public constant RESERVE_PRICE = 0.2 ether;\n    uint public constant INTERVAL = 50 seconds;\n    uint public startBlock;\n\n    /** Creation d'une sctructure pour l'article\n    Lequel aura un nom, un prix, un gagnant et un status pour savoir s'il est ferm  */\n    struct Article { uint id; string name; uint currentPrice; address winningBidder; bool closed; uint bought; uint boughtFor; }\n\n    // Un tableau d'articles\n    Article[] public articles;\n\n    event Log(string message, uint value);\n    event BidPlaced(uint indexed articleIndex, address indexed bidder, uint amount);\n\n    modifier onlyAuctioneer() {\n        require(msg.sender == auctioneer, \"Seul le auctioneer peut appeler cette fonction\");\n        _;\n    }\n\n    modifier auctionOpen() {\n        require(block.timestamp >= auctionStartTime, \"Les encheres n'ont pas encore commence\");\n        require(block.timestamp < auctionStartTime + AUCTION_DURATION, \"L'enchere est terminee\");\n        _;\n    }\n\n    modifier articleOpen(uint articleIndex) {\n        require(articleIndex < articles.length, \"Index des articles invalide\");\n        require(!articles[articleIndex].closed, \"L'article est deja ferme\");\n        _;\n    }\n\n    constructor() {\n        startBlock = block.number;\n        auctioneer = msg.sender;\n        auctionStartTime = block.timestamp;\n        startTimeCurrentAuction = auctionStartTime;\n        emit Log(\"CreateContract:\", auctionStartTime);\n\n        // Creation des articles  notre enchere\n        articles.push(Article( 1, \"Article 1\", STARTING_PRICE, address(0), false, 0, 0 ether ));\n        articles.push(Article( 2, \"Article 2\", STARTING_PRICE, address(0), false, 0, 0 ether ));\n        articles.push(Article( 3, \"Article 3\", STARTING_PRICE, address(0), false, 0, 0 ether ));\n        articles.push(Article( 4, \"Article 4\", STARTING_PRICE, address(0), false, 0, 0 ether ) );\n        articles.push(Article( 5, \"Article 5\", STARTING_PRICE, address(0), false, 0, 0 ether ) );\n        articles.push(Article( 6, \"Article 6\", STARTING_PRICE, address(0), false, 0, 0 ether ) );\n        currentArticleIndex = 0;\n    }\n\n    function getArticles() public view returns (Article[] memory) {\n        return articles;\n    }\n\n    function getCurrentArticle() public view returns (Article memory) {\n        return articles[ currentArticleIndex ];\n    }\n\n    function getArticleNames() public view returns (string[] memory) {\n        string[] memory articleNames = new string[](articles.length);\n\n        for (uint i = 0; i < articles.length; i++) {\n            articleNames[i] = articles[i].name;\n        }\n\n        return articleNames;\n    }\n\n    function getOpenArticles() public view returns (Article[] memory) {\n        uint openArticleCount = 0;\n\n        // Compter le nombre d'articles ouverts\n        for (uint i = 0; i < articles.length; i++) {\n            if (!articles[i].closed) {\n                openArticleCount++;\n            }\n        }\n\n        // Crer un tableau de la taille approprie pour les articles ouverts\n        Article[] memory openArticles = new Article[](openArticleCount);\n\n        // Remplir le tableau avec les articles ouverts\n        uint index = 0;\n        for (uint i = 0; i < articles.length; i++) {\n            if (!articles[i].closed) {\n                openArticles[index] = articles[i];\n                index++;\n            }\n        }\n\n        return openArticles;\n    }\n\n    function getClosedArticles() public view returns (Article[] memory) {\n        uint closedArticleCount = 0;\n\n        // Compter le nombre d'articles ouverts\n        for (uint i = 0; i < articles.length; i++) {\n            if (articles[i].closed) {\n                closedArticleCount++;\n            }\n        }\n\n        // Crer un tableau de la taille approprie pour les articles ouverts\n        Article[] memory closedArticles = new Article[](closedArticleCount);\n\n        // Remplir le tableau avec les articles ouverts\n        uint index = 0;\n        for (uint i = 0; i < articles.length; i++) {\n            if (articles[i].closed) {\n                closedArticles[index] = articles[i];\n                index++;\n            }\n        }\n\n        return closedArticles;\n    }\n\n    function getCurrentPrice() public view returns (uint) {\n        uint elapsedTime = getElapsedTime();\n        uint decrements = elapsedTime / INTERVAL; // Diminue le prix toutes les 60 secondes\n        uint currentPrice = STARTING_PRICE - (PRICE_DECREMENT * decrements);\n        return currentPrice > RESERVE_PRICE ? currentPrice : RESERVE_PRICE;\n    }\n\n    function getStartTime() public view returns (uint) {\n        return startTimeCurrentAuction;\n    }\n    \n    function getElapsedTime() public view returns (uint) {\n        return getTimeStamp() - startTimeCurrentAuction;\n    }\n\n    function getTimeStamp() public view returns (uint) {\n        uint tmp = block.timestamp;\n        return tmp;\n    }\n\n\n    function moveToNextArticle() external onlyAuctioneer {\n        // Si l'index actuel est inferieur au total de notre collection, tous les articles on t vendus\n        require(currentArticleIndex < articles.length - 1, \"Tous les articles ont ete vendus aux encheres\");\n\n        // Si on a encore des articles on augmente l'index et on passe au suivant\n        currentArticleIndex++;\n        articles[currentArticleIndex].currentPrice = getCurrentPrice();\n        articles[currentArticleIndex].closed = false;\n    }\n\n    /**\n        Placer une offre \n     */\n    function placeBid(uint articleIndex) external payable auctionOpen articleOpen(articleIndex) {\n        require(msg.value > 0, \"Le montant de l'enchere doit etre superieur a zero\");\n\n        uint currentPrice = getCurrentPrice();\n        //require(msg.value >= currentPrice, \"Le montant de l'enchere est inferieur au prix actuel\");\n        require(msg.value >= currentPrice, string(abi.encodePacked(\"Le montant de l'enchere est inferieur au prix actuel time: \", block.timestamp.toString(), ' start : ', auctionStartTime.toString())));\n\n\n        //  Si la valeur est > 0 et plus que le prix actuel on etabli le gagnant et on ferme l'article\n        uint now_place = block.timestamp;\n        \n        articles[articleIndex].winningBidder = msg.sender;\n        articles[articleIndex].closed = true;\n        articles[articleIndex].bought = now_place;\n        articles[articleIndex].boughtFor = msg.value;\n        currentArticleIndex++;\n        require(currentArticleIndex < articles.length - 1, \"Tous les articles ont ete vendus aux encheres\");\n        startTimeCurrentAuction = now_place;\n        //articles[currentArticleIndex].currentPrice = getCurrentPrice();\n        //articles[currentArticleIndex].closed = false;\n\n        emit BidPlaced(articleIndex, msg.sender, msg.value);\n    }\n}\n",
  "sourcePath": "/home/iwocs/Desktop/MASTER/BlockChain/Dutch/dutch-auction/contracts/DutchAuction.sol",
  "compiler": {
    "name": "solc",
    "version": "0.8.13+commit.abaa5c0e.Emscripten.clang"
  },
  "schemaVersion": "3.4.16",
  "updatedAt": "2024-01-24T00:21:45.902Z",
  "networkType": "ethereum",
  "devdoc": {
    "kind": "dev",
    "methods": {},
    "version": 1
  },
  "userdoc": {
    "kind": "user",
    "methods": {
      "placeBid(uint256)": {
        "notice": "Placer une offre "
      }
    },
    "version": 1
  }
}