{
  "contractName": "DutchAuction",
  "abi": [
    {
      "inputs": [],
      "stateMutability": "nonpayable",
      "type": "constructor"
    },
    {
      "anonymous": false,
      "inputs": [
        {
          "indexed": true,
          "internalType": "uint256",
          "name": "articleIndex",
          "type": "uint256"
        },
        {
          "indexed": true,
          "internalType": "address",
          "name": "bidder",
          "type": "address"
        },
        {
          "indexed": false,
          "internalType": "uint256",
          "name": "amount",
          "type": "uint256"
        }
      ],
      "name": "BidPlaced",
      "type": "event"
    },
    {
      "anonymous": false,
      "inputs": [
        {
          "indexed": false,
          "internalType": "string",
          "name": "message",
          "type": "string"
        },
        {
          "indexed": false,
          "internalType": "uint256",
          "name": "value",
          "type": "uint256"
        }
      ],
      "name": "Log",
      "type": "event"
    },
    {
      "inputs": [],
      "name": "AUCTION_DURATION",
      "outputs": [
        {
          "internalType": "uint256",
          "name": "",
          "type": "uint256"
        }
      ],
      "stateMutability": "view",
      "type": "function",
      "constant": true
    },
    {
      "inputs": [],
      "name": "INTERVAL",
      "outputs": [
        {
          "internalType": "uint256",
          "name": "",
          "type": "uint256"
        }
      ],
      "stateMutability": "view",
      "type": "function",
      "constant": true
    },
    {
      "inputs": [],
      "name": "PRICE_DECREMENT",
      "outputs": [
        {
          "internalType": "uint256",
          "name": "",
          "type": "uint256"
        }
      ],
      "stateMutability": "view",
      "type": "function",
      "constant": true
    },
    {
      "inputs": [],
      "name": "RESERVE_PRICE",
      "outputs": [
        {
          "internalType": "uint256",
          "name": "",
          "type": "uint256"
        }
      ],
      "stateMutability": "view",
      "type": "function",
      "constant": true
    },
    {
      "inputs": [],
      "name": "STARTING_PRICE",
      "outputs": [
        {
          "internalType": "uint256",
          "name": "",
          "type": "uint256"
        }
      ],
      "stateMutability": "view",
      "type": "function",
      "constant": true
    },
    {
      "inputs": [
        {
          "internalType": "uint256",
          "name": "",
          "type": "uint256"
        }
      ],
      "name": "auctions",
      "outputs": [
        {
          "internalType": "uint256",
          "name": "id",
          "type": "uint256"
        },
        {
          "internalType": "string",
          "name": "name",
          "type": "string"
        },
        {
          "internalType": "uint256",
          "name": "currentArticleIndex",
          "type": "uint256"
        },
        {
          "internalType": "address",
          "name": "auctioneer",
          "type": "address"
        },
        {
          "internalType": "uint256",
          "name": "auctionStartTime",
          "type": "uint256"
        },
        {
          "internalType": "uint256",
          "name": "startTimeCurrentAuction",
          "type": "uint256"
        }
      ],
      "stateMutability": "view",
      "type": "function",
      "constant": true
    },
    {
      "inputs": [],
      "name": "startBlock",
      "outputs": [
        {
          "internalType": "uint256",
          "name": "",
          "type": "uint256"
        }
      ],
      "stateMutability": "view",
      "type": "function",
      "constant": true
    },
    {
      "inputs": [
        {
          "internalType": "uint256",
          "name": "auctionIndex",
          "type": "uint256"
        }
      ],
      "name": "getArticles",
      "outputs": [
        {
          "components": [
            {
              "internalType": "uint256",
              "name": "id",
              "type": "uint256"
            },
            {
              "internalType": "string",
              "name": "name",
              "type": "string"
            },
            {
              "internalType": "uint256",
              "name": "currentPrice",
              "type": "uint256"
            },
            {
              "internalType": "address",
              "name": "winningBidder",
              "type": "address"
            },
            {
              "internalType": "bool",
              "name": "closed",
              "type": "bool"
            },
            {
              "internalType": "uint256",
              "name": "bought",
              "type": "uint256"
            },
            {
              "internalType": "uint256",
              "name": "boughtFor",
              "type": "uint256"
            }
          ],
          "internalType": "struct DutchAuction.Article[]",
          "name": "",
          "type": "tuple[]"
        }
      ],
      "stateMutability": "view",
      "type": "function",
      "constant": true
    },
    {
      "inputs": [
        {
          "internalType": "uint256",
          "name": "auctionIndex",
          "type": "uint256"
        }
      ],
      "name": "getCurrentArticle",
      "outputs": [
        {
          "components": [
            {
              "internalType": "uint256",
              "name": "id",
              "type": "uint256"
            },
            {
              "internalType": "string",
              "name": "name",
              "type": "string"
            },
            {
              "internalType": "uint256",
              "name": "currentPrice",
              "type": "uint256"
            },
            {
              "internalType": "address",
              "name": "winningBidder",
              "type": "address"
            },
            {
              "internalType": "bool",
              "name": "closed",
              "type": "bool"
            },
            {
              "internalType": "uint256",
              "name": "bought",
              "type": "uint256"
            },
            {
              "internalType": "uint256",
              "name": "boughtFor",
              "type": "uint256"
            }
          ],
          "internalType": "struct DutchAuction.Article",
          "name": "",
          "type": "tuple"
        }
      ],
      "stateMutability": "view",
      "type": "function",
      "constant": true
    },
    {
      "inputs": [
        {
          "internalType": "uint256",
          "name": "auctionIndex",
          "type": "uint256"
        }
      ],
      "name": "getArticleNames",
      "outputs": [
        {
          "internalType": "string[]",
          "name": "",
          "type": "string[]"
        }
      ],
      "stateMutability": "view",
      "type": "function",
      "constant": true
    },
    {
      "inputs": [
        {
          "internalType": "uint256",
          "name": "auctionIndex",
          "type": "uint256"
        }
      ],
      "name": "getOpenArticles",
      "outputs": [
        {
          "components": [
            {
              "internalType": "uint256",
              "name": "id",
              "type": "uint256"
            },
            {
              "internalType": "string",
              "name": "name",
              "type": "string"
            },
            {
              "internalType": "uint256",
              "name": "currentPrice",
              "type": "uint256"
            },
            {
              "internalType": "address",
              "name": "winningBidder",
              "type": "address"
            },
            {
              "internalType": "bool",
              "name": "closed",
              "type": "bool"
            },
            {
              "internalType": "uint256",
              "name": "bought",
              "type": "uint256"
            },
            {
              "internalType": "uint256",
              "name": "boughtFor",
              "type": "uint256"
            }
          ],
          "internalType": "struct DutchAuction.Article[]",
          "name": "",
          "type": "tuple[]"
        }
      ],
      "stateMutability": "view",
      "type": "function",
      "constant": true
    },
    {
      "inputs": [
        {
          "internalType": "uint256",
          "name": "auctionIndex",
          "type": "uint256"
        }
      ],
      "name": "getClosedArticles",
      "outputs": [
        {
          "components": [
            {
              "internalType": "uint256",
              "name": "id",
              "type": "uint256"
            },
            {
              "internalType": "string",
              "name": "name",
              "type": "string"
            },
            {
              "internalType": "uint256",
              "name": "currentPrice",
              "type": "uint256"
            },
            {
              "internalType": "address",
              "name": "winningBidder",
              "type": "address"
            },
            {
              "internalType": "bool",
              "name": "closed",
              "type": "bool"
            },
            {
              "internalType": "uint256",
              "name": "bought",
              "type": "uint256"
            },
            {
              "internalType": "uint256",
              "name": "boughtFor",
              "type": "uint256"
            }
          ],
          "internalType": "struct DutchAuction.Article[]",
          "name": "",
          "type": "tuple[]"
        }
      ],
      "stateMutability": "view",
      "type": "function",
      "constant": true
    },
    {
      "inputs": [
        {
          "internalType": "uint256",
          "name": "auctionIndex",
          "type": "uint256"
        }
      ],
      "name": "getCurrentPrice",
      "outputs": [
        {
          "internalType": "uint256",
          "name": "",
          "type": "uint256"
        }
      ],
      "stateMutability": "view",
      "type": "function",
      "constant": true
    },
    {
      "inputs": [
        {
          "internalType": "uint256",
          "name": "auctionIndex",
          "type": "uint256"
        }
      ],
      "name": "getStartTime",
      "outputs": [
        {
          "internalType": "uint256",
          "name": "",
          "type": "uint256"
        }
      ],
      "stateMutability": "view",
      "type": "function",
      "constant": true
    },
    {
      "inputs": [
        {
          "internalType": "uint256",
          "name": "auctionIndex",
          "type": "uint256"
        }
      ],
      "name": "getElapsedTime",
      "outputs": [
        {
          "internalType": "uint256",
          "name": "",
          "type": "uint256"
        }
      ],
      "stateMutability": "view",
      "type": "function",
      "constant": true
    },
    {
      "inputs": [],
      "name": "getTimeStamp",
      "outputs": [
        {
          "internalType": "uint256",
          "name": "",
          "type": "uint256"
        }
      ],
      "stateMutability": "view",
      "type": "function",
      "constant": true
    },
    {
      "inputs": [],
      "name": "getAuctions",
      "outputs": [
        {
          "components": [
            {
              "internalType": "uint256",
              "name": "id",
              "type": "uint256"
            },
            {
              "internalType": "string",
              "name": "name",
              "type": "string"
            },
            {
              "internalType": "uint256",
              "name": "currentArticleIndex",
              "type": "uint256"
            },
            {
              "internalType": "address",
              "name": "auctioneer",
              "type": "address"
            },
            {
              "components": [
                {
                  "internalType": "uint256",
                  "name": "id",
                  "type": "uint256"
                },
                {
                  "internalType": "string",
                  "name": "name",
                  "type": "string"
                },
                {
                  "internalType": "uint256",
                  "name": "currentPrice",
                  "type": "uint256"
                },
                {
                  "internalType": "address",
                  "name": "winningBidder",
                  "type": "address"
                },
                {
                  "internalType": "bool",
                  "name": "closed",
                  "type": "bool"
                },
                {
                  "internalType": "uint256",
                  "name": "bought",
                  "type": "uint256"
                },
                {
                  "internalType": "uint256",
                  "name": "boughtFor",
                  "type": "uint256"
                }
              ],
              "internalType": "struct DutchAuction.Article[]",
              "name": "articles",
              "type": "tuple[]"
            },
            {
              "internalType": "uint256",
              "name": "auctionStartTime",
              "type": "uint256"
            },
            {
              "internalType": "uint256",
              "name": "startTimeCurrentAuction",
              "type": "uint256"
            }
          ],
          "internalType": "struct DutchAuction.Auction[]",
          "name": "",
          "type": "tuple[]"
        }
      ],
      "stateMutability": "view",
      "type": "function",
      "constant": true
    },
    {
      "inputs": [
        {
          "internalType": "uint256",
          "name": "id",
          "type": "uint256"
        }
      ],
      "name": "getAuction",
      "outputs": [
        {
          "components": [
            {
              "internalType": "uint256",
              "name": "id",
              "type": "uint256"
            },
            {
              "internalType": "string",
              "name": "name",
              "type": "string"
            },
            {
              "internalType": "uint256",
              "name": "currentArticleIndex",
              "type": "uint256"
            },
            {
              "internalType": "address",
              "name": "auctioneer",
              "type": "address"
            },
            {
              "components": [
                {
                  "internalType": "uint256",
                  "name": "id",
                  "type": "uint256"
                },
                {
                  "internalType": "string",
                  "name": "name",
                  "type": "string"
                },
                {
                  "internalType": "uint256",
                  "name": "currentPrice",
                  "type": "uint256"
                },
                {
                  "internalType": "address",
                  "name": "winningBidder",
                  "type": "address"
                },
                {
                  "internalType": "bool",
                  "name": "closed",
                  "type": "bool"
                },
                {
                  "internalType": "uint256",
                  "name": "bought",
                  "type": "uint256"
                },
                {
                  "internalType": "uint256",
                  "name": "boughtFor",
                  "type": "uint256"
                }
              ],
              "internalType": "struct DutchAuction.Article[]",
              "name": "articles",
              "type": "tuple[]"
            },
            {
              "internalType": "uint256",
              "name": "auctionStartTime",
              "type": "uint256"
            },
            {
              "internalType": "uint256",
              "name": "startTimeCurrentAuction",
              "type": "uint256"
            }
          ],
          "internalType": "struct DutchAuction.Auction",
          "name": "",
          "type": "tuple"
        }
      ],
      "stateMutability": "view",
      "type": "function",
      "constant": true
    },
    {
      "inputs": [
        {
          "internalType": "uint256",
          "name": "articleIndex",
          "type": "uint256"
        },
        {
          "internalType": "uint256",
          "name": "auctionIndex",
          "type": "uint256"
        }
      ],
      "name": "placeBid",
      "outputs": [],
      "stateMutability": "payable",
      "type": "function",
      "payable": true
    },
    {
      "inputs": [
        {
          "internalType": "string",
          "name": "name",
          "type": "string"
        },
        {
          "internalType": "string[]",
          "name": "articles",
          "type": "string[]"
        }
      ],
      "name": "createAuction",
      "outputs": [],
      "stateMutability": "nonpayable",
      "type": "function"
    }
  ],
  "bytecode": "0x60806040523480156200001157600080fd5b50436000819055507fdd970dd9b5bfe707922155b058a407655cb18288b807e2216442bca8ad83d6b5426040516200004a9190620007a9565b60405180910390a16000600467ffffffffffffffff811115620000725762000071620007db565b5b604051908082528060200260200182016040528015620000a757816020015b6060815260200190600190039081620000915790505b5090506040518060400160405280600981526020017f41727469636c652031000000000000000000000000000000000000000000000081525081600081518110620000f757620000f66200080a565b5b60200260200101819052506040518060400160405280600981526020017f41727469636c6520320000000000000000000000000000000000000000000000815250816001815181106200014f576200014e6200080a565b5b60200260200101819052506040518060400160405280600981526020017f41727469636c652033000000000000000000000000000000000000000000000081525081600281518110620001a757620001a66200080a565b5b60200260200101819052506040518060400160405280600981526020017f41727469636c652034000000000000000000000000000000000000000000000081525081600381518110620001ff57620001fe6200080a565b5b6020026020010181905250620002516040518060400160405280600981526020017f41756374696f6e20310000000000000000000000000000000000000000000000815250826200040060201b60201c565b6000600367ffffffffffffffff811115620002715762000270620007db565b5b604051908082528060200260200182016040528015620002a657816020015b6060815260200190600190039081620002905790505b5090506040518060400160405280600781526020017f4368656d6973650000000000000000000000000000000000000000000000000081525081600081518110620002f657620002f56200080a565b5b60200260200101819052506040518060400160405280600281526020017f5043000000000000000000000000000000000000000000000000000000000000815250816001815181106200034e576200034d6200080a565b5b60200260200101819052506040518060400160405280600681526020017f56616c697365000000000000000000000000000000000000000000000000000081525081600281518110620003a657620003a56200080a565b5b6020026020010181905250620003f86040518060400160405280600981526020017f41756374696f6e20320000000000000000000000000000000000000000000000815250826200040060201b60201c565b5050620009d6565b600060018054905090506000339050600042905060008190506000600180816001815401808255809150500390600052602060002090600702019050848160000181905550868160010190805190602001906200045f9291906200067d565b50838160030160006101000a81548173ffffffffffffffffffffffffffffffffffffffff021916908373ffffffffffffffffffffffffffffffffffffffff1602179055508281600501819055508181600601819055506000600190505b865181116200063a57816004016040518060e0016040528083815260200189600185620004ea919062000868565b81518110620004fe57620004fd6200080a565b5b60200260200101518152602001670de0b6b3a76400008152602001600073ffffffffffffffffffffffffffffffffffffffff16815260200160001515815260200160008152602001600081525090806001815401808255809150506001900390600052602060002090600602016000909190919091506000820151816000015560208201518160010190805190602001906200059c9291906200067d565b506040820151816002015560608201518160030160006101000a81548173ffffffffffffffffffffffffffffffffffffffff021916908373ffffffffffffffffffffffffffffffffffffffff16021790555060808201518160030160146101000a81548160ff02191690831515021790555060a0820151816004015560c08201518160050155505080806200063190620008a3565b915050620004bc565b507fdd970dd9b5bfe707922155b058a407655cb18288b807e2216442bca8ad83d6b5836040516200066c919062000940565b60405180910390a150505050505050565b8280546200068b90620009a1565b90600052602060002090601f016020900481019282620006af5760008555620006fb565b82601f10620006ca57805160ff1916838001178555620006fb565b82800160010185558215620006fb579182015b82811115620006fa578251825591602001919060010190620006dd565b5b5090506200070a91906200070e565b5090565b5b80821115620007295760008160009055506001016200070f565b5090565b600082825260208201905092915050565b7f437265617465436f6e74726163743a0000000000000000000000000000000000600082015250565b600062000776600f836200072d565b915062000783826200073e565b602082019050919050565b6000819050919050565b620007a3816200078e565b82525050565b60006040820190508181036000830152620007c48162000767565b9050620007d5602083018462000798565b92915050565b7f4e487b7100000000000000000000000000000000000000000000000000000000600052604160045260246000fd5b7f4e487b7100000000000000000000000000000000000000000000000000000000600052603260045260246000fd5b7f4e487b7100000000000000000000000000000000000000000000000000000000600052601160045260246000fd5b600062000875826200078e565b915062000882836200078e565b92508282101562000898576200089762000839565b5b828203905092915050565b6000620008b0826200078e565b91507fffffffffffffffffffffffffffffffffffffffffffffffffffffffffffffffff8203620008e557620008e462000839565b5b600182019050919050565b7f4372656174652041756374696f6e3a0000000000000000000000000000000000600082015250565b600062000928600f836200072d565b91506200093582620008f0565b602082019050919050565b600060408201905081810360008301526200095b8162000919565b90506200096c602083018462000798565b92915050565b7f4e487b7100000000000000000000000000000000000000000000000000000000600052602260045260246000fd5b60006002820490506001821680620009ba57607f821691505b602082108103620009d057620009cf62000972565b5b50919050565b6137a980620009e66000396000f3fe60806040526004361061011f5760003560e01c8063a35dfd38116100a0578063d12f702911610064578063d12f702914610451578063d7c069191461047c578063da235b22146104a7578063dd21d604146104d2578063e9561822146104fd5761011f565b8063a35dfd3814610320578063bc2be1be1461035d578063c55d0f561461039a578063c755cebc146103d7578063cd7ca1e0146104145761011f565b8063571a26a0116100e7578063571a26a01461022f57806357c90de51461027157806378bd79351461028d57806389facb20146102ca578063a271e525146102f55761011f565b806336784c7e14610124578063413170a91461014d57806348cd4cb11461018a57806349cb9eb8146101b5578063557a0b18146101f2575b600080fd5b34801561013057600080fd5b5061014b60048036038101906101469190612772565b610528565b005b34801561015957600080fd5b50610174600480360381019061016f9190612820565b610796565b6040516101819190612a9e565b60405180910390f35b34801561019657600080fd5b5061019f610945565b6040516101ac9190612acf565b60405180910390f35b3480156101c157600080fd5b506101dc60048036038101906101d79190612820565b61094b565b6040516101e99190612a9e565b60405180910390f35b3480156101fe57600080fd5b5061021960048036038101906102149190612820565b610cab565b6040516102269190612b86565b60405180910390f35b34801561023b57600080fd5b5061025660048036038101906102519190612820565b610e5a565b60405161026896959493929190612c01565b60405180910390f35b61028b60048036038101906102869190612c69565b610f4e565b005b34801561029957600080fd5b506102b460048036038101906102af9190612820565b6114f7565b6040516102c19190612dd2565b60405180910390f35b3480156102d657600080fd5b506102df6117cd565b6040516102ec9190612acf565b60405180910390f35b34801561030157600080fd5b5061030a6117d2565b6040516103179190612acf565b60405180910390f35b34801561032c57600080fd5b5061034760048036038101906103429190612820565b6117d8565b6040516103549190612eb6565b60405180910390f35b34801561036957600080fd5b50610384600480360381019061037f9190612820565b611993565b6040516103919190612acf565b60405180910390f35b3480156103a657600080fd5b506103c160048036038101906103bc9190612820565b6119c2565b6040516103ce9190612acf565b60405180910390f35b3480156103e357600080fd5b506103fe60048036038101906103f99190612820565b611a35565b60405161040b9190612acf565b60405180910390f35b34801561042057600080fd5b5061043b60048036038101906104369190612820565b611a76565b6040516104489190612a9e565b60405180910390f35b34801561045d57600080fd5b50610466611e9c565b6040516104739190612acf565b60405180910390f35b34801561048857600080fd5b50610491611ea8565b60405161049e919061303d565b60405180910390f35b3480156104b357600080fd5b506104bc6121a1565b6040516104c99190612acf565b60405180910390f35b3480156104de57600080fd5b506104e76121ae565b6040516104f49190612acf565b60405180910390f35b34801561050957600080fd5b506105126121ba565b60405161051f9190612acf565b60405180910390f35b600060018054905090506000339050600042905060008190506000600180816001815401808255809150500390600052602060002090600702019050848160000181905550868160010190805190602001906105859291906123e7565b50838160030160006101000a81548173ffffffffffffffffffffffffffffffffffffffff021916908373ffffffffffffffffffffffffffffffffffffffff1602179055508281600501819055508181600601819055506000600190505b8651811161075557816004016040518060e001604052808381526020018960018561060d919061308e565b8151811061061e5761061d6130c2565b5b60200260200101518152602001670de0b6b3a76400008152602001600073ffffffffffffffffffffffffffffffffffffffff16815260200160001515815260200160008152602001600081525090806001815401808255809150506001900390600052602060002090600602016000909190919091506000820151816000015560208201518160010190805190602001906106ba9291906123e7565b506040820151816002015560608201518160030160006101000a81548173ffffffffffffffffffffffffffffffffffffffff021916908373ffffffffffffffffffffffffffffffffffffffff16021790555060808201518160030160146101000a81548160ff02191690831515021790555060a0820151816004015560c082015181600501555050808061074d906130f1565b9150506105e2565b507fdd970dd9b5bfe707922155b058a407655cb18288b807e2216442bca8ad83d6b5836040516107859190613185565b60405180910390a150505050505050565b6060600182815481106107ac576107ab6130c2565b5b9060005260206000209060070201600401805480602002602001604051908101604052809291908181526020016000905b8282101561093a57838290600052602060002090600602016040518060e00160405290816000820154815260200160018201805461081a906131e2565b80601f0160208091040260200160405190810160405280929190818152602001828054610846906131e2565b80156108935780601f1061086857610100808354040283529160200191610893565b820191906000526020600020905b81548152906001019060200180831161087657829003601f168201915b50505050508152602001600282015481526020016003820160009054906101000a900473ffffffffffffffffffffffffffffffffffffffff1673ffffffffffffffffffffffffffffffffffffffff1673ffffffffffffffffffffffffffffffffffffffff1681526020016003820160149054906101000a900460ff1615151515815260200160048201548152602001600582015481525050815260200190600101906107dd565b505050509050919050565b60005481565b60606000805b60018481548110610965576109646130c2565b5b9060005260206000209060070201600401805490508110156109fd5760018481548110610995576109946130c2565b5b906000526020600020906007020160040181815481106109b8576109b76130c2565b5b906000526020600020906006020160030160149054906101000a900460ff166109ea5781806109e6906130f1565b9250505b80806109f5906130f1565b915050610951565b5060008167ffffffffffffffff811115610a1a57610a19612561565b5b604051908082528060200260200182016040528015610a5357816020015b610a4061246d565b815260200190600190039081610a385790505b5090506000805b60018681548110610a6e57610a6d6130c2565b5b906000526020600020906007020160040180549050811015610c9f5760018681548110610a9e57610a9d6130c2565b5b90600052602060002090600702016004018181548110610ac157610ac06130c2565b5b906000526020600020906006020160030160149054906101000a900460ff16610c8c5760018681548110610af857610af76130c2565b5b90600052602060002090600702016004018181548110610b1b57610b1a6130c2565b5b90600052602060002090600602016040518060e001604052908160008201548152602001600182018054610b4e906131e2565b80601f0160208091040260200160405190810160405280929190818152602001828054610b7a906131e2565b8015610bc75780601f10610b9c57610100808354040283529160200191610bc7565b820191906000526020600020905b815481529060010190602001808311610baa57829003601f168201915b50505050508152602001600282015481526020016003820160009054906101000a900473ffffffffffffffffffffffffffffffffffffffff1673ffffffffffffffffffffffffffffffffffffffff1673ffffffffffffffffffffffffffffffffffffffff1681526020016003820160149054906101000a900460ff1615151515815260200160048201548152602001600582015481525050838381518110610c7257610c716130c2565b5b60200260200101819052508180610c88906130f1565b9250505b8080610c97906130f1565b915050610a5a565b50819350505050919050565b610cb361246d565b60018281548110610cc757610cc66130c2565b5b906000526020600020906007020160040160018381548110610cec57610ceb6130c2565b5b90600052602060002090600702016002015481548110610d0f57610d0e6130c2565b5b90600052602060002090600602016040518060e001604052908160008201548152602001600182018054610d42906131e2565b80601f0160208091040260200160405190810160405280929190818152602001828054610d6e906131e2565b8015610dbb5780601f10610d9057610100808354040283529160200191610dbb565b820191906000526020600020905b815481529060010190602001808311610d9e57829003601f168201915b50505050508152602001600282015481526020016003820160009054906101000a900473ffffffffffffffffffffffffffffffffffffffff1673ffffffffffffffffffffffffffffffffffffffff1673ffffffffffffffffffffffffffffffffffffffff1681526020016003820160149054906101000a900460ff16151515158152602001600482015481526020016005820154815250509050919050565b60018181548110610e6a57600080fd5b9060005260206000209060070201600091509050806000015490806001018054610e93906131e2565b80601f0160208091040260200160405190810160405280929190818152602001828054610ebf906131e2565b8015610f0c5780601f10610ee157610100808354040283529160200191610f0c565b820191906000526020600020905b815481529060010190602001808311610eef57829003601f168201915b5050505050908060020154908060030160009054906101000a900473ffffffffffffffffffffffffffffffffffffffff16908060050154908060060154905086565b8060018181548110610f6357610f626130c2565b5b906000526020600020906007020160050154421015610fb7576040517f08c379a0000000000000000000000000000000000000000000000000000000008152600401610fae90613285565b60405180910390fd5b610e1060018281548110610fce57610fcd6130c2565b5b906000526020600020906007020160050154610fea91906132a5565b421061102b576040517f08c379a000000000000000000000000000000000000000000000000000000000815260040161102290613347565b60405180910390fd5b828260018181548110611041576110406130c2565b5b9060005260206000209060070201600401805490508210611097576040517f08c379a000000000000000000000000000000000000000000000000000000000815260040161108e906133b3565b60405180910390fd5b600181815481106110ab576110aa6130c2565b5b906000526020600020906007020160040182815481106110ce576110cd6130c2565b5b906000526020600020906006020160030160149054906101000a900460ff161561112d576040517f08c379a00000000000000000000000000000000000000000000000000000000081526004016111249061341f565b60405180910390fd5b60003411611170576040517f08c379a0000000000000000000000000000000000000000000000000000000008152600401611167906134b1565b60405180910390fd5b600061117b856119c2565b90508034101561118a426121c6565b6111b8600188815481106111a1576111a06130c2565b5b9060005260206000209060070201600501546121c6565b6040516020016111c99291906135cb565b60405160208183030381529060405290611219576040517f08c379a00000000000000000000000000000000000000000000000000000000081526004016112109190613605565b60405180910390fd5b5060004290503360018781548110611234576112336130c2565b5b90600052602060002090600702016004018881548110611257576112566130c2565b5b906000526020600020906006020160030160006101000a81548173ffffffffffffffffffffffffffffffffffffffff021916908373ffffffffffffffffffffffffffffffffffffffff16021790555060018087815481106112bb576112ba6130c2565b5b906000526020600020906007020160040188815481106112de576112dd6130c2565b5b906000526020600020906006020160030160146101000a81548160ff021916908315150217905550806001878154811061131b5761131a6130c2565b5b9060005260206000209060070201600401888154811061133e5761133d6130c2565b5b9060005260206000209060060201600401819055503460018781548110611368576113676130c2565b5b9060005260206000209060070201600401888154811061138b5761138a6130c2565b5b906000526020600020906006020160050181905550600186815481106113b4576113b36130c2565b5b906000526020600020906007020160020160008154809291906113d6906130f1565b919050555060018087815481106113f0576113ef6130c2565b5b90600052602060002090600702016004018054905061140f919061308e565b60018781548110611423576114226130c2565b5b90600052602060002090600702016002015410611475576040517f08c379a000000000000000000000000000000000000000000000000000000000815260040161146c90613699565b60405180910390fd5b806001878154811061148a576114896130c2565b5b9060005260206000209060070201600601819055503373ffffffffffffffffffffffffffffffffffffffff16877f0e54eff26401bf69b81b26f60bd85ef47f5d85275c1d268d84f68d6897431c47346040516114e69190612acf565b60405180910390a350505050505050565b6114ff6124c2565b60018281548110611513576115126130c2565b5b90600052602060002090600702016040518060e001604052908160008201548152602001600182018054611546906131e2565b80601f0160208091040260200160405190810160405280929190818152602001828054611572906131e2565b80156115bf5780601f10611594576101008083540402835291602001916115bf565b820191906000526020600020905b8154815290600101906020018083116115a257829003601f168201915b50505050508152602001600282015481526020016003820160009054906101000a900473ffffffffffffffffffffffffffffffffffffffff1673ffffffffffffffffffffffffffffffffffffffff1673ffffffffffffffffffffffffffffffffffffffff16815260200160048201805480602002602001604051908101604052809291908181526020016000905b828210156117aa57838290600052602060002090600602016040518060e00160405290816000820154815260200160018201805461168a906131e2565b80601f01602080910402602001604051908101604052809291908181526020018280546116b6906131e2565b80156117035780601f106116d857610100808354040283529160200191611703565b820191906000526020600020905b8154815290600101906020018083116116e657829003601f168201915b50505050508152602001600282015481526020016003820160009054906101000a900473ffffffffffffffffffffffffffffffffffffffff1673ffffffffffffffffffffffffffffffffffffffff1673ffffffffffffffffffffffffffffffffffffffff1681526020016003820160149054906101000a900460ff16151515158152602001600482015481526020016005820154815250508152602001906001019061164d565b505050508152602001600582015481526020016006820154815250509050919050565b603281565b610e1081565b60606000600183815481106117f0576117ef6130c2565b5b90600052602060002090600702016004018054905067ffffffffffffffff81111561181e5761181d612561565b5b60405190808252806020026020018201604052801561185157816020015b606081526020019060019003908161183c5790505b50905060005b6001848154811061186b5761186a6130c2565b5b906000526020600020906007020160040180549050811015611989576001848154811061189b5761189a6130c2565b5b906000526020600020906007020160040181815481106118be576118bd6130c2565b5b906000526020600020906006020160010180546118da906131e2565b80601f0160208091040260200160405190810160405280929190818152602001828054611906906131e2565b80156119535780601f1061192857610100808354040283529160200191611953565b820191906000526020600020905b81548152906001019060200180831161193657829003601f168201915b505050505082828151811061196b5761196a6130c2565b5b60200260200101819052508080611981906130f1565b915050611857565b5080915050919050565b6000600182815481106119a9576119a86130c2565b5b9060005260206000209060070201600601549050919050565b6000806119ce83611a35565b905060006032826119df91906136e8565b905060008167016345785d8a00006119f79190613719565b670de0b6b3a7640000611a0a919061308e565b90506702c68af0bb1400008111611a29576702c68af0bb140000611a2b565b805b9350505050919050565b600060018281548110611a4b57611a4a6130c2565b5b906000526020600020906007020160060154611a656121a1565b611a6f919061308e565b9050919050565b606060008060018481548110611a8f57611a8e6130c2565b5b90600052602060002090600702016040518060e001604052908160008201548152602001600182018054611ac2906131e2565b80601f0160208091040260200160405190810160405280929190818152602001828054611aee906131e2565b8015611b3b5780601f10611b1057610100808354040283529160200191611b3b565b820191906000526020600020905b815481529060010190602001808311611b1e57829003601f168201915b50505050508152602001600282015481526020016003820160009054906101000a900473ffffffffffffffffffffffffffffffffffffffff1673ffffffffffffffffffffffffffffffffffffffff1673ffffffffffffffffffffffffffffffffffffffff16815260200160048201805480602002602001604051908101604052809291908181526020016000905b82821015611d2657838290600052602060002090600602016040518060e001604052908160008201548152602001600182018054611c06906131e2565b80601f0160208091040260200160405190810160405280929190818152602001828054611c32906131e2565b8015611c7f5780601f10611c5457610100808354040283529160200191611c7f565b820191906000526020600020905b815481529060010190602001808311611c6257829003601f168201915b50505050508152602001600282015481526020016003820160009054906101000a900473ffffffffffffffffffffffffffffffffffffffff1673ffffffffffffffffffffffffffffffffffffffff1673ffffffffffffffffffffffffffffffffffffffff1681526020016003820160149054906101000a900460ff161515151581526020016004820154815260200160058201548152505081526020019060010190611bc9565b50505050815260200160058201548152602001600682015481525050905060005b816080015151811015611d9e5781608001518181518110611d6b57611d6a6130c2565b5b60200260200101516080015115611d8b578280611d87906130f1565b9350505b8080611d96906130f1565b915050611d47565b5060008267ffffffffffffffff811115611dbb57611dba612561565b5b604051908082528060200260200182016040528015611df457816020015b611de161246d565b815260200190600190039081611dd95790505b5090506000805b836080015151811015611e8f5783608001518181518110611e1f57611e1e6130c2565b5b60200260200101516080015115611e7c5783608001518181518110611e4757611e466130c2565b5b6020026020010151838381518110611e6257611e616130c2565b5b60200260200101819052508180611e78906130f1565b9250505b8080611e87906130f1565b915050611dfb565b5081945050505050919050565b670de0b6b3a764000081565b60606001805480602002602001604051908101604052809291908181526020016000905b8282101561219857838290600052602060002090600702016040518060e001604052908160008201548152602001600182018054611f09906131e2565b80601f0160208091040260200160405190810160405280929190818152602001828054611f35906131e2565b8015611f825780601f10611f5757610100808354040283529160200191611f82565b820191906000526020600020905b815481529060010190602001808311611f6557829003601f168201915b50505050508152602001600282015481526020016003820160009054906101000a900473ffffffffffffffffffffffffffffffffffffffff1673ffffffffffffffffffffffffffffffffffffffff1673ffffffffffffffffffffffffffffffffffffffff16815260200160048201805480602002602001604051908101604052809291908181526020016000905b8282101561216d57838290600052602060002090600602016040518060e00160405290816000820154815260200160018201805461204d906131e2565b80601f0160208091040260200160405190810160405280929190818152602001828054612079906131e2565b80156120c65780601f1061209b576101008083540402835291602001916120c6565b820191906000526020600020905b8154815290600101906020018083116120a957829003601f168201915b50505050508152602001600282015481526020016003820160009054906101000a900473ffffffffffffffffffffffffffffffffffffffff1673ffffffffffffffffffffffffffffffffffffffff1673ffffffffffffffffffffffffffffffffffffffff1681526020016003820160149054906101000a900460ff161515151581526020016004820154815260200160058201548152505081526020019060010190612010565b5050505081526020016005820154815260200160068201548152505081526020019060010190611ecc565b50505050905090565b6000804290508091505090565b6702c68af0bb14000081565b67016345785d8a000081565b6060600060016121d584612294565b01905060008167ffffffffffffffff8111156121f4576121f3612561565b5b6040519080825280601f01601f1916602001820160405280156122265781602001600182028036833780820191505090505b509050600082602001820190505b600115612289578080600190039150507f3031323334353637383961626364656600000000000000000000000000000000600a86061a8153600a858161227d5761227c6136b9565b5b04945060008503612234575b819350505050919050565b600080600090507a184f03e93ff9f4daa797ed6e38ed64bf6a1f01000000000000000083106122f2577a184f03e93ff9f4daa797ed6e38ed64bf6a1f01000000000000000083816122e8576122e76136b9565b5b0492506040810190505b6d04ee2d6d415b85acef8100000000831061232f576d04ee2d6d415b85acef81000000008381612325576123246136b9565b5b0492506020810190505b662386f26fc10000831061235e57662386f26fc100008381612354576123536136b9565b5b0492506010810190505b6305f5e1008310612387576305f5e100838161237d5761237c6136b9565b5b0492506008810190505b61271083106123ac5761271083816123a2576123a16136b9565b5b0492506004810190505b606483106123cf57606483816123c5576123c46136b9565b5b0492506002810190505b600a83106123de576001810190505b80915050919050565b8280546123f3906131e2565b90600052602060002090601f016020900481019282612415576000855561245c565b82601f1061242e57805160ff191683800117855561245c565b8280016001018555821561245c579182015b8281111561245b578251825591602001919060010190612440565b5b5090506124699190612515565b5090565b6040518060e00160405280600081526020016060815260200160008152602001600073ffffffffffffffffffffffffffffffffffffffff16815260200160001515815260200160008152602001600081525090565b6040518060e00160405280600081526020016060815260200160008152602001600073ffffffffffffffffffffffffffffffffffffffff1681526020016060815260200160008152602001600081525090565b5b8082111561252e576000816000905550600101612516565b5090565b6000604051905090565b600080fd5b600080fd5b600080fd5b600080fd5b6000601f19601f8301169050919050565b7f4e487b7100000000000000000000000000000000000000000000000000000000600052604160045260246000fd5b61259982612550565b810181811067ffffffffffffffff821117156125b8576125b7612561565b5b80604052505050565b60006125cb612532565b90506125d78282612590565b919050565b600067ffffffffffffffff8211156125f7576125f6612561565b5b61260082612550565b9050602081019050919050565b82818337600083830152505050565b600061262f61262a846125dc565b6125c1565b90508281526020810184848401111561264b5761264a61254b565b5b61265684828561260d565b509392505050565b600082601f83011261267357612672612546565b5b813561268384826020860161261c565b91505092915050565b600067ffffffffffffffff8211156126a7576126a6612561565b5b602082029050602081019050919050565b600080fd5b60006126d06126cb8461268c565b6125c1565b905080838252602082019050602084028301858111156126f3576126f26126b8565b5b835b8181101561273a57803567ffffffffffffffff81111561271857612717612546565b5b808601612725898261265e565b855260208501945050506020810190506126f5565b5050509392505050565b600082601f83011261275957612758612546565b5b81356127698482602086016126bd565b91505092915050565b600080604083850312156127895761278861253c565b5b600083013567ffffffffffffffff8111156127a7576127a6612541565b5b6127b38582860161265e565b925050602083013567ffffffffffffffff8111156127d4576127d3612541565b5b6127e085828601612744565b9150509250929050565b6000819050919050565b6127fd816127ea565b811461280857600080fd5b50565b60008135905061281a816127f4565b92915050565b6000602082840312156128365761283561253c565b5b60006128448482850161280b565b91505092915050565b600081519050919050565b600082825260208201905092915050565b6000819050602082019050919050565b612882816127ea565b82525050565b600081519050919050565b600082825260208201905092915050565b60005b838110156128c25780820151818401526020810190506128a7565b838111156128d1576000848401525b50505050565b60006128e282612888565b6128ec8185612893565b93506128fc8185602086016128a4565b61290581612550565b840191505092915050565b600073ffffffffffffffffffffffffffffffffffffffff82169050919050565b600061293b82612910565b9050919050565b61294b81612930565b82525050565b60008115159050919050565b61296681612951565b82525050565b600060e0830160008301516129846000860182612879565b506020830151848203602086015261299c82826128d7565b91505060408301516129b16040860182612879565b5060608301516129c46060860182612942565b5060808301516129d7608086018261295d565b5060a08301516129ea60a0860182612879565b5060c08301516129fd60c0860182612879565b508091505092915050565b6000612a14838361296c565b905092915050565b6000602082019050919050565b6000612a348261284d565b612a3e8185612858565b935083602082028501612a5085612869565b8060005b85811015612a8c5784840389528151612a6d8582612a08565b9450612a7883612a1c565b925060208a01995050600181019050612a54565b50829750879550505050505092915050565b60006020820190508181036000830152612ab88184612a29565b905092915050565b612ac9816127ea565b82525050565b6000602082019050612ae46000830184612ac0565b92915050565b600060e083016000830151612b026000860182612879565b5060208301518482036020860152612b1a82826128d7565b9150506040830151612b2f6040860182612879565b506060830151612b426060860182612942565b506080830151612b55608086018261295d565b5060a0830151612b6860a0860182612879565b5060c0830151612b7b60c0860182612879565b508091505092915050565b60006020820190508181036000830152612ba08184612aea565b905092915050565b600082825260208201905092915050565b6000612bc482612888565b612bce8185612ba8565b9350612bde8185602086016128a4565b612be781612550565b840191505092915050565b612bfb81612930565b82525050565b600060c082019050612c166000830189612ac0565b8181036020830152612c288188612bb9565b9050612c376040830187612ac0565b612c446060830186612bf2565b612c516080830185612ac0565b612c5e60a0830184612ac0565b979650505050505050565b60008060408385031215612c8057612c7f61253c565b5b6000612c8e8582860161280b565b9250506020612c9f8582860161280b565b9150509250929050565b600082825260208201905092915050565b6000612cc58261284d565b612ccf8185612ca9565b935083602082028501612ce185612869565b8060005b85811015612d1d5784840389528151612cfe8582612a08565b9450612d0983612a1c565b925060208a01995050600181019050612ce5565b50829750879550505050505092915050565b600060e083016000830151612d476000860182612879565b5060208301518482036020860152612d5f82826128d7565b9150506040830151612d746040860182612879565b506060830151612d876060860182612942565b5060808301518482036080860152612d9f8282612cba565b91505060a0830151612db460a0860182612879565b5060c0830151612dc760c0860182612879565b508091505092915050565b60006020820190508181036000830152612dec8184612d2f565b905092915050565b600081519050919050565b600082825260208201905092915050565b6000819050602082019050919050565b6000612e2c83836128d7565b905092915050565b6000602082019050919050565b6000612e4c82612df4565b612e568185612dff565b935083602082028501612e6885612e10565b8060005b85811015612ea45784840389528151612e858582612e20565b9450612e9083612e34565b925060208a01995050600181019050612e6c565b50829750879550505050505092915050565b60006020820190508181036000830152612ed08184612e41565b905092915050565b600081519050919050565b600082825260208201905092915050565b6000819050602082019050919050565b600060e083016000830151612f1c6000860182612879565b5060208301518482036020860152612f3482826128d7565b9150506040830151612f496040860182612879565b506060830151612f5c6060860182612942565b5060808301518482036080860152612f748282612cba565b91505060a0830151612f8960a0860182612879565b5060c0830151612f9c60c0860182612879565b508091505092915050565b6000612fb38383612f04565b905092915050565b6000602082019050919050565b6000612fd382612ed8565b612fdd8185612ee3565b935083602082028501612fef85612ef4565b8060005b8581101561302b578484038952815161300c8582612fa7565b945061301783612fbb565b925060208a01995050600181019050612ff3565b50829750879550505050505092915050565b600060208201905081810360008301526130578184612fc8565b905092915050565b7f4e487b7100000000000000000000000000000000000000000000000000000000600052601160045260246000fd5b6000613099826127ea565b91506130a4836127ea565b9250828210156130b7576130b661305f565b5b828203905092915050565b7f4e487b7100000000000000000000000000000000000000000000000000000000600052603260045260246000fd5b60006130fc826127ea565b91507fffffffffffffffffffffffffffffffffffffffffffffffffffffffffffffffff820361312e5761312d61305f565b5b600182019050919050565b7f4372656174652041756374696f6e3a0000000000000000000000000000000000600082015250565b600061316f600f83612ba8565b915061317a82613139565b602082019050919050565b6000604082019050818103600083015261319e81613162565b90506131ad6020830184612ac0565b92915050565b7f4e487b7100000000000000000000000000000000000000000000000000000000600052602260045260246000fd5b600060028204905060018216806131fa57607f821691505b60208210810361320d5761320c6131b3565b5b50919050565b7f4c27656e6368657265206e27612070617320656e636f726520636f6d6d656e6360008201527f6500000000000000000000000000000000000000000000000000000000000000602082015250565b600061326f602183612ba8565b915061327a82613213565b604082019050919050565b6000602082019050818103600083015261329e81613262565b9050919050565b60006132b0826127ea565b91506132bb836127ea565b9250827fffffffffffffffffffffffffffffffffffffffffffffffffffffffffffffffff038211156132f0576132ef61305f565b5b828201905092915050565b7f4c27656e636865726520657374207465726d696e656500000000000000000000600082015250565b6000613331601683612ba8565b915061333c826132fb565b602082019050919050565b6000602082019050818103600083015261336081613324565b9050919050565b7f496e646578206465732061727469636c657320696e76616c6964650000000000600082015250565b600061339d601b83612ba8565b91506133a882613367565b602082019050919050565b600060208201905081810360008301526133cc81613390565b9050919050565b7f4c2761727469636c65206573742064656a61206665726d650000000000000000600082015250565b6000613409601883612ba8565b9150613414826133d3565b602082019050919050565b60006020820190508181036000830152613438816133fc565b9050919050565b7f4c65206d6f6e74616e74206465206c27656e636865726520646f69742065747260008201527f65207375706572696575722061207a65726f0000000000000000000000000000602082015250565b600061349b603283612ba8565b91506134a68261343f565b604082019050919050565b600060208201905081810360008301526134ca8161348e565b9050919050565b600081905092915050565b7f4c65206d6f6e74616e74206465206c27656e63686572652065737420696e666560008201527f726965757220617520707269782061637475656c2074696d653a200000000000602082015250565b6000613538603b836134d1565b9150613543826134dc565b603b82019050919050565b600061355982612888565b61356381856134d1565b93506135738185602086016128a4565b80840191505092915050565b7f207374617274203a200000000000000000000000000000000000000000000000600082015250565b60006135b56009836134d1565b91506135c08261357f565b600982019050919050565b60006135d68261352b565b91506135e2828561354e565b91506135ed826135a8565b91506135f9828461354e565b91508190509392505050565b6000602082019050818103600083015261361f8184612bb9565b905092915050565b7f546f7573206c65732061727469636c6573206f6e74206574652076656e64757360008201527f2061757820656e63686572657300000000000000000000000000000000000000602082015250565b6000613683602d83612ba8565b915061368e82613627565b604082019050919050565b600060208201905081810360008301526136b281613676565b9050919050565b7f4e487b7100000000000000000000000000000000000000000000000000000000600052601260045260246000fd5b60006136f3826127ea565b91506136fe836127ea565b92508261370e5761370d6136b9565b5b828204905092915050565b6000613724826127ea565b915061372f836127ea565b9250817fffffffffffffffffffffffffffffffffffffffffffffffffffffffffffffffff04831182151516156137685761376761305f565b5b82820290509291505056fea2646970667358221220155d9d7550467049dc4b4a2eed8233a71ff0cb0b1ccca4d5fb61c11e95247b9d64736f6c634300080d0033",
  "immutableReferences": {},
  "source": "// SPDX-License-Identifier: MIT\npragma solidity ^0.8.0;\nimport \"@openzeppelin/contracts/utils/Strings.sol\";\n\ncontract DutchAuction {\n    using Strings for uint256;\n    uint public constant AUCTION_DURATION = 3600 seconds; // Duration de l'enchere => 1 heure\n    uint public constant STARTING_PRICE = 1 ether; // On declare le prix de debut  1 ether\n    uint public constant PRICE_DECREMENT = 0.1 ether;\n    uint public constant RESERVE_PRICE = 0.2 ether;\n    uint public constant INTERVAL = 50 seconds;\n    uint public startBlock;\n\n    /** Creation d'une sctructure pour l'article\n    Lequel aura un nom, un prix, un gagnant et un status pour savoir s'il est ferm  */\n    struct Article { uint id; string name; uint currentPrice; address winningBidder; bool closed; uint bought; uint boughtFor; }\n    struct Auction { uint id; string name; uint currentArticleIndex; address auctioneer; Article[] articles; uint auctionStartTime; uint startTimeCurrentAuction; }\n\n    Auction[] public auctions;\n\n    event Log(string message, uint value);\n    event BidPlaced(uint indexed articleIndex, address indexed bidder, uint amount);\n\n    /*modifier onlyAuctioneer() {\n        require(msg.sender == auctioneer, \"Seul le auctioneer peut appeler cette fonction\");\n        _;\n    }*/\n\n    modifier auctionOpen(uint auctionIndex) {\n        require(block.timestamp >= auctions[auctionIndex].auctionStartTime, \"L'enchere n'a pas encore commence\");\n        require(block.timestamp < auctions[auctionIndex].auctionStartTime + AUCTION_DURATION, \"L'enchere est terminee\");\n        _;\n    }\n\n    modifier articleOpen(uint articleIndex, uint auctionIndex) {\n        require(articleIndex < auctions[auctionIndex].articles.length, \"Index des articles invalide\");\n        require(!auctions[auctionIndex].articles[articleIndex].closed, \"L'article est deja ferme\");\n        _;\n    }\n\n    constructor() {\n        startBlock = block.number;\n        emit Log(\"CreateContract:\", block.timestamp);\n\n        // Creation de deux encheres par default\n        string[] memory s = new string[](4);\n        s[0] = \"Article 1\";\n        s[1] = \"Article 2\";\n        s[2] = \"Article 3\";\n        s[3] = \"Article 4\";\n        createAuction(\"Auction 1\", s);\n        \n        string[] memory s2 = new string[](3);\n        s2[0] = \"Chemise\";\n        s2[1] = \"PC\";\n        s2[2] = \"Valise\";\n        createAuction(\"Auction 2\", s2);\n    }\n\n    function getArticles(uint auctionIndex) public view returns (Article[] memory) {\n        return auctions[auctionIndex].articles;\n    }\n\n    function getCurrentArticle(uint auctionIndex) public view returns (Article memory) {\n        return auctions[auctionIndex].articles[ auctions[auctionIndex].currentArticleIndex ];\n    }\n\n    function getArticleNames(uint auctionIndex) public view returns (string[] memory) {\n        string[] memory articleNames = new string[](auctions[auctionIndex].articles.length);\n\n        for (uint i = 0; i < auctions[auctionIndex].articles.length; i++) {\n            articleNames[i] = auctions[auctionIndex].articles[i].name;\n        }\n\n        return articleNames;\n    }\n\n    function getOpenArticles(uint auctionIndex) public view returns (Article[] memory) {\n        uint openArticleCount = 0;\n\n        // Compter le nombre d'articles ouverts\n        for (uint i = 0; i < auctions[auctionIndex].articles.length; i++) {\n            if (!auctions[auctionIndex].articles[i].closed) {\n                openArticleCount++;\n            }\n        }\n\n        // Crer un tableau de la taille approprie pour les articles ouverts\n        Article[] memory openArticles = new Article[](openArticleCount);\n\n        // Remplir le tableau avec les articles ouverts\n        uint index = 0;\n        for (uint i = 0; i < auctions[auctionIndex].articles.length; i++) {\n            if (!auctions[auctionIndex].articles[i].closed) {\n                openArticles[index] = auctions[auctionIndex].articles[i];\n                index++;\n            }\n        }\n\n        return openArticles;\n    }\n\n    function getClosedArticles(uint auctionIndex) public view returns (Article[] memory) {\n        uint closedArticleCount = 0;\n        Auction memory auction = auctions[auctionIndex];\n        // Compter le nombre d'articles ouverts\n        for (uint i = 0; i < auction.articles.length; i++) {\n            if (auction.articles[i].closed) {\n                closedArticleCount++;\n            }\n        }\n\n        // Crer un tableau de la taille approprie pour les articles ouverts\n        Article[] memory closedArticles = new Article[](closedArticleCount);\n\n        // Remplir le tableau avec les articles ouverts\n        uint index = 0;\n        for (uint i = 0; i < auction.articles.length; i++) {\n            if (auction.articles[i].closed) {\n                closedArticles[index] = auction.articles[i];\n                index++;\n            }\n        }\n\n        return closedArticles;\n    }\n\n    function getCurrentPrice( uint auctionIndex ) public view returns (uint) {\n        uint elapsedTime = getElapsedTime( auctionIndex );\n        uint decrements = elapsedTime / INTERVAL; // Diminue le prix toutes les 60 secondes\n        uint currentPrice = STARTING_PRICE - (PRICE_DECREMENT * decrements);\n        return currentPrice > RESERVE_PRICE ? currentPrice : RESERVE_PRICE;\n    }\n\n    function getStartTime(uint auctionIndex) public view returns (uint) {\n        return auctions[auctionIndex].startTimeCurrentAuction;\n    }\n    \n    function getElapsedTime(uint auctionIndex) public view returns (uint) {\n        return getTimeStamp() - auctions[auctionIndex].startTimeCurrentAuction;\n    }\n\n    function getTimeStamp() public view returns (uint) {\n        uint tmp = block.timestamp;\n        return tmp;\n    }\n\n    function getAuctions() public view returns (Auction[] memory) {\n        return auctions;\n    }\n\n    /**\n     * Obtenir l'enchere par id (index)\n     */\n    function getAuction(uint id) public view returns (Auction memory) {\n        return auctions[id];\n    }\n\n    /**\n        Placer une offre \n     */\n    function placeBid(uint articleIndex, uint auctionIndex) external payable auctionOpen(auctionIndex) articleOpen(articleIndex, auctionIndex) {\n    //function placeBid(uint articleIndex, uint auctionIndex) external payable {\n        require(msg.value > 0, \"Le montant de l'enchere doit etre superieur a zero\");\n\n        uint currentPrice = getCurrentPrice( auctionIndex );\n        //require(msg.value >= currentPrice, \"Le montant de l'enchere est inferieur au prix actuel\");\n        require(msg.value >= currentPrice, string(abi.encodePacked(\"Le montant de l'enchere est inferieur au prix actuel time: \", block.timestamp.toString(), ' start : ', auctions[auctionIndex].auctionStartTime.toString())));\n\n\n        //  Si la valeur est > 0 et plus que le prix actuel on etabli le gagnant et on ferme l'article\n        uint now_place = block.timestamp;\n        \n        auctions[auctionIndex].articles[articleIndex].winningBidder = msg.sender;\n        auctions[auctionIndex].articles[articleIndex].closed = true;\n        auctions[auctionIndex].articles[articleIndex].bought = now_place;\n        auctions[auctionIndex].articles[articleIndex].boughtFor = msg.value;\n        auctions[auctionIndex].currentArticleIndex++;\n        require(auctions[auctionIndex].currentArticleIndex < auctions[auctionIndex].articles.length - 1, \"Tous les articles ont ete vendus aux encheres\");\n        auctions[auctionIndex].startTimeCurrentAuction = now_place;\n\n        emit BidPlaced(articleIndex, msg.sender, msg.value);\n    }\n\n    /**\n        Creer un enchere\n     */\n    /*function createAuction(string memory name, string[] memory  articles ) external {\n        uint id = auctions.length;\n        address auctioneer = msg.sender;\n        uint auctionStartTime = block.timestamp;\n        uint startTimeCurrentAuction = auctionStartTime;\n        Article[] storage articlesFinal = auctions[id].articles;\n\n\n        for (uint i = 0; i < articles.length; i++) {\n            articlesFinal.push(Article( i, articles[i], STARTING_PRICE, address(0), false, 0, 0 ether ));\n        }\n\n        auctions.push(Auction(id, name, 0, auctioneer, articlesFinal, auctionStartTime, startTimeCurrentAuction));\n        emit Log(\"Create Auction:\", auctionStartTime);\n    }*/\n\n    function createAuction(string memory name, string[] memory articles) public {\n        uint id = auctions.length;\n        address auctioneer = msg.sender;\n        uint auctionStartTime = block.timestamp;\n        uint startTimeCurrentAuction = auctionStartTime;\n\n        // Crer une nouvelle instance d'Auction avec des valeurs par dfaut\n        Auction storage newAuction = auctions.push();\n        newAuction.id = id;\n        newAuction.name = name;\n        newAuction.auctioneer = auctioneer;\n        newAuction.auctionStartTime = auctionStartTime;\n        newAuction.startTimeCurrentAuction = startTimeCurrentAuction;\n\n        // Ajouter chaque lment du tableau d'articles en mmoire au tableau en stockage\n        for (uint i = 1; i <= articles.length; i++) {\n            newAuction.articles.push(Article( i, articles[i-1], STARTING_PRICE, address(0), false, 0, 0 ether ));\n        }\n\n        emit Log(\"Create Auction:\", auctionStartTime);\n    }\n\n}\n",
  "sourcePath": "/home/iwocs/Desktop/MASTER/BlockChain/Dutch/dutch-auction/contracts/DutchAuction.sol",
  "compiler": {
    "name": "solc",
    "version": "0.8.13+commit.abaa5c0e.Emscripten.clang"
  },
  "schemaVersion": "3.4.16",
  "updatedAt": "2024-01-28T20:33:51.072Z",
  "networkType": "ethereum",
  "devdoc": {
    "kind": "dev",
    "methods": {},
    "version": 1
  },
  "userdoc": {
    "kind": "user",
    "methods": {
      "createAuction(string,string[])": {
        "notice": "Creer un enchere"
      },
      "getAuction(uint256)": {
        "notice": "Obtenir l'enchere par id (index)"
      },
      "placeBid(uint256,uint256)": {
        "notice": "Placer une offre "
      }
    },
    "version": 1
  }
}